{
  "contractName": "BidContract",
  "abi": [
    {
      "inputs": [
        {
          "internalType": "contract TenderContract",
          "name": "_tenderRef",
          "type": "address"
        }
      ],
      "stateMutability": "nonpayable",
      "type": "constructor"
    },
    {
      "inputs": [
        {
          "internalType": "uint256",
          "name": "",
          "type": "uint256"
        }
      ],
      "name": "bids",
      "outputs": [
        {
          "internalType": "uint256",
          "name": "bidId",
          "type": "uint256"
        },
        {
          "internalType": "string",
          "name": "bidClause",
          "type": "string"
        },
        {
          "internalType": "uint256",
          "name": "quotedAmount",
          "type": "uint256"
        },
        {
          "internalType": "address",
          "name": "bidderAddress",
          "type": "address"
        },
        {
          "internalType": "uint256",
          "name": "tenderId",
          "type": "uint256"
        },
        {
          "internalType": "enum BidContract.BidStatus",
          "name": "bidStatus",
          "type": "uint8"
        },
        {
          "internalType": "uint256",
          "name": "createdAt",
          "type": "uint256"
        },
        {
          "internalType": "bool",
          "name": "isExists",
          "type": "bool"
        }
      ],
      "stateMutability": "view",
      "type": "function"
    },
    {
      "inputs": [],
      "name": "tenderRef",
      "outputs": [
        {
          "internalType": "contract TenderContract",
          "name": "",
          "type": "address"
        }
      ],
      "stateMutability": "view",
      "type": "function"
    },
    {
      "inputs": [
        {
          "internalType": "uint256",
          "name": "_bidId",
          "type": "uint256"
        }
      ],
      "name": "getBidderAddress",
      "outputs": [
        {
          "internalType": "address",
          "name": "",
          "type": "address"
        }
      ],
      "stateMutability": "view",
      "type": "function"
    },
    {
      "inputs": [
        {
          "internalType": "address",
          "name": "_bidderAddress",
          "type": "address"
        },
        {
          "internalType": "uint256",
          "name": "_tenderId",
          "type": "uint256"
        },
        {
          "internalType": "string",
          "name": "_bidClause",
          "type": "string"
        },
        {
          "internalType": "uint256",
          "name": "_quotedAmount",
          "type": "uint256"
        }
      ],
      "name": "createBid",
      "outputs": [],
      "stateMutability": "nonpayable",
      "type": "function"
    },
    {
      "inputs": [
        {
          "internalType": "address",
          "name": "_partyAddress",
          "type": "address"
        },
        {
          "internalType": "uint256",
          "name": "_tenderId",
          "type": "uint256"
        },
        {
          "internalType": "uint256",
          "name": "_bidId",
          "type": "uint256"
        }
      ],
      "name": "getBidDetails",
      "outputs": [
        {
          "components": [
            {
              "internalType": "uint256",
              "name": "bidId",
              "type": "uint256"
            },
            {
              "internalType": "string",
              "name": "bidClause",
              "type": "string"
            },
            {
              "internalType": "uint256",
              "name": "quotedAmount",
              "type": "uint256"
            },
            {
              "internalType": "address",
              "name": "bidderAddress",
              "type": "address"
            },
            {
              "internalType": "uint256",
              "name": "tenderId",
              "type": "uint256"
            },
            {
              "internalType": "enum BidContract.BidStatus",
              "name": "bidStatus",
              "type": "uint8"
            },
            {
              "internalType": "uint256",
              "name": "createdAt",
              "type": "uint256"
            },
            {
              "internalType": "bool",
              "name": "isExists",
              "type": "bool"
            }
          ],
          "internalType": "struct BidContract.Bid",
          "name": "",
          "type": "tuple"
        }
      ],
      "stateMutability": "view",
      "type": "function"
    },
    {
      "inputs": [
        {
          "internalType": "address",
          "name": "_bidderAddress",
          "type": "address"
        }
      ],
      "name": "getMyBids",
      "outputs": [
        {
          "components": [
            {
              "internalType": "uint256",
              "name": "bidId",
              "type": "uint256"
            },
            {
              "internalType": "string",
              "name": "bidClause",
              "type": "string"
            },
            {
              "internalType": "uint256",
              "name": "quotedAmount",
              "type": "uint256"
            },
            {
              "internalType": "address",
              "name": "bidderAddress",
              "type": "address"
            },
            {
              "internalType": "uint256",
              "name": "tenderId",
              "type": "uint256"
            },
            {
              "internalType": "enum BidContract.BidStatus",
              "name": "bidStatus",
              "type": "uint8"
            },
            {
              "internalType": "uint256",
              "name": "createdAt",
              "type": "uint256"
            },
            {
              "internalType": "bool",
              "name": "isExists",
              "type": "bool"
            }
          ],
          "internalType": "struct BidContract.Bid[]",
          "name": "",
          "type": "tuple[]"
        },
        {
          "internalType": "uint256",
          "name": "",
          "type": "uint256"
        }
      ],
      "stateMutability": "view",
      "type": "function"
    },
    {
      "inputs": [
        {
          "internalType": "address",
          "name": "_partyAddress",
          "type": "address"
        },
        {
          "internalType": "uint256",
          "name": "_tenderId",
          "type": "uint256"
        }
      ],
      "name": "getAllBids",
      "outputs": [
        {
          "components": [
            {
              "internalType": "uint256",
              "name": "bidId",
              "type": "uint256"
            },
            {
              "internalType": "string",
              "name": "bidClause",
              "type": "string"
            },
            {
              "internalType": "uint256",
              "name": "quotedAmount",
              "type": "uint256"
            },
            {
              "internalType": "address",
              "name": "bidderAddress",
              "type": "address"
            },
            {
              "internalType": "uint256",
              "name": "tenderId",
              "type": "uint256"
            },
            {
              "internalType": "enum BidContract.BidStatus",
              "name": "bidStatus",
              "type": "uint8"
            },
            {
              "internalType": "uint256",
              "name": "createdAt",
              "type": "uint256"
            },
            {
              "internalType": "bool",
              "name": "isExists",
              "type": "bool"
            }
          ],
          "internalType": "struct BidContract.Bid[]",
          "name": "",
          "type": "tuple[]"
        }
      ],
      "stateMutability": "view",
      "type": "function"
    },
    {
      "inputs": [
        {
          "internalType": "address",
          "name": "_partyAddress",
          "type": "address"
        },
        {
          "internalType": "uint256",
          "name": "_tenderId",
          "type": "uint256"
        },
        {
          "internalType": "uint256",
          "name": "_bidAddress",
          "type": "uint256"
        },
        {
          "internalType": "enum BidContract.BidStatus",
          "name": "_bidStatus",
          "type": "uint8"
        }
      ],
      "name": "updateBidStatus",
      "outputs": [],
      "stateMutability": "nonpayable",
      "type": "function"
    },
    {
      "inputs": [
        {
          "internalType": "address",
          "name": "_bidderAddress",
          "type": "address"
        },
        {
          "internalType": "uint256",
          "name": "_bidId",
          "type": "uint256"
        },
        {
          "internalType": "string",
          "name": "_bidClause",
          "type": "string"
        },
        {
          "internalType": "uint256",
          "name": "_quotedAmount",
          "type": "uint256"
        }
      ],
      "name": "updateBid",
      "outputs": [],
      "stateMutability": "nonpayable",
      "type": "function"
    },
    {
      "inputs": [
        {
          "internalType": "address",
          "name": "_bidderAddress",
          "type": "address"
        },
        {
          "internalType": "uint256",
          "name": "_tenderId",
          "type": "uint256"
        },
        {
          "internalType": "uint256",
          "name": "_bidId",
          "type": "uint256"
        }
      ],
      "name": "deleteBid",
      "outputs": [],
      "stateMutability": "nonpayable",
      "type": "function"
    },
    {
      "inputs": [
        {
          "internalType": "address",
          "name": "_partyAddress",
          "type": "address"
        },
        {
          "internalType": "uint256",
          "name": "_tenderId",
          "type": "uint256"
        }
      ],
      "name": "selectTopBids",
      "outputs": [
        {
          "components": [
            {
              "internalType": "uint256",
              "name": "bidId",
              "type": "uint256"
            },
            {
              "internalType": "string",
              "name": "bidClause",
              "type": "string"
            },
            {
              "internalType": "uint256",
              "name": "quotedAmount",
              "type": "uint256"
            },
            {
              "internalType": "address",
              "name": "bidderAddress",
              "type": "address"
            },
            {
              "internalType": "uint256",
              "name": "tenderId",
              "type": "uint256"
            },
            {
              "internalType": "enum BidContract.BidStatus",
              "name": "bidStatus",
              "type": "uint8"
            },
            {
              "internalType": "uint256",
              "name": "createdAt",
              "type": "uint256"
            },
            {
              "internalType": "bool",
              "name": "isExists",
              "type": "bool"
            }
          ],
          "internalType": "struct BidContract.Bid[]",
          "name": "",
          "type": "tuple[]"
        }
      ],
      "stateMutability": "view",
      "type": "function"
    },
    {
      "inputs": [
        {
          "internalType": "address",
          "name": "_partyAddress",
          "type": "address"
        },
        {
          "internalType": "uint256",
          "name": "_tenderId",
          "type": "uint256"
        },
        {
          "internalType": "uint256",
          "name": "_bidId",
          "type": "uint256"
        }
      ],
      "name": "finaliseWinnerBid",
      "outputs": [],
      "stateMutability": "nonpayable",
      "type": "function"
    }
  ],
  "bytecode": "0x608060405260006001553480156200001657600080fd5b5060405162003bdc38038062003bdc83398181016040528101906200003c919062000102565b80600260006101000a81548173ffffffffffffffffffffffffffffffffffffffff021916908373ffffffffffffffffffffffffffffffffffffffff1602179055505062000134565b600080fd5b600073ffffffffffffffffffffffffffffffffffffffff82169050919050565b6000620000b68262000089565b9050919050565b6000620000ca82620000a9565b9050919050565b620000dc81620000bd565b8114620000e857600080fd5b50565b600081519050620000fc81620000d1565b92915050565b6000602082840312156200011b576200011a62000084565b5b60006200012b84828501620000eb565b91505092915050565b613a9880620001446000396000f3fe608060405234801561001057600080fd5b50600436106100b45760003560e01c80638d5b8612116100715780638d5b8612146101a4578063bb693c4d146101c2578063eac24737146101de578063ebc25fa61461020e578063f91b6ae51461023f578063fd140a951461025b576100b4565b8063167548c5146100b957806326b26e56146100d55780634423c5f1146100f15780635fa382801461012857806361281516146101585780636dc4d10c14610188575b600080fd5b6100d360048036038101906100ce91906127c3565b61028b565b005b6100ef60048036038101906100ea9190612846565b610452565b005b61010b60048036038101906101069190612899565b610735565b60405161011f9897969594939291906129fe565b60405180910390f35b610142600480360381019061013d9190612899565b61083f565b60405161014f9190612a83565b60405180910390f35b610172600480360381019061016d9190612a9e565b61087e565b60405161017f9190612cd6565b60405180910390f35b6101a2600480360381019061019d9190612d1d565b610ceb565b005b6101ac610e47565b6040516101b99190612de3565b60405180910390f35b6101dc60048036038101906101d79190612846565b610e6d565b005b6101f860048036038101906101f39190612846565b61122e565b6040516102059190612eae565b60405180910390f35b61022860048036038101906102239190612ed0565b61159b565b604051610236929190612efd565b60405180910390f35b610259600480360381019061025491906127c3565b6119b7565b005b61027560048036038101906102709190612a9e565b612008565b6040516102829190612cd6565b60405180910390f35b83838173ffffffffffffffffffffffffffffffffffffffff1660008083815260200190815260200160002060030160009054906101000a900473ffffffffffffffffffffffffffffffffffffffff1673ffffffffffffffffffffffffffffffffffffffff1614610330576040517f08c379a000000000000000000000000000000000000000000000000000000000815260040161032790612f9f565b60405180910390fd5b60008060008781526020019081526020016000206002015411610388576040517f08c379a000000000000000000000000000000000000000000000000000000000815260040161037f9061300b565b60405180910390fd5b6000600381111561039c5761039b61296c565b5b60008087815260200190815260200160002060050160009054906101000a900460ff1660038111156103d1576103d061296c565b5b14610411576040517f08c379a000000000000000000000000000000000000000000000000000000000815260040161040890613077565b60405180910390fd5b600080600087815260200190815260200160002090508481600101908051906020019061043f9291906124c3565b5083816002018190555050505050505050565b82826000600260009054906101000a900473ffffffffffffffffffffffffffffffffffffffff1673ffffffffffffffffffffffffffffffffffffffff16637e4d2d97836040518263ffffffff1660e01b81526004016104b19190613097565b602060405180830381865afa1580156104ce573d6000803e3d6000fd5b505050506040513d601f19601f820116820180604052508101906104f291906130c7565b90508273ffffffffffffffffffffffffffffffffffffffff168173ffffffffffffffffffffffffffffffffffffffff1614610562576040517f08c379a000000000000000000000000000000000000000000000000000000000815260040161055990612f9f565b60405180910390fd5b6000600260009054906101000a900473ffffffffffffffffffffffffffffffffffffffff1673ffffffffffffffffffffffffffffffffffffffff166342222a43876040518263ffffffff1660e01b81526004016105bf9190613097565b600060405180830381865afa1580156105dc573d6000803e3d6000fd5b505050506040513d6000823e3d601f19601f8201168201806040525081019061060591906131d1565b905060005b815181101561069b57858282815181106106275761062661321a565b5b6020026020010151036106605761065b888884848151811061064c5761064b61321a565b5b60200260200101516002610ceb565b610688565b61068788888484815181106106785761067761321a565b5b60200260200101516001610ceb565b5b808061069390613278565b91505061060a565b50600260009054906101000a900473ffffffffffffffffffffffffffffffffffffffff1673ffffffffffffffffffffffffffffffffffffffff1663aaaf41888760046040518363ffffffff1660e01b81526004016106fa929190613308565b600060405180830381600087803b15801561071457600080fd5b505af1158015610728573d6000803e3d6000fd5b5050505050505050505050565b600060205280600052604060002060009150905080600001549080600101805461075e90613360565b80601f016020809104026020016040519081016040528092919081815260200182805461078a90613360565b80156107d75780601f106107ac576101008083540402835291602001916107d7565b820191906000526020600020905b8154815290600101906020018083116107ba57829003601f168201915b5050505050908060020154908060030160009054906101000a900473ffffffffffffffffffffffffffffffffffffffff16908060040154908060050160009054906101000a900460ff16908060060154908060070160009054906101000a900460ff16905088565b600080600083815260200190815260200160002060030160009054906101000a900473ffffffffffffffffffffffffffffffffffffffff169050919050565b606082826000600260009054906101000a900473ffffffffffffffffffffffffffffffffffffffff1673ffffffffffffffffffffffffffffffffffffffff16637e4d2d97836040518263ffffffff1660e01b81526004016108df9190613097565b602060405180830381865afa1580156108fc573d6000803e3d6000fd5b505050506040513d601f19601f8201168201806040525081019061092091906130c7565b90508273ffffffffffffffffffffffffffffffffffffffff168173ffffffffffffffffffffffffffffffffffffffff1614610990576040517f08c379a000000000000000000000000000000000000000000000000000000000815260040161098790612f9f565b60405180910390fd5b6000600260009054906101000a900473ffffffffffffffffffffffffffffffffffffffff1673ffffffffffffffffffffffffffffffffffffffff166342222a43876040518263ffffffff1660e01b81526004016109ed9190613097565b600060405180830381865afa158015610a0a573d6000803e3d6000fd5b505050506040513d6000823e3d601f19601f82011682018060405250810190610a3391906131d1565b90506000815111610a79576040517f08c379a0000000000000000000000000000000000000000000000000000000008152600401610a70906133dd565b60405180910390fd5b6000815167ffffffffffffffff811115610a9657610a95612698565b5b604051908082528060200260200182016040528015610acf57816020015b610abc612549565b815260200190600190039081610ab45790505b50905060005b8251811015610cdc576001151560008083815260200190815260200160002060070160009054906101000a900460ff16151503610cc957600080848381518110610b2257610b2161321a565b5b602002602001015181526020019081526020016000206040518061010001604052908160008201548152602001600182018054610b5e90613360565b80601f0160208091040260200160405190810160405280929190818152602001828054610b8a90613360565b8015610bd75780601f10610bac57610100808354040283529160200191610bd7565b820191906000526020600020905b815481529060010190602001808311610bba57829003601f168201915b50505050508152602001600282015481526020016003820160009054906101000a900473ffffffffffffffffffffffffffffffffffffffff1673ffffffffffffffffffffffffffffffffffffffff1673ffffffffffffffffffffffffffffffffffffffff168152602001600482015481526020016005820160009054906101000a900460ff166003811115610c6f57610c6e61296c565b5b6003811115610c8157610c8061296c565b5b8152602001600682015481526020016007820160009054906101000a900460ff161515151581525050828281518110610cbd57610cbc61321a565b5b60200260200101819052505b8080610cd490613278565b915050610ad5565b50809550505050505092915050565b83836000600260009054906101000a900473ffffffffffffffffffffffffffffffffffffffff1673ffffffffffffffffffffffffffffffffffffffff16637e4d2d97836040518263ffffffff1660e01b8152600401610d4a9190613097565b602060405180830381865afa158015610d67573d6000803e3d6000fd5b505050506040513d601f19601f82011682018060405250810190610d8b91906130c7565b90508273ffffffffffffffffffffffffffffffffffffffff168173ffffffffffffffffffffffffffffffffffffffff1614610dfb576040517f08c379a0000000000000000000000000000000000000000000000000000000008152600401610df290612f9f565b60405180910390fd5b60008060008781526020019081526020016000209050848160050160006101000a81548160ff02191690836003811115610e3857610e3761296c565b5b02179055505050505050505050565b600260009054906101000a900473ffffffffffffffffffffffffffffffffffffffff1681565b82818173ffffffffffffffffffffffffffffffffffffffff1660008083815260200190815260200160002060030160009054906101000a900473ffffffffffffffffffffffffffffffffffffffff1673ffffffffffffffffffffffffffffffffffffffff1614610f12576040517f08c379a0000000000000000000000000000000000000000000000000000000008152600401610f0990612f9f565b60405180910390fd5b6000600260009054906101000a900473ffffffffffffffffffffffffffffffffffffffff1673ffffffffffffffffffffffffffffffffffffffff166342222a43866040518263ffffffff1660e01b8152600401610f6f9190613097565b600060405180830381865afa158015610f8c573d6000803e3d6000fd5b505050506040513d6000823e3d601f19601f82011682018060405250810190610fb591906131d1565b90506000815111610ffb576040517f08c379a0000000000000000000000000000000000000000000000000000000008152600401610ff2906133dd565b60405180910390fd5b60008060008681526020019081526020016000206002015411611053576040517f08c379a000000000000000000000000000000000000000000000000000000000815260040161104a9061300b565b60405180910390fd5b600060038111156110675761106661296c565b5b60008086815260200190815260200160002060050160009054906101000a900460ff16600381111561109c5761109b61296c565b5b146110dc576040517f08c379a00000000000000000000000000000000000000000000000000000000081526004016110d390613449565b60405180910390fd5b600080600086815260200190815260200160002060070160006101000a81548160ff02191690831515021790555060005b8151811015611225578482828151811061112a5761112961321a565b5b6020026020010151036112125781600183516111469190613469565b815181106111575761115661321a565b5b60200260200101518282815181106111725761117161321a565b5b602002602001018181525050600260009054906101000a900473ffffffffffffffffffffffffffffffffffffffff1673ffffffffffffffffffffffffffffffffffffffff1663897bb97983886040518363ffffffff1660e01b81526004016111db92919061354c565b600060405180830381600087803b1580156111f557600080fd5b505af1158015611209573d6000803e3d6000fd5b50505050611225565b808061121d90613278565b91505061110d565b50505050505050565b611236612549565b8383836000600260009054906101000a900473ffffffffffffffffffffffffffffffffffffffff1673ffffffffffffffffffffffffffffffffffffffff16637e4d2d97846040518263ffffffff1660e01b81526004016112969190613097565b602060405180830381865afa1580156112b3573d6000803e3d6000fd5b505050506040513d601f19601f820116820180604052508101906112d791906130c7565b90508373ffffffffffffffffffffffffffffffffffffffff1660008084815260200190815260200160002060030160009054906101000a900473ffffffffffffffffffffffffffffffffffffffff1673ffffffffffffffffffffffffffffffffffffffff16148061137357508373ffffffffffffffffffffffffffffffffffffffff168173ffffffffffffffffffffffffffffffffffffffff16145b6113b2576040517f08c379a00000000000000000000000000000000000000000000000000000000081526004016113a9906135ee565b60405180910390fd5b6000806000888152602001908152602001600020600201541161140a576040517f08c379a00000000000000000000000000000000000000000000000000000000081526004016114019061365a565b60405180910390fd5b600080878152602001908152602001600020604051806101000160405290816000820154815260200160018201805461144290613360565b80601f016020809104026020016040519081016040528092919081815260200182805461146e90613360565b80156114bb5780601f10611490576101008083540402835291602001916114bb565b820191906000526020600020905b81548152906001019060200180831161149e57829003601f168201915b50505050508152602001600282015481526020016003820160009054906101000a900473ffffffffffffffffffffffffffffffffffffffff1673ffffffffffffffffffffffffffffffffffffffff1673ffffffffffffffffffffffffffffffffffffffff168152602001600482015481526020016005820160009054906101000a900460ff1660038111156115535761155261296c565b5b60038111156115655761156461296c565b5b8152602001600682015481526020016007820160009054906101000a900460ff1615151515815250509450505050509392505050565b60606000828073ffffffffffffffffffffffffffffffffffffffff163373ffffffffffffffffffffffffffffffffffffffff161461160e576040517f08c379a0000000000000000000000000000000000000000000000000000000008152600401611605906136c6565b60405180910390fd5b600060015411611653576040517f08c379a000000000000000000000000000000000000000000000000000000000815260040161164a90613732565b60405180910390fd5b600080600260009054906101000a900473ffffffffffffffffffffffffffffffffffffffff1673ffffffffffffffffffffffffffffffffffffffff16635850b3836040518163ffffffff1660e01b8152600401602060405180830381865afa1580156116c3573d6000803e3d6000fd5b505050506040513d601f19601f820116820180604052508101906116e79190613752565b67ffffffffffffffff811115611700576116ff612698565b5b60405190808252806020026020018201604052801561173957816020015b611726612549565b81526020019060019003908161171e5790505b50905060005b6001548110156119a8576001151560008083815260200190815260200160002060070160009054906101000a900460ff1615151480156117df57508673ffffffffffffffffffffffffffffffffffffffff1660008083815260200190815260200160002060030160009054906101000a900473ffffffffffffffffffffffffffffffffffffffff1673ffffffffffffffffffffffffffffffffffffffff16145b156119955782806117ef90613278565b935050600080828152602001908152602001600020604051806101000160405290816000820154815260200160018201805461182a90613360565b80601f016020809104026020016040519081016040528092919081815260200182805461185690613360565b80156118a35780601f10611878576101008083540402835291602001916118a3565b820191906000526020600020905b81548152906001019060200180831161188657829003601f168201915b50505050508152602001600282015481526020016003820160009054906101000a900473ffffffffffffffffffffffffffffffffffffffff1673ffffffffffffffffffffffffffffffffffffffff1673ffffffffffffffffffffffffffffffffffffffff168152602001600482015481526020016005820160009054906101000a900460ff16600381111561193b5761193a61296c565b5b600381111561194d5761194c61296c565b5b8152602001600682015481526020016007820160009054906101000a900460ff1615151515815250508282815181106119895761198861321a565b5b60200260200101819052505b80806119a090613278565b91505061173f565b50808294509450505050915091565b600f600260009054906101000a900473ffffffffffffffffffffffffffffffffffffffff1673ffffffffffffffffffffffffffffffffffffffff16634008f9c0856040518263ffffffff1660e01b8152600401611a149190613097565b602060405180830381865afa158015611a31573d6000803e3d6000fd5b505050506040513d601f19601f82011682018060405250810190611a559190613752565b1115611a96576040517f08c379a0000000000000000000000000000000000000000000000000000000008152600401611a8d906137f1565b60405180910390fd5b6000600260009054906101000a900473ffffffffffffffffffffffffffffffffffffffff1673ffffffffffffffffffffffffffffffffffffffff16632e4ea4c4856040518263ffffffff1660e01b8152600401611af39190613097565b602060405180830381865afa158015611b10573d6000803e3d6000fd5b505050506040513d601f19601f82011682018060405250810190611b349190613752565b90506000600260009054906101000a900473ffffffffffffffffffffffffffffffffffffffff1673ffffffffffffffffffffffffffffffffffffffff1663354133f7866040518263ffffffff1660e01b8152600401611b939190613097565b602060405180830381865afa158015611bb0573d6000803e3d6000fd5b505050506040513d601f19601f82011682018060405250810190611bd49190613836565b90506000600260009054906101000a900473ffffffffffffffffffffffffffffffffffffffff1673ffffffffffffffffffffffffffffffffffffffff166382862275876040518263ffffffff1660e01b8152600401611c339190613097565b602060405180830381865afa158015611c50573d6000803e3d6000fd5b505050506040513d601f19601f82011682018060405250810190611c749190613752565b90506000600260009054906101000a900473ffffffffffffffffffffffffffffffffffffffff1673ffffffffffffffffffffffffffffffffffffffff16637e4d2d97886040518263ffffffff1660e01b8152600401611cd39190613097565b602060405180830381865afa158015611cf0573d6000803e3d6000fd5b505050506040513d601f19601f82011682018060405250810190611d1491906130c7565b905060008411611d59576040517f08c379a0000000000000000000000000000000000000000000000000000000008152600401611d50906138af565b60405180910390fd5b60016004811115611d6d57611d6c61296c565b5b836004811115611d8057611d7f61296c565b5b14611dc0576040517f08c379a0000000000000000000000000000000000000000000000000000000008152600401611db79061391b565b60405180910390fd5b814210611e02576040517f08c379a0000000000000000000000000000000000000000000000000000000008152600401611df990613987565b60405180910390fd5b8073ffffffffffffffffffffffffffffffffffffffff168873ffffffffffffffffffffffffffffffffffffffff1603611e70576040517f08c379a0000000000000000000000000000000000000000000000000000000008152600401611e6790613a19565b60405180910390fd5b600080600060015481526020019081526020016000209050600154816000018190555086816001019080519060200190611eab9291906124c3565b50858160020181905550888160030160006101000a81548173ffffffffffffffffffffffffffffffffffffffff021916908373ffffffffffffffffffffffffffffffffffffffff16021790555087816004018190555060008160050160006101000a81548160ff02191690836003811115611f2957611f2861296c565b5b021790555042816006018190555060018160070160006101000a81548160ff021916908315150217905550600260009054906101000a900473ffffffffffffffffffffffffffffffffffffffff1673ffffffffffffffffffffffffffffffffffffffff1663f1d8ef4d896001546040518363ffffffff1660e01b8152600401611fb3929190613a39565b600060405180830381600087803b158015611fcd57600080fd5b505af1158015611fe1573d6000803e3d6000fd5b5050505060016000815480929190611ff890613278565b9190505550505050505050505050565b606082826000600260009054906101000a900473ffffffffffffffffffffffffffffffffffffffff1673ffffffffffffffffffffffffffffffffffffffff16637e4d2d97836040518263ffffffff1660e01b81526004016120699190613097565b602060405180830381865afa158015612086573d6000803e3d6000fd5b505050506040513d601f19601f820116820180604052508101906120aa91906130c7565b90508273ffffffffffffffffffffffffffffffffffffffff168173ffffffffffffffffffffffffffffffffffffffff161461211a576040517f08c379a000000000000000000000000000000000000000000000000000000000815260040161211190612f9f565b60405180910390fd5b846000600260009054906101000a900473ffffffffffffffffffffffffffffffffffffffff1673ffffffffffffffffffffffffffffffffffffffff166382862275836040518263ffffffff1660e01b81526004016121789190613097565b602060405180830381865afa158015612195573d6000803e3d6000fd5b505050506040513d601f19601f820116820180604052508101906121b99190613752565b90506000600260009054906101000a900473ffffffffffffffffffffffffffffffffffffffff1673ffffffffffffffffffffffffffffffffffffffff1663354133f7846040518263ffffffff1660e01b81526004016122189190613097565b602060405180830381865afa158015612235573d6000803e3d6000fd5b505050506040513d601f19601f820116820180604052508101906122599190613836565b905081421015801561228f57506002600481111561227a5761227961296c565b5b81600481111561228d5761228c61296c565b5b145b61229857600080fd5b60006122a48a8a61087e565b905060008151116122ea576040517f08c379a00000000000000000000000000000000000000000000000000000000081526004016122e1906133dd565b60405180910390fd5b6000600190505b81518110156123e95760005b818110156123d5578281815181106123185761231761321a565b5b6020026020010151604001518383815181106123375761233661321a565b5b60200260200101516040015110156123c257600083838151811061235e5761235d61321a565b5b6020026020010151905083828151811061237b5761237a61321a565b5b60200260200101518484815181106123965761239561321a565b5b6020026020010181905250808483815181106123b5576123b461321a565b5b6020026020010181905250505b80806123cd90613278565b9150506122fd565b5080806123e190613278565b9150506122f1565b50600060058251106123fc5760056123ff565b81515b905060008167ffffffffffffffff81111561241d5761241c612698565b5b60405190808252806020026020018201604052801561245657816020015b612443612549565b81526020019060019003908161243b5790505b50905060005b828110156124b0578381815181106124775761247661321a565b5b60200260200101518282815181106124925761249161321a565b5b602002602001018190525080806124a890613278565b91505061245c565b5080995050505050505050505092915050565b8280546124cf90613360565b90600052602060002090601f0160209004810192826124f15760008555612538565b82601f1061250a57805160ff1916838001178555612538565b82800160010185558215612538579182015b8281111561253757825182559160200191906001019061251c565b5b50905061254591906125b8565b5090565b604051806101000160405280600081526020016060815260200160008152602001600073ffffffffffffffffffffffffffffffffffffffff16815260200160008152602001600060038111156125a2576125a161296c565b5b8152602001600081526020016000151581525090565b5b808211156125d15760008160009055506001016125b9565b5090565b6000604051905090565b600080fd5b600080fd5b600073ffffffffffffffffffffffffffffffffffffffff82169050919050565b6000612614826125e9565b9050919050565b61262481612609565b811461262f57600080fd5b50565b6000813590506126418161261b565b92915050565b6000819050919050565b61265a81612647565b811461266557600080fd5b50565b60008135905061267781612651565b92915050565b600080fd5b600080fd5b6000601f19601f8301169050919050565b7f4e487b7100000000000000000000000000000000000000000000000000000000600052604160045260246000fd5b6126d082612687565b810181811067ffffffffffffffff821117156126ef576126ee612698565b5b80604052505050565b60006127026125d5565b905061270e82826126c7565b919050565b600067ffffffffffffffff82111561272e5761272d612698565b5b61273782612687565b9050602081019050919050565b82818337600083830152505050565b600061276661276184612713565b6126f8565b90508281526020810184848401111561278257612781612682565b5b61278d848285612744565b509392505050565b600082601f8301126127aa576127a961267d565b5b81356127ba848260208601612753565b91505092915050565b600080600080608085870312156127dd576127dc6125df565b5b60006127eb87828801612632565b94505060206127fc87828801612668565b935050604085013567ffffffffffffffff81111561281d5761281c6125e4565b5b61282987828801612795565b925050606061283a87828801612668565b91505092959194509250565b60008060006060848603121561285f5761285e6125df565b5b600061286d86828701612632565b935050602061287e86828701612668565b925050604061288f86828701612668565b9150509250925092565b6000602082840312156128af576128ae6125df565b5b60006128bd84828501612668565b91505092915050565b6128cf81612647565b82525050565b600081519050919050565b600082825260208201905092915050565b60005b8381101561290f5780820151818401526020810190506128f4565b8381111561291e576000848401525b50505050565b600061292f826128d5565b61293981856128e0565b93506129498185602086016128f1565b61295281612687565b840191505092915050565b61296681612609565b82525050565b7f4e487b7100000000000000000000000000000000000000000000000000000000600052602160045260246000fd5b600481106129ac576129ab61296c565b5b50565b60008190506129bd8261299b565b919050565b60006129cd826129af565b9050919050565b6129dd816129c2565b82525050565b60008115159050919050565b6129f8816129e3565b82525050565b600061010082019050612a14600083018b6128c6565b8181036020830152612a26818a612924565b9050612a3560408301896128c6565b612a42606083018861295d565b612a4f60808301876128c6565b612a5c60a08301866129d4565b612a6960c08301856128c6565b612a7660e08301846129ef565b9998505050505050505050565b6000602082019050612a98600083018461295d565b92915050565b60008060408385031215612ab557612ab46125df565b5b6000612ac385828601612632565b9250506020612ad485828601612668565b9150509250929050565b600081519050919050565b600082825260208201905092915050565b6000819050602082019050919050565b612b1381612647565b82525050565b600082825260208201905092915050565b6000612b35826128d5565b612b3f8185612b19565b9350612b4f8185602086016128f1565b612b5881612687565b840191505092915050565b612b6c81612609565b82525050565b612b7b816129c2565b82525050565b612b8a816129e3565b82525050565b600061010083016000830151612ba96000860182612b0a565b5060208301518482036020860152612bc18282612b2a565b9150506040830151612bd66040860182612b0a565b506060830151612be96060860182612b63565b506080830151612bfc6080860182612b0a565b5060a0830151612c0f60a0860182612b72565b5060c0830151612c2260c0860182612b0a565b5060e0830151612c3560e0860182612b81565b508091505092915050565b6000612c4c8383612b90565b905092915050565b6000602082019050919050565b6000612c6c82612ade565b612c768185612ae9565b935083602082028501612c8885612afa565b8060005b85811015612cc45784840389528151612ca58582612c40565b9450612cb083612c54565b925060208a01995050600181019050612c8c565b50829750879550505050505092915050565b60006020820190508181036000830152612cf08184612c61565b905092915050565b60048110612d0557600080fd5b50565b600081359050612d1781612cf8565b92915050565b60008060008060808587031215612d3757612d366125df565b5b6000612d4587828801612632565b9450506020612d5687828801612668565b9350506040612d6787828801612668565b9250506060612d7887828801612d08565b91505092959194509250565b6000819050919050565b6000612da9612da4612d9f846125e9565b612d84565b6125e9565b9050919050565b6000612dbb82612d8e565b9050919050565b6000612dcd82612db0565b9050919050565b612ddd81612dc2565b82525050565b6000602082019050612df86000830184612dd4565b92915050565b600061010083016000830151612e176000860182612b0a565b5060208301518482036020860152612e2f8282612b2a565b9150506040830151612e446040860182612b0a565b506060830151612e576060860182612b63565b506080830151612e6a6080860182612b0a565b5060a0830151612e7d60a0860182612b72565b5060c0830151612e9060c0860182612b0a565b5060e0830151612ea360e0860182612b81565b508091505092915050565b60006020820190508181036000830152612ec88184612dfe565b905092915050565b600060208284031215612ee657612ee56125df565b5b6000612ef484828501612632565b91505092915050565b60006040820190508181036000830152612f178185612c61565b9050612f2660208301846128c6565b9392505050565b7f796f75277265206e6f7420617574686f72697a656420746f20706572666f726d60008201527f207468697320616374696f6e0000000000000000000000000000000000000000602082015250565b6000612f89602c836128e0565b9150612f9482612f2d565b604082019050919050565b60006020820190508181036000830152612fb881612f7c565b9050919050565b7f6269642077697468206164647265737320646f65736e27742065786973747300600082015250565b6000612ff5601f836128e0565b915061300082612fbf565b602082019050919050565b6000602082019050818103600083015261302481612fe8565b9050919050565b7f6269642063616e6e6f7420626520757064617465640000000000000000000000600082015250565b60006130616015836128e0565b915061306c8261302b565b602082019050919050565b6000602082019050818103600083015261309081613054565b9050919050565b60006020820190506130ac60008301846128c6565b92915050565b6000815190506130c18161261b565b92915050565b6000602082840312156130dd576130dc6125df565b5b60006130eb848285016130b2565b91505092915050565b600067ffffffffffffffff82111561310f5761310e612698565b5b602082029050602081019050919050565b600080fd5b60008151905061313481612651565b92915050565b600061314d613148846130f4565b6126f8565b905080838252602082019050602084028301858111156131705761316f613120565b5b835b8181101561319957806131858882613125565b845260208401935050602081019050613172565b5050509392505050565b600082601f8301126131b8576131b761267d565b5b81516131c884826020860161313a565b91505092915050565b6000602082840312156131e7576131e66125df565b5b600082015167ffffffffffffffff811115613205576132046125e4565b5b613211848285016131a3565b91505092915050565b7f4e487b7100000000000000000000000000000000000000000000000000000000600052603260045260246000fd5b7f4e487b7100000000000000000000000000000000000000000000000000000000600052601160045260246000fd5b600061328382612647565b91507fffffffffffffffffffffffffffffffffffffffffffffffffffffffffffffffff82036132b5576132b4613249565b5b600182019050919050565b600581106132d1576132d061296c565b5b50565b60008190506132e2826132c0565b919050565b60006132f2826132d4565b9050919050565b613302816132e7565b82525050565b600060408201905061331d60008301856128c6565b61332a60208301846132f9565b9392505050565b7f4e487b7100000000000000000000000000000000000000000000000000000000600052602260045260246000fd5b6000600282049050600182168061337857607f821691505b60208210810361338b5761338a613331565b5b50919050565b7f4e6f206269647320657869737473000000000000000000000000000000000000600082015250565b60006133c7600e836128e0565b91506133d282613391565b602082019050919050565b600060208201905081810360008301526133f6816133ba565b9050919050565b7f6269642063616e6e6f742062652064656c657465640000000000000000000000600082015250565b60006134336015836128e0565b915061343e826133fd565b602082019050919050565b6000602082019050818103600083015261346281613426565b9050919050565b600061347482612647565b915061347f83612647565b92508282101561349257613491613249565b5b828203905092915050565b600081519050919050565b600082825260208201905092915050565b6000819050602082019050919050565b60006134d58383612b0a565b60208301905092915050565b6000602082019050919050565b60006134f98261349d565b61350381856134a8565b935061350e836134b9565b8060005b8381101561353f57815161352688826134c9565b9750613531836134e1565b925050600181019050613512565b5085935050505092915050565b6000604082019050818103600083015261356681856134ee565b905061357560208301846128c6565b9392505050565b7f4e6f7420617574686f72697a656420746f20766965772062696420646574616960008201527f6c73000000000000000000000000000000000000000000000000000000000000602082015250565b60006135d86022836128e0565b91506135e38261357c565b604082019050919050565b60006020820190508181036000830152613607816135cb565b9050919050565b7f42696420646f6573206e6f742065786973740000000000000000000000000000600082015250565b60006136446012836128e0565b915061364f8261360e565b602082019050919050565b6000602082019050818103600083015261367381613637565b9050919050565b7f43616c6c6572206973206e6f74206f776e657200000000000000000000000000600082015250565b60006136b06013836128e0565b91506136bb8261367a565b602082019050919050565b600060208201905081810360008301526136df816136a3565b9050919050565b7f4e6f206269647320657869737400000000000000000000000000000000000000600082015250565b600061371c600d836128e0565b9150613727826136e6565b602082019050919050565b6000602082019050818103600083015261374b8161370f565b9050919050565b600060208284031215613768576137676125df565b5b600061377684828501613125565b91505092915050565b7f4d6178696d756d206269647320666f7220746869732074656e6465722065786360008201527f6565646564000000000000000000000000000000000000000000000000000000602082015250565b60006137db6025836128e0565b91506137e68261377f565b604082019050919050565b6000602082019050818103600083015261380a816137ce565b9050919050565b6005811061381e57600080fd5b50565b60008151905061383081613811565b92915050565b60006020828403121561384c5761384b6125df565b5b600061385a84828501613821565b91505092915050565b7f54656e64657220646f6573206e6f742065786973740000000000000000000000600082015250565b60006138996015836128e0565b91506138a482613863565b602082019050919050565b600060208201905081810360008301526138c88161388c565b9050919050565b7f54656e646572206973206e6f74206f70656e20666f7220626964730000000000600082015250565b6000613905601b836128e0565b9150613910826138cf565b602082019050919050565b60006020820190508181036000830152613934816138f8565b9050919050565b7f42696464696e672068617320656e646564000000000000000000000000000000600082015250565b60006139716011836128e0565b915061397c8261393b565b602082019050919050565b600060208201905081810360008301526139a081613964565b9050919050565b7f4f776e65722063616e6e6f7420626964206f6e207468656972206f776e20746560008201527f6e64657200000000000000000000000000000000000000000000000000000000602082015250565b6000613a036024836128e0565b9150613a0e826139a7565b604082019050919050565b60006020820190508181036000830152613a32816139f6565b9050919050565b6000604082019050613a4e60008301856128c6565b613a5b60208301846128c6565b939250505056fea2646970667358221220e6387c2a3f3542c1f143e70f100e972ecae05ebb5f34088e6fe1e79bfb0e3f8764736f6c634300080d0033",
  "immutableReferences": {},
  "source": "// SPDX-License-Identifier: UNLICENSED\r\n\r\n//the version of solidity that is compatible\r\npragma solidity ^0.8.0;\r\npragma experimental ABIEncoderV2;\r\n\r\nimport \"./TenderContract.sol\";\r\n\r\ncontract BidContract {\r\n    enum BidStatus{PENDING, REJECTED, APPROVED,AUCTION}\r\n\r\n    // Bidding Struct\r\n    struct Bid {\r\n        uint256 bidId;\r\n        string bidClause;\r\n        uint256 quotedAmount;\r\n        address bidderAddress;\r\n        uint256 tenderId;\r\n        BidStatus bidStatus;\r\n        uint256 createdAt;\r\n        bool isExists;\r\n    }\r\n\r\n    mapping (uint256 => Bid) public bids;\r\n    uint256 bidCount = 0;\r\n    TenderContract public tenderRef;\r\n\r\n    constructor(TenderContract _tenderRef){\r\n        tenderRef = _tenderRef;\r\n    }\r\n\r\n    //setters and getters\r\n    function getBidderAddress(uint256 _bidId) public view returns(address) {\r\n        return bids[_bidId].bidderAddress;\r\n    }\r\n\r\n    modifier isOwner(address owner) {\r\n        require(msg.sender == owner, \"Caller is not owner\");\r\n        _;\r\n    }\r\n\r\n    modifier isTenderOwner(address _partyAddress, uint256 _tenderId) {\r\n        address issuerAddress = tenderRef.getIssuerAddress(_tenderId);\r\n        require(issuerAddress == _partyAddress, \"you're not authorized to perform this action\");\r\n        _;\r\n    }\r\n\r\n    modifier isBidOwner(address _bidderAddress, uint256 _bidId) {\r\n        require(bids[_bidId].bidderAddress == _bidderAddress, \"you're not authorized to perform this action\");\r\n        _;\r\n    }\r\n\r\n    function createBid(address _bidderAddress, uint256 _tenderId, string memory _bidClause, uint256 _quotedAmount) public{\r\n        // Tender storage _tender = tenderRef.tenders(_tenderId);\r\n        require(tenderRef.getBidsCount(_tenderId) <= 15, \"Maximum bids for this tender exceeded\");\r\n        uint256 _budget = tenderRef.getBudget(_tenderId);\r\n        TenderStatus _tenderStatus = tenderRef.getTenderStatus(_tenderId);\r\n        uint256 _deadline = tenderRef.getDeadline(_tenderId);\r\n        address _issuerAddress = tenderRef.getIssuerAddress(_tenderId);\r\n        require(_budget > 0, \"Tender does not exist\");\r\n        require(_tenderStatus == TenderStatus.OPEN, \"Tender is not open for bids\");\r\n        require(block.timestamp < _deadline, \"Bidding has ended\");\r\n        require(_bidderAddress != _issuerAddress, \"Owner cannot bid on their own tender\");\r\n\r\n        Bid storage newBid = bids[bidCount];\r\n        newBid.bidId = bidCount;\r\n        newBid.bidClause = _bidClause;\r\n        newBid.quotedAmount = _quotedAmount;\r\n        newBid.bidderAddress = _bidderAddress;\r\n        newBid.tenderId = _tenderId;\r\n        newBid.bidStatus = BidStatus.PENDING;\r\n        newBid.createdAt = block.timestamp;\r\n        newBid.isExists = true;\r\n        tenderRef.addBidId(_tenderId, bidCount);\r\n        bidCount++;\r\n    }\r\n\r\n    modifier canViewBid(address _partyAddress ,uint256 _tenderId, uint256 _bidId){\r\n        address issuerAddress = tenderRef.getIssuerAddress(_tenderId);\r\n        require((bids[_bidId].bidderAddress == _partyAddress  || issuerAddress == _partyAddress), \"Not authorized to view bid details\");\r\n        _;\r\n    }\r\n\r\n    // For getting bid details like message, amount, address of bidders \r\n    function getBidDetails(address _partyAddress ,uint256 _tenderId, uint256 _bidId) public view canViewBid(_partyAddress, _tenderId, _bidId) returns (Bid memory) {\r\n\t    require(bids[_bidId].quotedAmount > 0, \"Bid does not exist\");\r\n    \treturn (bids[_bidId]);\r\n    }\r\n\r\n    function getMyBids(address _bidderAddress) public view isOwner(_bidderAddress) returns(Bid[] memory, uint){\r\n        require(bidCount > 0, \"No bids exist\");\r\n        uint count =0;\r\n        Bid[] memory bidsList = new Bid[](tenderRef.getTenderCount());\r\n        for (uint256 i = 0; i < bidCount; i++) {\r\n            if(bids[i].isExists == true && bids[i].bidderAddress == _bidderAddress){\r\n                count++;\r\n                bidsList[i] = bids[i];\r\n            }\r\n                \r\n        }\r\n        return(bidsList, count);\r\n    }\r\n\r\n    // For getting all bids of a tender\r\n    function getAllBids(address _partyAddress, uint256 _tenderId) public view isTenderOwner(_partyAddress, _tenderId) returns(Bid[] memory){\r\n        uint256[] memory tenderBidIds = tenderRef.getBidIds(_tenderId);\r\n        require(tenderBidIds.length > 0, \"No bids exists\");\r\n        Bid[] memory bidsList = new Bid[](tenderBidIds.length);\r\n        for (uint256 i = 0; i < tenderBidIds.length; i++) {\r\n            if(bids[i].isExists == true) {\r\n                bidsList[i] = bids[tenderBidIds[i]];\r\n            }\r\n        }\r\n        return(bidsList);\r\n    }\r\n// function getAllBids(address _partyAddress, uint256 _tenderId) public view isTenderOwner(_partyAddress, _tenderId) returns(Bid[] memory) {\r\n//     uint256[] memory tenderBidIds = tenderRef.getBidIds(_tenderId);\r\n//     require(tenderBidIds.length > 0, \"No bids exist\");\r\n    \r\n//     // Find the minimum quote amount\r\n//     uint256 minQuote = type(uint256).max; // Assuming max value for initialization\r\n//     for (uint256 i = 0; i < tenderBidIds.length; i++) {\r\n//         uint256 currentBidId = tenderBidIds[i];\r\n//         if (bids[currentBidId].quotedAmount < minQuote && bids[currentBidId].isExists) {\r\n//             minQuote = bids[currentBidId].quotedAmount;\r\n//         }\r\n//     }\r\n\r\n//     Bid[] memory bidsList = new Bid[](tenderBidIds.length);\r\n//     for (uint256 i = 0; i < tenderBidIds.length; i++) {\r\n//         uint256 currentBidId = tenderBidIds[i];\r\n//         if (bids[currentBidId].isExists) {\r\n//             // Check if the bid has the minimum quote amount\r\n//             if (bids[currentBidId].quotedAmount == minQuote) {\r\n//                 bidsList[i] = Bid({\r\n//                     bidderAddress: bids[currentBidId].bidderAddress,\r\n//                     quoteAmount: bids[currentBidId].quotedAmount,\r\n//                     bidStatus: BidStatus.APPROVED, // Set status to Active for the minimum quote\r\n//                     isExists: true\r\n//                 });\r\n//             } else {\r\n//                 bidsList[i] = Bid({\r\n//                     bidderAddress: bids[currentBidId].bidderAddress,\r\n//                     quoteAmount: bids[currentBidId].quotedAmount,\r\n//                     bidStatus: BidStatus.REJECTED, // Set status to Inactive for other bids\r\n//                     isExists: true\r\n//                 });\r\n//             }\r\n//         }\r\n//     }\r\n//     return bidsList;\r\n// }\r\n\r\n    function updateBidStatus(address _partyAddress, uint256 _tenderId, uint256 _bidAddress ,BidStatus _bidStatus) public isTenderOwner(_partyAddress, _tenderId) {\r\n        Bid storage updatedBid = bids[_bidAddress];\r\n        updatedBid.bidStatus = _bidStatus;\r\n    }\r\n\r\n    function updateBid(address _bidderAddress, uint256 _bidId, string memory _bidClause, uint256 _quotedAmount) public isBidOwner(_bidderAddress, _bidId) {\r\n        require(bids[_bidId].quotedAmount > 0 , \"bid with address doesn't exists\");\r\n        require(bids[_bidId].bidStatus == BidStatus.PENDING , \"bid cannot be updated\");\r\n        Bid storage updatedBid = bids[_bidId];\r\n        updatedBid.bidClause = _bidClause;\r\n        updatedBid.quotedAmount = _quotedAmount;\r\n    }\r\n\r\n    function deleteBid(address _bidderAddress, uint256 _tenderId ,uint256 _bidId) public isBidOwner(_bidderAddress, _bidId){ \r\n        uint256[] memory tenderBidIds = tenderRef.getBidIds(_tenderId);\r\n        require(tenderBidIds.length > 0, \"No bids exists\");\r\n        require(bids[_bidId].quotedAmount > 0 , \"bid with address doesn't exists\");\r\n        require(bids[_bidId].bidStatus == BidStatus.PENDING , \"bid cannot be deleted\");\r\n        bids[_bidId].isExists = false;\r\n        // delete bids[_bidId];\r\n        // tenderRef.deleteBidId(_tenderId, _bidId);         \r\n        for(uint256 i=0;i<tenderBidIds.length;i++){\r\n            if(tenderBidIds[i] == _bidId){\r\n                tenderBidIds[i] = tenderBidIds[tenderBidIds.length -1];\r\n                tenderRef.setBidIds(tenderBidIds, _tenderId);\r\n                break;\r\n            }\r\n        }    \r\n    }\r\n\r\n    modifier isValidTender(uint256 tenderId) {\r\n        uint256 _deadline = tenderRef.getDeadline(tenderId);\r\n        TenderStatus _tenderStatus = tenderRef.getTenderStatus(tenderId);\r\n        require(block.timestamp >= _deadline && _tenderStatus == TenderStatus.CLOSED);\r\n        _;\r\n    }\r\n\r\n    function selectTopBids(address _partyAddress, uint256 _tenderId ) public view isTenderOwner(_partyAddress, _tenderId) isValidTender(_tenderId) returns (Bid[] memory) {\r\n        //invoke this function once deadline is crossed and can be invoked by project issue party, make sure this project is not assigned to anyone------modifier\r\n        // get all the bids for pt\r\n        Bid[] memory bidList = getAllBids(_partyAddress, _tenderId);\r\n        require(bidList.length > 0, \"No bids exists\");\r\n        // sort bids by price\r\n        for (uint i = 1; i < bidList.length; i++){\r\n            for (uint j = 0; j < i; j++){\r\n                if (bidList[i].quotedAmount < bidList[j].quotedAmount) {\r\n                    Bid memory tempBid = bidList[i];\r\n                    bidList[i] = bidList[j];\r\n                    bidList[j] = tempBid;\r\n                }\r\n            }\r\n        }\r\n        uint256 shortListedBidsCount = (bidList.length < 5) ? bidList.length : 5; \r\n        Bid[] memory shortListedBids = new Bid[](shortListedBidsCount);\r\n        for (uint i = 0; i < shortListedBidsCount; i++){\r\n            shortListedBids[i] = bidList[i];\r\n        }\r\n\r\n        return shortListedBids;\r\n        //returns a list of top 5 bidders and history of bidders\r\n\r\n        // - in case of a tie, the bidder with the largest \"trust\" is given the project. ( Trust in this context is measured in terms of the number of previous projects done and the token assets a party has.)\r\n        // update the status of each bid to APPROVED / REJECTED from PENDING.\r\n    }\r\n\r\n    function finaliseWinnerBid(address _partyAddress, uint256 _tenderId, uint256 _bidId) public isTenderOwner(_partyAddress, _tenderId){\r\n        uint256[] memory tenderBidIds = tenderRef.getBidIds(_tenderId);\r\n        for(uint256 i=0;i< tenderBidIds.length ;i++){\r\n            if(tenderBidIds[i] == _bidId)\r\n                updateBidStatus(_partyAddress, _tenderId, tenderBidIds[i], BidStatus.APPROVED);\r\n            else \r\n                updateBidStatus(_partyAddress, _tenderId, tenderBidIds[i], BidStatus.REJECTED);\r\n        }\r\n        tenderRef.updateTenderStatus(_tenderId, TenderStatus.ASSIGNED);\r\n    }\r\n    \r\n    // function filterBidsByQuotedAmount(Bid[] memory bidList) public returns(Bid[] memory) {\r\n\t// for (uint i = 1; i < bidList.length; i++) {\r\n\t// \tfor (uint j = 0; j < i; j++) {\r\n\t// \t\tif (bidList[i].quotedAmount < bidList[j].quotedAmount) {\r\n\t// \t\t\tBid memory tempBid = bidList[i];\r\n\t// \t\t\tbidList[i] = bidList[j];\r\n\t// \t\t\tbidList[j] = tempBid;\r\n\t// \t\t}\r\n\t// \t}\r\n\t// }\r\n\t// return bidList;\r\n    //  }\r\n\r\n}\r\n",
  "sourcePath": "D:\\major-prj\\New folder\\major-prj\\contracts\\BidContract.sol",
  "compiler": {
    "name": "solc",
    "version": "0.8.13+commit.abaa5c0e.Emscripten.clang"
  },
  "schemaVersion": "3.4.16",
  "updatedAt": "2024-01-23T18:33:38.807Z",
  "devdoc": {
    "kind": "dev",
    "methods": {},
    "version": 1
  },
  "userdoc": {
    "kind": "user",
    "methods": {},
    "version": 1
  }
}