{
  "contractName": "BidContract",
  "abi": [
    {
      "inputs": [
        {
          "internalType": "contract TenderContract",
          "name": "_tenderRef",
          "type": "address"
        },
        {
          "internalType": "contract PartyContract",
          "name": "_partyRef",
          "type": "address"
        }
      ],
      "stateMutability": "nonpayable",
      "type": "constructor"
    },
    {
      "inputs": [
        {
          "internalType": "uint256",
          "name": "",
          "type": "uint256"
        }
      ],
      "name": "bids",
      "outputs": [
        {
          "internalType": "uint256",
          "name": "bidId",
          "type": "uint256"
        },
        {
          "internalType": "string",
          "name": "bidClause",
          "type": "string"
        },
        {
          "internalType": "uint256",
          "name": "quotedAmount",
          "type": "uint256"
        },
        {
          "internalType": "address",
          "name": "bidderAddress",
          "type": "address"
        },
        {
          "internalType": "uint256",
          "name": "tenderId",
          "type": "uint256"
        },
        {
          "internalType": "uint256",
          "name": "bidStatus",
          "type": "uint256"
        },
        {
          "internalType": "uint256",
          "name": "createdAt",
          "type": "uint256"
        },
        {
          "internalType": "bool",
          "name": "isExists",
          "type": "bool"
        }
      ],
      "stateMutability": "view",
      "type": "function",
      "constant": true
    },
    {
      "inputs": [],
      "name": "partyRef",
      "outputs": [
        {
          "internalType": "contract PartyContract",
          "name": "",
          "type": "address"
        }
      ],
      "stateMutability": "view",
      "type": "function",
      "constant": true
    },
    {
      "inputs": [],
      "name": "tenderRef",
      "outputs": [
        {
          "internalType": "contract TenderContract",
          "name": "",
          "type": "address"
        }
      ],
      "stateMutability": "view",
      "type": "function",
      "constant": true
    },
    {
      "inputs": [
        {
          "internalType": "uint256",
          "name": "_bidId",
          "type": "uint256"
        }
      ],
      "name": "getBidderAddress",
      "outputs": [
        {
          "internalType": "address",
          "name": "",
          "type": "address"
        }
      ],
      "stateMutability": "view",
      "type": "function",
      "constant": true
    },
    {
      "inputs": [
        {
          "internalType": "address",
          "name": "_bidderAddress",
          "type": "address"
        },
        {
          "internalType": "uint256",
          "name": "_tenderId",
          "type": "uint256"
        },
        {
          "internalType": "string",
          "name": "_bidClause",
          "type": "string"
        },
        {
          "internalType": "uint256",
          "name": "_quotedAmount",
          "type": "uint256"
        }
      ],
      "name": "createBid",
      "outputs": [],
      "stateMutability": "nonpayable",
      "type": "function"
    },
    {
      "inputs": [
        {
          "internalType": "address",
          "name": "_partyAddress",
          "type": "address"
        },
        {
          "internalType": "uint256",
          "name": "_tenderId",
          "type": "uint256"
        },
        {
          "internalType": "uint256",
          "name": "_bidId",
          "type": "uint256"
        }
      ],
      "name": "getBidDetails",
      "outputs": [
        {
          "components": [
            {
              "internalType": "uint256",
              "name": "bidId",
              "type": "uint256"
            },
            {
              "internalType": "string",
              "name": "bidClause",
              "type": "string"
            },
            {
              "internalType": "uint256",
              "name": "quotedAmount",
              "type": "uint256"
            },
            {
              "internalType": "address",
              "name": "bidderAddress",
              "type": "address"
            },
            {
              "internalType": "uint256",
              "name": "tenderId",
              "type": "uint256"
            },
            {
              "internalType": "uint256",
              "name": "bidStatus",
              "type": "uint256"
            },
            {
              "internalType": "uint256",
              "name": "createdAt",
              "type": "uint256"
            },
            {
              "internalType": "bool",
              "name": "isExists",
              "type": "bool"
            }
          ],
          "internalType": "struct BidContract.Bid",
          "name": "",
          "type": "tuple"
        }
      ],
      "stateMutability": "view",
      "type": "function",
      "constant": true
    },
    {
      "inputs": [
        {
          "internalType": "uint256",
          "name": "_bidId",
          "type": "uint256"
        }
      ],
      "name": "getBDetails",
      "outputs": [
        {
          "internalType": "string",
          "name": "",
          "type": "string"
        },
        {
          "internalType": "string",
          "name": "",
          "type": "string"
        },
        {
          "internalType": "string",
          "name": "",
          "type": "string"
        },
        {
          "internalType": "address",
          "name": "",
          "type": "address"
        },
        {
          "internalType": "uint256",
          "name": "",
          "type": "uint256"
        },
        {
          "internalType": "string",
          "name": "",
          "type": "string"
        }
      ],
      "stateMutability": "view",
      "type": "function",
      "constant": true
    },
    {
      "inputs": [
        {
          "internalType": "address",
          "name": "_bidderAddress",
          "type": "address"
        }
      ],
      "name": "getMyBids",
      "outputs": [
        {
          "components": [
            {
              "internalType": "uint256",
              "name": "bidId",
              "type": "uint256"
            },
            {
              "internalType": "string",
              "name": "bidClause",
              "type": "string"
            },
            {
              "internalType": "uint256",
              "name": "quotedAmount",
              "type": "uint256"
            },
            {
              "internalType": "address",
              "name": "bidderAddress",
              "type": "address"
            },
            {
              "internalType": "uint256",
              "name": "tenderId",
              "type": "uint256"
            },
            {
              "internalType": "uint256",
              "name": "bidStatus",
              "type": "uint256"
            },
            {
              "internalType": "uint256",
              "name": "createdAt",
              "type": "uint256"
            },
            {
              "internalType": "bool",
              "name": "isExists",
              "type": "bool"
            }
          ],
          "internalType": "struct BidContract.Bid[]",
          "name": "",
          "type": "tuple[]"
        },
        {
          "internalType": "uint256",
          "name": "",
          "type": "uint256"
        }
      ],
      "stateMutability": "view",
      "type": "function",
      "constant": true
    },
    {
      "inputs": [
        {
          "internalType": "address",
          "name": "_partyAddress",
          "type": "address"
        },
        {
          "internalType": "uint256",
          "name": "_tenderId",
          "type": "uint256"
        }
      ],
      "name": "getNAllBids",
      "outputs": [
        {
          "components": [
            {
              "internalType": "uint256",
              "name": "bidId",
              "type": "uint256"
            },
            {
              "internalType": "string",
              "name": "bidClause",
              "type": "string"
            },
            {
              "internalType": "uint256",
              "name": "quotedAmount",
              "type": "uint256"
            },
            {
              "internalType": "address",
              "name": "bidderAddress",
              "type": "address"
            },
            {
              "internalType": "uint256",
              "name": "tenderId",
              "type": "uint256"
            },
            {
              "internalType": "uint256",
              "name": "bidStatus",
              "type": "uint256"
            },
            {
              "internalType": "uint256",
              "name": "createdAt",
              "type": "uint256"
            },
            {
              "internalType": "bool",
              "name": "isExists",
              "type": "bool"
            }
          ],
          "internalType": "struct BidContract.Bid[]",
          "name": "",
          "type": "tuple[]"
        }
      ],
      "stateMutability": "view",
      "type": "function",
      "constant": true
    },
    {
      "inputs": [
        {
          "internalType": "address",
          "name": "_partyAddress",
          "type": "address"
        },
        {
          "internalType": "uint256",
          "name": "_tenderId",
          "type": "uint256"
        }
      ],
      "name": "getAllBids",
      "outputs": [
        {
          "components": [
            {
              "internalType": "uint256",
              "name": "bidId",
              "type": "uint256"
            },
            {
              "internalType": "string",
              "name": "bidClause",
              "type": "string"
            },
            {
              "internalType": "uint256",
              "name": "quotedAmount",
              "type": "uint256"
            },
            {
              "internalType": "address",
              "name": "bidderAddress",
              "type": "address"
            },
            {
              "internalType": "uint256",
              "name": "tenderId",
              "type": "uint256"
            },
            {
              "internalType": "uint256",
              "name": "bidStatus",
              "type": "uint256"
            },
            {
              "internalType": "uint256",
              "name": "createdAt",
              "type": "uint256"
            },
            {
              "internalType": "bool",
              "name": "isExists",
              "type": "bool"
            }
          ],
          "internalType": "struct BidContract.Bid[]",
          "name": "",
          "type": "tuple[]"
        }
      ],
      "stateMutability": "nonpayable",
      "type": "function"
    },
    {
      "inputs": [
        {
          "internalType": "address",
          "name": "_partyAddress",
          "type": "address"
        },
        {
          "internalType": "uint256",
          "name": "_tenderId",
          "type": "uint256"
        },
        {
          "internalType": "uint256",
          "name": "_bidAddress",
          "type": "uint256"
        },
        {
          "internalType": "uint256",
          "name": "_bidStatus",
          "type": "uint256"
        }
      ],
      "name": "updateBidStatus",
      "outputs": [],
      "stateMutability": "nonpayable",
      "type": "function"
    },
    {
      "inputs": [
        {
          "internalType": "address",
          "name": "_bidderAddress",
          "type": "address"
        },
        {
          "internalType": "uint256",
          "name": "_bidId",
          "type": "uint256"
        },
        {
          "internalType": "string",
          "name": "_bidClause",
          "type": "string"
        },
        {
          "internalType": "uint256",
          "name": "_quotedAmount",
          "type": "uint256"
        }
      ],
      "name": "updateBid",
      "outputs": [],
      "stateMutability": "nonpayable",
      "type": "function"
    },
    {
      "inputs": [
        {
          "internalType": "uint256",
          "name": "_bidId",
          "type": "uint256"
        },
        {
          "internalType": "uint256",
          "name": "_quotedAmount",
          "type": "uint256"
        }
      ],
      "name": "updateOneBid",
      "outputs": [],
      "stateMutability": "nonpayable",
      "type": "function"
    },
    {
      "inputs": [
        {
          "internalType": "address",
          "name": "_bidderAddress",
          "type": "address"
        },
        {
          "internalType": "uint256",
          "name": "_tenderId",
          "type": "uint256"
        },
        {
          "internalType": "uint256",
          "name": "_bidId",
          "type": "uint256"
        }
      ],
      "name": "deleteBid",
      "outputs": [],
      "stateMutability": "nonpayable",
      "type": "function"
    }
  ],
  "bytecode": "0x608060405260006001553480156200001657600080fd5b50604051620038fc380380620038fc83398181016040528101906200003c919062000189565b81600260006101000a81548173ffffffffffffffffffffffffffffffffffffffff021916908373ffffffffffffffffffffffffffffffffffffffff16021790555080600360006101000a81548173ffffffffffffffffffffffffffffffffffffffff021916908373ffffffffffffffffffffffffffffffffffffffff1602179055505050620001d0565b600080fd5b600073ffffffffffffffffffffffffffffffffffffffff82169050919050565b6000620000f882620000cb565b9050919050565b60006200010c82620000eb565b9050919050565b6200011e81620000ff565b81146200012a57600080fd5b50565b6000815190506200013e8162000113565b92915050565b60006200015182620000eb565b9050919050565b620001638162000144565b81146200016f57600080fd5b50565b600081519050620001838162000158565b92915050565b60008060408385031215620001a357620001a2620000c6565b5b6000620001b3858286016200012d565b9250506020620001c68582860162000172565b9150509250929050565b61371c80620001e06000396000f3fe608060405234801561001057600080fd5b50600436106100ea5760003560e01c80638d5b86121161008c578063e10540b611610066578063e10540b614610262578063eac2473714610297578063ebc25fa6146102c7578063f91b6ae5146102f8576100ea565b80638d5b86121461020c578063bb693c4d1461022a578063d8f60dd714610246576100ea565b80635fa38280116100c85780635fa382801461017257806361281516146101a2578063613531bb146101d25780638d455399146101ee576100ea565b806305ee3e51146100ef578063167548c51461011f5780634423c5f11461013b575b600080fd5b61010960048036038101906101049190612260565b610314565b60405161011691906124e4565b60405180910390f35b6101396004803603810190610134919061263b565b610750565b005b610155600480360381019061015091906126be565b61088e565b604051610169989796959493929190612762565b60405180910390f35b61018c600480360381019061018791906126be565b61098b565b60405161019991906127e7565b60405180910390f35b6101bc60048036038101906101b79190612260565b6109ca565b6040516101c991906124e4565b60405180910390f35b6101ec60048036038101906101e79190612802565b610da9565b005b6101f6610dcd565b60405161020391906128a1565b60405180910390f35b610214610df3565b60405161022191906128dd565b60405180910390f35b610244600480360381019061023f91906128f8565b610e19565b005b610260600480360381019061025b919061294b565b611151565b005b61027c600480360381019061027791906126be565b61128a565b60405161028e969594939291906129b2565b60405180910390f35b6102b160048036038101906102ac91906128f8565b6113d6565b6040516102be9190612adf565b60405180910390f35b6102e160048036038101906102dc9190612b01565b611712565b6040516102ef929190612b2e565b60405180910390f35b610312600480360381019061030d919061263b565b611a8a565b005b606082826000600260009054906101000a900473ffffffffffffffffffffffffffffffffffffffff1673ffffffffffffffffffffffffffffffffffffffff16637e4d2d97836040518263ffffffff1660e01b81526004016103759190612b5e565b602060405180830381865afa158015610392573d6000803e3d6000fd5b505050506040513d601f19601f820116820180604052508101906103b69190612b8e565b90508273ffffffffffffffffffffffffffffffffffffffff168173ffffffffffffffffffffffffffffffffffffffff1614610426576040517f08c379a000000000000000000000000000000000000000000000000000000000815260040161041d90612c2d565b60405180910390fd5b6000600260009054906101000a900473ffffffffffffffffffffffffffffffffffffffff1673ffffffffffffffffffffffffffffffffffffffff166342222a43876040518263ffffffff1660e01b81526004016104839190612b5e565b600060405180830381865afa1580156104a0573d6000803e3d6000fd5b505050506040513d6000823e3d601f19601f820116820180604052508101906104c99190612d2a565b9050600081511161050f576040517f08c379a000000000000000000000000000000000000000000000000000000000815260040161050690612dbf565b60405180910390fd5b6000815167ffffffffffffffff81111561052c5761052b612510565b5b60405190808252806020026020018201604052801561056557816020015b6105526120b8565b81526020019060019003908161054a5790505b50905060005b8251811015610741576001151560008083815260200190815260200160002060070160009054906101000a900460ff1615150361072e576000808483815181106105b8576105b7612ddf565b5b6020026020010151815260200190815260200160002060405180610100016040529081600082015481526020016001820180546105f490612e3d565b80601f016020809104026020016040519081016040528092919081815260200182805461062090612e3d565b801561066d5780601f106106425761010080835404028352916020019161066d565b820191906000526020600020905b81548152906001019060200180831161065057829003601f168201915b50505050508152602001600282015481526020016003820160009054906101000a900473ffffffffffffffffffffffffffffffffffffffff1673ffffffffffffffffffffffffffffffffffffffff1673ffffffffffffffffffffffffffffffffffffffff1681526020016004820154815260200160058201548152602001600682015481526020016007820160009054906101000a900460ff16151515158152505082828151811061072257610721612ddf565b5b60200260200101819052505b808061073990612e9d565b91505061056b565b50809550505050505092915050565b83838173ffffffffffffffffffffffffffffffffffffffff1660008083815260200190815260200160002060030160009054906101000a900473ffffffffffffffffffffffffffffffffffffffff1673ffffffffffffffffffffffffffffffffffffffff16146107f5576040517f08c379a00000000000000000000000000000000000000000000000000000000081526004016107ec90612c2d565b60405180910390fd5b6000806000878152602001908152602001600020600201541161084d576040517f08c379a000000000000000000000000000000000000000000000000000000000815260040161084490612f31565b60405180910390fd5b600080600087815260200190815260200160002090508481600101908051906020019061087b929190612115565b5083816002018190555050505050505050565b60006020528060005260406000206000915090508060000154908060010180546108b790612e3d565b80601f01602080910402602001604051908101604052809291908181526020018280546108e390612e3d565b80156109305780601f1061090557610100808354040283529160200191610930565b820191906000526020600020905b81548152906001019060200180831161091357829003601f168201915b5050505050908060020154908060030160009054906101000a900473ffffffffffffffffffffffffffffffffffffffff16908060040154908060050154908060060154908060070160009054906101000a900460ff16905088565b600080600083815260200190815260200160002060030160009054906101000a900473ffffffffffffffffffffffffffffffffffffffff169050919050565b606082826000600260009054906101000a900473ffffffffffffffffffffffffffffffffffffffff1673ffffffffffffffffffffffffffffffffffffffff16637e4d2d97836040518263ffffffff1660e01b8152600401610a2b9190612b5e565b602060405180830381865afa158015610a48573d6000803e3d6000fd5b505050506040513d601f19601f82011682018060405250810190610a6c9190612b8e565b90508273ffffffffffffffffffffffffffffffffffffffff168173ffffffffffffffffffffffffffffffffffffffff1614610adc576040517f08c379a0000000000000000000000000000000000000000000000000000000008152600401610ad390612c2d565b60405180910390fd5b6000600260009054906101000a900473ffffffffffffffffffffffffffffffffffffffff1673ffffffffffffffffffffffffffffffffffffffff166342222a43876040518263ffffffff1660e01b8152600401610b399190612b5e565b600060405180830381865afa158015610b56573d6000803e3d6000fd5b505050506040513d6000823e3d601f19601f82011682018060405250810190610b7f9190612d2a565b90506000815111610bc5576040517f08c379a0000000000000000000000000000000000000000000000000000000008152600401610bbc90612f9d565b60405180910390fd5b60007fffffffffffffffffffffffffffffffffffffffffffffffffffffffffffffffff905060005b8251811015610c8a576000838281518110610c0b57610c0a612ddf565b5b602002602001015190508260008083815260200190815260200160002060020154108015610c58575060008082815260200190815260200160002060070160009054906101000a900460ff165b15610c76576000808281526020019081526020016000206002015492505b508080610c8290612e9d565b915050610bed565b506000825167ffffffffffffffff811115610ca857610ca7612510565b5b604051908082528060200260200182016040528015610ce157816020015b610cce6120b8565b815260200190600190039081610cc65790505b50905060005b8351811015610d99576000848281518110610d0557610d04612ddf565b5b602002602001015190506000806000838152602001908152602001600020905060008083815260200190815260200160002060070160009054906101000a900460ff1615610d8457846000808481526020019081526020016000206002015403610d785760018160050181905550610d83565b600081600501819055505b5b50508080610d9190612e9d565b915050610ce7565b5080965050505050505092915050565b60008060008481526020019081526020016000209050818160020181905550505050565b600360009054906101000a900473ffffffffffffffffffffffffffffffffffffffff1681565b600260009054906101000a900473ffffffffffffffffffffffffffffffffffffffff1681565b82818173ffffffffffffffffffffffffffffffffffffffff1660008083815260200190815260200160002060030160009054906101000a900473ffffffffffffffffffffffffffffffffffffffff1673ffffffffffffffffffffffffffffffffffffffff1614610ebe576040517f08c379a0000000000000000000000000000000000000000000000000000000008152600401610eb590612c2d565b60405180910390fd5b6000600260009054906101000a900473ffffffffffffffffffffffffffffffffffffffff1673ffffffffffffffffffffffffffffffffffffffff166342222a43866040518263ffffffff1660e01b8152600401610f1b9190612b5e565b600060405180830381865afa158015610f38573d6000803e3d6000fd5b505050506040513d6000823e3d601f19601f82011682018060405250810190610f619190612d2a565b90506000815111610fa7576040517f08c379a0000000000000000000000000000000000000000000000000000000008152600401610f9e90612dbf565b60405180910390fd5b60008060008681526020019081526020016000206002015411610fff576040517f08c379a0000000000000000000000000000000000000000000000000000000008152600401610ff690612f31565b60405180910390fd5b600080600086815260200190815260200160002060070160006101000a81548160ff02191690831515021790555060005b8151811015611148578482828151811061104d5761104c612ddf565b5b6020026020010151036111355781600183516110699190612fbd565b8151811061107a57611079612ddf565b5b602002602001015182828151811061109557611094612ddf565b5b602002602001018181525050600260009054906101000a900473ffffffffffffffffffffffffffffffffffffffff1673ffffffffffffffffffffffffffffffffffffffff1663897bb97983886040518363ffffffff1660e01b81526004016110fe9291906130a0565b600060405180830381600087803b15801561111857600080fd5b505af115801561112c573d6000803e3d6000fd5b50505050611148565b808061114090612e9d565b915050611030565b50505050505050565b83836000600260009054906101000a900473ffffffffffffffffffffffffffffffffffffffff1673ffffffffffffffffffffffffffffffffffffffff16637e4d2d97836040518263ffffffff1660e01b81526004016111b09190612b5e565b602060405180830381865afa1580156111cd573d6000803e3d6000fd5b505050506040513d601f19601f820116820180604052508101906111f19190612b8e565b90508273ffffffffffffffffffffffffffffffffffffffff168173ffffffffffffffffffffffffffffffffffffffff1614611261576040517f08c379a000000000000000000000000000000000000000000000000000000000815260040161125890612c2d565b60405180910390fd5b600080600087815260200190815260200160002090508481600501819055505050505050505050565b60608060606000806060600080600089815260200190815260200160002060020154116112ec576040517f08c379a00000000000000000000000000000000000000000000000000000000081526004016112e39061311c565b60405180910390fd5b600360009054906101000a900473ffffffffffffffffffffffffffffffffffffffff1673ffffffffffffffffffffffffffffffffffffffff1662da72286000808a815260200190815260200160002060030160009054906101000a900473ffffffffffffffffffffffffffffffffffffffff166040518263ffffffff1660e01b815260040161137b91906127e7565b600060405180830381865afa158015611398573d6000803e3d6000fd5b505050506040513d6000823e3d601f19601f820116820180604052508101906113c191906131ac565b95509550955095509550955091939550919395565b6113de6120b8565b8383836000600260009054906101000a900473ffffffffffffffffffffffffffffffffffffffff1673ffffffffffffffffffffffffffffffffffffffff16637e4d2d97846040518263ffffffff1660e01b815260040161143e9190612b5e565b602060405180830381865afa15801561145b573d6000803e3d6000fd5b505050506040513d601f19601f8201168201806040525081019061147f9190612b8e565b90508373ffffffffffffffffffffffffffffffffffffffff1660008084815260200190815260200160002060030160009054906101000a900473ffffffffffffffffffffffffffffffffffffffff1673ffffffffffffffffffffffffffffffffffffffff16148061151b57508373ffffffffffffffffffffffffffffffffffffffff168173ffffffffffffffffffffffffffffffffffffffff16145b61155a576040517f08c379a00000000000000000000000000000000000000000000000000000000081526004016115519061331b565b60405180910390fd5b600080600088815260200190815260200160002060020154116115b2576040517f08c379a00000000000000000000000000000000000000000000000000000000081526004016115a99061311c565b60405180910390fd5b60008087815260200190815260200160002060405180610100016040529081600082015481526020016001820180546115ea90612e3d565b80601f016020809104026020016040519081016040528092919081815260200182805461161690612e3d565b80156116635780601f1061163857610100808354040283529160200191611663565b820191906000526020600020905b81548152906001019060200180831161164657829003601f168201915b50505050508152602001600282015481526020016003820160009054906101000a900473ffffffffffffffffffffffffffffffffffffffff1673ffffffffffffffffffffffffffffffffffffffff1673ffffffffffffffffffffffffffffffffffffffff1681526020016004820154815260200160058201548152602001600682015481526020016007820160009054906101000a900460ff1615151515815250509450505050509392505050565b60606000828073ffffffffffffffffffffffffffffffffffffffff163373ffffffffffffffffffffffffffffffffffffffff1614611785576040517f08c379a000000000000000000000000000000000000000000000000000000000815260040161177c90613387565b60405180910390fd5b6000600154116117ca576040517f08c379a00000000000000000000000000000000000000000000000000000000081526004016117c190612f9d565b60405180910390fd5b60008060015467ffffffffffffffff8111156117e9576117e8612510565b5b60405190808252806020026020018201604052801561182257816020015b61180f6120b8565b8152602001906001900390816118075790505b5090506000805b600154811015611a7a57600154821015611a59576001151560008083815260200190815260200160002060070160009054906101000a900460ff1615151480156118d357508773ffffffffffffffffffffffffffffffffffffffff1660008083815260200190815260200160002060030160009054906101000a900473ffffffffffffffffffffffffffffffffffffffff1673ffffffffffffffffffffffffffffffffffffffff16145b15611a585783806118e390612e9d565b945050600080828152602001908152602001600020604051806101000160405290816000820154815260200160018201805461191e90612e3d565b80601f016020809104026020016040519081016040528092919081815260200182805461194a90612e3d565b80156119975780601f1061196c57610100808354040283529160200191611997565b820191906000526020600020905b81548152906001019060200180831161197a57829003601f168201915b50505050508152602001600282015481526020016003820160009054906101000a900473ffffffffffffffffffffffffffffffffffffffff1673ffffffffffffffffffffffffffffffffffffffff1673ffffffffffffffffffffffffffffffffffffffff1681526020016004820154815260200160058201548152602001600682015481526020016007820160009054906101000a900460ff161515151581525050838381518110611a4c57611a4b612ddf565b5b60200260200101819052505b5b8180611a6490612e9d565b9250508080611a7290612e9d565b915050611829565b5081819550955050505050915091565b600f600260009054906101000a900473ffffffffffffffffffffffffffffffffffffffff1673ffffffffffffffffffffffffffffffffffffffff16634008f9c0856040518263ffffffff1660e01b8152600401611ae79190612b5e565b602060405180830381865afa158015611b04573d6000803e3d6000fd5b505050506040513d601f19601f82011682018060405250810190611b2891906133a7565b1115611b69576040517f08c379a0000000000000000000000000000000000000000000000000000000008152600401611b6090613446565b60405180910390fd5b6000600260009054906101000a900473ffffffffffffffffffffffffffffffffffffffff1673ffffffffffffffffffffffffffffffffffffffff16632e4ea4c4856040518263ffffffff1660e01b8152600401611bc69190612b5e565b602060405180830381865afa158015611be3573d6000803e3d6000fd5b505050506040513d601f19601f82011682018060405250810190611c0791906133a7565b90506000600260009054906101000a900473ffffffffffffffffffffffffffffffffffffffff1673ffffffffffffffffffffffffffffffffffffffff1663354133f7866040518263ffffffff1660e01b8152600401611c669190612b5e565b602060405180830381865afa158015611c83573d6000803e3d6000fd5b505050506040513d601f19601f82011682018060405250810190611ca7919061348b565b90506000600260009054906101000a900473ffffffffffffffffffffffffffffffffffffffff1673ffffffffffffffffffffffffffffffffffffffff166382862275876040518263ffffffff1660e01b8152600401611d069190612b5e565b602060405180830381865afa158015611d23573d6000803e3d6000fd5b505050506040513d601f19601f82011682018060405250810190611d4791906133a7565b90506000600260009054906101000a900473ffffffffffffffffffffffffffffffffffffffff1673ffffffffffffffffffffffffffffffffffffffff16637e4d2d97886040518263ffffffff1660e01b8152600401611da69190612b5e565b602060405180830381865afa158015611dc3573d6000803e3d6000fd5b505050506040513d601f19601f82011682018060405250810190611de79190612b8e565b905060008411611e2c576040517f08c379a0000000000000000000000000000000000000000000000000000000008152600401611e2390613504565b60405180910390fd5b60016004811115611e4057611e3f613524565b5b836004811115611e5357611e52613524565b5b14611e93576040517f08c379a0000000000000000000000000000000000000000000000000000000008152600401611e8a9061359f565b60405180910390fd5b814210611ed5576040517f08c379a0000000000000000000000000000000000000000000000000000000008152600401611ecc9061360b565b60405180910390fd5b8073ffffffffffffffffffffffffffffffffffffffff168873ffffffffffffffffffffffffffffffffffffffff1603611f43576040517f08c379a0000000000000000000000000000000000000000000000000000000008152600401611f3a9061369d565b60405180910390fd5b600080600060015481526020019081526020016000209050600154816000018190555086816001019080519060200190611f7e929190612115565b50858160020181905550888160030160006101000a81548173ffffffffffffffffffffffffffffffffffffffff021916908373ffffffffffffffffffffffffffffffffffffffff1602179055508781600401819055506000816005018190555042816006018190555060018160070160006101000a81548160ff021916908315150217905550600260009054906101000a900473ffffffffffffffffffffffffffffffffffffffff1673ffffffffffffffffffffffffffffffffffffffff1663f1d8ef4d896001546040518363ffffffff1660e01b81526004016120639291906136bd565b600060405180830381600087803b15801561207d57600080fd5b505af1158015612091573d6000803e3d6000fd5b50505050600160008154809291906120a890612e9d565b9190505550505050505050505050565b604051806101000160405280600081526020016060815260200160008152602001600073ffffffffffffffffffffffffffffffffffffffff1681526020016000815260200160008152602001600081526020016000151581525090565b82805461212190612e3d565b90600052602060002090601f016020900481019282612143576000855561218a565b82601f1061215c57805160ff191683800117855561218a565b8280016001018555821561218a579182015b8281111561218957825182559160200191906001019061216e565b5b509050612197919061219b565b5090565b5b808211156121b457600081600090555060010161219c565b5090565b6000604051905090565b600080fd5b600080fd5b600073ffffffffffffffffffffffffffffffffffffffff82169050919050565b60006121f7826121cc565b9050919050565b612207816121ec565b811461221257600080fd5b50565b600081359050612224816121fe565b92915050565b6000819050919050565b61223d8161222a565b811461224857600080fd5b50565b60008135905061225a81612234565b92915050565b60008060408385031215612277576122766121c2565b5b600061228585828601612215565b92505060206122968582860161224b565b9150509250929050565b600081519050919050565b600082825260208201905092915050565b6000819050602082019050919050565b6122d58161222a565b82525050565b600081519050919050565b600082825260208201905092915050565b60005b838110156123155780820151818401526020810190506122fa565b83811115612324576000848401525b50505050565b6000601f19601f8301169050919050565b6000612346826122db565b61235081856122e6565b93506123608185602086016122f7565b6123698161232a565b840191505092915050565b61237d816121ec565b82525050565b60008115159050919050565b61239881612383565b82525050565b6000610100830160008301516123b760008601826122cc565b50602083015184820360208601526123cf828261233b565b91505060408301516123e460408601826122cc565b5060608301516123f76060860182612374565b50608083015161240a60808601826122cc565b5060a083015161241d60a08601826122cc565b5060c083015161243060c08601826122cc565b5060e083015161244360e086018261238f565b508091505092915050565b600061245a838361239e565b905092915050565b6000602082019050919050565b600061247a826122a0565b61248481856122ab565b935083602082028501612496856122bc565b8060005b858110156124d257848403895281516124b3858261244e565b94506124be83612462565b925060208a0199505060018101905061249a565b50829750879550505050505092915050565b600060208201905081810360008301526124fe818461246f565b905092915050565b600080fd5b600080fd5b7f4e487b7100000000000000000000000000000000000000000000000000000000600052604160045260246000fd5b6125488261232a565b810181811067ffffffffffffffff8211171561256757612566612510565b5b80604052505050565b600061257a6121b8565b9050612586828261253f565b919050565b600067ffffffffffffffff8211156125a6576125a5612510565b5b6125af8261232a565b9050602081019050919050565b82818337600083830152505050565b60006125de6125d98461258b565b612570565b9050828152602081018484840111156125fa576125f961250b565b5b6126058482856125bc565b509392505050565b600082601f83011261262257612621612506565b5b81356126328482602086016125cb565b91505092915050565b60008060008060808587031215612655576126546121c2565b5b600061266387828801612215565b94505060206126748782880161224b565b935050604085013567ffffffffffffffff811115612695576126946121c7565b5b6126a18782880161260d565b92505060606126b28782880161224b565b91505092959194509250565b6000602082840312156126d4576126d36121c2565b5b60006126e28482850161224b565b91505092915050565b6126f48161222a565b82525050565b600082825260208201905092915050565b6000612716826122db565b61272081856126fa565b93506127308185602086016122f7565b6127398161232a565b840191505092915050565b61274d816121ec565b82525050565b61275c81612383565b82525050565b600061010082019050612778600083018b6126eb565b818103602083015261278a818a61270b565b905061279960408301896126eb565b6127a66060830188612744565b6127b360808301876126eb565b6127c060a08301866126eb565b6127cd60c08301856126eb565b6127da60e0830184612753565b9998505050505050505050565b60006020820190506127fc6000830184612744565b92915050565b60008060408385031215612819576128186121c2565b5b60006128278582860161224b565b92505060206128388582860161224b565b9150509250929050565b6000819050919050565b600061286761286261285d846121cc565b612842565b6121cc565b9050919050565b60006128798261284c565b9050919050565b600061288b8261286e565b9050919050565b61289b81612880565b82525050565b60006020820190506128b66000830184612892565b92915050565b60006128c78261286e565b9050919050565b6128d7816128bc565b82525050565b60006020820190506128f260008301846128ce565b92915050565b600080600060608486031215612911576129106121c2565b5b600061291f86828701612215565b93505060206129308682870161224b565b92505060406129418682870161224b565b9150509250925092565b60008060008060808587031215612965576129646121c2565b5b600061297387828801612215565b94505060206129848782880161224b565b93505060406129958782880161224b565b92505060606129a68782880161224b565b91505092959194509250565b600060c08201905081810360008301526129cc818961270b565b905081810360208301526129e0818861270b565b905081810360408301526129f4818761270b565b9050612a036060830186612744565b612a1060808301856126eb565b81810360a0830152612a22818461270b565b9050979650505050505050565b600061010083016000830151612a4860008601826122cc565b5060208301518482036020860152612a60828261233b565b9150506040830151612a7560408601826122cc565b506060830151612a886060860182612374565b506080830151612a9b60808601826122cc565b5060a0830151612aae60a08601826122cc565b5060c0830151612ac160c08601826122cc565b5060e0830151612ad460e086018261238f565b508091505092915050565b60006020820190508181036000830152612af98184612a2f565b905092915050565b600060208284031215612b1757612b166121c2565b5b6000612b2584828501612215565b91505092915050565b60006040820190508181036000830152612b48818561246f565b9050612b5760208301846126eb565b9392505050565b6000602082019050612b7360008301846126eb565b92915050565b600081519050612b88816121fe565b92915050565b600060208284031215612ba457612ba36121c2565b5b6000612bb284828501612b79565b91505092915050565b7f796f75277265206e6f7420617574686f72697a656420746f20706572666f726d60008201527f207468697320616374696f6e0000000000000000000000000000000000000000602082015250565b6000612c17602c836126fa565b9150612c2282612bbb565b604082019050919050565b60006020820190508181036000830152612c4681612c0a565b9050919050565b600067ffffffffffffffff821115612c6857612c67612510565b5b602082029050602081019050919050565b600080fd5b600081519050612c8d81612234565b92915050565b6000612ca6612ca184612c4d565b612570565b90508083825260208201905060208402830185811115612cc957612cc8612c79565b5b835b81811015612cf25780612cde8882612c7e565b845260208401935050602081019050612ccb565b5050509392505050565b600082601f830112612d1157612d10612506565b5b8151612d21848260208601612c93565b91505092915050565b600060208284031215612d4057612d3f6121c2565b5b600082015167ffffffffffffffff811115612d5e57612d5d6121c7565b5b612d6a84828501612cfc565b91505092915050565b7f4e6f206269647320657869737473000000000000000000000000000000000000600082015250565b6000612da9600e836126fa565b9150612db482612d73565b602082019050919050565b60006020820190508181036000830152612dd881612d9c565b9050919050565b7f4e487b7100000000000000000000000000000000000000000000000000000000600052603260045260246000fd5b7f4e487b7100000000000000000000000000000000000000000000000000000000600052602260045260246000fd5b60006002820490506001821680612e5557607f821691505b602082108103612e6857612e67612e0e565b5b50919050565b7f4e487b7100000000000000000000000000000000000000000000000000000000600052601160045260246000fd5b6000612ea88261222a565b91507fffffffffffffffffffffffffffffffffffffffffffffffffffffffffffffffff8203612eda57612ed9612e6e565b5b600182019050919050565b7f6269642077697468206164647265737320646f65736e27742065786973747300600082015250565b6000612f1b601f836126fa565b9150612f2682612ee5565b602082019050919050565b60006020820190508181036000830152612f4a81612f0e565b9050919050565b7f4e6f206269647320657869737400000000000000000000000000000000000000600082015250565b6000612f87600d836126fa565b9150612f9282612f51565b602082019050919050565b60006020820190508181036000830152612fb681612f7a565b9050919050565b6000612fc88261222a565b9150612fd38361222a565b925082821015612fe657612fe5612e6e565b5b828203905092915050565b600081519050919050565b600082825260208201905092915050565b6000819050602082019050919050565b600061302983836122cc565b60208301905092915050565b6000602082019050919050565b600061304d82612ff1565b6130578185612ffc565b93506130628361300d565b8060005b8381101561309357815161307a888261301d565b975061308583613035565b925050600181019050613066565b5085935050505092915050565b600060408201905081810360008301526130ba8185613042565b90506130c960208301846126eb565b9392505050565b7f42696420646f6573206e6f742065786973740000000000000000000000000000600082015250565b60006131066012836126fa565b9150613111826130d0565b602082019050919050565b60006020820190508181036000830152613135816130f9565b9050919050565b600061314f61314a8461258b565b612570565b90508281526020810184848401111561316b5761316a61250b565b5b6131768482856122f7565b509392505050565b600082601f83011261319357613192612506565b5b81516131a384826020860161313c565b91505092915050565b60008060008060008060c087890312156131c9576131c86121c2565b5b600087015167ffffffffffffffff8111156131e7576131e66121c7565b5b6131f389828a0161317e565b965050602087015167ffffffffffffffff811115613214576132136121c7565b5b61322089828a0161317e565b955050604087015167ffffffffffffffff811115613241576132406121c7565b5b61324d89828a0161317e565b945050606061325e89828a01612b79565b935050608061326f89828a01612c7e565b92505060a087015167ffffffffffffffff8111156132905761328f6121c7565b5b61329c89828a0161317e565b9150509295509295509295565b7f4e6f7420617574686f72697a656420746f20766965772062696420646574616960008201527f6c73000000000000000000000000000000000000000000000000000000000000602082015250565b60006133056022836126fa565b9150613310826132a9565b604082019050919050565b60006020820190508181036000830152613334816132f8565b9050919050565b7f43616c6c6572206973206e6f74206f776e657200000000000000000000000000600082015250565b60006133716013836126fa565b915061337c8261333b565b602082019050919050565b600060208201905081810360008301526133a081613364565b9050919050565b6000602082840312156133bd576133bc6121c2565b5b60006133cb84828501612c7e565b91505092915050565b7f4d6178696d756d206269647320666f7220746869732074656e6465722065786360008201527f6565646564000000000000000000000000000000000000000000000000000000602082015250565b60006134306025836126fa565b915061343b826133d4565b604082019050919050565b6000602082019050818103600083015261345f81613423565b9050919050565b6005811061347357600080fd5b50565b60008151905061348581613466565b92915050565b6000602082840312156134a1576134a06121c2565b5b60006134af84828501613476565b91505092915050565b7f54656e64657220646f6573206e6f742065786973740000000000000000000000600082015250565b60006134ee6015836126fa565b91506134f9826134b8565b602082019050919050565b6000602082019050818103600083015261351d816134e1565b9050919050565b7f4e487b7100000000000000000000000000000000000000000000000000000000600052602160045260246000fd5b7f54656e646572206973206e6f74206f70656e20666f7220626964730000000000600082015250565b6000613589601b836126fa565b915061359482613553565b602082019050919050565b600060208201905081810360008301526135b88161357c565b9050919050565b7f42696464696e672068617320656e646564000000000000000000000000000000600082015250565b60006135f56011836126fa565b9150613600826135bf565b602082019050919050565b60006020820190508181036000830152613624816135e8565b9050919050565b7f4f776e65722063616e6e6f7420626964206f6e207468656972206f776e20746560008201527f6e64657200000000000000000000000000000000000000000000000000000000602082015250565b60006136876024836126fa565b91506136928261362b565b604082019050919050565b600060208201905081810360008301526136b68161367a565b9050919050565b60006040820190506136d260008301856126eb565b6136df60208301846126eb565b939250505056fea2646970667358221220fc10b4efd11609297408c4f92f7ff51adb2326ed0226bb74a9859a8cc61a2d9a64736f6c634300080d0033",
  "immutableReferences": {},
  "source": "// SPDX-License-Identifier: UNLICENSED\r\n\r\n//the version of solidity that is compatible\r\npragma solidity ^0.8.0;\r\npragma experimental ABIEncoderV2;\r\n\r\nimport \"./TenderContract.sol\";\r\nimport \"./PartyContract.sol\";\r\n\r\ncontract BidContract {\r\n    //enum BidStatus{0, 1}\r\n\r\n    // Bidding Struct\r\n    struct Bid {\r\n        uint256 bidId;\r\n        string bidClause;\r\n        uint256 quotedAmount;\r\n        address bidderAddress;\r\n        uint256 tenderId;\r\n        uint256 bidStatus;\r\n        uint256 createdAt;\r\n        bool isExists;\r\n    }\r\n    struct PartyC {\r\n        string name;\r\n        string contactNumber;\r\n        string email;\r\n        address partyAddress;\r\n        uint256 trustScore;\r\n        string password; \r\n       }\r\n\r\n    mapping (uint256 => Bid) public bids;\r\n    uint256 bidCount = 0;\r\n    TenderContract public tenderRef;\r\n    PartyContract public partyRef;\r\n    constructor(TenderContract _tenderRef,PartyContract _partyRef ){\r\n        tenderRef = _tenderRef;\r\n        partyRef = _partyRef;\r\n    }\r\n\r\n    //setters and getters\r\n    function getBidderAddress(uint256 _bidId) public view returns(address) {\r\n        return bids[_bidId].bidderAddress;\r\n    }\r\n\r\n    modifier isOwner(address owner) {\r\n        require(msg.sender == owner, \"Caller is not owner\");\r\n        _;\r\n    }\r\n\r\n    modifier isTenderOwner(address _partyAddress, uint256 _tenderId) {\r\n        address issuerAddress = tenderRef.getIssuerAddress(_tenderId);\r\n        require(issuerAddress == _partyAddress, \"you're not authorized to perform this action\");\r\n        _;\r\n    }\r\n\r\n    modifier isBidOwner(address _bidderAddress, uint256 _bidId) {\r\n        require(bids[_bidId].bidderAddress == _bidderAddress, \"you're not authorized to perform this action\");\r\n        _;\r\n    }\r\n\r\n    function createBid(address _bidderAddress, uint256 _tenderId, string memory _bidClause, uint256 _quotedAmount) public{\r\n        // Tender storage _tender = tenderRef.tenders(_tenderId);\r\n        require(tenderRef.getBidsCount(_tenderId) <= 15, \"Maximum bids for this tender exceeded\");\r\n        uint256 _budget = tenderRef.getBudget(_tenderId);\r\n        TenderStatus _tenderStatus = tenderRef.getTenderStatus(_tenderId);\r\n        uint256 _deadline = tenderRef.getDeadline(_tenderId);\r\n        address _issuerAddress = tenderRef.getIssuerAddress(_tenderId);\r\n        require(_budget > 0, \"Tender does not exist\");\r\n        require(_tenderStatus == TenderStatus.OPEN, \"Tender is not open for bids\");\r\n        require(block.timestamp < _deadline, \"Bidding has ended\");\r\n        require(_bidderAddress != _issuerAddress, \"Owner cannot bid on their own tender\");\r\n\r\n        Bid storage newBid = bids[bidCount];\r\n        newBid.bidId = bidCount;\r\n        newBid.bidClause = _bidClause;\r\n        newBid.quotedAmount = _quotedAmount;\r\n        newBid.bidderAddress = _bidderAddress;\r\n        newBid.tenderId = _tenderId;\r\n        newBid.bidStatus = 0;\r\n        newBid.createdAt = block.timestamp;\r\n        newBid.isExists = true;\r\n        tenderRef.addBidId(_tenderId, bidCount);\r\n        bidCount++;\r\n    }\r\n\r\n    modifier canViewBid(address _partyAddress ,uint256 _tenderId, uint256 _bidId){\r\n        address issuerAddress = tenderRef.getIssuerAddress(_tenderId);\r\n        require((bids[_bidId].bidderAddress == _partyAddress  || issuerAddress == _partyAddress), \"Not authorized to view bid details\");\r\n        _;\r\n    }\r\n\r\n    // For getting bid details like message, amount, address of bidders \r\n    function getBidDetails(address _partyAddress ,uint256 _tenderId, uint256 _bidId) public view canViewBid(_partyAddress, _tenderId, _bidId) returns (Bid memory) {\r\n\t    require(bids[_bidId].quotedAmount > 0, \"Bid does not exist\");\r\n    \treturn (bids[_bidId]);\r\n    }\r\n      function getBDetails(uint256 _bidId) public view  returns (string memory, string memory, string memory, address, uint256, string memory) {\r\n\t    require(bids[_bidId].quotedAmount > 0, \"Bid does not exist\");\r\n    \treturn (  partyRef.getPartyDetails(bids[_bidId].bidderAddress));\r\n    }\r\n\r\n    function getMyBids(address _bidderAddress) public view isOwner(_bidderAddress) returns(Bid[] memory, uint){\r\n        require(bidCount > 0, \"No bids exist\");\r\n        uint count =0;\r\n        Bid[] memory bidsList = new Bid[](bidCount);\r\n        uint256 j=0;\r\n        for (uint256 i = 0; i < bidCount ; i++ ) {\r\n            if(j<bidCount){\r\n\r\n            if(bids[i].isExists == true && bids[i].bidderAddress == _bidderAddress){\r\n                count++;\r\n                bidsList[j] = bids[i];\r\n            }\r\n            }\r\n               j++; \r\n        }\r\n        return(bidsList, j);\r\n    }\r\n\r\n    // For getting all bids of a tender\r\n     function getNAllBids(address _partyAddress, uint256 _tenderId) public view isTenderOwner(_partyAddress, _tenderId) returns(Bid[] memory){\r\n        uint256[] memory tenderBidIds = tenderRef.getBidIds(_tenderId);\r\n        require(tenderBidIds.length > 0, \"No bids exists\");\r\n        Bid[] memory bidsList = new Bid[](tenderBidIds.length);\r\n        for (uint256 i = 0; i < tenderBidIds.length; i++) {\r\n            if(bids[i].isExists == true) {\r\n                bidsList[i] = bids[tenderBidIds[i]];\r\n            }\r\n        }\r\n        return(bidsList);\r\n    }\r\n     function getAllBids(address _partyAddress, uint256 _tenderId) public  isTenderOwner(_partyAddress, _tenderId) returns(Bid[] memory) {\r\n    uint256[] memory tenderBidIds = tenderRef.getBidIds(_tenderId);\r\n    require(tenderBidIds.length > 0, \"No bids exist\");\r\n    \r\n    // Find the minimum quote amount\r\n    uint256 minQuote = type(uint256).max; // Assuming max value for initialization\r\n    for (uint256 i = 0; i < tenderBidIds.length; i++) {\r\n        uint256 currentBidId = tenderBidIds[i];\r\n        if (bids[currentBidId].quotedAmount < minQuote && bids[currentBidId].isExists) {\r\n            minQuote = bids[currentBidId].quotedAmount;\r\n        }\r\n    }\r\n\r\n    Bid[] memory bidsList = new Bid[](tenderBidIds.length);\r\n    for (uint256 i = 0; i < tenderBidIds.length; i++) {\r\n        uint256 currentBidId = tenderBidIds[i];\r\n        Bid storage updatedBid = bids[currentBidId];\r\n        if (bids[currentBidId].isExists) {\r\n            // Check if the bid has the minimum quote amount\r\n            if (bids[currentBidId].quotedAmount == minQuote) {\r\n                \r\n               updatedBid.bidStatus = 1;\r\n            } else {\r\n                updatedBid.bidStatus= 0;\r\n            }\r\n        }\r\n    }\r\n    return bidsList;\r\n}\r\n   modifier getAllFBids(address _partyAddress, uint256 _tenderId)  {\r\n    uint256[] memory tenderBidIds = tenderRef.getBidIds(_tenderId);\r\n    require(tenderBidIds.length > 0, \"No bids exist\");\r\n    \r\n    // Find the minimum quote amount\r\n    uint256 minQuote = type(uint256).max; // Assuming max value for initialization\r\n    for (uint256 i = 0; i < tenderBidIds.length; i++) {\r\n        uint256 currentBidId = tenderBidIds[i];\r\n        if (bids[currentBidId].quotedAmount < minQuote && bids[currentBidId].isExists) {\r\n            minQuote = bids[currentBidId].quotedAmount;\r\n        }\r\n    }\r\n\r\n    Bid[] memory bidsList = new Bid[](tenderBidIds.length);\r\n    for (uint256 i = 0; i < tenderBidIds.length; i++) {\r\n        uint256 currentBidId = tenderBidIds[i];\r\n        Bid storage updatedBid = bids[currentBidId];\r\n        if (bids[currentBidId].isExists) {\r\n            // Check if the bid has the minimum quote amount\r\n            if (bids[currentBidId].quotedAmount == minQuote) {\r\n                \r\n               updatedBid.bidStatus = 0;\r\n            } else {\r\n                updatedBid.bidStatus= 1;\r\n            }\r\n        }\r\n    }\r\n     _;\r\n}\r\n\r\n    function updateBidStatus(address _partyAddress, uint256 _tenderId, uint256 _bidAddress ,uint256 _bidStatus) public isTenderOwner(_partyAddress, _tenderId) {\r\n        Bid storage updatedBid = bids[_bidAddress];\r\n        updatedBid.bidStatus = _bidStatus;\r\n    }\r\n\r\n    function updateBid(address _bidderAddress, uint256 _bidId, string memory _bidClause, uint256 _quotedAmount) public isBidOwner(_bidderAddress, _bidId) {\r\n        require(bids[_bidId].quotedAmount > 0 , \"bid with address doesn't exists\");\r\n        //require(bids[_bidId].bidStatus == 1 , \"bid cannot be updated\");\r\n        Bid storage updatedBid = bids[_bidId];\r\n        updatedBid.bidClause = _bidClause;\r\n        updatedBid.quotedAmount = _quotedAmount;\r\n    }\r\n//added\r\n    function updateOneBid( uint256 _bidId, uint256 _quotedAmount) public{\r\n        Bid storage updatedBid = bids[_bidId];\r\n        updatedBid.quotedAmount = _quotedAmount;\r\n    }\r\n\r\n    function deleteBid(address _bidderAddress, uint256 _tenderId ,uint256 _bidId) public isBidOwner(_bidderAddress, _bidId){ \r\n        uint256[] memory tenderBidIds = tenderRef.getBidIds(_tenderId);\r\n        require(tenderBidIds.length > 0, \"No bids exists\");\r\n        require(bids[_bidId].quotedAmount > 0 , \"bid with address doesn't exists\");\r\n        //require(bids[_bidId].bidStatus == 1 , \"bid cannot be deleted\");\r\n        bids[_bidId].isExists = false;\r\n        // delete bids[_bidId];\r\n        // tenderRef.deleteBidId(_tenderId, _bidId);         \r\n        for(uint256 i=0;i<tenderBidIds.length;i++){\r\n            if(tenderBidIds[i] == _bidId){\r\n                tenderBidIds[i] = tenderBidIds[tenderBidIds.length -1];\r\n                tenderRef.setBidIds(tenderBidIds, _tenderId);\r\n                break;\r\n            }\r\n        }    \r\n    }\r\n\r\n    modifier isValidTender(uint256 tenderId) {\r\n        uint256 _deadline = tenderRef.getDeadline(tenderId);\r\n        TenderStatus _tenderStatus = tenderRef.getTenderStatus(tenderId);\r\n        require(block.timestamp >= _deadline && _tenderStatus == TenderStatus.CLOSED);\r\n        _;\r\n    }\r\n\r\n    \r\n\r\n \r\n    // function filterBidsByQuotedAmount(Bid[] memory bidList) public returns(Bid[] memory) {\r\n\t// for (uint i = 1; i < bidList.length; i++) {\r\n\t// \tfor (uint j = 0; j < i; j++) {\r\n\t// \t\tif (bidList[i].quotedAmount < bidList[j].quotedAmount) {\r\n\t// \t\t\tBid memory tempBid = bidList[i];\r\n\t// \t\t\tbidList[i] = bidList[j];\r\n\t// \t\t\tbidList[j] = tempBid;\r\n\t// \t\t}\r\n\t// \t}\r\n\t// }\r\n\t// return bidList;\r\n    //  }\r\n\r\n}",
  "sourcePath": "D:\\major-prj\\New folder\\major-prj\\contracts\\BidContract.sol",
  "compiler": {
    "name": "solc",
    "version": "0.8.13+commit.abaa5c0e.Emscripten.clang"
  },
  "schemaVersion": "3.4.16",
  "updatedAt": "2024-03-12T05:50:24.417Z",
  "networkType": "ethereum",
  "devdoc": {
    "kind": "dev",
    "methods": {},
    "version": 1
  },
  "userdoc": {
    "kind": "user",
    "methods": {},
    "version": 1
  }
}