{
  "contractName": "BidContract",
  "abi": [
    {
      "inputs": [
        {
          "internalType": "contract TenderContract",
          "name": "_tenderRef",
          "type": "address"
        },
        {
          "internalType": "contract PartyContract",
          "name": "_partyRef",
          "type": "address"
        }
      ],
      "stateMutability": "nonpayable",
      "type": "constructor"
    },
    {
      "inputs": [
        {
          "internalType": "uint256",
          "name": "",
          "type": "uint256"
        }
      ],
      "name": "bids",
      "outputs": [
        {
          "internalType": "uint256",
          "name": "bidId",
          "type": "uint256"
        },
        {
          "internalType": "string",
          "name": "bidClause",
          "type": "string"
        },
        {
          "internalType": "uint256",
          "name": "quotedAmount",
          "type": "uint256"
        },
        {
          "internalType": "address",
          "name": "bidderAddress",
          "type": "address"
        },
        {
          "internalType": "uint256",
          "name": "tenderId",
          "type": "uint256"
        },
        {
          "internalType": "enum BidContract.BidStatus",
          "name": "bidStatus",
          "type": "uint8"
        },
        {
          "internalType": "uint256",
          "name": "createdAt",
          "type": "uint256"
        },
        {
          "internalType": "bool",
          "name": "isExists",
          "type": "bool"
        }
      ],
      "stateMutability": "view",
      "type": "function",
      "constant": true
    },
    {
      "inputs": [],
      "name": "partyRef",
      "outputs": [
        {
          "internalType": "contract PartyContract",
          "name": "",
          "type": "address"
        }
      ],
      "stateMutability": "view",
      "type": "function",
      "constant": true
    },
    {
      "inputs": [],
      "name": "tenderRef",
      "outputs": [
        {
          "internalType": "contract TenderContract",
          "name": "",
          "type": "address"
        }
      ],
      "stateMutability": "view",
      "type": "function",
      "constant": true
    },
    {
      "inputs": [
        {
          "internalType": "uint256",
          "name": "_bidId",
          "type": "uint256"
        }
      ],
      "name": "getBidderAddress",
      "outputs": [
        {
          "internalType": "address",
          "name": "",
          "type": "address"
        }
      ],
      "stateMutability": "view",
      "type": "function",
      "constant": true
    },
    {
      "inputs": [
        {
          "internalType": "address",
          "name": "_bidderAddress",
          "type": "address"
        },
        {
          "internalType": "uint256",
          "name": "_tenderId",
          "type": "uint256"
        },
        {
          "internalType": "string",
          "name": "_bidClause",
          "type": "string"
        },
        {
          "internalType": "uint256",
          "name": "_quotedAmount",
          "type": "uint256"
        }
      ],
      "name": "createBid",
      "outputs": [],
      "stateMutability": "nonpayable",
      "type": "function"
    },
    {
      "inputs": [
        {
          "internalType": "address",
          "name": "_partyAddress",
          "type": "address"
        },
        {
          "internalType": "uint256",
          "name": "_tenderId",
          "type": "uint256"
        },
        {
          "internalType": "uint256",
          "name": "_bidId",
          "type": "uint256"
        }
      ],
      "name": "getBidDetails",
      "outputs": [
        {
          "components": [
            {
              "internalType": "uint256",
              "name": "bidId",
              "type": "uint256"
            },
            {
              "internalType": "string",
              "name": "bidClause",
              "type": "string"
            },
            {
              "internalType": "uint256",
              "name": "quotedAmount",
              "type": "uint256"
            },
            {
              "internalType": "address",
              "name": "bidderAddress",
              "type": "address"
            },
            {
              "internalType": "uint256",
              "name": "tenderId",
              "type": "uint256"
            },
            {
              "internalType": "enum BidContract.BidStatus",
              "name": "bidStatus",
              "type": "uint8"
            },
            {
              "internalType": "uint256",
              "name": "createdAt",
              "type": "uint256"
            },
            {
              "internalType": "bool",
              "name": "isExists",
              "type": "bool"
            }
          ],
          "internalType": "struct BidContract.Bid",
          "name": "",
          "type": "tuple"
        }
      ],
      "stateMutability": "view",
      "type": "function",
      "constant": true
    },
    {
      "inputs": [
        {
          "internalType": "uint256",
          "name": "_bidId",
          "type": "uint256"
        }
      ],
      "name": "getBDetails",
      "outputs": [
        {
          "internalType": "string",
          "name": "",
          "type": "string"
        },
        {
          "internalType": "string",
          "name": "",
          "type": "string"
        },
        {
          "internalType": "string",
          "name": "",
          "type": "string"
        },
        {
          "internalType": "address",
          "name": "",
          "type": "address"
        },
        {
          "internalType": "uint256",
          "name": "",
          "type": "uint256"
        },
        {
          "internalType": "string",
          "name": "",
          "type": "string"
        }
      ],
      "stateMutability": "view",
      "type": "function",
      "constant": true
    },
    {
      "inputs": [
        {
          "internalType": "address",
          "name": "_bidderAddress",
          "type": "address"
        }
      ],
      "name": "getMyBids",
      "outputs": [
        {
          "components": [
            {
              "internalType": "uint256",
              "name": "bidId",
              "type": "uint256"
            },
            {
              "internalType": "string",
              "name": "bidClause",
              "type": "string"
            },
            {
              "internalType": "uint256",
              "name": "quotedAmount",
              "type": "uint256"
            },
            {
              "internalType": "address",
              "name": "bidderAddress",
              "type": "address"
            },
            {
              "internalType": "uint256",
              "name": "tenderId",
              "type": "uint256"
            },
            {
              "internalType": "enum BidContract.BidStatus",
              "name": "bidStatus",
              "type": "uint8"
            },
            {
              "internalType": "uint256",
              "name": "createdAt",
              "type": "uint256"
            },
            {
              "internalType": "bool",
              "name": "isExists",
              "type": "bool"
            }
          ],
          "internalType": "struct BidContract.Bid[]",
          "name": "",
          "type": "tuple[]"
        },
        {
          "internalType": "uint256",
          "name": "",
          "type": "uint256"
        }
      ],
      "stateMutability": "view",
      "type": "function",
      "constant": true
    },
    {
      "inputs": [
        {
          "internalType": "address",
          "name": "_partyAddress",
          "type": "address"
        },
        {
          "internalType": "uint256",
          "name": "_tenderId",
          "type": "uint256"
        }
      ],
      "name": "getNAllBids",
      "outputs": [
        {
          "components": [
            {
              "internalType": "uint256",
              "name": "bidId",
              "type": "uint256"
            },
            {
              "internalType": "string",
              "name": "bidClause",
              "type": "string"
            },
            {
              "internalType": "uint256",
              "name": "quotedAmount",
              "type": "uint256"
            },
            {
              "internalType": "address",
              "name": "bidderAddress",
              "type": "address"
            },
            {
              "internalType": "uint256",
              "name": "tenderId",
              "type": "uint256"
            },
            {
              "internalType": "enum BidContract.BidStatus",
              "name": "bidStatus",
              "type": "uint8"
            },
            {
              "internalType": "uint256",
              "name": "createdAt",
              "type": "uint256"
            },
            {
              "internalType": "bool",
              "name": "isExists",
              "type": "bool"
            }
          ],
          "internalType": "struct BidContract.Bid[]",
          "name": "",
          "type": "tuple[]"
        }
      ],
      "stateMutability": "view",
      "type": "function",
      "constant": true
    },
    {
      "inputs": [
        {
          "internalType": "address",
          "name": "_partyAddress",
          "type": "address"
        },
        {
          "internalType": "uint256",
          "name": "_tenderId",
          "type": "uint256"
        }
      ],
      "name": "getAllBids",
      "outputs": [
        {
          "components": [
            {
              "internalType": "uint256",
              "name": "bidId",
              "type": "uint256"
            },
            {
              "internalType": "string",
              "name": "bidClause",
              "type": "string"
            },
            {
              "internalType": "uint256",
              "name": "quotedAmount",
              "type": "uint256"
            },
            {
              "internalType": "address",
              "name": "bidderAddress",
              "type": "address"
            },
            {
              "internalType": "uint256",
              "name": "tenderId",
              "type": "uint256"
            },
            {
              "internalType": "enum BidContract.BidStatus",
              "name": "bidStatus",
              "type": "uint8"
            },
            {
              "internalType": "uint256",
              "name": "createdAt",
              "type": "uint256"
            },
            {
              "internalType": "bool",
              "name": "isExists",
              "type": "bool"
            }
          ],
          "internalType": "struct BidContract.Bid[]",
          "name": "",
          "type": "tuple[]"
        }
      ],
      "stateMutability": "nonpayable",
      "type": "function"
    },
    {
      "inputs": [
        {
          "internalType": "address",
          "name": "_partyAddress",
          "type": "address"
        },
        {
          "internalType": "uint256",
          "name": "_tenderId",
          "type": "uint256"
        },
        {
          "internalType": "uint256",
          "name": "_bidAddress",
          "type": "uint256"
        },
        {
          "internalType": "enum BidContract.BidStatus",
          "name": "_bidStatus",
          "type": "uint8"
        }
      ],
      "name": "updateBidStatus",
      "outputs": [],
      "stateMutability": "nonpayable",
      "type": "function"
    },
    {
      "inputs": [
        {
          "internalType": "address",
          "name": "_bidderAddress",
          "type": "address"
        },
        {
          "internalType": "uint256",
          "name": "_bidId",
          "type": "uint256"
        },
        {
          "internalType": "string",
          "name": "_bidClause",
          "type": "string"
        },
        {
          "internalType": "uint256",
          "name": "_quotedAmount",
          "type": "uint256"
        }
      ],
      "name": "updateBid",
      "outputs": [],
      "stateMutability": "nonpayable",
      "type": "function"
    },
    {
      "inputs": [
        {
          "internalType": "address",
          "name": "_bidderAddress",
          "type": "address"
        },
        {
          "internalType": "uint256",
          "name": "_tenderId",
          "type": "uint256"
        },
        {
          "internalType": "uint256",
          "name": "_bidId",
          "type": "uint256"
        }
      ],
      "name": "deleteBid",
      "outputs": [],
      "stateMutability": "nonpayable",
      "type": "function"
    }
  ],
  "bytecode": "0x608060405260006001553480156200001657600080fd5b5060405162003d2138038062003d2183398181016040528101906200003c919062000189565b81600260006101000a81548173ffffffffffffffffffffffffffffffffffffffff021916908373ffffffffffffffffffffffffffffffffffffffff16021790555080600360006101000a81548173ffffffffffffffffffffffffffffffffffffffff021916908373ffffffffffffffffffffffffffffffffffffffff1602179055505050620001d0565b600080fd5b600073ffffffffffffffffffffffffffffffffffffffff82169050919050565b6000620000f882620000cb565b9050919050565b60006200010c82620000eb565b9050919050565b6200011e81620000ff565b81146200012a57600080fd5b50565b6000815190506200013e8162000113565b92915050565b60006200015182620000eb565b9050919050565b620001638162000144565b81146200016f57600080fd5b50565b600081519050620001838162000158565b92915050565b60008060408385031215620001a357620001a2620000c6565b5b6000620001b3858286016200012d565b9250506020620001c68582860162000172565b9150509250929050565b613b4180620001e06000396000f3fe608060405234801561001057600080fd5b50600436106100cf5760003560e01c80638d4553991161008c578063e10540b611610066578063e10540b61461022b578063eac2473714610260578063ebc25fa614610290578063f91b6ae5146102c1576100cf565b80638d455399146101d35780638d5b8612146101f1578063bb693c4d1461020f576100cf565b806305ee3e51146100d4578063167548c5146101045780634423c5f1146101205780635fa382801461015757806361281516146101875780636dc4d10c146101b7575b600080fd5b6100ee60048036038101906100e99190612571565b6102dd565b6040516100fb919061286c565b60405180910390f35b61011e600480360381019061011991906129c3565b61074a565b005b61013a60048036038101906101359190612a46565b610911565b60405161014e989796959493929190612af9565b60405180910390f35b610171600480360381019061016c9190612a46565b610a1b565b60405161017e9190612b7e565b60405180910390f35b6101a1600480360381019061019c9190612571565b610a5a565b6040516101ae919061286c565b60405180910390f35b6101d160048036038101906101cc9190612bbe565b610e7f565b005b6101db610fdb565b6040516101e89190612c84565b60405180910390f35b6101f9611001565b6040516102069190612cc0565b60405180910390f35b61022960048036038101906102249190612cdb565b611027565b005b61024560048036038101906102409190612a46565b6113e8565b60405161025796959493929190612d2e565b60405180910390f35b61027a60048036038101906102759190612cdb565b611534565b6040516102879190612e5b565b60405180910390f35b6102aa60048036038101906102a59190612e7d565b6118a1565b6040516102b8929190612eaa565b60405180910390f35b6102db60048036038101906102d691906129c3565b611d66565b005b606082826000600260009054906101000a900473ffffffffffffffffffffffffffffffffffffffff1673ffffffffffffffffffffffffffffffffffffffff16637e4d2d97836040518263ffffffff1660e01b815260040161033e9190612eda565b602060405180830381865afa15801561035b573d6000803e3d6000fd5b505050506040513d601f19601f8201168201806040525081019061037f9190612f0a565b90508273ffffffffffffffffffffffffffffffffffffffff168173ffffffffffffffffffffffffffffffffffffffff16146103ef576040517f08c379a00000000000000000000000000000000000000000000000000000000081526004016103e690612fa9565b60405180910390fd5b6000600260009054906101000a900473ffffffffffffffffffffffffffffffffffffffff1673ffffffffffffffffffffffffffffffffffffffff166342222a43876040518263ffffffff1660e01b815260040161044c9190612eda565b600060405180830381865afa158015610469573d6000803e3d6000fd5b505050506040513d6000823e3d601f19601f8201168201806040525081019061049291906130a6565b905060008151116104d8576040517f08c379a00000000000000000000000000000000000000000000000000000000081526004016104cf9061313b565b60405180910390fd5b6000815167ffffffffffffffff8111156104f5576104f4612898565b5b60405190808252806020026020018201604052801561052e57816020015b61051b6123b7565b8152602001906001900390816105135790505b50905060005b825181101561073b576001151560008083815260200190815260200160002060070160009054906101000a900460ff16151503610728576000808483815181106105815761058061315b565b5b6020026020010151815260200190815260200160002060405180610100016040529081600082015481526020016001820180546105bd906131b9565b80601f01602080910402602001604051908101604052809291908181526020018280546105e9906131b9565b80156106365780601f1061060b57610100808354040283529160200191610636565b820191906000526020600020905b81548152906001019060200180831161061957829003601f168201915b50505050508152602001600282015481526020016003820160009054906101000a900473ffffffffffffffffffffffffffffffffffffffff1673ffffffffffffffffffffffffffffffffffffffff1673ffffffffffffffffffffffffffffffffffffffff168152602001600482015481526020016005820160009054906101000a900460ff1660028111156106ce576106cd612694565b5b60028111156106e0576106df612694565b5b8152602001600682015481526020016007820160009054906101000a900460ff16151515158152505082828151811061071c5761071b61315b565b5b60200260200101819052505b808061073390613219565b915050610534565b50809550505050505092915050565b83838173ffffffffffffffffffffffffffffffffffffffff1660008083815260200190815260200160002060030160009054906101000a900473ffffffffffffffffffffffffffffffffffffffff1673ffffffffffffffffffffffffffffffffffffffff16146107ef576040517f08c379a00000000000000000000000000000000000000000000000000000000081526004016107e690612fa9565b60405180910390fd5b60008060008781526020019081526020016000206002015411610847576040517f08c379a000000000000000000000000000000000000000000000000000000000815260040161083e906132ad565b60405180910390fd5b6000600281111561085b5761085a612694565b5b60008087815260200190815260200160002060050160009054906101000a900460ff1660028111156108905761088f612694565b5b146108d0576040517f08c379a00000000000000000000000000000000000000000000000000000000081526004016108c790613319565b60405180910390fd5b60008060008781526020019081526020016000209050848160010190805190602001906108fe929190612426565b5083816002018190555050505050505050565b600060205280600052604060002060009150905080600001549080600101805461093a906131b9565b80601f0160208091040260200160405190810160405280929190818152602001828054610966906131b9565b80156109b35780601f10610988576101008083540402835291602001916109b3565b820191906000526020600020905b81548152906001019060200180831161099657829003601f168201915b5050505050908060020154908060030160009054906101000a900473ffffffffffffffffffffffffffffffffffffffff16908060040154908060050160009054906101000a900460ff16908060060154908060070160009054906101000a900460ff16905088565b600080600083815260200190815260200160002060030160009054906101000a900473ffffffffffffffffffffffffffffffffffffffff169050919050565b606082826000600260009054906101000a900473ffffffffffffffffffffffffffffffffffffffff1673ffffffffffffffffffffffffffffffffffffffff16637e4d2d97836040518263ffffffff1660e01b8152600401610abb9190612eda565b602060405180830381865afa158015610ad8573d6000803e3d6000fd5b505050506040513d601f19601f82011682018060405250810190610afc9190612f0a565b90508273ffffffffffffffffffffffffffffffffffffffff168173ffffffffffffffffffffffffffffffffffffffff1614610b6c576040517f08c379a0000000000000000000000000000000000000000000000000000000008152600401610b6390612fa9565b60405180910390fd5b6000600260009054906101000a900473ffffffffffffffffffffffffffffffffffffffff1673ffffffffffffffffffffffffffffffffffffffff166342222a43876040518263ffffffff1660e01b8152600401610bc99190612eda565b600060405180830381865afa158015610be6573d6000803e3d6000fd5b505050506040513d6000823e3d601f19601f82011682018060405250810190610c0f91906130a6565b90506000815111610c55576040517f08c379a0000000000000000000000000000000000000000000000000000000008152600401610c4c90613385565b60405180910390fd5b60007fffffffffffffffffffffffffffffffffffffffffffffffffffffffffffffffff905060005b8251811015610d1a576000838281518110610c9b57610c9a61315b565b5b602002602001015190508260008083815260200190815260200160002060020154108015610ce8575060008082815260200190815260200160002060070160009054906101000a900460ff165b15610d06576000808281526020019081526020016000206002015492505b508080610d1290613219565b915050610c7d565b506000825167ffffffffffffffff811115610d3857610d37612898565b5b604051908082528060200260200182016040528015610d7157816020015b610d5e6123b7565b815260200190600190039081610d565790505b50905060005b8351811015610e6f576000848281518110610d9557610d9461315b565b5b602002602001015190506000806000838152602001908152602001600020905060008083815260200190815260200160002060070160009054906101000a900460ff1615610e5a57846000808481526020019081526020016000206002015403610e2b5760028160050160006101000a81548160ff02191690836002811115610e2157610e20612694565b5b0217905550610e59565b60018160050160006101000a81548160ff02191690836002811115610e5357610e52612694565b5b02179055505b5b50508080610e6790613219565b915050610d77565b5080965050505050505092915050565b83836000600260009054906101000a900473ffffffffffffffffffffffffffffffffffffffff1673ffffffffffffffffffffffffffffffffffffffff16637e4d2d97836040518263ffffffff1660e01b8152600401610ede9190612eda565b602060405180830381865afa158015610efb573d6000803e3d6000fd5b505050506040513d601f19601f82011682018060405250810190610f1f9190612f0a565b90508273ffffffffffffffffffffffffffffffffffffffff168173ffffffffffffffffffffffffffffffffffffffff1614610f8f576040517f08c379a0000000000000000000000000000000000000000000000000000000008152600401610f8690612fa9565b60405180910390fd5b60008060008781526020019081526020016000209050848160050160006101000a81548160ff02191690836002811115610fcc57610fcb612694565b5b02179055505050505050505050565b600360009054906101000a900473ffffffffffffffffffffffffffffffffffffffff1681565b600260009054906101000a900473ffffffffffffffffffffffffffffffffffffffff1681565b82818173ffffffffffffffffffffffffffffffffffffffff1660008083815260200190815260200160002060030160009054906101000a900473ffffffffffffffffffffffffffffffffffffffff1673ffffffffffffffffffffffffffffffffffffffff16146110cc576040517f08c379a00000000000000000000000000000000000000000000000000000000081526004016110c390612fa9565b60405180910390fd5b6000600260009054906101000a900473ffffffffffffffffffffffffffffffffffffffff1673ffffffffffffffffffffffffffffffffffffffff166342222a43866040518263ffffffff1660e01b81526004016111299190612eda565b600060405180830381865afa158015611146573d6000803e3d6000fd5b505050506040513d6000823e3d601f19601f8201168201806040525081019061116f91906130a6565b905060008151116111b5576040517f08c379a00000000000000000000000000000000000000000000000000000000081526004016111ac9061313b565b60405180910390fd5b6000806000868152602001908152602001600020600201541161120d576040517f08c379a0000000000000000000000000000000000000000000000000000000008152600401611204906132ad565b60405180910390fd5b6000600281111561122157611220612694565b5b60008086815260200190815260200160002060050160009054906101000a900460ff16600281111561125657611255612694565b5b14611296576040517f08c379a000000000000000000000000000000000000000000000000000000000815260040161128d906133f1565b60405180910390fd5b600080600086815260200190815260200160002060070160006101000a81548160ff02191690831515021790555060005b81518110156113df57848282815181106112e4576112e361315b565b5b6020026020010151036113cc5781600183516113009190613411565b815181106113115761131061315b565b5b602002602001015182828151811061132c5761132b61315b565b5b602002602001018181525050600260009054906101000a900473ffffffffffffffffffffffffffffffffffffffff1673ffffffffffffffffffffffffffffffffffffffff1663897bb97983886040518363ffffffff1660e01b81526004016113959291906134f4565b600060405180830381600087803b1580156113af57600080fd5b505af11580156113c3573d6000803e3d6000fd5b505050506113df565b80806113d790613219565b9150506112c7565b50505050505050565b606080606060008060606000806000898152602001908152602001600020600201541161144a576040517f08c379a000000000000000000000000000000000000000000000000000000000815260040161144190613570565b60405180910390fd5b600360009054906101000a900473ffffffffffffffffffffffffffffffffffffffff1673ffffffffffffffffffffffffffffffffffffffff1662da72286000808a815260200190815260200160002060030160009054906101000a900473ffffffffffffffffffffffffffffffffffffffff166040518263ffffffff1660e01b81526004016114d99190612b7e565b600060405180830381865afa1580156114f6573d6000803e3d6000fd5b505050506040513d6000823e3d601f19601f8201168201806040525081019061151f9190613600565b95509550955095509550955091939550919395565b61153c6123b7565b8383836000600260009054906101000a900473ffffffffffffffffffffffffffffffffffffffff1673ffffffffffffffffffffffffffffffffffffffff16637e4d2d97846040518263ffffffff1660e01b815260040161159c9190612eda565b602060405180830381865afa1580156115b9573d6000803e3d6000fd5b505050506040513d601f19601f820116820180604052508101906115dd9190612f0a565b90508373ffffffffffffffffffffffffffffffffffffffff1660008084815260200190815260200160002060030160009054906101000a900473ffffffffffffffffffffffffffffffffffffffff1673ffffffffffffffffffffffffffffffffffffffff16148061167957508373ffffffffffffffffffffffffffffffffffffffff168173ffffffffffffffffffffffffffffffffffffffff16145b6116b8576040517f08c379a00000000000000000000000000000000000000000000000000000000081526004016116af9061376f565b60405180910390fd5b60008060008881526020019081526020016000206002015411611710576040517f08c379a000000000000000000000000000000000000000000000000000000000815260040161170790613570565b60405180910390fd5b6000808781526020019081526020016000206040518061010001604052908160008201548152602001600182018054611748906131b9565b80601f0160208091040260200160405190810160405280929190818152602001828054611774906131b9565b80156117c15780601f10611796576101008083540402835291602001916117c1565b820191906000526020600020905b8154815290600101906020018083116117a457829003601f168201915b50505050508152602001600282015481526020016003820160009054906101000a900473ffffffffffffffffffffffffffffffffffffffff1673ffffffffffffffffffffffffffffffffffffffff1673ffffffffffffffffffffffffffffffffffffffff168152602001600482015481526020016005820160009054906101000a900460ff16600281111561185957611858612694565b5b600281111561186b5761186a612694565b5b8152602001600682015481526020016007820160009054906101000a900460ff1615151515815250509450505050509392505050565b60606000828073ffffffffffffffffffffffffffffffffffffffff163373ffffffffffffffffffffffffffffffffffffffff1614611914576040517f08c379a000000000000000000000000000000000000000000000000000000000815260040161190b906137db565b60405180910390fd5b600060015411611959576040517f08c379a000000000000000000000000000000000000000000000000000000000815260040161195090613385565b60405180910390fd5b600080600260009054906101000a900473ffffffffffffffffffffffffffffffffffffffff1673ffffffffffffffffffffffffffffffffffffffff16635850b3836040518163ffffffff1660e01b8152600401602060405180830381865afa1580156119c9573d6000803e3d6000fd5b505050506040513d601f19601f820116820180604052508101906119ed91906137fb565b67ffffffffffffffff811115611a0657611a05612898565b5b604051908082528060200260200182016040528015611a3f57816020015b611a2c6123b7565b815260200190600190039081611a245790505b5090506000805b600154811015611d5657600260009054906101000a900473ffffffffffffffffffffffffffffffffffffffff1673ffffffffffffffffffffffffffffffffffffffff16635850b3836040518163ffffffff1660e01b8152600401602060405180830381865afa158015611abd573d6000803e3d6000fd5b505050506040513d601f19601f82011682018060405250810190611ae191906137fb565b821015611d35576001151560008083815260200190815260200160002060070160009054906101000a900460ff161515148015611b7e57508773ffffffffffffffffffffffffffffffffffffffff1660008083815260200190815260200160002060030160009054906101000a900473ffffffffffffffffffffffffffffffffffffffff1673ffffffffffffffffffffffffffffffffffffffff16145b15611d34578380611b8e90613219565b9450506000808281526020019081526020016000206040518061010001604052908160008201548152602001600182018054611bc9906131b9565b80601f0160208091040260200160405190810160405280929190818152602001828054611bf5906131b9565b8015611c425780601f10611c1757610100808354040283529160200191611c42565b820191906000526020600020905b815481529060010190602001808311611c2557829003601f168201915b50505050508152602001600282015481526020016003820160009054906101000a900473ffffffffffffffffffffffffffffffffffffffff1673ffffffffffffffffffffffffffffffffffffffff1673ffffffffffffffffffffffffffffffffffffffff168152602001600482015481526020016005820160009054906101000a900460ff166002811115611cda57611cd9612694565b5b6002811115611cec57611ceb612694565b5b8152602001600682015481526020016007820160009054906101000a900460ff161515151581525050838381518110611d2857611d2761315b565b5b60200260200101819052505b5b8180611d4090613219565b9250508080611d4e90613219565b915050611a46565b5081819550955050505050915091565b600f600260009054906101000a900473ffffffffffffffffffffffffffffffffffffffff1673ffffffffffffffffffffffffffffffffffffffff16634008f9c0856040518263ffffffff1660e01b8152600401611dc39190612eda565b602060405180830381865afa158015611de0573d6000803e3d6000fd5b505050506040513d601f19601f82011682018060405250810190611e0491906137fb565b1115611e45576040517f08c379a0000000000000000000000000000000000000000000000000000000008152600401611e3c9061389a565b60405180910390fd5b6000600260009054906101000a900473ffffffffffffffffffffffffffffffffffffffff1673ffffffffffffffffffffffffffffffffffffffff16632e4ea4c4856040518263ffffffff1660e01b8152600401611ea29190612eda565b602060405180830381865afa158015611ebf573d6000803e3d6000fd5b505050506040513d601f19601f82011682018060405250810190611ee391906137fb565b90506000600260009054906101000a900473ffffffffffffffffffffffffffffffffffffffff1673ffffffffffffffffffffffffffffffffffffffff1663354133f7866040518263ffffffff1660e01b8152600401611f429190612eda565b602060405180830381865afa158015611f5f573d6000803e3d6000fd5b505050506040513d601f19601f82011682018060405250810190611f8391906138df565b90506000600260009054906101000a900473ffffffffffffffffffffffffffffffffffffffff1673ffffffffffffffffffffffffffffffffffffffff166382862275876040518263ffffffff1660e01b8152600401611fe29190612eda565b602060405180830381865afa158015611fff573d6000803e3d6000fd5b505050506040513d601f19601f8201168201806040525081019061202391906137fb565b90506000600260009054906101000a900473ffffffffffffffffffffffffffffffffffffffff1673ffffffffffffffffffffffffffffffffffffffff16637e4d2d97886040518263ffffffff1660e01b81526004016120829190612eda565b602060405180830381865afa15801561209f573d6000803e3d6000fd5b505050506040513d601f19601f820116820180604052508101906120c39190612f0a565b905060008411612108576040517f08c379a00000000000000000000000000000000000000000000000000000000081526004016120ff90613958565b60405180910390fd5b6001600481111561211c5761211b612694565b5b83600481111561212f5761212e612694565b5b1461216f576040517f08c379a0000000000000000000000000000000000000000000000000000000008152600401612166906139c4565b60405180910390fd5b8142106121b1576040517f08c379a00000000000000000000000000000000000000000000000000000000081526004016121a890613a30565b60405180910390fd5b8073ffffffffffffffffffffffffffffffffffffffff168873ffffffffffffffffffffffffffffffffffffffff160361221f576040517f08c379a000000000000000000000000000000000000000000000000000000000815260040161221690613ac2565b60405180910390fd5b60008060006001548152602001908152602001600020905060015481600001819055508681600101908051906020019061225a929190612426565b50858160020181905550888160030160006101000a81548173ffffffffffffffffffffffffffffffffffffffff021916908373ffffffffffffffffffffffffffffffffffffffff16021790555087816004018190555060008160050160006101000a81548160ff021916908360028111156122d8576122d7612694565b5b021790555042816006018190555060018160070160006101000a81548160ff021916908315150217905550600260009054906101000a900473ffffffffffffffffffffffffffffffffffffffff1673ffffffffffffffffffffffffffffffffffffffff1663f1d8ef4d896001546040518363ffffffff1660e01b8152600401612362929190613ae2565b600060405180830381600087803b15801561237c57600080fd5b505af1158015612390573d6000803e3d6000fd5b50505050600160008154809291906123a790613219565b9190505550505050505050505050565b604051806101000160405280600081526020016060815260200160008152602001600073ffffffffffffffffffffffffffffffffffffffff16815260200160008152602001600060028111156124105761240f612694565b5b8152602001600081526020016000151581525090565b828054612432906131b9565b90600052602060002090601f016020900481019282612454576000855561249b565b82601f1061246d57805160ff191683800117855561249b565b8280016001018555821561249b579182015b8281111561249a57825182559160200191906001019061247f565b5b5090506124a891906124ac565b5090565b5b808211156124c55760008160009055506001016124ad565b5090565b6000604051905090565b600080fd5b600080fd5b600073ffffffffffffffffffffffffffffffffffffffff82169050919050565b6000612508826124dd565b9050919050565b612518816124fd565b811461252357600080fd5b50565b6000813590506125358161250f565b92915050565b6000819050919050565b61254e8161253b565b811461255957600080fd5b50565b60008135905061256b81612545565b92915050565b60008060408385031215612588576125876124d3565b5b600061259685828601612526565b92505060206125a78582860161255c565b9150509250929050565b600081519050919050565b600082825260208201905092915050565b6000819050602082019050919050565b6125e68161253b565b82525050565b600081519050919050565b600082825260208201905092915050565b60005b8381101561262657808201518184015260208101905061260b565b83811115612635576000848401525b50505050565b6000601f19601f8301169050919050565b6000612657826125ec565b61266181856125f7565b9350612671818560208601612608565b61267a8161263b565b840191505092915050565b61268e816124fd565b82525050565b7f4e487b7100000000000000000000000000000000000000000000000000000000600052602160045260246000fd5b600381106126d4576126d3612694565b5b50565b60008190506126e5826126c3565b919050565b60006126f5826126d7565b9050919050565b612705816126ea565b82525050565b60008115159050919050565b6127208161270b565b82525050565b60006101008301600083015161273f60008601826125dd565b5060208301518482036020860152612757828261264c565b915050604083015161276c60408601826125dd565b50606083015161277f6060860182612685565b50608083015161279260808601826125dd565b5060a08301516127a560a08601826126fc565b5060c08301516127b860c08601826125dd565b5060e08301516127cb60e0860182612717565b508091505092915050565b60006127e28383612726565b905092915050565b6000602082019050919050565b6000612802826125b1565b61280c81856125bc565b93508360208202850161281e856125cd565b8060005b8581101561285a578484038952815161283b85826127d6565b9450612846836127ea565b925060208a01995050600181019050612822565b50829750879550505050505092915050565b6000602082019050818103600083015261288681846127f7565b905092915050565b600080fd5b600080fd5b7f4e487b7100000000000000000000000000000000000000000000000000000000600052604160045260246000fd5b6128d08261263b565b810181811067ffffffffffffffff821117156128ef576128ee612898565b5b80604052505050565b60006129026124c9565b905061290e82826128c7565b919050565b600067ffffffffffffffff82111561292e5761292d612898565b5b6129378261263b565b9050602081019050919050565b82818337600083830152505050565b600061296661296184612913565b6128f8565b90508281526020810184848401111561298257612981612893565b5b61298d848285612944565b509392505050565b600082601f8301126129aa576129a961288e565b5b81356129ba848260208601612953565b91505092915050565b600080600080608085870312156129dd576129dc6124d3565b5b60006129eb87828801612526565b94505060206129fc8782880161255c565b935050604085013567ffffffffffffffff811115612a1d57612a1c6124d8565b5b612a2987828801612995565b9250506060612a3a8782880161255c565b91505092959194509250565b600060208284031215612a5c57612a5b6124d3565b5b6000612a6a8482850161255c565b91505092915050565b612a7c8161253b565b82525050565b600082825260208201905092915050565b6000612a9e826125ec565b612aa88185612a82565b9350612ab8818560208601612608565b612ac18161263b565b840191505092915050565b612ad5816124fd565b82525050565b612ae4816126ea565b82525050565b612af38161270b565b82525050565b600061010082019050612b0f600083018b612a73565b8181036020830152612b21818a612a93565b9050612b306040830189612a73565b612b3d6060830188612acc565b612b4a6080830187612a73565b612b5760a0830186612adb565b612b6460c0830185612a73565b612b7160e0830184612aea565b9998505050505050505050565b6000602082019050612b936000830184612acc565b92915050565b60038110612ba657600080fd5b50565b600081359050612bb881612b99565b92915050565b60008060008060808587031215612bd857612bd76124d3565b5b6000612be687828801612526565b9450506020612bf78782880161255c565b9350506040612c088782880161255c565b9250506060612c1987828801612ba9565b91505092959194509250565b6000819050919050565b6000612c4a612c45612c40846124dd565b612c25565b6124dd565b9050919050565b6000612c5c82612c2f565b9050919050565b6000612c6e82612c51565b9050919050565b612c7e81612c63565b82525050565b6000602082019050612c996000830184612c75565b92915050565b6000612caa82612c51565b9050919050565b612cba81612c9f565b82525050565b6000602082019050612cd56000830184612cb1565b92915050565b600080600060608486031215612cf457612cf36124d3565b5b6000612d0286828701612526565b9350506020612d138682870161255c565b9250506040612d248682870161255c565b9150509250925092565b600060c0820190508181036000830152612d488189612a93565b90508181036020830152612d5c8188612a93565b90508181036040830152612d708187612a93565b9050612d7f6060830186612acc565b612d8c6080830185612a73565b81810360a0830152612d9e8184612a93565b9050979650505050505050565b600061010083016000830151612dc460008601826125dd565b5060208301518482036020860152612ddc828261264c565b9150506040830151612df160408601826125dd565b506060830151612e046060860182612685565b506080830151612e1760808601826125dd565b5060a0830151612e2a60a08601826126fc565b5060c0830151612e3d60c08601826125dd565b5060e0830151612e5060e0860182612717565b508091505092915050565b60006020820190508181036000830152612e758184612dab565b905092915050565b600060208284031215612e9357612e926124d3565b5b6000612ea184828501612526565b91505092915050565b60006040820190508181036000830152612ec481856127f7565b9050612ed36020830184612a73565b9392505050565b6000602082019050612eef6000830184612a73565b92915050565b600081519050612f048161250f565b92915050565b600060208284031215612f2057612f1f6124d3565b5b6000612f2e84828501612ef5565b91505092915050565b7f796f75277265206e6f7420617574686f72697a656420746f20706572666f726d60008201527f207468697320616374696f6e0000000000000000000000000000000000000000602082015250565b6000612f93602c83612a82565b9150612f9e82612f37565b604082019050919050565b60006020820190508181036000830152612fc281612f86565b9050919050565b600067ffffffffffffffff821115612fe457612fe3612898565b5b602082029050602081019050919050565b600080fd5b60008151905061300981612545565b92915050565b600061302261301d84612fc9565b6128f8565b9050808382526020820190506020840283018581111561304557613044612ff5565b5b835b8181101561306e578061305a8882612ffa565b845260208401935050602081019050613047565b5050509392505050565b600082601f83011261308d5761308c61288e565b5b815161309d84826020860161300f565b91505092915050565b6000602082840312156130bc576130bb6124d3565b5b600082015167ffffffffffffffff8111156130da576130d96124d8565b5b6130e684828501613078565b91505092915050565b7f4e6f206269647320657869737473000000000000000000000000000000000000600082015250565b6000613125600e83612a82565b9150613130826130ef565b602082019050919050565b6000602082019050818103600083015261315481613118565b9050919050565b7f4e487b7100000000000000000000000000000000000000000000000000000000600052603260045260246000fd5b7f4e487b7100000000000000000000000000000000000000000000000000000000600052602260045260246000fd5b600060028204905060018216806131d157607f821691505b6020821081036131e4576131e361318a565b5b50919050565b7f4e487b7100000000000000000000000000000000000000000000000000000000600052601160045260246000fd5b60006132248261253b565b91507fffffffffffffffffffffffffffffffffffffffffffffffffffffffffffffffff8203613256576132556131ea565b5b600182019050919050565b7f6269642077697468206164647265737320646f65736e27742065786973747300600082015250565b6000613297601f83612a82565b91506132a282613261565b602082019050919050565b600060208201905081810360008301526132c68161328a565b9050919050565b7f6269642063616e6e6f7420626520757064617465640000000000000000000000600082015250565b6000613303601583612a82565b915061330e826132cd565b602082019050919050565b60006020820190508181036000830152613332816132f6565b9050919050565b7f4e6f206269647320657869737400000000000000000000000000000000000000600082015250565b600061336f600d83612a82565b915061337a82613339565b602082019050919050565b6000602082019050818103600083015261339e81613362565b9050919050565b7f6269642063616e6e6f742062652064656c657465640000000000000000000000600082015250565b60006133db601583612a82565b91506133e6826133a5565b602082019050919050565b6000602082019050818103600083015261340a816133ce565b9050919050565b600061341c8261253b565b91506134278361253b565b92508282101561343a576134396131ea565b5b828203905092915050565b600081519050919050565b600082825260208201905092915050565b6000819050602082019050919050565b600061347d83836125dd565b60208301905092915050565b6000602082019050919050565b60006134a182613445565b6134ab8185613450565b93506134b683613461565b8060005b838110156134e75781516134ce8882613471565b97506134d983613489565b9250506001810190506134ba565b5085935050505092915050565b6000604082019050818103600083015261350e8185613496565b905061351d6020830184612a73565b9392505050565b7f42696420646f6573206e6f742065786973740000000000000000000000000000600082015250565b600061355a601283612a82565b915061356582613524565b602082019050919050565b600060208201905081810360008301526135898161354d565b9050919050565b60006135a361359e84612913565b6128f8565b9050828152602081018484840111156135bf576135be612893565b5b6135ca848285612608565b509392505050565b600082601f8301126135e7576135e661288e565b5b81516135f7848260208601613590565b91505092915050565b60008060008060008060c0878903121561361d5761361c6124d3565b5b600087015167ffffffffffffffff81111561363b5761363a6124d8565b5b61364789828a016135d2565b965050602087015167ffffffffffffffff811115613668576136676124d8565b5b61367489828a016135d2565b955050604087015167ffffffffffffffff811115613695576136946124d8565b5b6136a189828a016135d2565b94505060606136b289828a01612ef5565b93505060806136c389828a01612ffa565b92505060a087015167ffffffffffffffff8111156136e4576136e36124d8565b5b6136f089828a016135d2565b9150509295509295509295565b7f4e6f7420617574686f72697a656420746f20766965772062696420646574616960008201527f6c73000000000000000000000000000000000000000000000000000000000000602082015250565b6000613759602283612a82565b9150613764826136fd565b604082019050919050565b600060208201905081810360008301526137888161374c565b9050919050565b7f43616c6c6572206973206e6f74206f776e657200000000000000000000000000600082015250565b60006137c5601383612a82565b91506137d08261378f565b602082019050919050565b600060208201905081810360008301526137f4816137b8565b9050919050565b600060208284031215613811576138106124d3565b5b600061381f84828501612ffa565b91505092915050565b7f4d6178696d756d206269647320666f7220746869732074656e6465722065786360008201527f6565646564000000000000000000000000000000000000000000000000000000602082015250565b6000613884602583612a82565b915061388f82613828565b604082019050919050565b600060208201905081810360008301526138b381613877565b9050919050565b600581106138c757600080fd5b50565b6000815190506138d9816138ba565b92915050565b6000602082840312156138f5576138f46124d3565b5b6000613903848285016138ca565b91505092915050565b7f54656e64657220646f6573206e6f742065786973740000000000000000000000600082015250565b6000613942601583612a82565b915061394d8261390c565b602082019050919050565b6000602082019050818103600083015261397181613935565b9050919050565b7f54656e646572206973206e6f74206f70656e20666f7220626964730000000000600082015250565b60006139ae601b83612a82565b91506139b982613978565b602082019050919050565b600060208201905081810360008301526139dd816139a1565b9050919050565b7f42696464696e672068617320656e646564000000000000000000000000000000600082015250565b6000613a1a601183612a82565b9150613a25826139e4565b602082019050919050565b60006020820190508181036000830152613a4981613a0d565b9050919050565b7f4f776e65722063616e6e6f7420626964206f6e207468656972206f776e20746560008201527f6e64657200000000000000000000000000000000000000000000000000000000602082015250565b6000613aac602483612a82565b9150613ab782613a50565b604082019050919050565b60006020820190508181036000830152613adb81613a9f565b9050919050565b6000604082019050613af76000830185612a73565b613b046020830184612a73565b939250505056fea264697066735822122006c8e900f4b1439bdfa4876b252fd3d870311491727382a4bbb28cbf657bf7bb64736f6c634300080d0033",
  "immutableReferences": {},
  "source": "// SPDX-License-Identifier: UNLICENSED\r\n\r\n//the version of solidity that is compatible\r\npragma solidity ^0.8.0;\r\npragma experimental ABIEncoderV2;\r\n\r\nimport \"./TenderContract.sol\";\r\nimport \"./PartyContract.sol\";\r\n\r\ncontract BidContract {\r\n    enum BidStatus{PENDING, REJECTED, APPROVED}\r\n\r\n    // Bidding Struct\r\n    struct Bid {\r\n        uint256 bidId;\r\n        string bidClause;\r\n        uint256 quotedAmount;\r\n        address bidderAddress;\r\n        uint256 tenderId;\r\n        BidStatus bidStatus;\r\n        uint256 createdAt;\r\n        bool isExists;\r\n    }\r\n    struct PartyC {\r\n        string name;\r\n        string contactNumber;\r\n        string email;\r\n        address partyAddress;\r\n        uint256 trustScore;\r\n        string password; \r\n       }\r\n\r\n    mapping (uint256 => Bid) public bids;\r\n    uint256 bidCount = 0;\r\n    TenderContract public tenderRef;\r\n    PartyContract public partyRef;\r\n    constructor(TenderContract _tenderRef,PartyContract _partyRef ){\r\n        tenderRef = _tenderRef;\r\n        partyRef = _partyRef;\r\n    }\r\n\r\n    //setters and getters\r\n    function getBidderAddress(uint256 _bidId) public view returns(address) {\r\n        return bids[_bidId].bidderAddress;\r\n    }\r\n\r\n    modifier isOwner(address owner) {\r\n        require(msg.sender == owner, \"Caller is not owner\");\r\n        _;\r\n    }\r\n\r\n    modifier isTenderOwner(address _partyAddress, uint256 _tenderId) {\r\n        address issuerAddress = tenderRef.getIssuerAddress(_tenderId);\r\n        require(issuerAddress == _partyAddress, \"you're not authorized to perform this action\");\r\n        _;\r\n    }\r\n\r\n    modifier isBidOwner(address _bidderAddress, uint256 _bidId) {\r\n        require(bids[_bidId].bidderAddress == _bidderAddress, \"you're not authorized to perform this action\");\r\n        _;\r\n    }\r\n\r\n    function createBid(address _bidderAddress, uint256 _tenderId, string memory _bidClause, uint256 _quotedAmount) public{\r\n        // Tender storage _tender = tenderRef.tenders(_tenderId);\r\n        require(tenderRef.getBidsCount(_tenderId) <= 15, \"Maximum bids for this tender exceeded\");\r\n        uint256 _budget = tenderRef.getBudget(_tenderId);\r\n        TenderStatus _tenderStatus = tenderRef.getTenderStatus(_tenderId);\r\n        uint256 _deadline = tenderRef.getDeadline(_tenderId);\r\n        address _issuerAddress = tenderRef.getIssuerAddress(_tenderId);\r\n        require(_budget > 0, \"Tender does not exist\");\r\n        require(_tenderStatus == TenderStatus.OPEN, \"Tender is not open for bids\");\r\n        require(block.timestamp < _deadline, \"Bidding has ended\");\r\n        require(_bidderAddress != _issuerAddress, \"Owner cannot bid on their own tender\");\r\n\r\n        Bid storage newBid = bids[bidCount];\r\n        newBid.bidId = bidCount;\r\n        newBid.bidClause = _bidClause;\r\n        newBid.quotedAmount = _quotedAmount;\r\n        newBid.bidderAddress = _bidderAddress;\r\n        newBid.tenderId = _tenderId;\r\n        newBid.bidStatus = BidStatus.PENDING;\r\n        newBid.createdAt = block.timestamp;\r\n        newBid.isExists = true;\r\n        tenderRef.addBidId(_tenderId, bidCount);\r\n        bidCount++;\r\n    }\r\n\r\n    modifier canViewBid(address _partyAddress ,uint256 _tenderId, uint256 _bidId){\r\n        address issuerAddress = tenderRef.getIssuerAddress(_tenderId);\r\n        require((bids[_bidId].bidderAddress == _partyAddress  || issuerAddress == _partyAddress), \"Not authorized to view bid details\");\r\n        _;\r\n    }\r\n\r\n    // For getting bid details like message, amount, address of bidders \r\n    function getBidDetails(address _partyAddress ,uint256 _tenderId, uint256 _bidId) public view canViewBid(_partyAddress, _tenderId, _bidId) returns (Bid memory) {\r\n\t    require(bids[_bidId].quotedAmount > 0, \"Bid does not exist\");\r\n    \treturn (bids[_bidId]);\r\n    }\r\n      function getBDetails(uint256 _bidId) public view  returns (string memory, string memory, string memory, address, uint256, string memory) {\r\n\t    require(bids[_bidId].quotedAmount > 0, \"Bid does not exist\");\r\n    \treturn (  partyRef.getPartyDetails(bids[_bidId].bidderAddress));\r\n    }\r\n\r\n    function getMyBids(address _bidderAddress) public view isOwner(_bidderAddress) returns(Bid[] memory, uint){\r\n        require(bidCount > 0, \"No bids exist\");\r\n        uint count =0;\r\n        Bid[] memory bidsList = new Bid[](tenderRef.getTenderCount());\r\n        uint256 j=0;\r\n        for (uint256 i = 0; i < bidCount ; i++ ) {\r\n            if(j<tenderRef.getTenderCount()){\r\n\r\n            if(bids[i].isExists == true && bids[i].bidderAddress == _bidderAddress){\r\n                count++;\r\n                bidsList[j] = bids[i];\r\n            }\r\n            }\r\n               j++; \r\n        }\r\n        return(bidsList, j);\r\n    }\r\n\r\n    // For getting all bids of a tender\r\n     function getNAllBids(address _partyAddress, uint256 _tenderId) public view isTenderOwner(_partyAddress, _tenderId) returns(Bid[] memory){\r\n        uint256[] memory tenderBidIds = tenderRef.getBidIds(_tenderId);\r\n        require(tenderBidIds.length > 0, \"No bids exists\");\r\n        Bid[] memory bidsList = new Bid[](tenderBidIds.length);\r\n        for (uint256 i = 0; i < tenderBidIds.length; i++) {\r\n            if(bids[i].isExists == true) {\r\n                bidsList[i] = bids[tenderBidIds[i]];\r\n            }\r\n        }\r\n        return(bidsList);\r\n    }\r\n     function getAllBids(address _partyAddress, uint256 _tenderId) public  isTenderOwner(_partyAddress, _tenderId) returns(Bid[] memory) {\r\n    uint256[] memory tenderBidIds = tenderRef.getBidIds(_tenderId);\r\n    require(tenderBidIds.length > 0, \"No bids exist\");\r\n    \r\n    // Find the minimum quote amount\r\n    uint256 minQuote = type(uint256).max; // Assuming max value for initialization\r\n    for (uint256 i = 0; i < tenderBidIds.length; i++) {\r\n        uint256 currentBidId = tenderBidIds[i];\r\n        if (bids[currentBidId].quotedAmount < minQuote && bids[currentBidId].isExists) {\r\n            minQuote = bids[currentBidId].quotedAmount;\r\n        }\r\n    }\r\n\r\n    Bid[] memory bidsList = new Bid[](tenderBidIds.length);\r\n    for (uint256 i = 0; i < tenderBidIds.length; i++) {\r\n        uint256 currentBidId = tenderBidIds[i];\r\n        Bid storage updatedBid = bids[currentBidId];\r\n        if (bids[currentBidId].isExists) {\r\n            // Check if the bid has the minimum quote amount\r\n            if (bids[currentBidId].quotedAmount == minQuote) {\r\n                \r\n               updatedBid.bidStatus = BidStatus.APPROVED;\r\n            } else {\r\n                updatedBid.bidStatus= BidStatus.REJECTED;\r\n            }\r\n        }\r\n    }\r\n    return bidsList;\r\n}\r\n   modifier getAllFBids(address _partyAddress, uint256 _tenderId)  {\r\n    uint256[] memory tenderBidIds = tenderRef.getBidIds(_tenderId);\r\n    require(tenderBidIds.length > 0, \"No bids exist\");\r\n    \r\n    // Find the minimum quote amount\r\n    uint256 minQuote = type(uint256).max; // Assuming max value for initialization\r\n    for (uint256 i = 0; i < tenderBidIds.length; i++) {\r\n        uint256 currentBidId = tenderBidIds[i];\r\n        if (bids[currentBidId].quotedAmount < minQuote && bids[currentBidId].isExists) {\r\n            minQuote = bids[currentBidId].quotedAmount;\r\n        }\r\n    }\r\n\r\n    Bid[] memory bidsList = new Bid[](tenderBidIds.length);\r\n    for (uint256 i = 0; i < tenderBidIds.length; i++) {\r\n        uint256 currentBidId = tenderBidIds[i];\r\n        Bid storage updatedBid = bids[currentBidId];\r\n        if (bids[currentBidId].isExists) {\r\n            // Check if the bid has the minimum quote amount\r\n            if (bids[currentBidId].quotedAmount == minQuote) {\r\n                \r\n               updatedBid.bidStatus = BidStatus.APPROVED;\r\n            } else {\r\n                updatedBid.bidStatus= BidStatus.REJECTED;\r\n            }\r\n        }\r\n    }\r\n     _;\r\n}\r\n\r\n    function updateBidStatus(address _partyAddress, uint256 _tenderId, uint256 _bidAddress ,BidStatus _bidStatus) public isTenderOwner(_partyAddress, _tenderId) {\r\n        Bid storage updatedBid = bids[_bidAddress];\r\n        updatedBid.bidStatus = _bidStatus;\r\n    }\r\n\r\n    function updateBid(address _bidderAddress, uint256 _bidId, string memory _bidClause, uint256 _quotedAmount) public isBidOwner(_bidderAddress, _bidId) {\r\n        require(bids[_bidId].quotedAmount > 0 , \"bid with address doesn't exists\");\r\n        require(bids[_bidId].bidStatus == BidStatus.PENDING , \"bid cannot be updated\");\r\n        Bid storage updatedBid = bids[_bidId];\r\n        updatedBid.bidClause = _bidClause;\r\n        updatedBid.quotedAmount = _quotedAmount;\r\n    }\r\n\r\n    function deleteBid(address _bidderAddress, uint256 _tenderId ,uint256 _bidId) public isBidOwner(_bidderAddress, _bidId){ \r\n        uint256[] memory tenderBidIds = tenderRef.getBidIds(_tenderId);\r\n        require(tenderBidIds.length > 0, \"No bids exists\");\r\n        require(bids[_bidId].quotedAmount > 0 , \"bid with address doesn't exists\");\r\n        require(bids[_bidId].bidStatus == BidStatus.PENDING , \"bid cannot be deleted\");\r\n        bids[_bidId].isExists = false;\r\n        // delete bids[_bidId];\r\n        // tenderRef.deleteBidId(_tenderId, _bidId);         \r\n        for(uint256 i=0;i<tenderBidIds.length;i++){\r\n            if(tenderBidIds[i] == _bidId){\r\n                tenderBidIds[i] = tenderBidIds[tenderBidIds.length -1];\r\n                tenderRef.setBidIds(tenderBidIds, _tenderId);\r\n                break;\r\n            }\r\n        }    \r\n    }\r\n\r\n    modifier isValidTender(uint256 tenderId) {\r\n        uint256 _deadline = tenderRef.getDeadline(tenderId);\r\n        TenderStatus _tenderStatus = tenderRef.getTenderStatus(tenderId);\r\n        require(block.timestamp >= _deadline && _tenderStatus == TenderStatus.CLOSED);\r\n        _;\r\n    }\r\n\r\n    \r\n\r\n \r\n    // function filterBidsByQuotedAmount(Bid[] memory bidList) public returns(Bid[] memory) {\r\n\t// for (uint i = 1; i < bidList.length; i++) {\r\n\t// \tfor (uint j = 0; j < i; j++) {\r\n\t// \t\tif (bidList[i].quotedAmount < bidList[j].quotedAmount) {\r\n\t// \t\t\tBid memory tempBid = bidList[i];\r\n\t// \t\t\tbidList[i] = bidList[j];\r\n\t// \t\t\tbidList[j] = tempBid;\r\n\t// \t\t}\r\n\t// \t}\r\n\t// }\r\n\t// return bidList;\r\n    //  }\r\n\r\n}",
  "sourcePath": "D:\\major-prj\\New folder\\major-prj\\contracts\\BidContract.sol",
  "compiler": {
    "name": "solc",
    "version": "0.8.13+commit.abaa5c0e.Emscripten.clang"
  },
  "schemaVersion": "3.4.16",
  "updatedAt": "2024-01-24T16:26:25.076Z",
  "networkType": "ethereum",
  "devdoc": {
    "kind": "dev",
    "methods": {},
    "version": 1
  },
  "userdoc": {
    "kind": "user",
    "methods": {},
    "version": 1
  }
}