{
  "contractName": "BidContract",
  "abi": [
    {
      "inputs": [
        {
          "internalType": "contract TenderContract",
          "name": "_tenderRef",
          "type": "address"
        },
        {
          "internalType": "contract PartyContract",
          "name": "_partyRef",
          "type": "address"
        }
      ],
      "stateMutability": "nonpayable",
      "type": "constructor"
    },
    {
      "inputs": [
        {
          "internalType": "uint256",
          "name": "",
          "type": "uint256"
        }
      ],
      "name": "bids",
      "outputs": [
        {
          "internalType": "uint256",
          "name": "bidId",
          "type": "uint256"
        },
        {
          "internalType": "string",
          "name": "bidClause",
          "type": "string"
        },
        {
          "internalType": "uint256",
          "name": "quotedAmount",
          "type": "uint256"
        },
        {
          "internalType": "address",
          "name": "bidderAddress",
          "type": "address"
        },
        {
          "internalType": "uint256",
          "name": "tenderId",
          "type": "uint256"
        },
        {
          "internalType": "uint256",
          "name": "bidStatus",
          "type": "uint256"
        },
        {
          "internalType": "uint256",
          "name": "createdAt",
          "type": "uint256"
        },
        {
          "internalType": "bool",
          "name": "isExists",
          "type": "bool"
        }
      ],
      "stateMutability": "view",
      "type": "function",
      "constant": true
    },
    {
      "inputs": [],
      "name": "partyRef",
      "outputs": [
        {
          "internalType": "contract PartyContract",
          "name": "",
          "type": "address"
        }
      ],
      "stateMutability": "view",
      "type": "function",
      "constant": true
    },
    {
      "inputs": [],
      "name": "tenderRef",
      "outputs": [
        {
          "internalType": "contract TenderContract",
          "name": "",
          "type": "address"
        }
      ],
      "stateMutability": "view",
      "type": "function",
      "constant": true
    },
    {
      "inputs": [
        {
          "internalType": "uint256",
          "name": "_bidId",
          "type": "uint256"
        }
      ],
      "name": "getBidderAddress",
      "outputs": [
        {
          "internalType": "address",
          "name": "",
          "type": "address"
        }
      ],
      "stateMutability": "view",
      "type": "function",
      "constant": true
    },
    {
      "inputs": [
        {
          "internalType": "address",
          "name": "_bidderAddress",
          "type": "address"
        },
        {
          "internalType": "uint256",
          "name": "_tenderId",
          "type": "uint256"
        },
        {
          "internalType": "string",
          "name": "_bidClause",
          "type": "string"
        },
        {
          "internalType": "uint256",
          "name": "_quotedAmount",
          "type": "uint256"
        }
      ],
      "name": "createBid",
      "outputs": [],
      "stateMutability": "nonpayable",
      "type": "function"
    },
    {
      "inputs": [
        {
          "internalType": "address",
          "name": "_partyAddress",
          "type": "address"
        },
        {
          "internalType": "uint256",
          "name": "_tenderId",
          "type": "uint256"
        },
        {
          "internalType": "uint256",
          "name": "_bidId",
          "type": "uint256"
        }
      ],
      "name": "getBidDetails",
      "outputs": [
        {
          "components": [
            {
              "internalType": "uint256",
              "name": "bidId",
              "type": "uint256"
            },
            {
              "internalType": "string",
              "name": "bidClause",
              "type": "string"
            },
            {
              "internalType": "uint256",
              "name": "quotedAmount",
              "type": "uint256"
            },
            {
              "internalType": "address",
              "name": "bidderAddress",
              "type": "address"
            },
            {
              "internalType": "uint256",
              "name": "tenderId",
              "type": "uint256"
            },
            {
              "internalType": "uint256",
              "name": "bidStatus",
              "type": "uint256"
            },
            {
              "internalType": "uint256",
              "name": "createdAt",
              "type": "uint256"
            },
            {
              "internalType": "bool",
              "name": "isExists",
              "type": "bool"
            }
          ],
          "internalType": "struct BidContract.Bid",
          "name": "",
          "type": "tuple"
        }
      ],
      "stateMutability": "view",
      "type": "function",
      "constant": true
    },
    {
      "inputs": [
        {
          "internalType": "uint256",
          "name": "_bidId",
          "type": "uint256"
        }
      ],
      "name": "getBDetails",
      "outputs": [
        {
          "internalType": "string",
          "name": "",
          "type": "string"
        },
        {
          "internalType": "string",
          "name": "",
          "type": "string"
        },
        {
          "internalType": "string",
          "name": "",
          "type": "string"
        },
        {
          "internalType": "address",
          "name": "",
          "type": "address"
        },
        {
          "internalType": "uint256",
          "name": "",
          "type": "uint256"
        },
        {
          "internalType": "string",
          "name": "",
          "type": "string"
        }
      ],
      "stateMutability": "view",
      "type": "function",
      "constant": true
    },
    {
      "inputs": [
        {
          "internalType": "address",
          "name": "_bidderAddress",
          "type": "address"
        }
      ],
      "name": "getMyBids",
      "outputs": [
        {
          "components": [
            {
              "internalType": "uint256",
              "name": "bidId",
              "type": "uint256"
            },
            {
              "internalType": "string",
              "name": "bidClause",
              "type": "string"
            },
            {
              "internalType": "uint256",
              "name": "quotedAmount",
              "type": "uint256"
            },
            {
              "internalType": "address",
              "name": "bidderAddress",
              "type": "address"
            },
            {
              "internalType": "uint256",
              "name": "tenderId",
              "type": "uint256"
            },
            {
              "internalType": "uint256",
              "name": "bidStatus",
              "type": "uint256"
            },
            {
              "internalType": "uint256",
              "name": "createdAt",
              "type": "uint256"
            },
            {
              "internalType": "bool",
              "name": "isExists",
              "type": "bool"
            }
          ],
          "internalType": "struct BidContract.Bid[]",
          "name": "",
          "type": "tuple[]"
        },
        {
          "internalType": "uint256",
          "name": "",
          "type": "uint256"
        }
      ],
      "stateMutability": "view",
      "type": "function",
      "constant": true
    },
    {
      "inputs": [
        {
          "internalType": "address",
          "name": "_partyAddress",
          "type": "address"
        },
        {
          "internalType": "uint256",
          "name": "_tenderId",
          "type": "uint256"
        }
      ],
      "name": "getNAllBids",
      "outputs": [
        {
          "components": [
            {
              "internalType": "uint256",
              "name": "bidId",
              "type": "uint256"
            },
            {
              "internalType": "string",
              "name": "bidClause",
              "type": "string"
            },
            {
              "internalType": "uint256",
              "name": "quotedAmount",
              "type": "uint256"
            },
            {
              "internalType": "address",
              "name": "bidderAddress",
              "type": "address"
            },
            {
              "internalType": "uint256",
              "name": "tenderId",
              "type": "uint256"
            },
            {
              "internalType": "uint256",
              "name": "bidStatus",
              "type": "uint256"
            },
            {
              "internalType": "uint256",
              "name": "createdAt",
              "type": "uint256"
            },
            {
              "internalType": "bool",
              "name": "isExists",
              "type": "bool"
            }
          ],
          "internalType": "struct BidContract.Bid[]",
          "name": "",
          "type": "tuple[]"
        }
      ],
      "stateMutability": "view",
      "type": "function",
      "constant": true
    },
    {
      "inputs": [
        {
          "internalType": "address",
          "name": "_partyAddress",
          "type": "address"
        },
        {
          "internalType": "uint256",
          "name": "_tenderId",
          "type": "uint256"
        }
      ],
      "name": "getAllBids",
      "outputs": [
        {
          "components": [
            {
              "internalType": "uint256",
              "name": "bidId",
              "type": "uint256"
            },
            {
              "internalType": "string",
              "name": "bidClause",
              "type": "string"
            },
            {
              "internalType": "uint256",
              "name": "quotedAmount",
              "type": "uint256"
            },
            {
              "internalType": "address",
              "name": "bidderAddress",
              "type": "address"
            },
            {
              "internalType": "uint256",
              "name": "tenderId",
              "type": "uint256"
            },
            {
              "internalType": "uint256",
              "name": "bidStatus",
              "type": "uint256"
            },
            {
              "internalType": "uint256",
              "name": "createdAt",
              "type": "uint256"
            },
            {
              "internalType": "bool",
              "name": "isExists",
              "type": "bool"
            }
          ],
          "internalType": "struct BidContract.Bid[]",
          "name": "",
          "type": "tuple[]"
        }
      ],
      "stateMutability": "nonpayable",
      "type": "function"
    },
    {
      "inputs": [
        {
          "internalType": "address",
          "name": "_partyAddress",
          "type": "address"
        },
        {
          "internalType": "uint256",
          "name": "_tenderId",
          "type": "uint256"
        },
        {
          "internalType": "uint256",
          "name": "_bidAddress",
          "type": "uint256"
        },
        {
          "internalType": "uint256",
          "name": "_bidStatus",
          "type": "uint256"
        }
      ],
      "name": "updateBidStatus",
      "outputs": [],
      "stateMutability": "nonpayable",
      "type": "function"
    },
    {
      "inputs": [
        {
          "internalType": "address",
          "name": "_bidderAddress",
          "type": "address"
        },
        {
          "internalType": "uint256",
          "name": "_bidId",
          "type": "uint256"
        },
        {
          "internalType": "string",
          "name": "_bidClause",
          "type": "string"
        },
        {
          "internalType": "uint256",
          "name": "_quotedAmount",
          "type": "uint256"
        }
      ],
      "name": "updateBid",
      "outputs": [],
      "stateMutability": "nonpayable",
      "type": "function"
    },
    {
      "inputs": [
        {
          "internalType": "address",
          "name": "_bidderAddress",
          "type": "address"
        },
        {
          "internalType": "uint256",
          "name": "_tenderId",
          "type": "uint256"
        },
        {
          "internalType": "uint256",
          "name": "_bidId",
          "type": "uint256"
        }
      ],
      "name": "deleteBid",
      "outputs": [],
      "stateMutability": "nonpayable",
      "type": "function"
    }
  ],
  "bytecode": "0x608060405260006001553480156200001657600080fd5b50604051620039e9380380620039e983398181016040528101906200003c919062000189565b81600260006101000a81548173ffffffffffffffffffffffffffffffffffffffff021916908373ffffffffffffffffffffffffffffffffffffffff16021790555080600360006101000a81548173ffffffffffffffffffffffffffffffffffffffff021916908373ffffffffffffffffffffffffffffffffffffffff1602179055505050620001d0565b600080fd5b600073ffffffffffffffffffffffffffffffffffffffff82169050919050565b6000620000f882620000cb565b9050919050565b60006200010c82620000eb565b9050919050565b6200011e81620000ff565b81146200012a57600080fd5b50565b6000815190506200013e8162000113565b92915050565b60006200015182620000eb565b9050919050565b620001638162000144565b81146200016f57600080fd5b50565b600081519050620001838162000158565b92915050565b60008060408385031215620001a357620001a2620000c6565b5b6000620001b3858286016200012d565b9250506020620001c68582860162000172565b9150509250929050565b61380980620001e06000396000f3fe608060405234801561001057600080fd5b50600436106100cf5760003560e01c80638d5b86121161008c578063e10540b611610066578063e10540b61461022b578063eac2473714610260578063ebc25fa614610290578063f91b6ae5146102c1576100cf565b80638d5b8612146101d5578063bb693c4d146101f3578063d8f60dd71461020f576100cf565b806305ee3e51146100d4578063167548c5146101045780634423c5f1146101205780635fa382801461015757806361281516146101875780638d455399146101b7575b600080fd5b6100ee60048036038101906100e991906122b5565b6102dd565b6040516100fb9190612539565b60405180910390f35b61011e60048036038101906101199190612690565b610719565b005b61013a60048036038101906101359190612713565b6108af565b60405161014e9897969594939291906127b7565b60405180910390f35b610171600480360381019061016c9190612713565b6109ac565b60405161017e919061283c565b60405180910390f35b6101a1600480360381019061019c91906122b5565b6109eb565b6040516101ae9190612539565b60405180910390f35b6101bf610dca565b6040516101cc91906128b6565b60405180910390f35b6101dd610df0565b6040516101ea91906128f2565b60405180910390f35b61020d6004803603810190610208919061290d565b610e16565b005b61022960048036038101906102249190612960565b6111a6565b005b61024560048036038101906102409190612713565b6112df565b604051610257969594939291906129c7565b60405180910390f35b61027a6004803603810190610275919061290d565b61142b565b6040516102879190612af4565b60405180910390f35b6102aa60048036038101906102a59190612b16565b611767565b6040516102b8929190612b43565b60405180910390f35b6102db60048036038101906102d69190612690565b611adf565b005b606082826000600260009054906101000a900473ffffffffffffffffffffffffffffffffffffffff1673ffffffffffffffffffffffffffffffffffffffff16637e4d2d97836040518263ffffffff1660e01b815260040161033e9190612b73565b602060405180830381865afa15801561035b573d6000803e3d6000fd5b505050506040513d601f19601f8201168201806040525081019061037f9190612ba3565b90508273ffffffffffffffffffffffffffffffffffffffff168173ffffffffffffffffffffffffffffffffffffffff16146103ef576040517f08c379a00000000000000000000000000000000000000000000000000000000081526004016103e690612c42565b60405180910390fd5b6000600260009054906101000a900473ffffffffffffffffffffffffffffffffffffffff1673ffffffffffffffffffffffffffffffffffffffff166342222a43876040518263ffffffff1660e01b815260040161044c9190612b73565b600060405180830381865afa158015610469573d6000803e3d6000fd5b505050506040513d6000823e3d601f19601f820116820180604052508101906104929190612d3f565b905060008151116104d8576040517f08c379a00000000000000000000000000000000000000000000000000000000081526004016104cf90612dd4565b60405180910390fd5b6000815167ffffffffffffffff8111156104f5576104f4612565565b5b60405190808252806020026020018201604052801561052e57816020015b61051b61210d565b8152602001906001900390816105135790505b50905060005b825181101561070a576001151560008083815260200190815260200160002060070160009054906101000a900460ff161515036106f75760008084838151811061058157610580612df4565b5b6020026020010151815260200190815260200160002060405180610100016040529081600082015481526020016001820180546105bd90612e52565b80601f01602080910402602001604051908101604052809291908181526020018280546105e990612e52565b80156106365780601f1061060b57610100808354040283529160200191610636565b820191906000526020600020905b81548152906001019060200180831161061957829003601f168201915b50505050508152602001600282015481526020016003820160009054906101000a900473ffffffffffffffffffffffffffffffffffffffff1673ffffffffffffffffffffffffffffffffffffffff1673ffffffffffffffffffffffffffffffffffffffff1681526020016004820154815260200160058201548152602001600682015481526020016007820160009054906101000a900460ff1615151515815250508282815181106106eb576106ea612df4565b5b60200260200101819052505b808061070290612eb2565b915050610534565b50809550505050505092915050565b83838173ffffffffffffffffffffffffffffffffffffffff1660008083815260200190815260200160002060030160009054906101000a900473ffffffffffffffffffffffffffffffffffffffff1673ffffffffffffffffffffffffffffffffffffffff16146107be576040517f08c379a00000000000000000000000000000000000000000000000000000000081526004016107b590612c42565b60405180910390fd5b60008060008781526020019081526020016000206002015411610816576040517f08c379a000000000000000000000000000000000000000000000000000000000815260040161080d90612f46565b60405180910390fd5b6001600080878152602001908152602001600020600501541461086e576040517f08c379a000000000000000000000000000000000000000000000000000000000815260040161086590612fb2565b60405180910390fd5b600080600087815260200190815260200160002090508481600101908051906020019061089c92919061216a565b5083816002018190555050505050505050565b60006020528060005260406000206000915090508060000154908060010180546108d890612e52565b80601f016020809104026020016040519081016040528092919081815260200182805461090490612e52565b80156109515780601f1061092657610100808354040283529160200191610951565b820191906000526020600020905b81548152906001019060200180831161093457829003601f168201915b5050505050908060020154908060030160009054906101000a900473ffffffffffffffffffffffffffffffffffffffff16908060040154908060050154908060060154908060070160009054906101000a900460ff16905088565b600080600083815260200190815260200160002060030160009054906101000a900473ffffffffffffffffffffffffffffffffffffffff169050919050565b606082826000600260009054906101000a900473ffffffffffffffffffffffffffffffffffffffff1673ffffffffffffffffffffffffffffffffffffffff16637e4d2d97836040518263ffffffff1660e01b8152600401610a4c9190612b73565b602060405180830381865afa158015610a69573d6000803e3d6000fd5b505050506040513d601f19601f82011682018060405250810190610a8d9190612ba3565b90508273ffffffffffffffffffffffffffffffffffffffff168173ffffffffffffffffffffffffffffffffffffffff1614610afd576040517f08c379a0000000000000000000000000000000000000000000000000000000008152600401610af490612c42565b60405180910390fd5b6000600260009054906101000a900473ffffffffffffffffffffffffffffffffffffffff1673ffffffffffffffffffffffffffffffffffffffff166342222a43876040518263ffffffff1660e01b8152600401610b5a9190612b73565b600060405180830381865afa158015610b77573d6000803e3d6000fd5b505050506040513d6000823e3d601f19601f82011682018060405250810190610ba09190612d3f565b90506000815111610be6576040517f08c379a0000000000000000000000000000000000000000000000000000000008152600401610bdd9061301e565b60405180910390fd5b60007fffffffffffffffffffffffffffffffffffffffffffffffffffffffffffffffff905060005b8251811015610cab576000838281518110610c2c57610c2b612df4565b5b602002602001015190508260008083815260200190815260200160002060020154108015610c79575060008082815260200190815260200160002060070160009054906101000a900460ff165b15610c97576000808281526020019081526020016000206002015492505b508080610ca390612eb2565b915050610c0e565b506000825167ffffffffffffffff811115610cc957610cc8612565565b5b604051908082528060200260200182016040528015610d0257816020015b610cef61210d565b815260200190600190039081610ce75790505b50905060005b8351811015610dba576000848281518110610d2657610d25612df4565b5b602002602001015190506000806000838152602001908152602001600020905060008083815260200190815260200160002060070160009054906101000a900460ff1615610da557846000808481526020019081526020016000206002015403610d995760018160050181905550610da4565b600081600501819055505b5b50508080610db290612eb2565b915050610d08565b5080965050505050505092915050565b600360009054906101000a900473ffffffffffffffffffffffffffffffffffffffff1681565b600260009054906101000a900473ffffffffffffffffffffffffffffffffffffffff1681565b82818173ffffffffffffffffffffffffffffffffffffffff1660008083815260200190815260200160002060030160009054906101000a900473ffffffffffffffffffffffffffffffffffffffff1673ffffffffffffffffffffffffffffffffffffffff1614610ebb576040517f08c379a0000000000000000000000000000000000000000000000000000000008152600401610eb290612c42565b60405180910390fd5b6000600260009054906101000a900473ffffffffffffffffffffffffffffffffffffffff1673ffffffffffffffffffffffffffffffffffffffff166342222a43866040518263ffffffff1660e01b8152600401610f189190612b73565b600060405180830381865afa158015610f35573d6000803e3d6000fd5b505050506040513d6000823e3d601f19601f82011682018060405250810190610f5e9190612d3f565b90506000815111610fa4576040517f08c379a0000000000000000000000000000000000000000000000000000000008152600401610f9b90612dd4565b60405180910390fd5b60008060008681526020019081526020016000206002015411610ffc576040517f08c379a0000000000000000000000000000000000000000000000000000000008152600401610ff390612f46565b60405180910390fd5b60016000808681526020019081526020016000206005015414611054576040517f08c379a000000000000000000000000000000000000000000000000000000000815260040161104b9061308a565b60405180910390fd5b600080600086815260200190815260200160002060070160006101000a81548160ff02191690831515021790555060005b815181101561119d57848282815181106110a2576110a1612df4565b5b60200260200101510361118a5781600183516110be91906130aa565b815181106110cf576110ce612df4565b5b60200260200101518282815181106110ea576110e9612df4565b5b602002602001018181525050600260009054906101000a900473ffffffffffffffffffffffffffffffffffffffff1673ffffffffffffffffffffffffffffffffffffffff1663897bb97983886040518363ffffffff1660e01b815260040161115392919061318d565b600060405180830381600087803b15801561116d57600080fd5b505af1158015611181573d6000803e3d6000fd5b5050505061119d565b808061119590612eb2565b915050611085565b50505050505050565b83836000600260009054906101000a900473ffffffffffffffffffffffffffffffffffffffff1673ffffffffffffffffffffffffffffffffffffffff16637e4d2d97836040518263ffffffff1660e01b81526004016112059190612b73565b602060405180830381865afa158015611222573d6000803e3d6000fd5b505050506040513d601f19601f820116820180604052508101906112469190612ba3565b90508273ffffffffffffffffffffffffffffffffffffffff168173ffffffffffffffffffffffffffffffffffffffff16146112b6576040517f08c379a00000000000000000000000000000000000000000000000000000000081526004016112ad90612c42565b60405180910390fd5b600080600087815260200190815260200160002090508481600501819055505050505050505050565b6060806060600080606060008060008981526020019081526020016000206002015411611341576040517f08c379a000000000000000000000000000000000000000000000000000000000815260040161133890613209565b60405180910390fd5b600360009054906101000a900473ffffffffffffffffffffffffffffffffffffffff1673ffffffffffffffffffffffffffffffffffffffff1662da72286000808a815260200190815260200160002060030160009054906101000a900473ffffffffffffffffffffffffffffffffffffffff166040518263ffffffff1660e01b81526004016113d0919061283c565b600060405180830381865afa1580156113ed573d6000803e3d6000fd5b505050506040513d6000823e3d601f19601f820116820180604052508101906114169190613299565b95509550955095509550955091939550919395565b61143361210d565b8383836000600260009054906101000a900473ffffffffffffffffffffffffffffffffffffffff1673ffffffffffffffffffffffffffffffffffffffff16637e4d2d97846040518263ffffffff1660e01b81526004016114939190612b73565b602060405180830381865afa1580156114b0573d6000803e3d6000fd5b505050506040513d601f19601f820116820180604052508101906114d49190612ba3565b90508373ffffffffffffffffffffffffffffffffffffffff1660008084815260200190815260200160002060030160009054906101000a900473ffffffffffffffffffffffffffffffffffffffff1673ffffffffffffffffffffffffffffffffffffffff16148061157057508373ffffffffffffffffffffffffffffffffffffffff168173ffffffffffffffffffffffffffffffffffffffff16145b6115af576040517f08c379a00000000000000000000000000000000000000000000000000000000081526004016115a690613408565b60405180910390fd5b60008060008881526020019081526020016000206002015411611607576040517f08c379a00000000000000000000000000000000000000000000000000000000081526004016115fe90613209565b60405180910390fd5b600080878152602001908152602001600020604051806101000160405290816000820154815260200160018201805461163f90612e52565b80601f016020809104026020016040519081016040528092919081815260200182805461166b90612e52565b80156116b85780601f1061168d576101008083540402835291602001916116b8565b820191906000526020600020905b81548152906001019060200180831161169b57829003601f168201915b50505050508152602001600282015481526020016003820160009054906101000a900473ffffffffffffffffffffffffffffffffffffffff1673ffffffffffffffffffffffffffffffffffffffff1673ffffffffffffffffffffffffffffffffffffffff1681526020016004820154815260200160058201548152602001600682015481526020016007820160009054906101000a900460ff1615151515815250509450505050509392505050565b60606000828073ffffffffffffffffffffffffffffffffffffffff163373ffffffffffffffffffffffffffffffffffffffff16146117da576040517f08c379a00000000000000000000000000000000000000000000000000000000081526004016117d190613474565b60405180910390fd5b60006001541161181f576040517f08c379a00000000000000000000000000000000000000000000000000000000081526004016118169061301e565b60405180910390fd5b60008060015467ffffffffffffffff81111561183e5761183d612565565b5b60405190808252806020026020018201604052801561187757816020015b61186461210d565b81526020019060019003908161185c5790505b5090506000805b600154811015611acf57600154821015611aae576001151560008083815260200190815260200160002060070160009054906101000a900460ff16151514801561192857508773ffffffffffffffffffffffffffffffffffffffff1660008083815260200190815260200160002060030160009054906101000a900473ffffffffffffffffffffffffffffffffffffffff1673ffffffffffffffffffffffffffffffffffffffff16145b15611aad57838061193890612eb2565b945050600080828152602001908152602001600020604051806101000160405290816000820154815260200160018201805461197390612e52565b80601f016020809104026020016040519081016040528092919081815260200182805461199f90612e52565b80156119ec5780601f106119c1576101008083540402835291602001916119ec565b820191906000526020600020905b8154815290600101906020018083116119cf57829003601f168201915b50505050508152602001600282015481526020016003820160009054906101000a900473ffffffffffffffffffffffffffffffffffffffff1673ffffffffffffffffffffffffffffffffffffffff1673ffffffffffffffffffffffffffffffffffffffff1681526020016004820154815260200160058201548152602001600682015481526020016007820160009054906101000a900460ff161515151581525050838381518110611aa157611aa0612df4565b5b60200260200101819052505b5b8180611ab990612eb2565b9250508080611ac790612eb2565b91505061187e565b5081819550955050505050915091565b600f600260009054906101000a900473ffffffffffffffffffffffffffffffffffffffff1673ffffffffffffffffffffffffffffffffffffffff16634008f9c0856040518263ffffffff1660e01b8152600401611b3c9190612b73565b602060405180830381865afa158015611b59573d6000803e3d6000fd5b505050506040513d601f19601f82011682018060405250810190611b7d9190613494565b1115611bbe576040517f08c379a0000000000000000000000000000000000000000000000000000000008152600401611bb590613533565b60405180910390fd5b6000600260009054906101000a900473ffffffffffffffffffffffffffffffffffffffff1673ffffffffffffffffffffffffffffffffffffffff16632e4ea4c4856040518263ffffffff1660e01b8152600401611c1b9190612b73565b602060405180830381865afa158015611c38573d6000803e3d6000fd5b505050506040513d601f19601f82011682018060405250810190611c5c9190613494565b90506000600260009054906101000a900473ffffffffffffffffffffffffffffffffffffffff1673ffffffffffffffffffffffffffffffffffffffff1663354133f7866040518263ffffffff1660e01b8152600401611cbb9190612b73565b602060405180830381865afa158015611cd8573d6000803e3d6000fd5b505050506040513d601f19601f82011682018060405250810190611cfc9190613578565b90506000600260009054906101000a900473ffffffffffffffffffffffffffffffffffffffff1673ffffffffffffffffffffffffffffffffffffffff166382862275876040518263ffffffff1660e01b8152600401611d5b9190612b73565b602060405180830381865afa158015611d78573d6000803e3d6000fd5b505050506040513d601f19601f82011682018060405250810190611d9c9190613494565b90506000600260009054906101000a900473ffffffffffffffffffffffffffffffffffffffff1673ffffffffffffffffffffffffffffffffffffffff16637e4d2d97886040518263ffffffff1660e01b8152600401611dfb9190612b73565b602060405180830381865afa158015611e18573d6000803e3d6000fd5b505050506040513d601f19601f82011682018060405250810190611e3c9190612ba3565b905060008411611e81576040517f08c379a0000000000000000000000000000000000000000000000000000000008152600401611e78906135f1565b60405180910390fd5b60016004811115611e9557611e94613611565b5b836004811115611ea857611ea7613611565b5b14611ee8576040517f08c379a0000000000000000000000000000000000000000000000000000000008152600401611edf9061368c565b60405180910390fd5b814210611f2a576040517f08c379a0000000000000000000000000000000000000000000000000000000008152600401611f21906136f8565b60405180910390fd5b8073ffffffffffffffffffffffffffffffffffffffff168873ffffffffffffffffffffffffffffffffffffffff1603611f98576040517f08c379a0000000000000000000000000000000000000000000000000000000008152600401611f8f9061378a565b60405180910390fd5b600080600060015481526020019081526020016000209050600154816000018190555086816001019080519060200190611fd392919061216a565b50858160020181905550888160030160006101000a81548173ffffffffffffffffffffffffffffffffffffffff021916908373ffffffffffffffffffffffffffffffffffffffff1602179055508781600401819055506000816005018190555042816006018190555060018160070160006101000a81548160ff021916908315150217905550600260009054906101000a900473ffffffffffffffffffffffffffffffffffffffff1673ffffffffffffffffffffffffffffffffffffffff1663f1d8ef4d896001546040518363ffffffff1660e01b81526004016120b89291906137aa565b600060405180830381600087803b1580156120d257600080fd5b505af11580156120e6573d6000803e3d6000fd5b50505050600160008154809291906120fd90612eb2565b9190505550505050505050505050565b604051806101000160405280600081526020016060815260200160008152602001600073ffffffffffffffffffffffffffffffffffffffff1681526020016000815260200160008152602001600081526020016000151581525090565b82805461217690612e52565b90600052602060002090601f01602090048101928261219857600085556121df565b82601f106121b157805160ff19168380011785556121df565b828001600101855582156121df579182015b828111156121de5782518255916020019190600101906121c3565b5b5090506121ec91906121f0565b5090565b5b808211156122095760008160009055506001016121f1565b5090565b6000604051905090565b600080fd5b600080fd5b600073ffffffffffffffffffffffffffffffffffffffff82169050919050565b600061224c82612221565b9050919050565b61225c81612241565b811461226757600080fd5b50565b60008135905061227981612253565b92915050565b6000819050919050565b6122928161227f565b811461229d57600080fd5b50565b6000813590506122af81612289565b92915050565b600080604083850312156122cc576122cb612217565b5b60006122da8582860161226a565b92505060206122eb858286016122a0565b9150509250929050565b600081519050919050565b600082825260208201905092915050565b6000819050602082019050919050565b61232a8161227f565b82525050565b600081519050919050565b600082825260208201905092915050565b60005b8381101561236a57808201518184015260208101905061234f565b83811115612379576000848401525b50505050565b6000601f19601f8301169050919050565b600061239b82612330565b6123a5818561233b565b93506123b581856020860161234c565b6123be8161237f565b840191505092915050565b6123d281612241565b82525050565b60008115159050919050565b6123ed816123d8565b82525050565b60006101008301600083015161240c6000860182612321565b50602083015184820360208601526124248282612390565b91505060408301516124396040860182612321565b50606083015161244c60608601826123c9565b50608083015161245f6080860182612321565b5060a083015161247260a0860182612321565b5060c083015161248560c0860182612321565b5060e083015161249860e08601826123e4565b508091505092915050565b60006124af83836123f3565b905092915050565b6000602082019050919050565b60006124cf826122f5565b6124d98185612300565b9350836020820285016124eb85612311565b8060005b85811015612527578484038952815161250885826124a3565b9450612513836124b7565b925060208a019950506001810190506124ef565b50829750879550505050505092915050565b6000602082019050818103600083015261255381846124c4565b905092915050565b600080fd5b600080fd5b7f4e487b7100000000000000000000000000000000000000000000000000000000600052604160045260246000fd5b61259d8261237f565b810181811067ffffffffffffffff821117156125bc576125bb612565565b5b80604052505050565b60006125cf61220d565b90506125db8282612594565b919050565b600067ffffffffffffffff8211156125fb576125fa612565565b5b6126048261237f565b9050602081019050919050565b82818337600083830152505050565b600061263361262e846125e0565b6125c5565b90508281526020810184848401111561264f5761264e612560565b5b61265a848285612611565b509392505050565b600082601f8301126126775761267661255b565b5b8135612687848260208601612620565b91505092915050565b600080600080608085870312156126aa576126a9612217565b5b60006126b88782880161226a565b94505060206126c9878288016122a0565b935050604085013567ffffffffffffffff8111156126ea576126e961221c565b5b6126f687828801612662565b9250506060612707878288016122a0565b91505092959194509250565b60006020828403121561272957612728612217565b5b6000612737848285016122a0565b91505092915050565b6127498161227f565b82525050565b600082825260208201905092915050565b600061276b82612330565b612775818561274f565b935061278581856020860161234c565b61278e8161237f565b840191505092915050565b6127a281612241565b82525050565b6127b1816123d8565b82525050565b6000610100820190506127cd600083018b612740565b81810360208301526127df818a612760565b90506127ee6040830189612740565b6127fb6060830188612799565b6128086080830187612740565b61281560a0830186612740565b61282260c0830185612740565b61282f60e08301846127a8565b9998505050505050505050565b60006020820190506128516000830184612799565b92915050565b6000819050919050565b600061287c61287761287284612221565b612857565b612221565b9050919050565b600061288e82612861565b9050919050565b60006128a082612883565b9050919050565b6128b081612895565b82525050565b60006020820190506128cb60008301846128a7565b92915050565b60006128dc82612883565b9050919050565b6128ec816128d1565b82525050565b600060208201905061290760008301846128e3565b92915050565b60008060006060848603121561292657612925612217565b5b60006129348682870161226a565b9350506020612945868287016122a0565b9250506040612956868287016122a0565b9150509250925092565b6000806000806080858703121561297a57612979612217565b5b60006129888782880161226a565b9450506020612999878288016122a0565b93505060406129aa878288016122a0565b92505060606129bb878288016122a0565b91505092959194509250565b600060c08201905081810360008301526129e18189612760565b905081810360208301526129f58188612760565b90508181036040830152612a098187612760565b9050612a186060830186612799565b612a256080830185612740565b81810360a0830152612a378184612760565b9050979650505050505050565b600061010083016000830151612a5d6000860182612321565b5060208301518482036020860152612a758282612390565b9150506040830151612a8a6040860182612321565b506060830151612a9d60608601826123c9565b506080830151612ab06080860182612321565b5060a0830151612ac360a0860182612321565b5060c0830151612ad660c0860182612321565b5060e0830151612ae960e08601826123e4565b508091505092915050565b60006020820190508181036000830152612b0e8184612a44565b905092915050565b600060208284031215612b2c57612b2b612217565b5b6000612b3a8482850161226a565b91505092915050565b60006040820190508181036000830152612b5d81856124c4565b9050612b6c6020830184612740565b9392505050565b6000602082019050612b886000830184612740565b92915050565b600081519050612b9d81612253565b92915050565b600060208284031215612bb957612bb8612217565b5b6000612bc784828501612b8e565b91505092915050565b7f796f75277265206e6f7420617574686f72697a656420746f20706572666f726d60008201527f207468697320616374696f6e0000000000000000000000000000000000000000602082015250565b6000612c2c602c8361274f565b9150612c3782612bd0565b604082019050919050565b60006020820190508181036000830152612c5b81612c1f565b9050919050565b600067ffffffffffffffff821115612c7d57612c7c612565565b5b602082029050602081019050919050565b600080fd5b600081519050612ca281612289565b92915050565b6000612cbb612cb684612c62565b6125c5565b90508083825260208201905060208402830185811115612cde57612cdd612c8e565b5b835b81811015612d075780612cf38882612c93565b845260208401935050602081019050612ce0565b5050509392505050565b600082601f830112612d2657612d2561255b565b5b8151612d36848260208601612ca8565b91505092915050565b600060208284031215612d5557612d54612217565b5b600082015167ffffffffffffffff811115612d7357612d7261221c565b5b612d7f84828501612d11565b91505092915050565b7f4e6f206269647320657869737473000000000000000000000000000000000000600082015250565b6000612dbe600e8361274f565b9150612dc982612d88565b602082019050919050565b60006020820190508181036000830152612ded81612db1565b9050919050565b7f4e487b7100000000000000000000000000000000000000000000000000000000600052603260045260246000fd5b7f4e487b7100000000000000000000000000000000000000000000000000000000600052602260045260246000fd5b60006002820490506001821680612e6a57607f821691505b602082108103612e7d57612e7c612e23565b5b50919050565b7f4e487b7100000000000000000000000000000000000000000000000000000000600052601160045260246000fd5b6000612ebd8261227f565b91507fffffffffffffffffffffffffffffffffffffffffffffffffffffffffffffffff8203612eef57612eee612e83565b5b600182019050919050565b7f6269642077697468206164647265737320646f65736e27742065786973747300600082015250565b6000612f30601f8361274f565b9150612f3b82612efa565b602082019050919050565b60006020820190508181036000830152612f5f81612f23565b9050919050565b7f6269642063616e6e6f7420626520757064617465640000000000000000000000600082015250565b6000612f9c60158361274f565b9150612fa782612f66565b602082019050919050565b60006020820190508181036000830152612fcb81612f8f565b9050919050565b7f4e6f206269647320657869737400000000000000000000000000000000000000600082015250565b6000613008600d8361274f565b915061301382612fd2565b602082019050919050565b6000602082019050818103600083015261303781612ffb565b9050919050565b7f6269642063616e6e6f742062652064656c657465640000000000000000000000600082015250565b600061307460158361274f565b915061307f8261303e565b602082019050919050565b600060208201905081810360008301526130a381613067565b9050919050565b60006130b58261227f565b91506130c08361227f565b9250828210156130d3576130d2612e83565b5b828203905092915050565b600081519050919050565b600082825260208201905092915050565b6000819050602082019050919050565b60006131168383612321565b60208301905092915050565b6000602082019050919050565b600061313a826130de565b61314481856130e9565b935061314f836130fa565b8060005b83811015613180578151613167888261310a565b975061317283613122565b925050600181019050613153565b5085935050505092915050565b600060408201905081810360008301526131a7818561312f565b90506131b66020830184612740565b9392505050565b7f42696420646f6573206e6f742065786973740000000000000000000000000000600082015250565b60006131f360128361274f565b91506131fe826131bd565b602082019050919050565b60006020820190508181036000830152613222816131e6565b9050919050565b600061323c613237846125e0565b6125c5565b90508281526020810184848401111561325857613257612560565b5b61326384828561234c565b509392505050565b600082601f8301126132805761327f61255b565b5b8151613290848260208601613229565b91505092915050565b60008060008060008060c087890312156132b6576132b5612217565b5b600087015167ffffffffffffffff8111156132d4576132d361221c565b5b6132e089828a0161326b565b965050602087015167ffffffffffffffff8111156133015761330061221c565b5b61330d89828a0161326b565b955050604087015167ffffffffffffffff81111561332e5761332d61221c565b5b61333a89828a0161326b565b945050606061334b89828a01612b8e565b935050608061335c89828a01612c93565b92505060a087015167ffffffffffffffff81111561337d5761337c61221c565b5b61338989828a0161326b565b9150509295509295509295565b7f4e6f7420617574686f72697a656420746f20766965772062696420646574616960008201527f6c73000000000000000000000000000000000000000000000000000000000000602082015250565b60006133f260228361274f565b91506133fd82613396565b604082019050919050565b60006020820190508181036000830152613421816133e5565b9050919050565b7f43616c6c6572206973206e6f74206f776e657200000000000000000000000000600082015250565b600061345e60138361274f565b915061346982613428565b602082019050919050565b6000602082019050818103600083015261348d81613451565b9050919050565b6000602082840312156134aa576134a9612217565b5b60006134b884828501612c93565b91505092915050565b7f4d6178696d756d206269647320666f7220746869732074656e6465722065786360008201527f6565646564000000000000000000000000000000000000000000000000000000602082015250565b600061351d60258361274f565b9150613528826134c1565b604082019050919050565b6000602082019050818103600083015261354c81613510565b9050919050565b6005811061356057600080fd5b50565b60008151905061357281613553565b92915050565b60006020828403121561358e5761358d612217565b5b600061359c84828501613563565b91505092915050565b7f54656e64657220646f6573206e6f742065786973740000000000000000000000600082015250565b60006135db60158361274f565b91506135e6826135a5565b602082019050919050565b6000602082019050818103600083015261360a816135ce565b9050919050565b7f4e487b7100000000000000000000000000000000000000000000000000000000600052602160045260246000fd5b7f54656e646572206973206e6f74206f70656e20666f7220626964730000000000600082015250565b6000613676601b8361274f565b915061368182613640565b602082019050919050565b600060208201905081810360008301526136a581613669565b9050919050565b7f42696464696e672068617320656e646564000000000000000000000000000000600082015250565b60006136e260118361274f565b91506136ed826136ac565b602082019050919050565b60006020820190508181036000830152613711816136d5565b9050919050565b7f4f776e65722063616e6e6f7420626964206f6e207468656972206f776e20746560008201527f6e64657200000000000000000000000000000000000000000000000000000000602082015250565b600061377460248361274f565b915061377f82613718565b604082019050919050565b600060208201905081810360008301526137a381613767565b9050919050565b60006040820190506137bf6000830185612740565b6137cc6020830184612740565b939250505056fea26469706673582212202638595c10049adaa7bb2d651e7a98f47004b8d94221f997f3bcc02febd65d4f64736f6c634300080d0033",
  "immutableReferences": {},
  "source": "// SPDX-License-Identifier: UNLICENSED\r\n\r\n//the version of solidity that is compatible\r\npragma solidity ^0.8.0;\r\npragma experimental ABIEncoderV2;\r\n\r\nimport \"./TenderContract.sol\";\r\nimport \"./PartyContract.sol\";\r\n\r\ncontract BidContract {\r\n    //enum BidStatus{0, 1}\r\n\r\n    // Bidding Struct\r\n    struct Bid {\r\n        uint256 bidId;\r\n        string bidClause;\r\n        uint256 quotedAmount;\r\n        address bidderAddress;\r\n        uint256 tenderId;\r\n        uint256 bidStatus;\r\n        uint256 createdAt;\r\n        bool isExists;\r\n    }\r\n    struct PartyC {\r\n        string name;\r\n        string contactNumber;\r\n        string email;\r\n        address partyAddress;\r\n        uint256 trustScore;\r\n        string password; \r\n       }\r\n\r\n    mapping (uint256 => Bid) public bids;\r\n    uint256 bidCount = 0;\r\n    TenderContract public tenderRef;\r\n    PartyContract public partyRef;\r\n    constructor(TenderContract _tenderRef,PartyContract _partyRef ){\r\n        tenderRef = _tenderRef;\r\n        partyRef = _partyRef;\r\n    }\r\n\r\n    //setters and getters\r\n    function getBidderAddress(uint256 _bidId) public view returns(address) {\r\n        return bids[_bidId].bidderAddress;\r\n    }\r\n\r\n    modifier isOwner(address owner) {\r\n        require(msg.sender == owner, \"Caller is not owner\");\r\n        _;\r\n    }\r\n\r\n    modifier isTenderOwner(address _partyAddress, uint256 _tenderId) {\r\n        address issuerAddress = tenderRef.getIssuerAddress(_tenderId);\r\n        require(issuerAddress == _partyAddress, \"you're not authorized to perform this action\");\r\n        _;\r\n    }\r\n\r\n    modifier isBidOwner(address _bidderAddress, uint256 _bidId) {\r\n        require(bids[_bidId].bidderAddress == _bidderAddress, \"you're not authorized to perform this action\");\r\n        _;\r\n    }\r\n\r\n    function createBid(address _bidderAddress, uint256 _tenderId, string memory _bidClause, uint256 _quotedAmount) public{\r\n        // Tender storage _tender = tenderRef.tenders(_tenderId);\r\n        require(tenderRef.getBidsCount(_tenderId) <= 15, \"Maximum bids for this tender exceeded\");\r\n        uint256 _budget = tenderRef.getBudget(_tenderId);\r\n        TenderStatus _tenderStatus = tenderRef.getTenderStatus(_tenderId);\r\n        uint256 _deadline = tenderRef.getDeadline(_tenderId);\r\n        address _issuerAddress = tenderRef.getIssuerAddress(_tenderId);\r\n        require(_budget > 0, \"Tender does not exist\");\r\n        require(_tenderStatus == TenderStatus.OPEN, \"Tender is not open for bids\");\r\n        require(block.timestamp < _deadline, \"Bidding has ended\");\r\n        require(_bidderAddress != _issuerAddress, \"Owner cannot bid on their own tender\");\r\n\r\n        Bid storage newBid = bids[bidCount];\r\n        newBid.bidId = bidCount;\r\n        newBid.bidClause = _bidClause;\r\n        newBid.quotedAmount = _quotedAmount;\r\n        newBid.bidderAddress = _bidderAddress;\r\n        newBid.tenderId = _tenderId;\r\n        newBid.bidStatus = 0;\r\n        newBid.createdAt = block.timestamp;\r\n        newBid.isExists = true;\r\n        tenderRef.addBidId(_tenderId, bidCount);\r\n        bidCount++;\r\n    }\r\n\r\n    modifier canViewBid(address _partyAddress ,uint256 _tenderId, uint256 _bidId){\r\n        address issuerAddress = tenderRef.getIssuerAddress(_tenderId);\r\n        require((bids[_bidId].bidderAddress == _partyAddress  || issuerAddress == _partyAddress), \"Not authorized to view bid details\");\r\n        _;\r\n    }\r\n\r\n    // For getting bid details like message, amount, address of bidders \r\n    function getBidDetails(address _partyAddress ,uint256 _tenderId, uint256 _bidId) public view canViewBid(_partyAddress, _tenderId, _bidId) returns (Bid memory) {\r\n\t    require(bids[_bidId].quotedAmount > 0, \"Bid does not exist\");\r\n    \treturn (bids[_bidId]);\r\n    }\r\n      function getBDetails(uint256 _bidId) public view  returns (string memory, string memory, string memory, address, uint256, string memory) {\r\n\t    require(bids[_bidId].quotedAmount > 0, \"Bid does not exist\");\r\n    \treturn (  partyRef.getPartyDetails(bids[_bidId].bidderAddress));\r\n    }\r\n\r\n    function getMyBids(address _bidderAddress) public view isOwner(_bidderAddress) returns(Bid[] memory, uint){\r\n        require(bidCount > 0, \"No bids exist\");\r\n        uint count =0;\r\n        Bid[] memory bidsList = new Bid[](bidCount);\r\n        uint256 j=0;\r\n        for (uint256 i = 0; i < bidCount ; i++ ) {\r\n            if(j<bidCount){\r\n\r\n            if(bids[i].isExists == true && bids[i].bidderAddress == _bidderAddress){\r\n                count++;\r\n                bidsList[j] = bids[i];\r\n            }\r\n            }\r\n               j++; \r\n        }\r\n        return(bidsList, j);\r\n    }\r\n\r\n    // For getting all bids of a tender\r\n     function getNAllBids(address _partyAddress, uint256 _tenderId) public view isTenderOwner(_partyAddress, _tenderId) returns(Bid[] memory){\r\n        uint256[] memory tenderBidIds = tenderRef.getBidIds(_tenderId);\r\n        require(tenderBidIds.length > 0, \"No bids exists\");\r\n        Bid[] memory bidsList = new Bid[](tenderBidIds.length);\r\n        for (uint256 i = 0; i < tenderBidIds.length; i++) {\r\n            if(bids[i].isExists == true) {\r\n                bidsList[i] = bids[tenderBidIds[i]];\r\n            }\r\n        }\r\n        return(bidsList);\r\n    }\r\n     function getAllBids(address _partyAddress, uint256 _tenderId) public  isTenderOwner(_partyAddress, _tenderId) returns(Bid[] memory) {\r\n    uint256[] memory tenderBidIds = tenderRef.getBidIds(_tenderId);\r\n    require(tenderBidIds.length > 0, \"No bids exist\");\r\n    \r\n    // Find the minimum quote amount\r\n    uint256 minQuote = type(uint256).max; // Assuming max value for initialization\r\n    for (uint256 i = 0; i < tenderBidIds.length; i++) {\r\n        uint256 currentBidId = tenderBidIds[i];\r\n        if (bids[currentBidId].quotedAmount < minQuote && bids[currentBidId].isExists) {\r\n            minQuote = bids[currentBidId].quotedAmount;\r\n        }\r\n    }\r\n\r\n    Bid[] memory bidsList = new Bid[](tenderBidIds.length);\r\n    for (uint256 i = 0; i < tenderBidIds.length; i++) {\r\n        uint256 currentBidId = tenderBidIds[i];\r\n        Bid storage updatedBid = bids[currentBidId];\r\n        if (bids[currentBidId].isExists) {\r\n            // Check if the bid has the minimum quote amount\r\n            if (bids[currentBidId].quotedAmount == minQuote) {\r\n                \r\n               updatedBid.bidStatus = 1;\r\n            } else {\r\n                updatedBid.bidStatus= 0;\r\n            }\r\n        }\r\n    }\r\n    return bidsList;\r\n}\r\n   modifier getAllFBids(address _partyAddress, uint256 _tenderId)  {\r\n    uint256[] memory tenderBidIds = tenderRef.getBidIds(_tenderId);\r\n    require(tenderBidIds.length > 0, \"No bids exist\");\r\n    \r\n    // Find the minimum quote amount\r\n    uint256 minQuote = type(uint256).max; // Assuming max value for initialization\r\n    for (uint256 i = 0; i < tenderBidIds.length; i++) {\r\n        uint256 currentBidId = tenderBidIds[i];\r\n        if (bids[currentBidId].quotedAmount < minQuote && bids[currentBidId].isExists) {\r\n            minQuote = bids[currentBidId].quotedAmount;\r\n        }\r\n    }\r\n\r\n    Bid[] memory bidsList = new Bid[](tenderBidIds.length);\r\n    for (uint256 i = 0; i < tenderBidIds.length; i++) {\r\n        uint256 currentBidId = tenderBidIds[i];\r\n        Bid storage updatedBid = bids[currentBidId];\r\n        if (bids[currentBidId].isExists) {\r\n            // Check if the bid has the minimum quote amount\r\n            if (bids[currentBidId].quotedAmount == minQuote) {\r\n                \r\n               updatedBid.bidStatus = 0;\r\n            } else {\r\n                updatedBid.bidStatus= 1;\r\n            }\r\n        }\r\n    }\r\n     _;\r\n}\r\n\r\n    function updateBidStatus(address _partyAddress, uint256 _tenderId, uint256 _bidAddress ,uint256 _bidStatus) public isTenderOwner(_partyAddress, _tenderId) {\r\n        Bid storage updatedBid = bids[_bidAddress];\r\n        updatedBid.bidStatus = _bidStatus;\r\n    }\r\n\r\n    function updateBid(address _bidderAddress, uint256 _bidId, string memory _bidClause, uint256 _quotedAmount) public isBidOwner(_bidderAddress, _bidId) {\r\n        require(bids[_bidId].quotedAmount > 0 , \"bid with address doesn't exists\");\r\n        require(bids[_bidId].bidStatus == 1 , \"bid cannot be updated\");\r\n        Bid storage updatedBid = bids[_bidId];\r\n        updatedBid.bidClause = _bidClause;\r\n        updatedBid.quotedAmount = _quotedAmount;\r\n    }\r\n\r\n    function deleteBid(address _bidderAddress, uint256 _tenderId ,uint256 _bidId) public isBidOwner(_bidderAddress, _bidId){ \r\n        uint256[] memory tenderBidIds = tenderRef.getBidIds(_tenderId);\r\n        require(tenderBidIds.length > 0, \"No bids exists\");\r\n        require(bids[_bidId].quotedAmount > 0 , \"bid with address doesn't exists\");\r\n        require(bids[_bidId].bidStatus == 1 , \"bid cannot be deleted\");\r\n        bids[_bidId].isExists = false;\r\n        // delete bids[_bidId];\r\n        // tenderRef.deleteBidId(_tenderId, _bidId);         \r\n        for(uint256 i=0;i<tenderBidIds.length;i++){\r\n            if(tenderBidIds[i] == _bidId){\r\n                tenderBidIds[i] = tenderBidIds[tenderBidIds.length -1];\r\n                tenderRef.setBidIds(tenderBidIds, _tenderId);\r\n                break;\r\n            }\r\n        }    \r\n    }\r\n\r\n    modifier isValidTender(uint256 tenderId) {\r\n        uint256 _deadline = tenderRef.getDeadline(tenderId);\r\n        TenderStatus _tenderStatus = tenderRef.getTenderStatus(tenderId);\r\n        require(block.timestamp >= _deadline && _tenderStatus == TenderStatus.CLOSED);\r\n        _;\r\n    }\r\n\r\n    \r\n\r\n \r\n    // function filterBidsByQuotedAmount(Bid[] memory bidList) public returns(Bid[] memory) {\r\n\t// for (uint i = 1; i < bidList.length; i++) {\r\n\t// \tfor (uint j = 0; j < i; j++) {\r\n\t// \t\tif (bidList[i].quotedAmount < bidList[j].quotedAmount) {\r\n\t// \t\t\tBid memory tempBid = bidList[i];\r\n\t// \t\t\tbidList[i] = bidList[j];\r\n\t// \t\t\tbidList[j] = tempBid;\r\n\t// \t\t}\r\n\t// \t}\r\n\t// }\r\n\t// return bidList;\r\n    //  }\r\n\r\n}",
  "sourcePath": "D:\\major-prj\\New folder\\major-prj\\contracts\\BidContract.sol",
  "compiler": {
    "name": "solc",
    "version": "0.8.13+commit.abaa5c0e.Emscripten.clang"
  },
  "schemaVersion": "3.4.16",
  "updatedAt": "2024-01-26T08:58:15.844Z",
  "networkType": "ethereum",
  "devdoc": {
    "kind": "dev",
    "methods": {},
    "version": 1
  },
  "userdoc": {
    "kind": "user",
    "methods": {},
    "version": 1
  }
}