{
  "contractName": "PartyContract",
  "abi": [
    {
      "inputs": [],
      "stateMutability": "nonpayable",
      "type": "constructor"
    },
    {
      "inputs": [],
      "name": "admin",
      "outputs": [
        {
          "internalType": "address",
          "name": "",
          "type": "address"
        }
      ],
      "stateMutability": "view",
      "type": "function"
    },
    {
      "inputs": [
        {
          "internalType": "address",
          "name": "",
          "type": "address"
        }
      ],
      "name": "parties",
      "outputs": [
        {
          "internalType": "string",
          "name": "name",
          "type": "string"
        },
        {
          "internalType": "string",
          "name": "contactNumber",
          "type": "string"
        },
        {
          "internalType": "string",
          "name": "email",
          "type": "string"
        },
        {
          "internalType": "string",
          "name": "password",
          "type": "string"
        },
        {
          "internalType": "uint256",
          "name": "trustScore",
          "type": "uint256"
        },
        {
          "internalType": "uint256",
          "name": "createdAt",
          "type": "uint256"
        },
        {
          "internalType": "address",
          "name": "partyAddress",
          "type": "address"
        },
        {
          "internalType": "uint256",
          "name": "freezedBalance",
          "type": "uint256"
        },
        {
          "internalType": "uint8",
          "name": "verifyParty",
          "type": "uint8"
        }
      ],
      "stateMutability": "view",
      "type": "function"
    },
    {
      "inputs": [
        {
          "internalType": "uint256",
          "name": "",
          "type": "uint256"
        }
      ],
      "name": "partyAddresses",
      "outputs": [
        {
          "internalType": "address",
          "name": "",
          "type": "address"
        }
      ],
      "stateMutability": "view",
      "type": "function"
    },
    {
      "inputs": [],
      "name": "tokenRef",
      "outputs": [
        {
          "internalType": "contract Token",
          "name": "",
          "type": "address"
        }
      ],
      "stateMutability": "view",
      "type": "function"
    },
    {
      "inputs": [
        {
          "internalType": "address",
          "name": "_partyAddress",
          "type": "address"
        }
      ],
      "name": "getTrustScore",
      "outputs": [
        {
          "internalType": "uint256",
          "name": "",
          "type": "uint256"
        }
      ],
      "stateMutability": "view",
      "type": "function"
    },
    {
      "inputs": [
        {
          "internalType": "address",
          "name": "_partyAddress",
          "type": "address"
        },
        {
          "internalType": "uint256",
          "name": "_trustScore",
          "type": "uint256"
        }
      ],
      "name": "setTrustScore",
      "outputs": [],
      "stateMutability": "nonpayable",
      "type": "function"
    },
    {
      "inputs": [
        {
          "internalType": "string",
          "name": "_name",
          "type": "string"
        },
        {
          "internalType": "string",
          "name": "_contactNumber",
          "type": "string"
        },
        {
          "internalType": "string",
          "name": "_email",
          "type": "string"
        },
        {
          "internalType": "string",
          "name": "_password",
          "type": "string"
        },
        {
          "internalType": "address",
          "name": "_partyAddress",
          "type": "address"
        }
      ],
      "name": "createParty",
      "outputs": [],
      "stateMutability": "nonpayable",
      "type": "function"
    },
    {
      "inputs": [
        {
          "internalType": "address",
          "name": "_govAddress",
          "type": "address"
        },
        {
          "internalType": "address",
          "name": "_userAddress",
          "type": "address"
        },
        {
          "internalType": "uint8",
          "name": "_status",
          "type": "uint8"
        }
      ],
      "name": "validateUser",
      "outputs": [],
      "stateMutability": "nonpayable",
      "type": "function"
    },
    {
      "inputs": [
        {
          "internalType": "string",
          "name": "_name",
          "type": "string"
        },
        {
          "internalType": "string",
          "name": "_password",
          "type": "string"
        },
        {
          "internalType": "address",
          "name": "_partyAddress",
          "type": "address"
        }
      ],
      "name": "updateParty",
      "outputs": [],
      "stateMutability": "nonpayable",
      "type": "function"
    },
    {
      "inputs": [
        {
          "internalType": "address",
          "name": "_partyAddress",
          "type": "address"
        }
      ],
      "name": "deleteParty",
      "outputs": [],
      "stateMutability": "nonpayable",
      "type": "function"
    },
    {
      "inputs": [
        {
          "internalType": "address",
          "name": "_partyAddress",
          "type": "address"
        }
      ],
      "name": "getPartyDetails",
      "outputs": [
        {
          "internalType": "string",
          "name": "",
          "type": "string"
        },
        {
          "internalType": "string",
          "name": "",
          "type": "string"
        },
        {
          "internalType": "string",
          "name": "",
          "type": "string"
        },
        {
          "internalType": "address",
          "name": "",
          "type": "address"
        },
        {
          "internalType": "uint256",
          "name": "",
          "type": "uint256"
        },
        {
          "internalType": "string",
          "name": "",
          "type": "string"
        }
      ],
      "stateMutability": "view",
      "type": "function"
    }
  ],
  "bytecode": "0x6080604052603260045534801561001557600080fd5b50612293806100256000396000f3fe608060405234801561001057600080fd5b50600436106100a85760003560e01c80635e09eea1116100715780635e09eea1146101705780637a0c7d39146101a0578063c792d8fd146101bc578063ef8c0391146101ec578063f851a44014610208578063feec475814610226576100a8565b8062da7228146100ad578063171fd848146100e257806333bec837146100fe578063374a5a8d1461011c5780634f23520714610138575b600080fd5b6100c760048036038101906100c2919061180f565b610242565b6040516100d9969594939291906118fd565b60405180910390f35b6100fc60048036038101906100f79190611aaf565b61077b565b005b610106610aa2565b6040516101139190611bf9565b60405180910390f35b61013660048036038101906101319190611c4d565b610ac8565b005b610152600480360381019061014d919061180f565b610d37565b60405161016799989796959493929190611caf565b60405180910390f35b61018a6004803603810190610185919061180f565b610fd2565b6040516101979190611d58565b60405180910390f35b6101ba60048036038101906101b59190611d73565b61101d565b005b6101d660048036038101906101d19190611e2a565b6111d9565b6040516101e39190611e57565b60405180910390f35b6102066004803603810190610201919061180f565b611218565b005b6102106115dc565b60405161021d9190611e57565b60405180910390f35b610240600480360381019061023b9190611e72565b611602565b005b60608060606000806060868073ffffffffffffffffffffffffffffffffffffffff163373ffffffffffffffffffffffffffffffffffffffff16146102bb576040517f08c379a00000000000000000000000000000000000000000000000000000000081526004016102b290611efe565b60405180910390fd5b87600073ffffffffffffffffffffffffffffffffffffffff166000808373ffffffffffffffffffffffffffffffffffffffff1673ffffffffffffffffffffffffffffffffffffffff16815260200190815260200160002060060160009054906101000a900473ffffffffffffffffffffffffffffffffffffffff1673ffffffffffffffffffffffffffffffffffffffff160361038c576040517f08c379a000000000000000000000000000000000000000000000000000000000815260040161038390611f6a565b60405180910390fd5b6000808a73ffffffffffffffffffffffffffffffffffffffff1673ffffffffffffffffffffffffffffffffffffffff1681526020019081526020016000206000016000808b73ffffffffffffffffffffffffffffffffffffffff1673ffffffffffffffffffffffffffffffffffffffff1681526020019081526020016000206001016000808c73ffffffffffffffffffffffffffffffffffffffff1673ffffffffffffffffffffffffffffffffffffffff1681526020019081526020016000206002016000808d73ffffffffffffffffffffffffffffffffffffffff1673ffffffffffffffffffffffffffffffffffffffff16815260200190815260200160002060060160009054906101000a900473ffffffffffffffffffffffffffffffffffffffff166000808e73ffffffffffffffffffffffffffffffffffffffff1673ffffffffffffffffffffffffffffffffffffffff168152602001908152602001600020600401546000808f73ffffffffffffffffffffffffffffffffffffffff1673ffffffffffffffffffffffffffffffffffffffff16815260200190815260200160002060030185805461054090611fb9565b80601f016020809104026020016040519081016040528092919081815260200182805461056c90611fb9565b80156105b95780601f1061058e576101008083540402835291602001916105b9565b820191906000526020600020905b81548152906001019060200180831161059c57829003601f168201915b505050505095508480546105cc90611fb9565b80601f01602080910402602001604051908101604052809291908181526020018280546105f890611fb9565b80156106455780601f1061061a57610100808354040283529160200191610645565b820191906000526020600020905b81548152906001019060200180831161062857829003601f168201915b5050505050945083805461065890611fb9565b80601f016020809104026020016040519081016040528092919081815260200182805461068490611fb9565b80156106d15780601f106106a6576101008083540402835291602001916106d1565b820191906000526020600020905b8154815290600101906020018083116106b457829003601f168201915b505050505093508080546106e490611fb9565b80601f016020809104026020016040519081016040528092919081815260200182805461071090611fb9565b801561075d5780601f106107325761010080835404028352916020019161075d565b820191906000526020600020905b81548152906001019060200180831161074057829003601f168201915b50505050509050975097509750975097509750505091939550919395565b808073ffffffffffffffffffffffffffffffffffffffff163373ffffffffffffffffffffffffffffffffffffffff16146107ea576040517f08c379a00000000000000000000000000000000000000000000000000000000081526004016107e190611efe565b60405180910390fd5b600073ffffffffffffffffffffffffffffffffffffffff166000808473ffffffffffffffffffffffffffffffffffffffff1673ffffffffffffffffffffffffffffffffffffffff16815260200190815260200160002060060160009054906101000a900473ffffffffffffffffffffffffffffffffffffffff1673ffffffffffffffffffffffffffffffffffffffff16146108ba576040517f08c379a00000000000000000000000000000000000000000000000000000000081526004016108b190612036565b60405180910390fd5b60008060008473ffffffffffffffffffffffffffffffffffffffff1673ffffffffffffffffffffffffffffffffffffffff16815260200190815260200160002090508681600001908051906020019061091492919061164c565b508581600101908051906020019061092d92919061164c565b508481600201908051906020019061094692919061164c565b508381600301908051906020019061095f92919061164c565b5060008160040181905550428160050181905550828160060160006101000a81548173ffffffffffffffffffffffffffffffffffffffff021916908373ffffffffffffffffffffffffffffffffffffffff160217905550600067ffffffffffffffff8111156109d1576109d0611984565b5b6040519080825280602002602001820160405280156109ff5781602001602082028036833780820191505090505b50816007019080519060200190610a179291906116d2565b50600081600a0160006101000a81548160ff021916908360ff1602179055506001839080600181540180825580915050600190039060005260206000200160009091909190916101000a81548173ffffffffffffffffffffffffffffffffffffffff021916908373ffffffffffffffffffffffffffffffffffffffff16021790555050505050505050565b600360009054906101000a900473ffffffffffffffffffffffffffffffffffffffff1681565b828073ffffffffffffffffffffffffffffffffffffffff163373ffffffffffffffffffffffffffffffffffffffff1614610b37576040517f08c379a0000000000000000000000000000000000000000000000000000000008152600401610b2e90611efe565b60405180910390fd5b600073ffffffffffffffffffffffffffffffffffffffff166000808673ffffffffffffffffffffffffffffffffffffffff1673ffffffffffffffffffffffffffffffffffffffff16815260200190815260200160002060060160009054906101000a900473ffffffffffffffffffffffffffffffffffffffff1673ffffffffffffffffffffffffffffffffffffffff1603610c07576040517f08c379a0000000000000000000000000000000000000000000000000000000008152600401610bfe906120c8565b60405180910390fd5b600073ffffffffffffffffffffffffffffffffffffffff166000808573ffffffffffffffffffffffffffffffffffffffff1673ffffffffffffffffffffffffffffffffffffffff16815260200190815260200160002060060160009054906101000a900473ffffffffffffffffffffffffffffffffffffffff1673ffffffffffffffffffffffffffffffffffffffff1603610cd7576040517f08c379a0000000000000000000000000000000000000000000000000000000008152600401610cce90612134565b60405180910390fd5b816000808573ffffffffffffffffffffffffffffffffffffffff1673ffffffffffffffffffffffffffffffffffffffff168152602001908152602001600020600a0160006101000a81548160ff021916908360ff16021790555050505050565b6000602052806000526040600020600091509050806000018054610d5a90611fb9565b80601f0160208091040260200160405190810160405280929190818152602001828054610d8690611fb9565b8015610dd35780601f10610da857610100808354040283529160200191610dd3565b820191906000526020600020905b815481529060010190602001808311610db657829003601f168201915b505050505090806001018054610de890611fb9565b80601f0160208091040260200160405190810160405280929190818152602001828054610e1490611fb9565b8015610e615780601f10610e3657610100808354040283529160200191610e61565b820191906000526020600020905b815481529060010190602001808311610e4457829003601f168201915b505050505090806002018054610e7690611fb9565b80601f0160208091040260200160405190810160405280929190818152602001828054610ea290611fb9565b8015610eef5780601f10610ec457610100808354040283529160200191610eef565b820191906000526020600020905b815481529060010190602001808311610ed257829003601f168201915b505050505090806003018054610f0490611fb9565b80601f0160208091040260200160405190810160405280929190818152602001828054610f3090611fb9565b8015610f7d5780601f10610f5257610100808354040283529160200191610f7d565b820191906000526020600020905b815481529060010190602001808311610f6057829003601f168201915b5050505050908060040154908060050154908060060160009054906101000a900473ffffffffffffffffffffffffffffffffffffffff169080600801549080600a0160009054906101000a900460ff16905089565b60008060008373ffffffffffffffffffffffffffffffffffffffff1673ffffffffffffffffffffffffffffffffffffffff168152602001908152602001600020600401549050919050565b808073ffffffffffffffffffffffffffffffffffffffff163373ffffffffffffffffffffffffffffffffffffffff161461108c576040517f08c379a000000000000000000000000000000000000000000000000000000000815260040161108390611efe565b60405180910390fd5b81600073ffffffffffffffffffffffffffffffffffffffff166000808373ffffffffffffffffffffffffffffffffffffffff1673ffffffffffffffffffffffffffffffffffffffff16815260200190815260200160002060060160009054906101000a900473ffffffffffffffffffffffffffffffffffffffff1673ffffffffffffffffffffffffffffffffffffffff160361115d576040517f08c379a000000000000000000000000000000000000000000000000000000000815260040161115490611f6a565b60405180910390fd5b60008060008573ffffffffffffffffffffffffffffffffffffffff1673ffffffffffffffffffffffffffffffffffffffff1681526020019081526020016000209050858160000190805190602001906111b792919061164c565b50848160030190805190602001906111d092919061164c565b50505050505050565b600181815481106111e957600080fd5b906000526020600020016000915054906101000a900473ffffffffffffffffffffffffffffffffffffffff1681565b808073ffffffffffffffffffffffffffffffffffffffff163373ffffffffffffffffffffffffffffffffffffffff1614611287576040517f08c379a000000000000000000000000000000000000000000000000000000000815260040161127e90611efe565b60405180910390fd5b81600073ffffffffffffffffffffffffffffffffffffffff166000808373ffffffffffffffffffffffffffffffffffffffff1673ffffffffffffffffffffffffffffffffffffffff16815260200190815260200160002060060160009054906101000a900473ffffffffffffffffffffffffffffffffffffffff1673ffffffffffffffffffffffffffffffffffffffff1603611358576040517f08c379a000000000000000000000000000000000000000000000000000000000815260040161134f90611f6a565b60405180910390fd5b6000808473ffffffffffffffffffffffffffffffffffffffff1673ffffffffffffffffffffffffffffffffffffffff168152602001908152602001600020600080820160006113a7919061171f565b6001820160006113b7919061171f565b6002820160006113c7919061171f565b6003820160006113d7919061171f565b600482016000905560058201600090556006820160006101000a81549073ffffffffffffffffffffffffffffffffffffffff021916905560078201600061141e919061175f565b6008820160009055600982016000611436919061175f565b600a820160006101000a81549060ff0219169055505060005b6001805490508110156115d6573373ffffffffffffffffffffffffffffffffffffffff166001828154811061148757611486612154565b5b9060005260206000200160009054906101000a900473ffffffffffffffffffffffffffffffffffffffff1673ffffffffffffffffffffffffffffffffffffffff16036115c35760018080805490506114df91906121b2565b815481106114f0576114ef612154565b5b9060005260206000200160009054906101000a900473ffffffffffffffffffffffffffffffffffffffff166001828154811061152f5761152e612154565b5b9060005260206000200160006101000a81548173ffffffffffffffffffffffffffffffffffffffff021916908373ffffffffffffffffffffffffffffffffffffffff1602179055506001805480611589576115886121e6565b5b6001900381819060005260206000200160006101000a81549073ffffffffffffffffffffffffffffffffffffffff021916905590556115d6565b80806115ce90612215565b91505061144f565b50505050565b600260009054906101000a900473ffffffffffffffffffffffffffffffffffffffff1681565b806000808473ffffffffffffffffffffffffffffffffffffffff1673ffffffffffffffffffffffffffffffffffffffff168152602001908152602001600020600401819055505050565b82805461165890611fb9565b90600052602060002090601f01602090048101928261167a57600085556116c1565b82601f1061169357805160ff19168380011785556116c1565b828001600101855582156116c1579182015b828111156116c05782518255916020019190600101906116a5565b5b5090506116ce9190611780565b5090565b82805482825590600052602060002090810192821561170e579160200282015b8281111561170d5782518255916020019190600101906116f2565b5b50905061171b9190611780565b5090565b50805461172b90611fb9565b6000825580601f1061173d575061175c565b601f01602090049060005260206000209081019061175b9190611780565b5b50565b508054600082559060005260206000209081019061177d9190611780565b50565b5b80821115611799576000816000905550600101611781565b5090565b6000604051905090565b600080fd5b600080fd5b600073ffffffffffffffffffffffffffffffffffffffff82169050919050565b60006117dc826117b1565b9050919050565b6117ec816117d1565b81146117f757600080fd5b50565b600081359050611809816117e3565b92915050565b600060208284031215611825576118246117a7565b5b6000611833848285016117fa565b91505092915050565b600081519050919050565b600082825260208201905092915050565b60005b8381101561187657808201518184015260208101905061185b565b83811115611885576000848401525b50505050565b6000601f19601f8301169050919050565b60006118a78261183c565b6118b18185611847565b93506118c1818560208601611858565b6118ca8161188b565b840191505092915050565b6118de816117d1565b82525050565b6000819050919050565b6118f7816118e4565b82525050565b600060c0820190508181036000830152611917818961189c565b9050818103602083015261192b818861189c565b9050818103604083015261193f818761189c565b905061194e60608301866118d5565b61195b60808301856118ee565b81810360a083015261196d818461189c565b9050979650505050505050565b600080fd5b600080fd5b7f4e487b7100000000000000000000000000000000000000000000000000000000600052604160045260246000fd5b6119bc8261188b565b810181811067ffffffffffffffff821117156119db576119da611984565b5b80604052505050565b60006119ee61179d565b90506119fa82826119b3565b919050565b600067ffffffffffffffff821115611a1a57611a19611984565b5b611a238261188b565b9050602081019050919050565b82818337600083830152505050565b6000611a52611a4d846119ff565b6119e4565b905082815260208101848484011115611a6e57611a6d61197f565b5b611a79848285611a30565b509392505050565b600082601f830112611a9657611a9561197a565b5b8135611aa6848260208601611a3f565b91505092915050565b600080600080600060a08688031215611acb57611aca6117a7565b5b600086013567ffffffffffffffff811115611ae957611ae86117ac565b5b611af588828901611a81565b955050602086013567ffffffffffffffff811115611b1657611b156117ac565b5b611b2288828901611a81565b945050604086013567ffffffffffffffff811115611b4357611b426117ac565b5b611b4f88828901611a81565b935050606086013567ffffffffffffffff811115611b7057611b6f6117ac565b5b611b7c88828901611a81565b9250506080611b8d888289016117fa565b9150509295509295909350565b6000819050919050565b6000611bbf611bba611bb5846117b1565b611b9a565b6117b1565b9050919050565b6000611bd182611ba4565b9050919050565b6000611be382611bc6565b9050919050565b611bf381611bd8565b82525050565b6000602082019050611c0e6000830184611bea565b92915050565b600060ff82169050919050565b611c2a81611c14565b8114611c3557600080fd5b50565b600081359050611c4781611c21565b92915050565b600080600060608486031215611c6657611c656117a7565b5b6000611c74868287016117fa565b9350506020611c85868287016117fa565b9250506040611c9686828701611c38565b9150509250925092565b611ca981611c14565b82525050565b6000610120820190508181036000830152611cca818c61189c565b90508181036020830152611cde818b61189c565b90508181036040830152611cf2818a61189c565b90508181036060830152611d06818961189c565b9050611d1560808301886118ee565b611d2260a08301876118ee565b611d2f60c08301866118d5565b611d3c60e08301856118ee565b611d4a610100830184611ca0565b9a9950505050505050505050565b6000602082019050611d6d60008301846118ee565b92915050565b600080600060608486031215611d8c57611d8b6117a7565b5b600084013567ffffffffffffffff811115611daa57611da96117ac565b5b611db686828701611a81565b935050602084013567ffffffffffffffff811115611dd757611dd66117ac565b5b611de386828701611a81565b9250506040611df4868287016117fa565b9150509250925092565b611e07816118e4565b8114611e1257600080fd5b50565b600081359050611e2481611dfe565b92915050565b600060208284031215611e4057611e3f6117a7565b5b6000611e4e84828501611e15565b91505092915050565b6000602082019050611e6c60008301846118d5565b92915050565b60008060408385031215611e8957611e886117a7565b5b6000611e97858286016117fa565b9250506020611ea885828601611e15565b9150509250929050565b7f43616c6c6572206973206e6f74206f776e657200000000000000000000000000600082015250565b6000611ee8601383611847565b9150611ef382611eb2565b602082019050919050565b60006020820190508181036000830152611f1781611edb565b9050919050565b7f506172747920646f6573206e6f74206578697374000000000000000000000000600082015250565b6000611f54601483611847565b9150611f5f82611f1e565b602082019050919050565b60006020820190508181036000830152611f8381611f47565b9050919050565b7f4e487b7100000000000000000000000000000000000000000000000000000000600052602260045260246000fd5b60006002820490506001821680611fd157607f821691505b602082108103611fe457611fe3611f8a565b5b50919050565b7f506172747920616c726561647920657869737473000000000000000000000000600082015250565b6000612020601483611847565b915061202b82611fea565b602082019050919050565b6000602082019050818103600083015261204f81612013565b9050919050565b7f43616c6c6572206973206e6f74206120676f7665726e6d656e7420616464726560008201527f7373000000000000000000000000000000000000000000000000000000000000602082015250565b60006120b2602283611847565b91506120bd82612056565b604082019050919050565b600060208201905081810360008301526120e1816120a5565b9050919050565b7f5573657220646f6573206e6f7420657869737400000000000000000000000000600082015250565b600061211e601383611847565b9150612129826120e8565b602082019050919050565b6000602082019050818103600083015261214d81612111565b9050919050565b7f4e487b7100000000000000000000000000000000000000000000000000000000600052603260045260246000fd5b7f4e487b7100000000000000000000000000000000000000000000000000000000600052601160045260246000fd5b60006121bd826118e4565b91506121c8836118e4565b9250828210156121db576121da612183565b5b828203905092915050565b7f4e487b7100000000000000000000000000000000000000000000000000000000600052603160045260246000fd5b6000612220826118e4565b91507fffffffffffffffffffffffffffffffffffffffffffffffffffffffffffffffff820361225257612251612183565b5b60018201905091905056fea2646970667358221220fe80bea81cd661f5e0e17e1bd39679252b2cc0ec5b41bf0f86c2130fad1f06dd64736f6c634300080d0033",
  "immutableReferences": {},
  "source": "pragma solidity >=0.7.0 <0.9.0;\r\n\r\n// import \"https://github.com/OpenZeppelin/openzeppelin-contracts/blob/master/contracts/token/ERC20/ERC20.sol\"; // Use this while running it in remix\r\n\r\nimport \"./Token.sol\";\r\n\r\ncontract PartyContract {\r\n\r\n    struct Party {\r\n        string name;\r\n        string contactNumber;\r\n        string email;\r\n        string password;\r\n        uint256 trustScore;\r\n        uint256 createdAt;\r\n        address partyAddress;\r\n        uint256[] tenderIds;\r\n        uint256 freezedBalance;\r\n        uint256[] tenderIdsToValidate;\r\n        uint8 verifyParty; // 0: Not Verified, 1: Verified\r\n    }\r\n\r\n    mapping (address => Party) public parties;\r\n    address[] public partyAddresses;\r\n    address public admin;\r\n    Token public tokenRef;\r\n    uint256 tokenAmount = 50; // Giving 50 tokens to a created party, fixed amount of tokens to credit\r\n\r\n       \r\n    constructor() {\r\n        // tokenRef = _tokenRef;  \r\n        // admin = msg.sender;\r\n    }\r\n\r\n    //setters and getters\r\n    function getTrustScore(address _partyAddress) public view returns(uint256) {\r\n        return parties[_partyAddress].trustScore;\r\n    }\r\n\r\n    function setTrustScore(address _partyAddress, uint256 _trustScore) public {\r\n        parties[_partyAddress].trustScore = _trustScore;\r\n    }\r\n\r\n    modifier isOwner(address owner) {\r\n        require(msg.sender == owner, \"Caller is not owner\");\r\n        _;\r\n    }\r\n\r\n    modifier isPartyExists(address _partyAddress) {\r\n        require(parties[_partyAddress].partyAddress != address(0), \"Party does not exist\");\r\n        _;\r\n    }\r\n\r\n    // Function for creating party\r\n   function createParty(string memory _name, string memory _contactNumber, string memory _email, string memory _password, address _partyAddress) public isOwner(_partyAddress) {\r\n        require(parties[_partyAddress].partyAddress == address(0), \"Party already exists\");\r\n\r\n        Party storage newParty = parties[_partyAddress];\r\n        newParty.name = _name;\r\n        newParty.contactNumber = _contactNumber;\r\n        newParty.email = _email;\r\n        newParty.password = _password;\r\n        newParty.trustScore = 0;\r\n        newParty.createdAt = block.timestamp;\r\n        newParty.partyAddress = _partyAddress;\r\n        newParty.tenderIds = new uint256[](0);\r\n        newParty.verifyParty = 0; // Set verifyParty to 0 when creating a new party\r\n\r\n        partyAddresses.push(_partyAddress);\r\n    }\r\n\r\n    // Function for validating a user by a government address/////----++\r\n    function validateUser(address _govAddress, address _userAddress, uint8 _status) public isOwner(_govAddress) {\r\n        // Check if the government address is the owner and the user exists\r\n        require(parties[_govAddress].partyAddress != address(0), \"Caller is not a government address\");\r\n        require(parties[_userAddress].partyAddress != address(0), \"User does not exist\");\r\n\r\n        // Update the verification status of the user\r\n        parties[_userAddress].verifyParty = _status;\r\n    }\r\n\r\n\r\n    //Function for updating party\r\n    function updateParty(string memory _name, string memory _password, address _partyAddress) public isOwner(_partyAddress) isPartyExists(_partyAddress) {\r\n        // require(msg.sender == parties[_partyAddress].partyAddress, \"Only party owner can update/delete party details.\");\r\n        Party storage updatedParty = parties[_partyAddress];\r\n        updatedParty.name  = _name;\r\n        updatedParty.password = _password;\r\n    }\r\n    \r\n    //Function for deleting a party on platform\r\n    function deleteParty(address _partyAddress) public isOwner(_partyAddress) isPartyExists(_partyAddress) {\r\n        // require(msg.sender == parties[_partyAddress].partyAddress, \"Only party owner can update/delete party details.\");\r\n        delete parties[_partyAddress];\r\n        for (uint256 i = 0; i < partyAddresses.length; i++) {\r\n            if (partyAddresses[i] == msg.sender) {\r\n                partyAddresses[i] = partyAddresses[partyAddresses.length - 1];\r\n                partyAddresses.pop();\r\n                break;\r\n            }\r\n        }\r\n    }\r\n \r\n    // Function for getting details of a particular party\r\n    function getPartyDetails(address _partyAddress) public isOwner(_partyAddress) isPartyExists(_partyAddress) view returns (string memory, string memory, string memory, address, uint256, string memory) {\r\n        return (parties[_partyAddress].name, parties[_partyAddress].contactNumber, parties[_partyAddress].email, parties[_partyAddress].partyAddress, parties[_partyAddress].trustScore, parties[_partyAddress].password);\r\n    }\r\n}\r\n",
  "sourcePath": "D:\\major-prj\\blockchain-based-contracting-system\\contracts\\PartyContract.sol",
  "compiler": {
    "name": "solc",
    "version": "0.8.13+commit.abaa5c0e.Emscripten.clang"
  },
  "schemaVersion": "3.4.16",
  "updatedAt": "2024-01-22T07:14:43.996Z",
  "devdoc": {
    "kind": "dev",
    "methods": {},
    "version": 1
  },
  "userdoc": {
    "kind": "user",
    "methods": {},
    "version": 1
  }
}