{
  "contractName": "PartyContract",
  "abi": [
    {
      "inputs": [],
      "stateMutability": "nonpayable",
      "type": "constructor"
    },
    {
      "inputs": [],
      "name": "admin",
      "outputs": [
        {
          "internalType": "address",
          "name": "",
          "type": "address"
        }
      ],
      "stateMutability": "view",
      "type": "function",
      "constant": true
    },
    {
      "inputs": [
        {
          "internalType": "address",
          "name": "",
          "type": "address"
        }
      ],
      "name": "parties",
      "outputs": [
        {
          "internalType": "string",
          "name": "name",
          "type": "string"
        },
        {
          "internalType": "string",
          "name": "contactNumber",
          "type": "string"
        },
        {
          "internalType": "string",
          "name": "email",
          "type": "string"
        },
        {
          "internalType": "string",
          "name": "password",
          "type": "string"
        },
        {
          "internalType": "uint256",
          "name": "trustScore",
          "type": "uint256"
        },
        {
          "internalType": "uint256",
          "name": "createdAt",
          "type": "uint256"
        },
        {
          "internalType": "address",
          "name": "partyAddress",
          "type": "address"
        },
        {
          "internalType": "uint256",
          "name": "status",
          "type": "uint256"
        }
      ],
      "stateMutability": "view",
      "type": "function",
      "constant": true
    },
    {
      "inputs": [
        {
          "internalType": "uint256",
          "name": "",
          "type": "uint256"
        }
      ],
      "name": "partyAddresses",
      "outputs": [
        {
          "internalType": "address",
          "name": "",
          "type": "address"
        }
      ],
      "stateMutability": "view",
      "type": "function",
      "constant": true
    },
    {
      "inputs": [],
      "name": "tokenRef",
      "outputs": [
        {
          "internalType": "contract Token",
          "name": "",
          "type": "address"
        }
      ],
      "stateMutability": "view",
      "type": "function",
      "constant": true
    },
    {
      "inputs": [
        {
          "internalType": "address",
          "name": "_partyAddress",
          "type": "address"
        }
      ],
      "name": "getStatus",
      "outputs": [
        {
          "internalType": "uint256",
          "name": "",
          "type": "uint256"
        }
      ],
      "stateMutability": "view",
      "type": "function",
      "constant": true
    },
    {
      "inputs": [
        {
          "internalType": "address",
          "name": "_partyAddress",
          "type": "address"
        },
        {
          "internalType": "uint256",
          "name": "_status",
          "type": "uint256"
        }
      ],
      "name": "setStatus",
      "outputs": [
        {
          "internalType": "uint256",
          "name": "",
          "type": "uint256"
        }
      ],
      "stateMutability": "nonpayable",
      "type": "function"
    },
    {
      "inputs": [
        {
          "internalType": "address",
          "name": "_partyAddress",
          "type": "address"
        }
      ],
      "name": "getTrustScore",
      "outputs": [
        {
          "internalType": "uint256",
          "name": "",
          "type": "uint256"
        }
      ],
      "stateMutability": "view",
      "type": "function",
      "constant": true
    },
    {
      "inputs": [
        {
          "internalType": "address",
          "name": "_partyAddress",
          "type": "address"
        },
        {
          "internalType": "uint256",
          "name": "_trustScore",
          "type": "uint256"
        }
      ],
      "name": "setTrustScore",
      "outputs": [],
      "stateMutability": "nonpayable",
      "type": "function"
    },
    {
      "inputs": [
        {
          "internalType": "string",
          "name": "_name",
          "type": "string"
        },
        {
          "internalType": "string",
          "name": "_contactNumber",
          "type": "string"
        },
        {
          "internalType": "string",
          "name": "_email",
          "type": "string"
        },
        {
          "internalType": "string",
          "name": "_password",
          "type": "string"
        },
        {
          "internalType": "address",
          "name": "_partyAddress",
          "type": "address"
        }
      ],
      "name": "createParty",
      "outputs": [],
      "stateMutability": "nonpayable",
      "type": "function"
    },
    {
      "inputs": [
        {
          "internalType": "string",
          "name": "_name",
          "type": "string"
        },
        {
          "internalType": "string",
          "name": "_password",
          "type": "string"
        },
        {
          "internalType": "address",
          "name": "_partyAddress",
          "type": "address"
        }
      ],
      "name": "updateParty",
      "outputs": [],
      "stateMutability": "nonpayable",
      "type": "function"
    },
    {
      "inputs": [
        {
          "internalType": "address",
          "name": "_partyAddress",
          "type": "address"
        }
      ],
      "name": "deleteParty",
      "outputs": [],
      "stateMutability": "nonpayable",
      "type": "function"
    },
    {
      "inputs": [
        {
          "internalType": "address",
          "name": "_partyAddress",
          "type": "address"
        }
      ],
      "name": "getPartyDetails",
      "outputs": [
        {
          "internalType": "string",
          "name": "",
          "type": "string"
        },
        {
          "internalType": "string",
          "name": "",
          "type": "string"
        },
        {
          "internalType": "string",
          "name": "",
          "type": "string"
        },
        {
          "internalType": "address",
          "name": "",
          "type": "address"
        },
        {
          "internalType": "uint256",
          "name": "",
          "type": "uint256"
        },
        {
          "internalType": "string",
          "name": "",
          "type": "string"
        }
      ],
      "stateMutability": "view",
      "type": "function",
      "constant": true
    }
  ],
  "bytecode": "0x6080604052603260045534801561001557600080fd5b50611f71806100256000396000f3fe608060405234801561001057600080fd5b50600436106100b35760003560e01c80637a0c7d39116100715780637a0c7d39146101be5780637e55d59c146101da578063c792d8fd1461020a578063ef8c03911461023a578063f851a44014610256578063feec475814610274576100b3565b8062da7228146100b8578063171fd848146100ed57806330ccebb51461010957806333bec837146101395780634f235207146101575780635e09eea11461018e575b600080fd5b6100d260048036038101906100cd9190611695565b610290565b6040516100e496959493929190611783565b60405180910390f35b61010760048036038101906101029190611935565b6107c9565b005b610123600480360381019061011e9190611695565b610adc565b6040516101309190611a20565b60405180910390f35b610141610b27565b60405161014e9190611a9a565b60405180910390f35b610171600480360381019061016c9190611695565b610b4d565b604051610185989796959493929190611ab5565b60405180910390f35b6101a860048036038101906101a39190611695565b610dd5565b6040516101b59190611a20565b60405180910390f35b6101d860048036038101906101d39190611b4f565b610e20565b005b6101f460048036038101906101ef9190611c06565b610fdc565b6040516102019190611a20565b60405180910390f35b610224600480360381019061021f9190611c46565b611073565b6040516102319190611c73565b60405180910390f35b610254600480360381019061024f9190611695565b6110b2565b005b61025e611462565b60405161026b9190611c73565b60405180910390f35b61028e60048036038101906102899190611c06565b611488565b005b60608060606000806060868073ffffffffffffffffffffffffffffffffffffffff163373ffffffffffffffffffffffffffffffffffffffff1614610309576040517f08c379a000000000000000000000000000000000000000000000000000000000815260040161030090611cda565b60405180910390fd5b87600073ffffffffffffffffffffffffffffffffffffffff166000808373ffffffffffffffffffffffffffffffffffffffff1673ffffffffffffffffffffffffffffffffffffffff16815260200190815260200160002060060160009054906101000a900473ffffffffffffffffffffffffffffffffffffffff1673ffffffffffffffffffffffffffffffffffffffff16036103da576040517f08c379a00000000000000000000000000000000000000000000000000000000081526004016103d190611d46565b60405180910390fd5b6000808a73ffffffffffffffffffffffffffffffffffffffff1673ffffffffffffffffffffffffffffffffffffffff1681526020019081526020016000206000016000808b73ffffffffffffffffffffffffffffffffffffffff1673ffffffffffffffffffffffffffffffffffffffff1681526020019081526020016000206001016000808c73ffffffffffffffffffffffffffffffffffffffff1673ffffffffffffffffffffffffffffffffffffffff1681526020019081526020016000206002016000808d73ffffffffffffffffffffffffffffffffffffffff1673ffffffffffffffffffffffffffffffffffffffff16815260200190815260200160002060060160009054906101000a900473ffffffffffffffffffffffffffffffffffffffff166000808e73ffffffffffffffffffffffffffffffffffffffff1673ffffffffffffffffffffffffffffffffffffffff168152602001908152602001600020600801546000808f73ffffffffffffffffffffffffffffffffffffffff1673ffffffffffffffffffffffffffffffffffffffff16815260200190815260200160002060030185805461058e90611d95565b80601f01602080910402602001604051908101604052809291908181526020018280546105ba90611d95565b80156106075780601f106105dc57610100808354040283529160200191610607565b820191906000526020600020905b8154815290600101906020018083116105ea57829003601f168201915b5050505050955084805461061a90611d95565b80601f016020809104026020016040519081016040528092919081815260200182805461064690611d95565b80156106935780601f1061066857610100808354040283529160200191610693565b820191906000526020600020905b81548152906001019060200180831161067657829003601f168201915b505050505094508380546106a690611d95565b80601f01602080910402602001604051908101604052809291908181526020018280546106d290611d95565b801561071f5780601f106106f45761010080835404028352916020019161071f565b820191906000526020600020905b81548152906001019060200180831161070257829003601f168201915b5050505050935080805461073290611d95565b80601f016020809104026020016040519081016040528092919081815260200182805461075e90611d95565b80156107ab5780601f10610780576101008083540402835291602001916107ab565b820191906000526020600020905b81548152906001019060200180831161078e57829003601f168201915b50505050509050975097509750975097509750505091939550919395565b808073ffffffffffffffffffffffffffffffffffffffff163373ffffffffffffffffffffffffffffffffffffffff1614610838576040517f08c379a000000000000000000000000000000000000000000000000000000000815260040161082f90611cda565b60405180910390fd5b600073ffffffffffffffffffffffffffffffffffffffff166000808473ffffffffffffffffffffffffffffffffffffffff1673ffffffffffffffffffffffffffffffffffffffff16815260200190815260200160002060060160009054906101000a900473ffffffffffffffffffffffffffffffffffffffff1673ffffffffffffffffffffffffffffffffffffffff1614610908576040517f08c379a00000000000000000000000000000000000000000000000000000000081526004016108ff90611e12565b60405180910390fd5b60008060008473ffffffffffffffffffffffffffffffffffffffff1673ffffffffffffffffffffffffffffffffffffffff1681526020019081526020016000209050868160000190805190602001906109629291906114d2565b508581600101908051906020019061097b9291906114d2565b50848160020190805190602001906109949291906114d2565b50838160030190805190602001906109ad9291906114d2565b5060008160040181905550428160050181905550828160060160006101000a81548173ffffffffffffffffffffffffffffffffffffffff021916908373ffffffffffffffffffffffffffffffffffffffff16021790555060008160080181905550600067ffffffffffffffff811115610a2957610a2861180a565b5b604051908082528060200260200182016040528015610a575781602001602082028036833780820191505090505b50816007019080519060200190610a6f929190611558565b506001839080600181540180825580915050600190039060005260206000200160009091909190916101000a81548173ffffffffffffffffffffffffffffffffffffffff021916908373ffffffffffffffffffffffffffffffffffffffff16021790555050505050505050565b60008060008373ffffffffffffffffffffffffffffffffffffffff1673ffffffffffffffffffffffffffffffffffffffff168152602001908152602001600020600801549050919050565b600360009054906101000a900473ffffffffffffffffffffffffffffffffffffffff1681565b6000602052806000526040600020600091509050806000018054610b7090611d95565b80601f0160208091040260200160405190810160405280929190818152602001828054610b9c90611d95565b8015610be95780601f10610bbe57610100808354040283529160200191610be9565b820191906000526020600020905b815481529060010190602001808311610bcc57829003601f168201915b505050505090806001018054610bfe90611d95565b80601f0160208091040260200160405190810160405280929190818152602001828054610c2a90611d95565b8015610c775780601f10610c4c57610100808354040283529160200191610c77565b820191906000526020600020905b815481529060010190602001808311610c5a57829003601f168201915b505050505090806002018054610c8c90611d95565b80601f0160208091040260200160405190810160405280929190818152602001828054610cb890611d95565b8015610d055780601f10610cda57610100808354040283529160200191610d05565b820191906000526020600020905b815481529060010190602001808311610ce857829003601f168201915b505050505090806003018054610d1a90611d95565b80601f0160208091040260200160405190810160405280929190818152602001828054610d4690611d95565b8015610d935780601f10610d6857610100808354040283529160200191610d93565b820191906000526020600020905b815481529060010190602001808311610d7657829003601f168201915b5050505050908060040154908060050154908060060160009054906101000a900473ffffffffffffffffffffffffffffffffffffffff16908060080154905088565b60008060008373ffffffffffffffffffffffffffffffffffffffff1673ffffffffffffffffffffffffffffffffffffffff168152602001908152602001600020600401549050919050565b808073ffffffffffffffffffffffffffffffffffffffff163373ffffffffffffffffffffffffffffffffffffffff1614610e8f576040517f08c379a0000000000000000000000000000000000000000000000000000000008152600401610e8690611cda565b60405180910390fd5b81600073ffffffffffffffffffffffffffffffffffffffff166000808373ffffffffffffffffffffffffffffffffffffffff1673ffffffffffffffffffffffffffffffffffffffff16815260200190815260200160002060060160009054906101000a900473ffffffffffffffffffffffffffffffffffffffff1673ffffffffffffffffffffffffffffffffffffffff1603610f60576040517f08c379a0000000000000000000000000000000000000000000000000000000008152600401610f5790611d46565b60405180910390fd5b60008060008573ffffffffffffffffffffffffffffffffffffffff1673ffffffffffffffffffffffffffffffffffffffff168152602001908152602001600020905085816000019080519060200190610fba9291906114d2565b5084816003019080519060200190610fd39291906114d2565b50505050505050565b6000806000808573ffffffffffffffffffffffffffffffffffffffff1673ffffffffffffffffffffffffffffffffffffffff16815260200190815260200160002090508281600801819055506000808573ffffffffffffffffffffffffffffffffffffffff1673ffffffffffffffffffffffffffffffffffffffff1681526020019081526020016000206008015491505092915050565b6001818154811061108357600080fd5b906000526020600020016000915054906101000a900473ffffffffffffffffffffffffffffffffffffffff1681565b808073ffffffffffffffffffffffffffffffffffffffff163373ffffffffffffffffffffffffffffffffffffffff1614611121576040517f08c379a000000000000000000000000000000000000000000000000000000000815260040161111890611cda565b60405180910390fd5b81600073ffffffffffffffffffffffffffffffffffffffff166000808373ffffffffffffffffffffffffffffffffffffffff1673ffffffffffffffffffffffffffffffffffffffff16815260200190815260200160002060060160009054906101000a900473ffffffffffffffffffffffffffffffffffffffff1673ffffffffffffffffffffffffffffffffffffffff16036111f2576040517f08c379a00000000000000000000000000000000000000000000000000000000081526004016111e990611d46565b60405180910390fd5b6000808473ffffffffffffffffffffffffffffffffffffffff1673ffffffffffffffffffffffffffffffffffffffff1681526020019081526020016000206000808201600061124191906115a5565b60018201600061125191906115a5565b60028201600061126191906115a5565b60038201600061127191906115a5565b600482016000905560058201600090556006820160006101000a81549073ffffffffffffffffffffffffffffffffffffffff02191690556007820160006112b891906115e5565b60088201600090556009820160006112d091906115e5565b505060005b60018054905081101561145c573373ffffffffffffffffffffffffffffffffffffffff166001828154811061130d5761130c611e32565b5b9060005260206000200160009054906101000a900473ffffffffffffffffffffffffffffffffffffffff1673ffffffffffffffffffffffffffffffffffffffff16036114495760018080805490506113659190611e90565b8154811061137657611375611e32565b5b9060005260206000200160009054906101000a900473ffffffffffffffffffffffffffffffffffffffff16600182815481106113b5576113b4611e32565b5b9060005260206000200160006101000a81548173ffffffffffffffffffffffffffffffffffffffff021916908373ffffffffffffffffffffffffffffffffffffffff160217905550600180548061140f5761140e611ec4565b5b6001900381819060005260206000200160006101000a81549073ffffffffffffffffffffffffffffffffffffffff0219169055905561145c565b808061145490611ef3565b9150506112d5565b50505050565b600260009054906101000a900473ffffffffffffffffffffffffffffffffffffffff1681565b806000808473ffffffffffffffffffffffffffffffffffffffff1673ffffffffffffffffffffffffffffffffffffffff168152602001908152602001600020600401819055505050565b8280546114de90611d95565b90600052602060002090601f0160209004810192826115005760008555611547565b82601f1061151957805160ff1916838001178555611547565b82800160010185558215611547579182015b8281111561154657825182559160200191906001019061152b565b5b5090506115549190611606565b5090565b828054828255906000526020600020908101928215611594579160200282015b82811115611593578251825591602001919060010190611578565b5b5090506115a19190611606565b5090565b5080546115b190611d95565b6000825580601f106115c357506115e2565b601f0160209004906000526020600020908101906115e19190611606565b5b50565b50805460008255906000526020600020908101906116039190611606565b50565b5b8082111561161f576000816000905550600101611607565b5090565b6000604051905090565b600080fd5b600080fd5b600073ffffffffffffffffffffffffffffffffffffffff82169050919050565b600061166282611637565b9050919050565b61167281611657565b811461167d57600080fd5b50565b60008135905061168f81611669565b92915050565b6000602082840312156116ab576116aa61162d565b5b60006116b984828501611680565b91505092915050565b600081519050919050565b600082825260208201905092915050565b60005b838110156116fc5780820151818401526020810190506116e1565b8381111561170b576000848401525b50505050565b6000601f19601f8301169050919050565b600061172d826116c2565b61173781856116cd565b93506117478185602086016116de565b61175081611711565b840191505092915050565b61176481611657565b82525050565b6000819050919050565b61177d8161176a565b82525050565b600060c082019050818103600083015261179d8189611722565b905081810360208301526117b18188611722565b905081810360408301526117c58187611722565b90506117d4606083018661175b565b6117e16080830185611774565b81810360a08301526117f38184611722565b9050979650505050505050565b600080fd5b600080fd5b7f4e487b7100000000000000000000000000000000000000000000000000000000600052604160045260246000fd5b61184282611711565b810181811067ffffffffffffffff821117156118615761186061180a565b5b80604052505050565b6000611874611623565b90506118808282611839565b919050565b600067ffffffffffffffff8211156118a05761189f61180a565b5b6118a982611711565b9050602081019050919050565b82818337600083830152505050565b60006118d86118d384611885565b61186a565b9050828152602081018484840111156118f4576118f3611805565b5b6118ff8482856118b6565b509392505050565b600082601f83011261191c5761191b611800565b5b813561192c8482602086016118c5565b91505092915050565b600080600080600060a086880312156119515761195061162d565b5b600086013567ffffffffffffffff81111561196f5761196e611632565b5b61197b88828901611907565b955050602086013567ffffffffffffffff81111561199c5761199b611632565b5b6119a888828901611907565b945050604086013567ffffffffffffffff8111156119c9576119c8611632565b5b6119d588828901611907565b935050606086013567ffffffffffffffff8111156119f6576119f5611632565b5b611a0288828901611907565b9250506080611a1388828901611680565b9150509295509295909350565b6000602082019050611a356000830184611774565b92915050565b6000819050919050565b6000611a60611a5b611a5684611637565b611a3b565b611637565b9050919050565b6000611a7282611a45565b9050919050565b6000611a8482611a67565b9050919050565b611a9481611a79565b82525050565b6000602082019050611aaf6000830184611a8b565b92915050565b6000610100820190508181036000830152611ad0818b611722565b90508181036020830152611ae4818a611722565b90508181036040830152611af88189611722565b90508181036060830152611b0c8188611722565b9050611b1b6080830187611774565b611b2860a0830186611774565b611b3560c083018561175b565b611b4260e0830184611774565b9998505050505050505050565b600080600060608486031215611b6857611b6761162d565b5b600084013567ffffffffffffffff811115611b8657611b85611632565b5b611b9286828701611907565b935050602084013567ffffffffffffffff811115611bb357611bb2611632565b5b611bbf86828701611907565b9250506040611bd086828701611680565b9150509250925092565b611be38161176a565b8114611bee57600080fd5b50565b600081359050611c0081611bda565b92915050565b60008060408385031215611c1d57611c1c61162d565b5b6000611c2b85828601611680565b9250506020611c3c85828601611bf1565b9150509250929050565b600060208284031215611c5c57611c5b61162d565b5b6000611c6a84828501611bf1565b91505092915050565b6000602082019050611c88600083018461175b565b92915050565b7f43616c6c6572206973206e6f74206f776e657200000000000000000000000000600082015250565b6000611cc46013836116cd565b9150611ccf82611c8e565b602082019050919050565b60006020820190508181036000830152611cf381611cb7565b9050919050565b7f506172747920646f6573206e6f74206578697374000000000000000000000000600082015250565b6000611d306014836116cd565b9150611d3b82611cfa565b602082019050919050565b60006020820190508181036000830152611d5f81611d23565b9050919050565b7f4e487b7100000000000000000000000000000000000000000000000000000000600052602260045260246000fd5b60006002820490506001821680611dad57607f821691505b602082108103611dc057611dbf611d66565b5b50919050565b7f506172747920616c726561647920657869737473000000000000000000000000600082015250565b6000611dfc6014836116cd565b9150611e0782611dc6565b602082019050919050565b60006020820190508181036000830152611e2b81611def565b9050919050565b7f4e487b7100000000000000000000000000000000000000000000000000000000600052603260045260246000fd5b7f4e487b7100000000000000000000000000000000000000000000000000000000600052601160045260246000fd5b6000611e9b8261176a565b9150611ea68361176a565b925082821015611eb957611eb8611e61565b5b828203905092915050565b7f4e487b7100000000000000000000000000000000000000000000000000000000600052603160045260246000fd5b6000611efe8261176a565b91507fffffffffffffffffffffffffffffffffffffffffffffffffffffffffffffffff8203611f3057611f2f611e61565b5b60018201905091905056fea2646970667358221220878106bbd5a9ad1f9d88b7a1a17be3b0602e296b50a0492984859c423a42781e64736f6c634300080d0033",
  "immutableReferences": {},
  "source": "// SPDX-License-Identifier: UNLICENSED\r\n\r\npragma solidity >=0.7.0 <0.9.0;\r\n\r\n// import \"https://github.com/OpenZeppelin/openzeppelin-contracts/blob/master/contracts/token/ERC20/ERC20.sol\"; // Use this while running it in remix\r\n\r\nimport \"./Token.sol\";\r\n\r\ncontract PartyContract {\r\n\r\n    struct Party {\r\n        string name;\r\n        string contactNumber;\r\n        string email;\r\n        string password;\r\n        uint256 trustScore;\r\n        uint256 createdAt;\r\n        address partyAddress;\r\n        uint256[] tenderIds;\r\n        uint256 status;\r\n        uint256[] tenderIdsToValidate;\r\n    }\r\n    \r\n    mapping (address => Party) public parties;\r\n    address[] public partyAddresses;\r\n    address public admin;\r\n    Token public tokenRef;\r\n    uint256 tokenAmount = 50; // Giving 50 token to created party ,Fixed amount of tokens to credit\r\n       \r\n    constructor() {\r\n        // tokenRef = _tokenRef;  \r\n        // admin = msg.sender;\r\n    }\r\n\r\n    //setters and getters\r\n    function getStatus(address _partyAddress) public view returns(uint256) {\r\n        return (parties[_partyAddress].status);\r\n    }\r\n\r\n    function setStatus(address _partyAddress, uint256 _status) public returns(uint256){\r\n       Party storage updatedParty = parties[_partyAddress];\r\n        updatedParty.status = _status;\r\n        return parties[_partyAddress].status;\r\n    }\r\n\r\n  function getTrustScore(address _partyAddress) public view returns(uint256) {\r\n        return parties[_partyAddress].trustScore;\r\n    }\r\n\r\n    function setTrustScore(address _partyAddress, uint256 _trustScore) public {\r\n        parties[_partyAddress].trustScore = _trustScore;\r\n    }\r\n    modifier isOwner(address owner) {\r\n        require(msg.sender == owner, \"Caller is not owner\");\r\n        _;\r\n    }\r\n\r\n    modifier isPartyExists(address _partyAddress) {\r\n        require(parties[_partyAddress].partyAddress != address(0), \"Party does not exist\");\r\n        _;\r\n    }\r\n\r\n    // Function for creating party\r\n    function createParty(string memory _name, string memory _contactNumber, string memory _email, string memory _password, address _partyAddress) public isOwner(_partyAddress){\r\n        require(parties[_partyAddress].partyAddress == address(0), \"Party already exists\"); //\r\n\r\n        Party storage newParty = parties[_partyAddress];\r\n        newParty.name = _name;\r\n        newParty.contactNumber = _contactNumber;\r\n        newParty.email = _email;\r\n        newParty.password = _password;\r\n        newParty.trustScore = 0;\r\n        newParty.createdAt = block.timestamp;\r\n        newParty.partyAddress = _partyAddress;\r\n        newParty.status = 0;\r\n        newParty.tenderIds = new uint256[](0); \r\n\r\n        // Giving 50 token to created party\r\n        // uint256 tokenAmount = 50; // Fixed amount of tokens to credit\r\n        // tokenRef.transfer(payable(_partyAddress), tokenAmount * (10 ** 18));\r\n        \r\n        partyAddresses.push(_partyAddress);\r\n    }\r\n\r\n    //Function for updating party\r\n    function updateParty(string memory _name, string memory _password, address _partyAddress) public isOwner(_partyAddress) isPartyExists(_partyAddress) {\r\n        // require(msg.sender == parties[_partyAddress].partyAddress, \"Only party owner can update/delete party details.\");\r\n        Party storage updatedParty = parties[_partyAddress];\r\n        updatedParty.name  = _name;\r\n        updatedParty.password = _password;\r\n    }\r\n    \r\n    //Function for deleting a party on platform\r\n    function deleteParty(address _partyAddress) public isOwner(_partyAddress) isPartyExists(_partyAddress) {\r\n        // require(msg.sender == parties[_partyAddress].partyAddress, \"Only party owner can update/delete party details.\");\r\n        delete parties[_partyAddress];\r\n        for (uint256 i = 0; i < partyAddresses.length; i++) {\r\n            if (partyAddresses[i] == msg.sender) {\r\n                partyAddresses[i] = partyAddresses[partyAddresses.length - 1];\r\n                partyAddresses.pop();\r\n                break;\r\n            }\r\n        }\r\n    }\r\n \r\n    // Function for getting details of a particular party\r\n    function getPartyDetails(address _partyAddress) public isOwner(_partyAddress) isPartyExists(_partyAddress) view returns (string memory, string memory, string memory, address, uint256, string memory) {\r\n        return (parties[_partyAddress].name, parties[_partyAddress].contactNumber, parties[_partyAddress].email, parties[_partyAddress].partyAddress, parties[_partyAddress].status, parties[_partyAddress].password);\r\n    }\r\n} ",
  "sourcePath": "D:\\major-prj\\New folder\\major-prj\\contracts\\PartyContract.sol",
  "compiler": {
    "name": "solc",
    "version": "0.8.13+commit.abaa5c0e.Emscripten.clang"
  },
  "schemaVersion": "3.4.16",
  "updatedAt": "2024-03-12T05:50:24.326Z",
  "networkType": "ethereum",
  "devdoc": {
    "kind": "dev",
    "methods": {},
    "version": 1
  },
  "userdoc": {
    "kind": "user",
    "methods": {},
    "version": 1
  }
}