{
  "contractName": "TenderContract",
  "abi": [
    {
      "inputs": [],
      "stateMutability": "nonpayable",
      "type": "constructor"
    },
    {
      "inputs": [],
      "name": "admin",
      "outputs": [
        {
          "internalType": "address",
          "name": "",
          "type": "address"
        }
      ],
      "stateMutability": "view",
      "type": "function",
      "constant": true
    },
    {
      "inputs": [
        {
          "internalType": "string",
          "name": "_name",
          "type": "string"
        },
        {
          "internalType": "string",
          "name": "_contactNumber",
          "type": "string"
        },
        {
          "internalType": "string",
          "name": "_email",
          "type": "string"
        },
        {
          "internalType": "string",
          "name": "_password",
          "type": "string"
        },
        {
          "internalType": "address",
          "name": "_partyAddress",
          "type": "address"
        }
      ],
      "name": "createParty",
      "outputs": [],
      "stateMutability": "nonpayable",
      "type": "function"
    },
    {
      "inputs": [
        {
          "internalType": "address",
          "name": "_partyAddress",
          "type": "address"
        }
      ],
      "name": "deleteParty",
      "outputs": [],
      "stateMutability": "nonpayable",
      "type": "function"
    },
    {
      "inputs": [
        {
          "internalType": "address",
          "name": "_partyAddress",
          "type": "address"
        }
      ],
      "name": "getPartyDetails",
      "outputs": [
        {
          "internalType": "string",
          "name": "",
          "type": "string"
        },
        {
          "internalType": "string",
          "name": "",
          "type": "string"
        },
        {
          "internalType": "string",
          "name": "",
          "type": "string"
        },
        {
          "internalType": "address",
          "name": "",
          "type": "address"
        },
        {
          "internalType": "uint256",
          "name": "",
          "type": "uint256"
        },
        {
          "internalType": "string",
          "name": "",
          "type": "string"
        }
      ],
      "stateMutability": "view",
      "type": "function",
      "constant": true
    },
    {
      "inputs": [
        {
          "internalType": "address",
          "name": "_partyAddress",
          "type": "address"
        }
      ],
      "name": "getStatus",
      "outputs": [
        {
          "internalType": "uint256",
          "name": "",
          "type": "uint256"
        }
      ],
      "stateMutability": "view",
      "type": "function",
      "constant": true
    },
    {
      "inputs": [
        {
          "internalType": "address",
          "name": "_partyAddress",
          "type": "address"
        }
      ],
      "name": "getTrustScore",
      "outputs": [
        {
          "internalType": "uint256",
          "name": "",
          "type": "uint256"
        }
      ],
      "stateMutability": "view",
      "type": "function",
      "constant": true
    },
    {
      "inputs": [
        {
          "internalType": "address",
          "name": "",
          "type": "address"
        }
      ],
      "name": "parties",
      "outputs": [
        {
          "internalType": "string",
          "name": "name",
          "type": "string"
        },
        {
          "internalType": "string",
          "name": "contactNumber",
          "type": "string"
        },
        {
          "internalType": "string",
          "name": "email",
          "type": "string"
        },
        {
          "internalType": "string",
          "name": "password",
          "type": "string"
        },
        {
          "internalType": "uint256",
          "name": "trustScore",
          "type": "uint256"
        },
        {
          "internalType": "uint256",
          "name": "createdAt",
          "type": "uint256"
        },
        {
          "internalType": "address",
          "name": "partyAddress",
          "type": "address"
        },
        {
          "internalType": "uint256",
          "name": "status",
          "type": "uint256"
        }
      ],
      "stateMutability": "view",
      "type": "function",
      "constant": true
    },
    {
      "inputs": [
        {
          "internalType": "uint256",
          "name": "",
          "type": "uint256"
        }
      ],
      "name": "partyAddresses",
      "outputs": [
        {
          "internalType": "address",
          "name": "",
          "type": "address"
        }
      ],
      "stateMutability": "view",
      "type": "function",
      "constant": true
    },
    {
      "inputs": [
        {
          "internalType": "address",
          "name": "_partyAddress",
          "type": "address"
        },
        {
          "internalType": "uint256",
          "name": "_status",
          "type": "uint256"
        }
      ],
      "name": "setStatus",
      "outputs": [
        {
          "internalType": "uint256",
          "name": "",
          "type": "uint256"
        }
      ],
      "stateMutability": "nonpayable",
      "type": "function"
    },
    {
      "inputs": [
        {
          "internalType": "address",
          "name": "_partyAddress",
          "type": "address"
        },
        {
          "internalType": "uint256",
          "name": "_trustScore",
          "type": "uint256"
        }
      ],
      "name": "setTrustScore",
      "outputs": [],
      "stateMutability": "nonpayable",
      "type": "function"
    },
    {
      "inputs": [
        {
          "internalType": "uint256",
          "name": "",
          "type": "uint256"
        }
      ],
      "name": "tenders",
      "outputs": [
        {
          "internalType": "string",
          "name": "title",
          "type": "string"
        },
        {
          "internalType": "string",
          "name": "description",
          "type": "string"
        },
        {
          "internalType": "uint256",
          "name": "budget",
          "type": "uint256"
        },
        {
          "internalType": "address",
          "name": "issuerAddress",
          "type": "address"
        },
        {
          "internalType": "enum TenderStatus",
          "name": "tenderStatus",
          "type": "uint8"
        },
        {
          "internalType": "uint256",
          "name": "createdAt",
          "type": "uint256"
        },
        {
          "internalType": "uint256",
          "name": "deadline",
          "type": "uint256"
        },
        {
          "internalType": "uint256",
          "name": "totalMilestones",
          "type": "uint256"
        },
        {
          "internalType": "uint256",
          "name": "tenderId",
          "type": "uint256"
        },
        {
          "internalType": "string",
          "name": "docLink",
          "type": "string"
        },
        {
          "internalType": "uint256",
          "name": "balance",
          "type": "uint256"
        }
      ],
      "stateMutability": "view",
      "type": "function",
      "constant": true
    },
    {
      "inputs": [],
      "name": "tokenRef",
      "outputs": [
        {
          "internalType": "contract Token",
          "name": "",
          "type": "address"
        }
      ],
      "stateMutability": "view",
      "type": "function",
      "constant": true
    },
    {
      "inputs": [
        {
          "internalType": "string",
          "name": "_name",
          "type": "string"
        },
        {
          "internalType": "string",
          "name": "_password",
          "type": "string"
        },
        {
          "internalType": "address",
          "name": "_partyAddress",
          "type": "address"
        }
      ],
      "name": "updateParty",
      "outputs": [],
      "stateMutability": "nonpayable",
      "type": "function"
    },
    {
      "inputs": [],
      "name": "getTenderCount",
      "outputs": [
        {
          "internalType": "uint256",
          "name": "",
          "type": "uint256"
        }
      ],
      "stateMutability": "view",
      "type": "function",
      "constant": true
    },
    {
      "inputs": [
        {
          "internalType": "uint256",
          "name": "_tenderId",
          "type": "uint256"
        }
      ],
      "name": "getValidators",
      "outputs": [
        {
          "internalType": "address[]",
          "name": "",
          "type": "address[]"
        }
      ],
      "stateMutability": "view",
      "type": "function",
      "constant": true
    },
    {
      "inputs": [
        {
          "internalType": "uint256",
          "name": "_tenderId",
          "type": "uint256"
        }
      ],
      "name": "getBudget",
      "outputs": [
        {
          "internalType": "uint256",
          "name": "",
          "type": "uint256"
        }
      ],
      "stateMutability": "view",
      "type": "function",
      "constant": true
    },
    {
      "inputs": [
        {
          "internalType": "uint256",
          "name": "_tenderId",
          "type": "uint256"
        }
      ],
      "name": "getTenderStatus",
      "outputs": [
        {
          "internalType": "enum TenderStatus",
          "name": "",
          "type": "uint8"
        }
      ],
      "stateMutability": "view",
      "type": "function",
      "constant": true
    },
    {
      "inputs": [
        {
          "internalType": "uint256",
          "name": "_tenderId",
          "type": "uint256"
        }
      ],
      "name": "getDeadline",
      "outputs": [
        {
          "internalType": "uint256",
          "name": "",
          "type": "uint256"
        }
      ],
      "stateMutability": "view",
      "type": "function",
      "constant": true
    },
    {
      "inputs": [
        {
          "internalType": "uint256",
          "name": "_tenderId",
          "type": "uint256"
        }
      ],
      "name": "getBidIds",
      "outputs": [
        {
          "internalType": "uint256[]",
          "name": "",
          "type": "uint256[]"
        }
      ],
      "stateMutability": "view",
      "type": "function",
      "constant": true
    },
    {
      "inputs": [
        {
          "internalType": "uint256",
          "name": "_tenderId",
          "type": "uint256"
        }
      ],
      "name": "getIssuerAddress",
      "outputs": [
        {
          "internalType": "address",
          "name": "",
          "type": "address"
        }
      ],
      "stateMutability": "view",
      "type": "function",
      "constant": true
    },
    {
      "inputs": [
        {
          "internalType": "uint256",
          "name": "_tenderId",
          "type": "uint256"
        }
      ],
      "name": "getTotalMilestones",
      "outputs": [
        {
          "internalType": "uint256",
          "name": "",
          "type": "uint256"
        }
      ],
      "stateMutability": "view",
      "type": "function",
      "constant": true
    },
    {
      "inputs": [
        {
          "internalType": "uint256",
          "name": "_tenderId",
          "type": "uint256"
        }
      ],
      "name": "getBidsCount",
      "outputs": [
        {
          "internalType": "uint256",
          "name": "",
          "type": "uint256"
        }
      ],
      "stateMutability": "view",
      "type": "function",
      "constant": true
    },
    {
      "inputs": [
        {
          "internalType": "uint256",
          "name": "_tenderId",
          "type": "uint256"
        },
        {
          "internalType": "uint256",
          "name": "bidId",
          "type": "uint256"
        }
      ],
      "name": "addBidId",
      "outputs": [],
      "stateMutability": "nonpayable",
      "type": "function"
    },
    {
      "inputs": [
        {
          "internalType": "uint256[]",
          "name": "_tenderBidIds",
          "type": "uint256[]"
        },
        {
          "internalType": "uint256",
          "name": "_tenderId",
          "type": "uint256"
        }
      ],
      "name": "setBidIds",
      "outputs": [],
      "stateMutability": "nonpayable",
      "type": "function"
    },
    {
      "inputs": [
        {
          "internalType": "address",
          "name": "_partyAddress",
          "type": "address"
        },
        {
          "internalType": "uint256",
          "name": "_budget",
          "type": "uint256"
        },
        {
          "internalType": "string",
          "name": "_title",
          "type": "string"
        },
        {
          "internalType": "string",
          "name": "_description",
          "type": "string"
        },
        {
          "internalType": "uint256",
          "name": "_deadline",
          "type": "uint256"
        },
        {
          "internalType": "uint256",
          "name": "_totalMilestones",
          "type": "uint256"
        },
        {
          "internalType": "string",
          "name": "_docLink",
          "type": "string"
        }
      ],
      "name": "createTender",
      "outputs": [],
      "stateMutability": "nonpayable",
      "type": "function"
    },
    {
      "inputs": [],
      "name": "sortByTrustScore",
      "outputs": [
        {
          "internalType": "address[]",
          "name": "",
          "type": "address[]"
        }
      ],
      "stateMutability": "view",
      "type": "function",
      "constant": true
    },
    {
      "inputs": [
        {
          "internalType": "uint256",
          "name": "_tenderId",
          "type": "uint256"
        },
        {
          "internalType": "bool",
          "name": "_vote",
          "type": "bool"
        }
      ],
      "name": "validate",
      "outputs": [],
      "stateMutability": "nonpayable",
      "type": "function"
    },
    {
      "inputs": [
        {
          "internalType": "uint256",
          "name": "_tenderId",
          "type": "uint256"
        }
      ],
      "name": "checkTenderValidation",
      "outputs": [],
      "stateMutability": "nonpayable",
      "type": "function"
    },
    {
      "inputs": [
        {
          "internalType": "bool[]",
          "name": "_validationVotes",
          "type": "bool[]"
        }
      ],
      "name": "isValid",
      "outputs": [
        {
          "internalType": "bool",
          "name": "",
          "type": "bool"
        }
      ],
      "stateMutability": "pure",
      "type": "function",
      "constant": true
    },
    {
      "inputs": [
        {
          "internalType": "address",
          "name": "_partyAddress",
          "type": "address"
        }
      ],
      "name": "getTendersToValidate",
      "outputs": [
        {
          "internalType": "uint256[]",
          "name": "",
          "type": "uint256[]"
        }
      ],
      "stateMutability": "view",
      "type": "function",
      "constant": true
    },
    {
      "inputs": [],
      "name": "getAllActiveTenders",
      "outputs": [
        {
          "components": [
            {
              "internalType": "string",
              "name": "title",
              "type": "string"
            },
            {
              "internalType": "string",
              "name": "description",
              "type": "string"
            },
            {
              "internalType": "uint256",
              "name": "budget",
              "type": "uint256"
            },
            {
              "internalType": "address",
              "name": "issuerAddress",
              "type": "address"
            },
            {
              "internalType": "enum TenderStatus",
              "name": "tenderStatus",
              "type": "uint8"
            },
            {
              "internalType": "uint256",
              "name": "createdAt",
              "type": "uint256"
            },
            {
              "internalType": "uint256",
              "name": "deadline",
              "type": "uint256"
            },
            {
              "internalType": "uint256",
              "name": "totalMilestones",
              "type": "uint256"
            },
            {
              "internalType": "uint256",
              "name": "tenderId",
              "type": "uint256"
            },
            {
              "internalType": "address[]",
              "name": "validatorsAddresses",
              "type": "address[]"
            },
            {
              "internalType": "bool[]",
              "name": "validationVotes",
              "type": "bool[]"
            },
            {
              "internalType": "string",
              "name": "docLink",
              "type": "string"
            },
            {
              "internalType": "uint256[]",
              "name": "bidIds",
              "type": "uint256[]"
            },
            {
              "internalType": "uint256",
              "name": "balance",
              "type": "uint256"
            }
          ],
          "internalType": "struct TenderContract.Tender[]",
          "name": "",
          "type": "tuple[]"
        },
        {
          "internalType": "uint256",
          "name": "",
          "type": "uint256"
        }
      ],
      "stateMutability": "view",
      "type": "function",
      "constant": true
    },
    {
      "inputs": [
        {
          "internalType": "address",
          "name": "_partyAddress",
          "type": "address"
        }
      ],
      "name": "getMyTenders",
      "outputs": [
        {
          "components": [
            {
              "internalType": "string",
              "name": "title",
              "type": "string"
            },
            {
              "internalType": "string",
              "name": "description",
              "type": "string"
            },
            {
              "internalType": "uint256",
              "name": "budget",
              "type": "uint256"
            },
            {
              "internalType": "address",
              "name": "issuerAddress",
              "type": "address"
            },
            {
              "internalType": "enum TenderStatus",
              "name": "tenderStatus",
              "type": "uint8"
            },
            {
              "internalType": "uint256",
              "name": "createdAt",
              "type": "uint256"
            },
            {
              "internalType": "uint256",
              "name": "deadline",
              "type": "uint256"
            },
            {
              "internalType": "uint256",
              "name": "totalMilestones",
              "type": "uint256"
            },
            {
              "internalType": "uint256",
              "name": "tenderId",
              "type": "uint256"
            },
            {
              "internalType": "address[]",
              "name": "validatorsAddresses",
              "type": "address[]"
            },
            {
              "internalType": "bool[]",
              "name": "validationVotes",
              "type": "bool[]"
            },
            {
              "internalType": "string",
              "name": "docLink",
              "type": "string"
            },
            {
              "internalType": "uint256[]",
              "name": "bidIds",
              "type": "uint256[]"
            },
            {
              "internalType": "uint256",
              "name": "balance",
              "type": "uint256"
            }
          ],
          "internalType": "struct TenderContract.Tender[]",
          "name": "",
          "type": "tuple[]"
        }
      ],
      "stateMutability": "view",
      "type": "function",
      "constant": true
    },
    {
      "inputs": [
        {
          "internalType": "uint256",
          "name": "_tenderId",
          "type": "uint256"
        }
      ],
      "name": "getTenderDetails",
      "outputs": [
        {
          "components": [
            {
              "internalType": "string",
              "name": "title",
              "type": "string"
            },
            {
              "internalType": "string",
              "name": "description",
              "type": "string"
            },
            {
              "internalType": "uint256",
              "name": "budget",
              "type": "uint256"
            },
            {
              "internalType": "address",
              "name": "issuerAddress",
              "type": "address"
            },
            {
              "internalType": "enum TenderStatus",
              "name": "tenderStatus",
              "type": "uint8"
            },
            {
              "internalType": "uint256",
              "name": "createdAt",
              "type": "uint256"
            },
            {
              "internalType": "uint256",
              "name": "deadline",
              "type": "uint256"
            },
            {
              "internalType": "uint256",
              "name": "totalMilestones",
              "type": "uint256"
            },
            {
              "internalType": "uint256",
              "name": "tenderId",
              "type": "uint256"
            },
            {
              "internalType": "address[]",
              "name": "validatorsAddresses",
              "type": "address[]"
            },
            {
              "internalType": "bool[]",
              "name": "validationVotes",
              "type": "bool[]"
            },
            {
              "internalType": "string",
              "name": "docLink",
              "type": "string"
            },
            {
              "internalType": "uint256[]",
              "name": "bidIds",
              "type": "uint256[]"
            },
            {
              "internalType": "uint256",
              "name": "balance",
              "type": "uint256"
            }
          ],
          "internalType": "struct TenderContract.Tender",
          "name": "",
          "type": "tuple"
        }
      ],
      "stateMutability": "view",
      "type": "function",
      "constant": true
    },
    {
      "inputs": [
        {
          "internalType": "uint256",
          "name": "_tenderId",
          "type": "uint256"
        },
        {
          "internalType": "enum TenderStatus",
          "name": "_tenderStatus",
          "type": "uint8"
        }
      ],
      "name": "updateTenderStatus",
      "outputs": [],
      "stateMutability": "nonpayable",
      "type": "function"
    },
    {
      "inputs": [
        {
          "internalType": "address",
          "name": "_partyAddress",
          "type": "address"
        },
        {
          "internalType": "uint256",
          "name": "_tenderId",
          "type": "uint256"
        },
        {
          "internalType": "uint256",
          "name": "_budget",
          "type": "uint256"
        },
        {
          "internalType": "string",
          "name": "_title",
          "type": "string"
        },
        {
          "internalType": "string",
          "name": "_description",
          "type": "string"
        },
        {
          "internalType": "uint256",
          "name": "_deadline",
          "type": "uint256"
        },
        {
          "internalType": "uint256",
          "name": "_totalMilestones",
          "type": "uint256"
        }
      ],
      "name": "updateTender",
      "outputs": [],
      "stateMutability": "nonpayable",
      "type": "function"
    },
    {
      "inputs": [
        {
          "internalType": "address",
          "name": "_partyAddress",
          "type": "address"
        },
        {
          "internalType": "uint256",
          "name": "_tenderId",
          "type": "uint256"
        }
      ],
      "name": "deleteTender",
      "outputs": [],
      "stateMutability": "nonpayable",
      "type": "function"
    }
  ],
  "bytecode": "0x60806040526032600455600060065534801561001a57600080fd5b50615db1806200002b6000396000f3fe608060405234801561001057600080fd5b506004361061021b5760003560e01c80635e09eea111610125578063c792d8fd116100ad578063ef8c03911161007c578063ef8c03911461070b578063f1d8ef4d14610727578063f851a44014610743578063fd7b91b614610761578063feec4758146107915761021b565b8063c792d8fd1461065f578063ccfa858e1461068f578063d7959bd0146106bf578063e2e5384d146106db5761021b565b806382862275116100f457806382862275146105bf578063897bb979146105ef57806397ef4e3e1461060b578063aaaf418814610627578063bac2e80d146106435761021b565b80635e09eea1146105135780637a0c7d39146105435780637e4d2d971461055f5780637e55d59c1461058f5761021b565b80634008f9c0116101a85780634f235207116101775780634f2352071461045457806353ee895d1461048b57806355e8dea2146104bb578063564abc25146104d75780635850b383146104f55761021b565b80634008f9c01461038a57806342222a43146103ba578063465e1def146103ea578063471f40fb146104245761021b565b80632e4ea4c4116101ef5780632e4ea4c4146102bd57806330ccebb5146102ed57806333bec8371461031d578063354133f71461033b5780633d818b311461036b5761021b565b8062da722814610220578063171fd84814610255578063228becb61461027157806329c350f1146102a1575b600080fd5b61023a600480360381019061023591906142c3565b6107ad565b60405161024c969594939291906143b1565b60405180910390f35b61026f600480360381019061026a9190614563565b610ce6565b005b61028b600480360381019061028691906142c3565b610ff9565b6040516102989190614b68565b60405180910390f35b6102bb60048036038101906102b69190614bb6565b6115d6565b005b6102d760048036038101906102d29190614bb6565b611682565b6040516102e49190614be3565b60405180910390f35b610307600480360381019061030291906142c3565b6116a2565b6040516103149190614be3565b60405180910390f35b6103256116ed565b6040516103329190614c5d565b60405180910390f35b61035560048036038101906103509190614bb6565b611713565b6040516103629190614c87565b60405180910390f35b610373611740565b604051610381929190614ca2565b60405180910390f35b6103a4600480360381019061039f9190614bb6565b611c91565b6040516103b19190614be3565b60405180910390f35b6103d460048036038101906103cf9190614bb6565b611cb4565b6040516103e19190614d41565b60405180910390f35b61040460048036038101906103ff9190614bb6565b611d22565b60405161041b9b9a99989796959493929190614d63565b60405180910390f35b61043e60048036038101906104399190614bb6565b611f41565b60405161044b9190614e92565b60405180910390f35b61046e600480360381019061046991906142c3565b611fe5565b604051610482989796959493929190614eb4565b60405180910390f35b6104a560048036038101906104a09190614bb6565b61226d565b6040516104b2919061509f565b60405180910390f35b6104d560048036038101906104d091906150c1565b6126da565b005b6104df612ad9565b6040516104ec9190614e92565b60405180910390f35b6104fd612d49565b60405161050a9190614be3565b60405180910390f35b61052d600480360381019061052891906142c3565b612d53565b60405161053a9190614be3565b60405180910390f35b61055d60048036038101906105589190615101565b612d9e565b005b61057960048036038101906105749190614bb6565b612f5a565b604051610586919061518c565b60405180910390f35b6105a960048036038101906105a491906150c1565b612f9a565b6040516105b69190614be3565b60405180910390f35b6105d960048036038101906105d49190614bb6565b613031565b6040516105e69190614be3565b60405180910390f35b6106096004803603810190610604919061526f565b613051565b005b610625600480360381019061062091906152f7565b6130bc565b005b610641600480360381019061063c919061535c565b613215565b005b61065d6004803603810190610658919061539c565b61325d565b005b61067960048036038101906106749190614bb6565b61352f565b604051610686919061518c565b60405180910390f35b6106a960048036038101906106a49190615539565b61356e565b6040516106b69190615591565b60405180910390f35b6106d960048036038101906106d491906155ac565b6135f4565b005b6106f560048036038101906106f09190614bb6565b613a96565b6040516107029190614be3565b60405180910390f35b610725600480360381019061072091906142c3565b613ab6565b005b610741600480360381019061073c91906156a2565b613e66565b005b61074b613ea7565b604051610758919061518c565b60405180910390f35b61077b600480360381019061077691906142c3565b613ecd565b6040516107889190614d41565b60405180910390f35b6107ab60048036038101906107a691906150c1565b613fd6565b005b60608060606000806060868073ffffffffffffffffffffffffffffffffffffffff163373ffffffffffffffffffffffffffffffffffffffff1614610826576040517f08c379a000000000000000000000000000000000000000000000000000000000815260040161081d9061572e565b60405180910390fd5b87600073ffffffffffffffffffffffffffffffffffffffff166000808373ffffffffffffffffffffffffffffffffffffffff1673ffffffffffffffffffffffffffffffffffffffff16815260200190815260200160002060060160009054906101000a900473ffffffffffffffffffffffffffffffffffffffff1673ffffffffffffffffffffffffffffffffffffffff16036108f7576040517f08c379a00000000000000000000000000000000000000000000000000000000081526004016108ee9061579a565b60405180910390fd5b6000808a73ffffffffffffffffffffffffffffffffffffffff1673ffffffffffffffffffffffffffffffffffffffff1681526020019081526020016000206000016000808b73ffffffffffffffffffffffffffffffffffffffff1673ffffffffffffffffffffffffffffffffffffffff1681526020019081526020016000206001016000808c73ffffffffffffffffffffffffffffffffffffffff1673ffffffffffffffffffffffffffffffffffffffff1681526020019081526020016000206002016000808d73ffffffffffffffffffffffffffffffffffffffff1673ffffffffffffffffffffffffffffffffffffffff16815260200190815260200160002060060160009054906101000a900473ffffffffffffffffffffffffffffffffffffffff166000808e73ffffffffffffffffffffffffffffffffffffffff1673ffffffffffffffffffffffffffffffffffffffff168152602001908152602001600020600801546000808f73ffffffffffffffffffffffffffffffffffffffff1673ffffffffffffffffffffffffffffffffffffffff168152602001908152602001600020600301858054610aab906157e9565b80601f0160208091040260200160405190810160405280929190818152602001828054610ad7906157e9565b8015610b245780601f10610af957610100808354040283529160200191610b24565b820191906000526020600020905b815481529060010190602001808311610b0757829003601f168201915b50505050509550848054610b37906157e9565b80601f0160208091040260200160405190810160405280929190818152602001828054610b63906157e9565b8015610bb05780601f10610b8557610100808354040283529160200191610bb0565b820191906000526020600020905b815481529060010190602001808311610b9357829003601f168201915b50505050509450838054610bc3906157e9565b80601f0160208091040260200160405190810160405280929190818152602001828054610bef906157e9565b8015610c3c5780601f10610c1157610100808354040283529160200191610c3c565b820191906000526020600020905b815481529060010190602001808311610c1f57829003601f168201915b50505050509350808054610c4f906157e9565b80601f0160208091040260200160405190810160405280929190818152602001828054610c7b906157e9565b8015610cc85780601f10610c9d57610100808354040283529160200191610cc8565b820191906000526020600020905b815481529060010190602001808311610cab57829003601f168201915b50505050509050975097509750975097509750505091939550919395565b808073ffffffffffffffffffffffffffffffffffffffff163373ffffffffffffffffffffffffffffffffffffffff1614610d55576040517f08c379a0000000000000000000000000000000000000000000000000000000008152600401610d4c9061572e565b60405180910390fd5b600073ffffffffffffffffffffffffffffffffffffffff166000808473ffffffffffffffffffffffffffffffffffffffff1673ffffffffffffffffffffffffffffffffffffffff16815260200190815260200160002060060160009054906101000a900473ffffffffffffffffffffffffffffffffffffffff1673ffffffffffffffffffffffffffffffffffffffff1614610e25576040517f08c379a0000000000000000000000000000000000000000000000000000000008152600401610e1c90615866565b60405180910390fd5b60008060008473ffffffffffffffffffffffffffffffffffffffff1673ffffffffffffffffffffffffffffffffffffffff168152602001908152602001600020905086816000019080519060200190610e7f929190614020565b5085816001019080519060200190610e98929190614020565b5084816002019080519060200190610eb1929190614020565b5083816003019080519060200190610eca929190614020565b5060008160040181905550428160050181905550828160060160006101000a81548173ffffffffffffffffffffffffffffffffffffffff021916908373ffffffffffffffffffffffffffffffffffffffff16021790555060008160080181905550600067ffffffffffffffff811115610f4657610f45614438565b5b604051908082528060200260200182016040528015610f745781602001602082028036833780820191505090505b50816007019080519060200190610f8c9291906140a6565b506001839080600181540180825580915050600190039060005260206000200160009091909190916101000a81548173ffffffffffffffffffffffffffffffffffffffff021916908373ffffffffffffffffffffffffffffffffffffffff16021790555050505050505050565b606060008060008473ffffffffffffffffffffffffffffffffffffffff1673ffffffffffffffffffffffffffffffffffffffff1681526020019081526020016000206007018054905011611082576040517f08c379a0000000000000000000000000000000000000000000000000000000008152600401611079906158d2565b60405180910390fd5b60008060008473ffffffffffffffffffffffffffffffffffffffff1673ffffffffffffffffffffffffffffffffffffffff16815260200190815260200160002060070180548060200260200160405190810160405280929190818152602001828054801561110f57602002820191906000526020600020905b8154815260200190600101908083116110fb575b505050505090506000815167ffffffffffffffff81111561113357611132614438565b5b60405190808252806020026020018201604052801561116c57816020015b6111596140f3565b8152602001906001900390816111515790505b50905060005b82518110156115cb5760056000848381518110611192576111916158f2565b5b60200260200101518152602001908152602001600020604051806101c00160405290816000820180546111c4906157e9565b80601f01602080910402602001604051908101604052809291908181526020018280546111f0906157e9565b801561123d5780601f106112125761010080835404028352916020019161123d565b820191906000526020600020905b81548152906001019060200180831161122057829003601f168201915b50505050508152602001600182018054611256906157e9565b80601f0160208091040260200160405190810160405280929190818152602001828054611282906157e9565b80156112cf5780601f106112a4576101008083540402835291602001916112cf565b820191906000526020600020905b8154815290600101906020018083116112b257829003601f168201915b50505050508152602001600282015481526020016003820160009054906101000a900473ffffffffffffffffffffffffffffffffffffffff1673ffffffffffffffffffffffffffffffffffffffff1673ffffffffffffffffffffffffffffffffffffffff1681526020016003820160149054906101000a900460ff16600481111561135d5761135c6146e2565b5b600481111561136f5761136e6146e2565b5b8152602001600482015481526020016005820154815260200160068201548152602001600782015481526020016008820180548060200260200160405190810160405280929190818152602001828054801561142057602002820191906000526020600020905b8160009054906101000a900473ffffffffffffffffffffffffffffffffffffffff1673ffffffffffffffffffffffffffffffffffffffff16815260200190600101908083116113d6575b505050505081526020016009820180548060200260200160405190810160405280929190818152602001828054801561149d57602002820191906000526020600020906000905b82829054906101000a900460ff161515815260200190600101906020826000010492830192600103820291508084116114675790505b50505050508152602001600a820180546114b6906157e9565b80601f01602080910402602001604051908101604052809291908181526020018280546114e2906157e9565b801561152f5780601f106115045761010080835404028352916020019161152f565b820191906000526020600020905b81548152906001019060200180831161151257829003601f168201915b50505050508152602001600b820180548060200260200160405190810160405280929190818152602001828054801561158757602002820191906000526020600020905b815481526020019060010190808311611573575b50505050508152602001600c820154815250508282815181106115ad576115ac6158f2565b5b602002602001018190525080806115c390615950565b915050611172565b508092505050919050565b600060056000838152602001908152602001600020905061166d8160090180548060200260200160405190810160405280929190818152602001828054801561166357602002820191906000526020600020906000905b82829054906101000a900460ff1615158152602001906001019060208260000104928301926001038202915080841161162d5790505b505050505061356e565b1561167e5761167d826001613215565b5b5050565b600060056000838152602001908152602001600020600201549050919050565b60008060008373ffffffffffffffffffffffffffffffffffffffff1673ffffffffffffffffffffffffffffffffffffffff168152602001908152602001600020600801549050919050565b600360009054906101000a900473ffffffffffffffffffffffffffffffffffffffff1681565b60006005600083815260200190815260200160002060030160149054906101000a900460ff169050919050565b606060008060065411611788576040517f08c379a000000000000000000000000000000000000000000000000000000000815260040161177f906158d2565b60405180910390fd5b60008060065467ffffffffffffffff8111156117a7576117a6614438565b5b6040519080825280602002602001820160405280156117e057816020015b6117cd6140f3565b8152602001906001900390816117c55790505b50905060005b600654811015611c845760016004811115611804576118036146e2565b5b6005600083815260200190815260200160002060030160149054906101000a900460ff16600481111561183a576118396146e2565b5b03611c715760056000828152602001908152602001600020604051806101c001604052908160008201805461186e906157e9565b80601f016020809104026020016040519081016040528092919081815260200182805461189a906157e9565b80156118e75780601f106118bc576101008083540402835291602001916118e7565b820191906000526020600020905b8154815290600101906020018083116118ca57829003601f168201915b50505050508152602001600182018054611900906157e9565b80601f016020809104026020016040519081016040528092919081815260200182805461192c906157e9565b80156119795780601f1061194e57610100808354040283529160200191611979565b820191906000526020600020905b81548152906001019060200180831161195c57829003601f168201915b50505050508152602001600282015481526020016003820160009054906101000a900473ffffffffffffffffffffffffffffffffffffffff1673ffffffffffffffffffffffffffffffffffffffff1673ffffffffffffffffffffffffffffffffffffffff1681526020016003820160149054906101000a900460ff166004811115611a0757611a066146e2565b5b6004811115611a1957611a186146e2565b5b81526020016004820154815260200160058201548152602001600682015481526020016007820154815260200160088201805480602002602001604051908101604052809291908181526020018280548015611aca57602002820191906000526020600020905b8160009054906101000a900473ffffffffffffffffffffffffffffffffffffffff1673ffffffffffffffffffffffffffffffffffffffff1681526020019060010190808311611a80575b5050505050815260200160098201805480602002602001604051908101604052809291908181526020018280548015611b4757602002820191906000526020600020906000905b82829054906101000a900460ff16151581526020019060010190602082600001049283019260010382029150808411611b115790505b50505050508152602001600a82018054611b60906157e9565b80601f0160208091040260200160405190810160405280929190818152602001828054611b8c906157e9565b8015611bd95780601f10611bae57610100808354040283529160200191611bd9565b820191906000526020600020905b815481529060010190602001808311611bbc57829003601f168201915b50505050508152602001600b8201805480602002602001604051908101604052809291908181526020018280548015611c3157602002820191906000526020600020905b815481526020019060010190808311611c1d575b50505050508152602001600c82015481525050828281518110611c5757611c566158f2565b5b60200260200101819052508280611c6d90615950565b9350505b8080611c7c90615950565b9150506117e6565b5080829350935050509091565b600060056000838152602001908152602001600020600b01805490509050919050565b606060056000838152602001908152602001600020600b01805480602002602001604051908101604052809291908181526020018280548015611d1657602002820191906000526020600020905b815481526020019060010190808311611d02575b50505050509050919050565b6005602052806000526040600020600091509050806000018054611d45906157e9565b80601f0160208091040260200160405190810160405280929190818152602001828054611d71906157e9565b8015611dbe5780601f10611d9357610100808354040283529160200191611dbe565b820191906000526020600020905b815481529060010190602001808311611da157829003601f168201915b505050505090806001018054611dd3906157e9565b80601f0160208091040260200160405190810160405280929190818152602001828054611dff906157e9565b8015611e4c5780601f10611e2157610100808354040283529160200191611e4c565b820191906000526020600020905b815481529060010190602001808311611e2f57829003601f168201915b5050505050908060020154908060030160009054906101000a900473ffffffffffffffffffffffffffffffffffffffff16908060030160149054906101000a900460ff169080600401549080600501549080600601549080600701549080600a018054611eb8906157e9565b80601f0160208091040260200160405190810160405280929190818152602001828054611ee4906157e9565b8015611f315780601f10611f0657610100808354040283529160200191611f31565b820191906000526020600020905b815481529060010190602001808311611f1457829003601f168201915b50505050509080600c015490508b565b606060056000838152602001908152602001600020600801805480602002602001604051908101604052809291908181526020018280548015611fd957602002820191906000526020600020905b8160009054906101000a900473ffffffffffffffffffffffffffffffffffffffff1673ffffffffffffffffffffffffffffffffffffffff1681526020019060010190808311611f8f575b50505050509050919050565b6000602052806000526040600020600091509050806000018054612008906157e9565b80601f0160208091040260200160405190810160405280929190818152602001828054612034906157e9565b80156120815780601f1061205657610100808354040283529160200191612081565b820191906000526020600020905b81548152906001019060200180831161206457829003601f168201915b505050505090806001018054612096906157e9565b80601f01602080910402602001604051908101604052809291908181526020018280546120c2906157e9565b801561210f5780601f106120e45761010080835404028352916020019161210f565b820191906000526020600020905b8154815290600101906020018083116120f257829003601f168201915b505050505090806002018054612124906157e9565b80601f0160208091040260200160405190810160405280929190818152602001828054612150906157e9565b801561219d5780601f106121725761010080835404028352916020019161219d565b820191906000526020600020905b81548152906001019060200180831161218057829003601f168201915b5050505050908060030180546121b2906157e9565b80601f01602080910402602001604051908101604052809291908181526020018280546121de906157e9565b801561222b5780601f106122005761010080835404028352916020019161222b565b820191906000526020600020905b81548152906001019060200180831161220e57829003601f168201915b5050505050908060040154908060050154908060060160009054906101000a900473ffffffffffffffffffffffffffffffffffffffff16908060080154905088565b6122756140f3565b60006005600084815260200190815260200160002060020154116122ce576040517f08c379a00000000000000000000000000000000000000000000000000000000081526004016122c590615a0a565b60405180910390fd5b60056000838152602001908152602001600020604051806101c00160405290816000820180546122fd906157e9565b80601f0160208091040260200160405190810160405280929190818152602001828054612329906157e9565b80156123765780601f1061234b57610100808354040283529160200191612376565b820191906000526020600020905b81548152906001019060200180831161235957829003601f168201915b5050505050815260200160018201805461238f906157e9565b80601f01602080910402602001604051908101604052809291908181526020018280546123bb906157e9565b80156124085780601f106123dd57610100808354040283529160200191612408565b820191906000526020600020905b8154815290600101906020018083116123eb57829003601f168201915b50505050508152602001600282015481526020016003820160009054906101000a900473ffffffffffffffffffffffffffffffffffffffff1673ffffffffffffffffffffffffffffffffffffffff1673ffffffffffffffffffffffffffffffffffffffff1681526020016003820160149054906101000a900460ff166004811115612496576124956146e2565b5b60048111156124a8576124a76146e2565b5b8152602001600482015481526020016005820154815260200160068201548152602001600782015481526020016008820180548060200260200160405190810160405280929190818152602001828054801561255957602002820191906000526020600020905b8160009054906101000a900473ffffffffffffffffffffffffffffffffffffffff1673ffffffffffffffffffffffffffffffffffffffff168152602001906001019080831161250f575b50505050508152602001600982018054806020026020016040519081016040528092919081815260200182805480156125d657602002820191906000526020600020906000905b82829054906101000a900460ff161515815260200190600101906020826000010492830192600103820291508084116125a05790505b50505050508152602001600a820180546125ef906157e9565b80601f016020809104026020016040519081016040528092919081815260200182805461261b906157e9565b80156126685780601f1061263d57610100808354040283529160200191612668565b820191906000526020600020905b81548152906001019060200180831161264b57829003601f168201915b50505050508152602001600b82018054806020026020016040519081016040528092919081815260200182805480156126c057602002820191906000526020600020905b8154815260200190600101908083116126ac575b50505050508152602001600c820154815250509050919050565b81818173ffffffffffffffffffffffffffffffffffffffff166005600083815260200190815260200160002060030160009054906101000a900473ffffffffffffffffffffffffffffffffffffffff1673ffffffffffffffffffffffffffffffffffffffff1614612780576040517f08c379a000000000000000000000000000000000000000000000000000000000815260040161277790615a9c565b60405180910390fd5b60008060008673ffffffffffffffffffffffffffffffffffffffff1673ffffffffffffffffffffffffffffffffffffffff1681526020019081526020016000206007018054905011612807576040517f08c379a00000000000000000000000000000000000000000000000000000000081526004016127fe906158d2565b60405180910390fd5b6000600560008581526020019081526020016000206002015411612860576040517f08c379a000000000000000000000000000000000000000000000000000000000815260040161285790615a0a565b60405180910390fd5b60006004811115612874576128736146e2565b5b6005600085815260200190815260200160002060030160149054906101000a900460ff1660048111156128aa576128a96146e2565b5b146128ea576040517f08c379a00000000000000000000000000000000000000000000000000000000081526004016128e190615b08565b60405180910390fd5b60008060008673ffffffffffffffffffffffffffffffffffffffff1673ffffffffffffffffffffffffffffffffffffffff168152602001908152602001600020600701905060005b8180549050811015612ad15784828281548110612952576129516158f2565b5b906000526020600020015403612abe576005600086815260200190815260200160002060008082016000612986919061418a565b600182016000612996919061418a565b60028201600090556003820160006101000a81549073ffffffffffffffffffffffffffffffffffffffff02191690556003820160146101000a81549060ff02191690556004820160009055600582016000905560068201600090556007820160009055600882016000612a0991906141ca565b600982016000612a1991906141eb565b600a82016000612a29919061418a565b600b82016000612a399190614213565b600c82016000905550508160018380549050612a559190615b28565b81548110612a6657612a656158f2565b5b9060005260206000200154828281548110612a8457612a836158f2565b5b906000526020600020018190555081805480612aa357612aa2615b5c565b5b60019003818190600052602060002001600090559055612ad1565b8080612ac990615950565b915050612932565b505050505050565b606060006001805480602002602001604051908101604052809291908181526020018280548015612b5f57602002820191906000526020600020905b8160009054906101000a900473ffffffffffffffffffffffffffffffffffffffff1673ffffffffffffffffffffffffffffffffffffffff1681526020019060010190808311612b15575b505050505090506000600190505b600180549050811015612d415760005b81811015612d2d57600080848381518110612b9b57612b9a6158f2565b5b602002602001015173ffffffffffffffffffffffffffffffffffffffff1673ffffffffffffffffffffffffffffffffffffffff16815260200190815260200160002060040154600080858581518110612bf757612bf66158f2565b5b602002602001015173ffffffffffffffffffffffffffffffffffffffff1673ffffffffffffffffffffffffffffffffffffffff168152602001908152602001600020600401541015612d1a576000838381518110612c5857612c576158f2565b5b60200260200101519050838281518110612c7557612c746158f2565b5b6020026020010151848481518110612c9057612c8f6158f2565b5b602002602001019073ffffffffffffffffffffffffffffffffffffffff16908173ffffffffffffffffffffffffffffffffffffffff168152505080848381518110612cde57612cdd6158f2565b5b602002602001019073ffffffffffffffffffffffffffffffffffffffff16908173ffffffffffffffffffffffffffffffffffffffff1681525050505b8080612d2590615950565b915050612b7d565b508080612d3990615950565b915050612b6d565b508091505090565b6000600654905090565b60008060008373ffffffffffffffffffffffffffffffffffffffff1673ffffffffffffffffffffffffffffffffffffffff168152602001908152602001600020600401549050919050565b808073ffffffffffffffffffffffffffffffffffffffff163373ffffffffffffffffffffffffffffffffffffffff1614612e0d576040517f08c379a0000000000000000000000000000000000000000000000000000000008152600401612e049061572e565b60405180910390fd5b81600073ffffffffffffffffffffffffffffffffffffffff166000808373ffffffffffffffffffffffffffffffffffffffff1673ffffffffffffffffffffffffffffffffffffffff16815260200190815260200160002060060160009054906101000a900473ffffffffffffffffffffffffffffffffffffffff1673ffffffffffffffffffffffffffffffffffffffff1603612ede576040517f08c379a0000000000000000000000000000000000000000000000000000000008152600401612ed59061579a565b60405180910390fd5b60008060008573ffffffffffffffffffffffffffffffffffffffff1673ffffffffffffffffffffffffffffffffffffffff168152602001908152602001600020905085816000019080519060200190612f38929190614020565b5084816003019080519060200190612f51929190614020565b50505050505050565b60006005600083815260200190815260200160002060030160009054906101000a900473ffffffffffffffffffffffffffffffffffffffff169050919050565b6000806000808573ffffffffffffffffffffffffffffffffffffffff1673ffffffffffffffffffffffffffffffffffffffff16815260200190815260200160002090508281600801819055506000808573ffffffffffffffffffffffffffffffffffffffff1673ffffffffffffffffffffffffffffffffffffffff1681526020019081526020016000206008015491505092915050565b600060056000838152602001908152602001600020600501549050919050565b8160056000838152602001908152602001600020600b01908051906020019061307b9291906140a6565b5060056000828152602001908152602001600020600b018054806130a2576130a1615b5c565b5b600190038181906000526020600020016000905590555050565b60008060056000858152602001908152602001600020905060008160080180549050905060005b8181101561317a573373ffffffffffffffffffffffffffffffffffffffff16836008018281548110613118576131176158f2565b5b9060005260206000200160009054906101000a900473ffffffffffffffffffffffffffffffffffffffff1673ffffffffffffffffffffffffffffffffffffffff1603613167576001935061317a565b808061317290615950565b9150506130e3565b5082156131d35783156131ce57816009018490806001815401808255809150506001900390600052602060002090602091828204019190069091909190916101000a81548160ff0219169083151502179055505b61320e565b6040517f08c379a000000000000000000000000000000000000000000000000000000000815260040161320590615bfd565b60405180910390fd5b5050505050565b6000600560008481526020019081526020016000209050818160030160146101000a81548160ff02191690836004811115613253576132526146e2565b5b0217905550505050565b86868173ffffffffffffffffffffffffffffffffffffffff166005600083815260200190815260200160002060030160009054906101000a900473ffffffffffffffffffffffffffffffffffffffff1673ffffffffffffffffffffffffffffffffffffffff1614613303576040517f08c379a00000000000000000000000000000000000000000000000000000000081526004016132fa90615a9c565b60405180910390fd5b60008060008b73ffffffffffffffffffffffffffffffffffffffff1673ffffffffffffffffffffffffffffffffffffffff168152602001908152602001600020600701805490501161338a576040517f08c379a0000000000000000000000000000000000000000000000000000000008152600401613381906158d2565b60405180910390fd5b6000600560008a815260200190815260200160002060020154116133e3576040517f08c379a00000000000000000000000000000000000000000000000000000000081526004016133da90615a0a565b60405180910390fd5b600060048111156133f7576133f66146e2565b5b600560008a815260200190815260200160002060030160149054906101000a900460ff16600481111561342d5761342c6146e2565b5b1480613480575060036004811115613448576134476146e2565b5b600560008a815260200190815260200160002060030160149054906101000a900460ff16600481111561347e5761347d6146e2565b5b145b6134bf576040517f08c379a00000000000000000000000000000000000000000000000000000000081526004016134b690615c69565b60405180910390fd5b6000600560008a81526020019081526020016000209050878160020181905550868160000190805190602001906134f7929190614020565b5085816001019080519060200190613510929190614020565b5084816005018190555083816006018190555050505050505050505050565b6001818154811061353f57600080fd5b906000526020600020016000915054906101000a900473ffffffffffffffffffffffffffffffffffffffff1681565b6000806000905060008351905060005b818110156135c857848181518110613599576135986158f2565b5b6020026020010151156135b55782806135b190615950565b9350505b80806135c090615950565b91505061357e565b506002816135d69190615cb8565b8211156135e8576001925050506135ef565b6000925050505b919050565b868073ffffffffffffffffffffffffffffffffffffffff163373ffffffffffffffffffffffffffffffffffffffff1614613663576040517f08c379a000000000000000000000000000000000000000000000000000000000815260040161365a9061572e565b60405180910390fd5b6002876136709190615cb8565b8873ffffffffffffffffffffffffffffffffffffffff163110156136c9576040517f08c379a00000000000000000000000000000000000000000000000000000000081526004016136c090615d5b565b60405180910390fd5b60006005600060065481526020019081526020016000209050868160000190805190602001906136fa929190614020565b5085816001019080519060200190613713929190614020565b5087816002018190555060018160030160146101000a81548160ff02191690836004811115613745576137446146e2565b5b0217905550428160040181905550848160050181905550888160030160006101000a81548173ffffffffffffffffffffffffffffffffffffffff021916908373ffffffffffffffffffffffffffffffffffffffff16021790555060065481600701819055508381600601819055508281600a0190805190602001906137cb929190614020565b5060006137d6612ad9565b90506000815190506000600a82106137ef57600a6137f1565b815b91505b81811015613a06576000803373ffffffffffffffffffffffffffffffffffffffff1673ffffffffffffffffffffffffffffffffffffffff16815260200190815260200160002060060160009054906101000a900473ffffffffffffffffffffffffffffffffffffffff1673ffffffffffffffffffffffffffffffffffffffff1683600183856138839190615b28565b61388d9190615b28565b8151811061389e5761389d6158f2565b5b602002602001015173ffffffffffffffffffffffffffffffffffffffff1614613a01578360080183600183856138d49190615b28565b6138de9190615b28565b815181106138ef576138ee6158f2565b5b60200260200101519080600181540180825580915050600190039060005260206000200160009091909190916101000a81548173ffffffffffffffffffffffffffffffffffffffff021916908373ffffffffffffffffffffffffffffffffffffffff16021790555060008084600184866139699190615b28565b6139739190615b28565b81518110613984576139836158f2565b5b602002602001015173ffffffffffffffffffffffffffffffffffffffff1673ffffffffffffffffffffffffffffffffffffffff168152602001908152602001600020600901600654908060018154018082558091505060019003906000526020600020016000909190919091505580806139fd90615950565b9150505b6137f4565b6000808d73ffffffffffffffffffffffffffffffffffffffff1673ffffffffffffffffffffffffffffffffffffffff168152602001908152602001600020600701600654908060018154018082558091505060019003906000526020600020016000909190919091505560066000815480929190613a8390615950565b9190505550505050505050505050505050565b600060056000838152602001908152602001600020600601549050919050565b808073ffffffffffffffffffffffffffffffffffffffff163373ffffffffffffffffffffffffffffffffffffffff1614613b25576040517f08c379a0000000000000000000000000000000000000000000000000000000008152600401613b1c9061572e565b60405180910390fd5b81600073ffffffffffffffffffffffffffffffffffffffff166000808373ffffffffffffffffffffffffffffffffffffffff1673ffffffffffffffffffffffffffffffffffffffff16815260200190815260200160002060060160009054906101000a900473ffffffffffffffffffffffffffffffffffffffff1673ffffffffffffffffffffffffffffffffffffffff1603613bf6576040517f08c379a0000000000000000000000000000000000000000000000000000000008152600401613bed9061579a565b60405180910390fd5b6000808473ffffffffffffffffffffffffffffffffffffffff1673ffffffffffffffffffffffffffffffffffffffff16815260200190815260200160002060008082016000613c45919061418a565b600182016000613c55919061418a565b600282016000613c65919061418a565b600382016000613c75919061418a565b600482016000905560058201600090556006820160006101000a81549073ffffffffffffffffffffffffffffffffffffffff0219169055600782016000613cbc9190614213565b6008820160009055600982016000613cd49190614213565b505060005b600180549050811015613e60573373ffffffffffffffffffffffffffffffffffffffff1660018281548110613d1157613d106158f2565b5b9060005260206000200160009054906101000a900473ffffffffffffffffffffffffffffffffffffffff1673ffffffffffffffffffffffffffffffffffffffff1603613e4d576001808080549050613d699190615b28565b81548110613d7a57613d796158f2565b5b9060005260206000200160009054906101000a900473ffffffffffffffffffffffffffffffffffffffff1660018281548110613db957613db86158f2565b5b9060005260206000200160006101000a81548173ffffffffffffffffffffffffffffffffffffffff021916908373ffffffffffffffffffffffffffffffffffffffff1602179055506001805480613e1357613e12615b5c565b5b6001900381819060005260206000200160006101000a81549073ffffffffffffffffffffffffffffffffffffffff02191690559055613e60565b8080613e5890615950565b915050613cd9565b50505050565b60056000838152602001908152602001600020600b018190806001815401808255809150506001900390600052602060002001600090919091909150555050565b600260009054906101000a900473ffffffffffffffffffffffffffffffffffffffff1681565b6060818073ffffffffffffffffffffffffffffffffffffffff163373ffffffffffffffffffffffffffffffffffffffff1614613f3e576040517f08c379a0000000000000000000000000000000000000000000000000000000008152600401613f359061572e565b60405180910390fd5b6000808473ffffffffffffffffffffffffffffffffffffffff1673ffffffffffffffffffffffffffffffffffffffff168152602001908152602001600020600901805480602002602001604051908101604052809291908181526020018280548015613fc957602002820191906000526020600020905b815481526020019060010190808311613fb5575b5050505050915050919050565b806000808473ffffffffffffffffffffffffffffffffffffffff1673ffffffffffffffffffffffffffffffffffffffff168152602001908152602001600020600401819055505050565b82805461402c906157e9565b90600052602060002090601f01602090048101928261404e5760008555614095565b82601f1061406757805160ff1916838001178555614095565b82800160010185558215614095579182015b82811115614094578251825591602001919060010190614079565b5b5090506140a29190614234565b5090565b8280548282559060005260206000209081019282156140e2579160200282015b828111156140e15782518255916020019190600101906140c6565b5b5090506140ef9190614234565b5090565b604051806101c00160405280606081526020016060815260200160008152602001600073ffffffffffffffffffffffffffffffffffffffff16815260200160006004811115614145576141446146e2565b5b81526020016000815260200160008152602001600081526020016000815260200160608152602001606081526020016060815260200160608152602001600081525090565b508054614196906157e9565b6000825580601f106141a857506141c7565b601f0160209004906000526020600020908101906141c69190614234565b5b50565b50805460008255906000526020600020908101906141e89190614234565b50565b50805460008255601f0160209004906000526020600020908101906142109190614234565b50565b50805460008255906000526020600020908101906142319190614234565b50565b5b8082111561424d576000816000905550600101614235565b5090565b6000604051905090565b600080fd5b600080fd5b600073ffffffffffffffffffffffffffffffffffffffff82169050919050565b600061429082614265565b9050919050565b6142a081614285565b81146142ab57600080fd5b50565b6000813590506142bd81614297565b92915050565b6000602082840312156142d9576142d861425b565b5b60006142e7848285016142ae565b91505092915050565b600081519050919050565b600082825260208201905092915050565b60005b8381101561432a57808201518184015260208101905061430f565b83811115614339576000848401525b50505050565b6000601f19601f8301169050919050565b600061435b826142f0565b61436581856142fb565b935061437581856020860161430c565b61437e8161433f565b840191505092915050565b61439281614285565b82525050565b6000819050919050565b6143ab81614398565b82525050565b600060c08201905081810360008301526143cb8189614350565b905081810360208301526143df8188614350565b905081810360408301526143f38187614350565b90506144026060830186614389565b61440f60808301856143a2565b81810360a08301526144218184614350565b9050979650505050505050565b600080fd5b600080fd5b7f4e487b7100000000000000000000000000000000000000000000000000000000600052604160045260246000fd5b6144708261433f565b810181811067ffffffffffffffff8211171561448f5761448e614438565b5b80604052505050565b60006144a2614251565b90506144ae8282614467565b919050565b600067ffffffffffffffff8211156144ce576144cd614438565b5b6144d78261433f565b9050602081019050919050565b82818337600083830152505050565b6000614506614501846144b3565b614498565b90508281526020810184848401111561452257614521614433565b5b61452d8482856144e4565b509392505050565b600082601f83011261454a5761454961442e565b5b813561455a8482602086016144f3565b91505092915050565b600080600080600060a0868803121561457f5761457e61425b565b5b600086013567ffffffffffffffff81111561459d5761459c614260565b5b6145a988828901614535565b955050602086013567ffffffffffffffff8111156145ca576145c9614260565b5b6145d688828901614535565b945050604086013567ffffffffffffffff8111156145f7576145f6614260565b5b61460388828901614535565b935050606086013567ffffffffffffffff81111561462457614623614260565b5b61463088828901614535565b9250506080614641888289016142ae565b9150509295509295909350565b600081519050919050565b600082825260208201905092915050565b6000819050602082019050919050565b600082825260208201905092915050565b6000614696826142f0565b6146a0818561467a565b93506146b081856020860161430c565b6146b98161433f565b840191505092915050565b6146cd81614398565b82525050565b6146dc81614285565b82525050565b7f4e487b7100000000000000000000000000000000000000000000000000000000600052602160045260246000fd5b60058110614722576147216146e2565b5b50565b600081905061473382614711565b919050565b600061474382614725565b9050919050565b61475381614738565b82525050565b600081519050919050565b600082825260208201905092915050565b6000819050602082019050919050565b600061479183836146d3565b60208301905092915050565b6000602082019050919050565b60006147b582614759565b6147bf8185614764565b93506147ca83614775565b8060005b838110156147fb5781516147e28882614785565b97506147ed8361479d565b9250506001810190506147ce565b5085935050505092915050565b600081519050919050565b600082825260208201905092915050565b6000819050602082019050919050565b60008115159050919050565b61484981614834565b82525050565b600061485b8383614840565b60208301905092915050565b6000602082019050919050565b600061487f82614808565b6148898185614813565b935061489483614824565b8060005b838110156148c55781516148ac888261484f565b97506148b783614867565b925050600181019050614898565b5085935050505092915050565b600081519050919050565b600082825260208201905092915050565b6000819050602082019050919050565b600061490a83836146c4565b60208301905092915050565b6000602082019050919050565b600061492e826148d2565b61493881856148dd565b9350614943836148ee565b8060005b8381101561497457815161495b88826148fe565b975061496683614916565b925050600181019050614947565b5085935050505092915050565b60006101c083016000830151848203600086015261499f828261468b565b915050602083015184820360208601526149b9828261468b565b91505060408301516149ce60408601826146c4565b5060608301516149e160608601826146d3565b5060808301516149f4608086018261474a565b5060a0830151614a0760a08601826146c4565b5060c0830151614a1a60c08601826146c4565b5060e0830151614a2d60e08601826146c4565b50610100830151614a426101008601826146c4565b50610120830151848203610120860152614a5c82826147aa565b915050610140830151848203610140860152614a788282614874565b915050610160830151848203610160860152614a94828261468b565b915050610180830151848203610180860152614ab08282614923565b9150506101a0830151614ac76101a08601826146c4565b508091505092915050565b6000614ade8383614981565b905092915050565b6000602082019050919050565b6000614afe8261464e565b614b088185614659565b935083602082028501614b1a8561466a565b8060005b85811015614b565784840389528151614b378582614ad2565b9450614b4283614ae6565b925060208a01995050600181019050614b1e565b50829750879550505050505092915050565b60006020820190508181036000830152614b828184614af3565b905092915050565b614b9381614398565b8114614b9e57600080fd5b50565b600081359050614bb081614b8a565b92915050565b600060208284031215614bcc57614bcb61425b565b5b6000614bda84828501614ba1565b91505092915050565b6000602082019050614bf860008301846143a2565b92915050565b6000819050919050565b6000614c23614c1e614c1984614265565b614bfe565b614265565b9050919050565b6000614c3582614c08565b9050919050565b6000614c4782614c2a565b9050919050565b614c5781614c3c565b82525050565b6000602082019050614c726000830184614c4e565b92915050565b614c8181614738565b82525050565b6000602082019050614c9c6000830184614c78565b92915050565b60006040820190508181036000830152614cbc8185614af3565b9050614ccb60208301846143a2565b9392505050565b600082825260208201905092915050565b6000614cee826148d2565b614cf88185614cd2565b9350614d03836148ee565b8060005b83811015614d34578151614d1b88826148fe565b9750614d2683614916565b925050600181019050614d07565b5085935050505092915050565b60006020820190508181036000830152614d5b8184614ce3565b905092915050565b6000610160820190508181036000830152614d7e818e614350565b90508181036020830152614d92818d614350565b9050614da1604083018c6143a2565b614dae606083018b614389565b614dbb608083018a614c78565b614dc860a08301896143a2565b614dd560c08301886143a2565b614de260e08301876143a2565b614df06101008301866143a2565b818103610120830152614e038185614350565b9050614e136101408301846143a2565b9c9b505050505050505050505050565b600082825260208201905092915050565b6000614e3f82614759565b614e498185614e23565b9350614e5483614775565b8060005b83811015614e85578151614e6c8882614785565b9750614e778361479d565b925050600181019050614e58565b5085935050505092915050565b60006020820190508181036000830152614eac8184614e34565b905092915050565b6000610100820190508181036000830152614ecf818b614350565b90508181036020830152614ee3818a614350565b90508181036040830152614ef78189614350565b90508181036060830152614f0b8188614350565b9050614f1a60808301876143a2565b614f2760a08301866143a2565b614f3460c0830185614389565b614f4160e08301846143a2565b9998505050505050505050565b60006101c0830160008301518482036000860152614f6c828261468b565b91505060208301518482036020860152614f86828261468b565b9150506040830151614f9b60408601826146c4565b506060830151614fae60608601826146d3565b506080830151614fc1608086018261474a565b5060a0830151614fd460a08601826146c4565b5060c0830151614fe760c08601826146c4565b5060e0830151614ffa60e08601826146c4565b5061010083015161500f6101008601826146c4565b5061012083015184820361012086015261502982826147aa565b9150506101408301518482036101408601526150458282614874565b915050610160830151848203610160860152615061828261468b565b91505061018083015184820361018086015261507d8282614923565b9150506101a08301516150946101a08601826146c4565b508091505092915050565b600060208201905081810360008301526150b98184614f4e565b905092915050565b600080604083850312156150d8576150d761425b565b5b60006150e6858286016142ae565b92505060206150f785828601614ba1565b9150509250929050565b60008060006060848603121561511a5761511961425b565b5b600084013567ffffffffffffffff81111561513857615137614260565b5b61514486828701614535565b935050602084013567ffffffffffffffff81111561516557615164614260565b5b61517186828701614535565b9250506040615182868287016142ae565b9150509250925092565b60006020820190506151a16000830184614389565b92915050565b600067ffffffffffffffff8211156151c2576151c1614438565b5b602082029050602081019050919050565b600080fd5b60006151eb6151e6846151a7565b614498565b9050808382526020820190506020840283018581111561520e5761520d6151d3565b5b835b8181101561523757806152238882614ba1565b845260208401935050602081019050615210565b5050509392505050565b600082601f8301126152565761525561442e565b5b81356152668482602086016151d8565b91505092915050565b600080604083850312156152865761528561425b565b5b600083013567ffffffffffffffff8111156152a4576152a3614260565b5b6152b085828601615241565b92505060206152c185828601614ba1565b9150509250929050565b6152d481614834565b81146152df57600080fd5b50565b6000813590506152f1816152cb565b92915050565b6000806040838503121561530e5761530d61425b565b5b600061531c85828601614ba1565b925050602061532d858286016152e2565b9150509250929050565b6005811061534457600080fd5b50565b60008135905061535681615337565b92915050565b600080604083850312156153735761537261425b565b5b600061538185828601614ba1565b925050602061539285828601615347565b9150509250929050565b600080600080600080600060e0888a0312156153bb576153ba61425b565b5b60006153c98a828b016142ae565b97505060206153da8a828b01614ba1565b96505060406153eb8a828b01614ba1565b955050606088013567ffffffffffffffff81111561540c5761540b614260565b5b6154188a828b01614535565b945050608088013567ffffffffffffffff81111561543957615438614260565b5b6154458a828b01614535565b93505060a06154568a828b01614ba1565b92505060c06154678a828b01614ba1565b91505092959891949750929550565b600067ffffffffffffffff82111561549157615490614438565b5b602082029050602081019050919050565b60006154b56154b084615476565b614498565b905080838252602082019050602084028301858111156154d8576154d76151d3565b5b835b8181101561550157806154ed88826152e2565b8452602084019350506020810190506154da565b5050509392505050565b600082601f8301126155205761551f61442e565b5b81356155308482602086016154a2565b91505092915050565b60006020828403121561554f5761554e61425b565b5b600082013567ffffffffffffffff81111561556d5761556c614260565b5b6155798482850161550b565b91505092915050565b61558b81614834565b82525050565b60006020820190506155a66000830184615582565b92915050565b600080600080600080600060e0888a0312156155cb576155ca61425b565b5b60006155d98a828b016142ae565b97505060206155ea8a828b01614ba1565b965050604088013567ffffffffffffffff81111561560b5761560a614260565b5b6156178a828b01614535565b955050606088013567ffffffffffffffff81111561563857615637614260565b5b6156448a828b01614535565b94505060806156558a828b01614ba1565b93505060a06156668a828b01614ba1565b92505060c088013567ffffffffffffffff81111561568757615686614260565b5b6156938a828b01614535565b91505092959891949750929550565b600080604083850312156156b9576156b861425b565b5b60006156c785828601614ba1565b92505060206156d885828601614ba1565b9150509250929050565b7f43616c6c6572206973206e6f74206f776e657200000000000000000000000000600082015250565b60006157186013836142fb565b9150615723826156e2565b602082019050919050565b600060208201905081810360008301526157478161570b565b9050919050565b7f506172747920646f6573206e6f74206578697374000000000000000000000000600082015250565b60006157846014836142fb565b915061578f8261574e565b602082019050919050565b600060208201905081810360008301526157b381615777565b9050919050565b7f4e487b7100000000000000000000000000000000000000000000000000000000600052602260045260246000fd5b6000600282049050600182168061580157607f821691505b602082108103615814576158136157ba565b5b50919050565b7f506172747920616c726561647920657869737473000000000000000000000000600082015250565b60006158506014836142fb565b915061585b8261581a565b602082019050919050565b6000602082019050818103600083015261587f81615843565b9050919050565b7f4e6f2074656e6465727320657869737473000000000000000000000000000000600082015250565b60006158bc6011836142fb565b91506158c782615886565b602082019050919050565b600060208201905081810360008301526158eb816158af565b9050919050565b7f4e487b7100000000000000000000000000000000000000000000000000000000600052603260045260246000fd5b7f4e487b7100000000000000000000000000000000000000000000000000000000600052601160045260246000fd5b600061595b82614398565b91507fffffffffffffffffffffffffffffffffffffffffffffffffffffffffffffffff820361598d5761598c615921565b5b600182019050919050565b7f74656e6465722077697468206164647265737320646f65736e2774206578697360008201527f7473000000000000000000000000000000000000000000000000000000000000602082015250565b60006159f46022836142fb565b91506159ff82615998565b604082019050919050565b60006020820190508181036000830152615a23816159e7565b9050919050565b7f796f75277265206e6f7420617574686f72697a656420746f20706572666f726d60008201527f207468697320616374696f6e0000000000000000000000000000000000000000602082015250565b6000615a86602c836142fb565b9150615a9182615a2a565b604082019050919050565b60006020820190508181036000830152615ab581615a79565b9050919050565b7f74656e6465722063616e6e6f742062652064656c657465640000000000000000600082015250565b6000615af26018836142fb565b9150615afd82615abc565b602082019050919050565b60006020820190508181036000830152615b2181615ae5565b9050919050565b6000615b3382614398565b9150615b3e83614398565b925082821015615b5157615b50615921565b5b828203905092915050565b7f4e487b7100000000000000000000000000000000000000000000000000000000600052603160045260246000fd5b7f596f75277265206e6f7420617574686f72697a656420746f2076616c6964617460008201527f6520746869732074656e6465722e000000000000000000000000000000000000602082015250565b6000615be7602e836142fb565b9150615bf282615b8b565b604082019050919050565b60006020820190508181036000830152615c1681615bda565b9050919050565b7f74656e6465722063616e6e6f7420626520757064617465640000000000000000600082015250565b6000615c536018836142fb565b9150615c5e82615c1d565b602082019050919050565b60006020820190508181036000830152615c8281615c46565b9050919050565b7f4e487b7100000000000000000000000000000000000000000000000000000000600052601260045260246000fd5b6000615cc382614398565b9150615cce83614398565b925082615cde57615cdd615c89565b5b828204905092915050565b7f696e73756666696369656e742066756e647320746f206372656174652061207460008201527f656e646572000000000000000000000000000000000000000000000000000000602082015250565b6000615d456025836142fb565b9150615d5082615ce9565b604082019050919050565b60006020820190508181036000830152615d7481615d38565b905091905056fea26469706673582212202c895aa9871af14ff7c6dbd6b07e87fd1a02b00b18304bfed64b86d675ce1f9f64736f6c634300080d0033",
  "immutableReferences": {},
  "source": "// SPDX-License-Identifier: UNLICENSED\r\n\r\n//the version of solidity that is compatible\r\nimport \"./PartyContract.sol\";\r\nenum TenderStatus{ NEW, OPEN, CLOSED, SUSPENDED, ASSIGNED } //created---OPEN, deadline crosses---CLOSED, project is assigned ---- ASSIGNED\r\nimport \"./Token.sol\";\r\n\r\npragma solidity ^0.8.0;\r\ncontract TenderContract is PartyContract {\r\n    // Tender Structure\r\n    struct Tender {\r\n        string title;\r\n        string description;\r\n        uint256 budget;\r\n        address issuerAddress;\r\n        TenderStatus tenderStatus; \r\n        uint256 createdAt;\r\n        uint256 deadline;\r\n        uint256 totalMilestones;\r\n        uint256 tenderId;\r\n        address[] validatorsAddresses;\r\n        bool[] validationVotes;\r\n        string docLink;\r\n        uint256[] bidIds;\r\n        uint256 balance;\r\n    }\r\n\r\n    // Token public tokenRef;\r\n\r\n    constructor() PartyContract(){\r\n        // tokenRef = _tokenRef;\r\n    }\r\n\r\n    mapping (uint256 => Tender) public tenders;\r\n    uint256 tenderCount = 0;\r\n\r\n    //setters and getter functions\r\n    function getTenderCount() public view returns(uint256){\r\n        return tenderCount;\r\n    }\r\n    \r\n    function getValidators(uint256 _tenderId) public view returns(address[] memory) {\r\n        return tenders[_tenderId].validatorsAddresses;\r\n    }\r\n    \r\n    // function getTotalProjectDays(uint256 _tenderId) public view returns(uint256) {\r\n    //     return _tenderId;\r\n    // }\r\n\r\n    function getBudget(uint256 _tenderId) public view returns(uint256){\r\n        return tenders[_tenderId].budget;\r\n    }\r\n\r\n    function getTenderStatus(uint256 _tenderId) public view returns(TenderStatus){\r\n        return tenders[_tenderId].tenderStatus;\r\n    }\r\n\r\n    function getDeadline(uint256 _tenderId) public view returns(uint256){\r\n            return tenders[_tenderId].deadline;\r\n    }\r\n\r\n    function getBidIds(uint256 _tenderId) public view returns(uint256[] memory){\r\n        return tenders[_tenderId].bidIds;\r\n    }\r\n\r\n    function getIssuerAddress(uint256 _tenderId) public view returns(address){\r\n        return tenders[_tenderId].issuerAddress;\r\n    }\r\n\r\n    function getTotalMilestones(uint256 _tenderId) public view returns(uint256){\r\n            return tenders[_tenderId].totalMilestones;\r\n    }\r\n\r\n    function getBidsCount(uint256 _tenderId) public view returns(uint256){\r\n            return tenders[_tenderId].bidIds.length;\r\n    }\r\n\r\n    function addBidId(uint256 _tenderId, uint256 bidId) public {\r\n        tenders[_tenderId].bidIds.push(bidId);\r\n    }\r\n\r\n    function setBidIds(uint256[] memory _tenderBidIds, uint256 _tenderId) public{\r\n        tenders[_tenderId].bidIds = _tenderBidIds;\r\n        tenders[_tenderId].bidIds.pop();\r\n    }\r\n\r\n    // Function for creating a tender\r\n    function createTender(address _partyAddress, uint256 _budget, string memory _title, string memory _description, uint256 _deadline, uint256 _totalMilestones,string memory _docLink) isOwner(_partyAddress) public {\r\n        require(_partyAddress.balance >= _budget/2, \"insufficient funds to create a tender\");\r\n        Tender storage newTender = tenders[tenderCount];\r\n        newTender.title = _title;\r\n        newTender.description = _description;\r\n        newTender.budget = _budget;\r\n        newTender.tenderStatus = TenderStatus.OPEN;\r\n        newTender.createdAt = block.timestamp;\r\n        newTender.deadline = _deadline;\r\n        newTender.issuerAddress = _partyAddress;\r\n        newTender.tenderId = tenderCount;\r\n        newTender.totalMilestones = _totalMilestones;\r\n        newTender.docLink=_docLink;\r\n        //Sort all the parties by their trust scores\r\n        address[] memory sortedlist = sortByTrustScore();\r\n        uint len = sortedlist.length;\r\n        uint count = 0;\r\n        //If there are less than 10 parties then set number to parties to len\r\n        len = (len < 10)?len:10;\r\n        //Add the validator addresses to validatorsAddresses array, also add tenderId to tenderIdsToValidate array\r\n        while(count < len)\r\n        {\r\n            if(sortedlist[len-count-1] != parties[msg.sender].partyAddress)\r\n            {\r\n            newTender.validatorsAddresses.push(sortedlist[len-count-1]);\r\n            parties[sortedlist[len-count-1]].tenderIdsToValidate.push(tenderCount);\r\n            count ++;\r\n            }\r\n        }\r\n        parties[_partyAddress].tenderIds.push(tenderCount);\r\n        tenderCount++;\r\n    }\r\n\r\n    //Function to sort all the parties by their trust score\r\n    function sortByTrustScore() public view returns(address[] memory) {\r\n    address[] memory _party = partyAddresses;\r\n    for (uint i = 1; i < partyAddresses.length; i++)\r\n        for (uint j = 0; j < i; j++)\r\n            if (parties[_party[i]].trustScore < parties[_party[j]].trustScore) {\r\n                address x = _party[i];\r\n                _party[i] = _party[j];\r\n                _party[j] = x;\r\n            }\r\n\r\n    return _party;\r\n    }\r\n    \r\n    //Function using which validators can validate tenders\r\n    function validate(uint256 _tenderId, bool _vote) public {\r\n        bool valid = false;\r\n        Tender storage newTender = tenders[_tenderId];\r\n        uint len = newTender.validatorsAddresses.length;\r\n        for(uint i=0; i<len; i++)\r\n        {\r\n            if(newTender.validatorsAddresses[i] == msg.sender)\r\n            {\r\n                valid = true;\r\n                break;\r\n            }\r\n        }\r\n        if(valid)\r\n        {\r\n            if(_vote) {\r\n                newTender.validationVotes.push(_vote); // adds vote only if transaction is successful\r\n                \r\n            }\r\n        }\r\n        else\r\n        {\r\n            revert(\"You're not authorized to validate this tender.\");\r\n        }\r\n    }\r\n    \r\n    //Check if the tender is ongoing\r\n    function checkTenderValidation(uint256 _tenderId) public {\r\n        Tender storage newTender = tenders[_tenderId];\r\n        if(isValid(newTender.validationVotes)) {\r\n            updateTenderStatus(_tenderId, TenderStatus.OPEN);\r\n        }\r\n    }\r\n    \r\n    //Check if a tender is valid or not i.e., it got minimum 6 positive votes\r\n    function isValid(bool[] memory _validationVotes) public pure returns (bool) {\r\n        uint voteCount = 0;\r\n        uint256 totalValidators = _validationVotes.length;\r\n        for(uint i=0; i<totalValidators; i++)\r\n        {\r\n            if(_validationVotes[i])\r\n            {\r\n                voteCount++;\r\n            }\r\n        }\r\n\r\n        if(voteCount > (totalValidators/2))\r\n        {\r\n            return true;\r\n        }\r\n        return false;\r\n    }\r\n\r\n    function getTendersToValidate(address _partyAddress) public isOwner(_partyAddress) view returns(uint256[] memory){\r\n        return(parties[_partyAddress].tenderIdsToValidate);\r\n    }\r\n\r\n    function getAllActiveTenders() public view returns (Tender[] memory, uint256){\r\n        require(tenderCount > 0, \"No tenders exists\");\r\n        uint256 count=0;\r\n        Tender[] memory tendersList = new Tender[](tenderCount);\r\n        for (uint256 i = 0; i < tenderCount; i++) {\r\n            if(tenders[i].tenderStatus == TenderStatus.OPEN){\r\n                 tendersList[i] = tenders[i];\r\n                 count++;\r\n            }\r\n        }\r\n        return(tendersList, count);\r\n    }\r\n\r\n    function getMyTenders(address _partyAddress) public view returns ( Tender[] memory){\r\n        require(parties[_partyAddress].tenderIds.length > 0, \"No tenders exists\");\r\n        uint256[] memory partyTenderIds = parties[_partyAddress].tenderIds;\r\n        Tender[] memory tendersList = new Tender[](partyTenderIds.length);\r\n        for (uint256 i = 0; i < partyTenderIds.length; i++) {\r\n            tendersList[i] = tenders[partyTenderIds[i]];\r\n        }\r\n        return(tendersList);\r\n    }\r\n\r\n    function getTenderDetails(uint256 _tenderId) public view returns ( Tender memory){\r\n        require(tenders[_tenderId].budget > 0 , \"tender with address doesn't exists\");\r\n        return(tenders[_tenderId]);\r\n    }\r\n\r\n    function updateTenderStatus(uint256 _tenderId, TenderStatus _tenderStatus) public {\r\n        Tender storage updatedTender = tenders[_tenderId];\r\n        updatedTender.tenderStatus = _tenderStatus;\r\n    }\r\n\r\n    function updateTender(address _partyAddress, uint256 _tenderId, uint256 _budget, string memory _title, string memory _description, uint256 _deadline, uint256 _totalMilestones) public isTenderOwner(_partyAddress, _tenderId){\r\n        require(parties[_partyAddress].tenderIds.length > 0, \"No tenders exists\");\r\n        require(tenders[_tenderId].budget > 0 , \"tender with address doesn't exists\");\r\n        require(tenders[_tenderId].tenderStatus == TenderStatus.NEW ||\r\n                tenders[_tenderId].tenderStatus == TenderStatus.SUSPENDED , \"tender cannot be updated\");\r\n        Tender storage updatedTender = tenders[_tenderId];\r\n        updatedTender.budget = _budget;\r\n        updatedTender.title = _title;\r\n        updatedTender.description = _description;\r\n        updatedTender.deadline = _deadline;\r\n        updatedTender.totalMilestones = _totalMilestones;\r\n    }\r\n\r\n    function deleteTender(address _partyAddress, uint256 _tenderId) public isTenderOwner(_partyAddress, _tenderId){ \r\n        require(parties[_partyAddress].tenderIds.length > 0, \"No tenders exists\");\r\n        require(tenders[_tenderId].budget > 0 , \"tender with address doesn't exists\");\r\n        require(tenders[_tenderId].tenderStatus == TenderStatus.NEW , \"tender cannot be deleted\");\r\n        uint256[] storage _tenderIds = parties[_partyAddress].tenderIds;\r\n        for (uint i = 0; i < _tenderIds.length; i++){\r\n            if(_tenderIds[i] == _tenderId){\r\n                delete tenders[_tenderId];\r\n                _tenderIds[i] = _tenderIds[_tenderIds.length - 1];\r\n                _tenderIds.pop();\r\n                break;\r\n            }\r\n        }\r\n    }\r\n\r\n    // @todo - add modifer for above functions\r\n\r\n    modifier isTenderOwner(address _partyAddress, uint256 _tenderId) {\r\n        require(tenders[_tenderId].issuerAddress == _partyAddress, \"you're not authorized to perform this action\");\r\n        _;\r\n    }\r\n\r\n    \r\n}",
  "sourcePath": "D:\\major-prj\\New folder\\major-prj\\contracts\\TenderContract.sol",
  "compiler": {
    "name": "solc",
    "version": "0.8.13+commit.abaa5c0e.Emscripten.clang"
  },
  "schemaVersion": "3.4.16",
  "updatedAt": "2024-01-27T18:43:14.462Z",
  "networkType": "ethereum",
  "devdoc": {
    "kind": "dev",
    "methods": {},
    "version": 1
  },
  "userdoc": {
    "kind": "user",
    "methods": {},
    "version": 1
  }
}