{
  "contractName": "TenderContract",
  "abi": [
    {
      "inputs": [],
      "stateMutability": "nonpayable",
      "type": "constructor"
    },
    {
      "inputs": [],
      "name": "admin",
      "outputs": [
        {
          "internalType": "address",
          "name": "",
          "type": "address"
        }
      ],
      "stateMutability": "view",
      "type": "function"
    },
    {
      "inputs": [
        {
          "internalType": "string",
          "name": "_name",
          "type": "string"
        },
        {
          "internalType": "string",
          "name": "_contactNumber",
          "type": "string"
        },
        {
          "internalType": "string",
          "name": "_email",
          "type": "string"
        },
        {
          "internalType": "string",
          "name": "_password",
          "type": "string"
        },
        {
          "internalType": "address",
          "name": "_partyAddress",
          "type": "address"
        }
      ],
      "name": "createParty",
      "outputs": [],
      "stateMutability": "nonpayable",
      "type": "function"
    },
    {
      "inputs": [
        {
          "internalType": "address",
          "name": "_partyAddress",
          "type": "address"
        }
      ],
      "name": "deleteParty",
      "outputs": [],
      "stateMutability": "nonpayable",
      "type": "function"
    },
    {
      "inputs": [
        {
          "internalType": "address",
          "name": "_partyAddress",
          "type": "address"
        }
      ],
      "name": "getPartyDetails",
      "outputs": [
        {
          "internalType": "string",
          "name": "",
          "type": "string"
        },
        {
          "internalType": "string",
          "name": "",
          "type": "string"
        },
        {
          "internalType": "string",
          "name": "",
          "type": "string"
        },
        {
          "internalType": "address",
          "name": "",
          "type": "address"
        },
        {
          "internalType": "uint256",
          "name": "",
          "type": "uint256"
        },
        {
          "internalType": "string",
          "name": "",
          "type": "string"
        }
      ],
      "stateMutability": "view",
      "type": "function"
    },
    {
      "inputs": [
        {
          "internalType": "address",
          "name": "_partyAddress",
          "type": "address"
        }
      ],
      "name": "getTrustScore",
      "outputs": [
        {
          "internalType": "uint256",
          "name": "",
          "type": "uint256"
        }
      ],
      "stateMutability": "view",
      "type": "function"
    },
    {
      "inputs": [
        {
          "internalType": "address",
          "name": "",
          "type": "address"
        }
      ],
      "name": "parties",
      "outputs": [
        {
          "internalType": "string",
          "name": "name",
          "type": "string"
        },
        {
          "internalType": "string",
          "name": "contactNumber",
          "type": "string"
        },
        {
          "internalType": "string",
          "name": "email",
          "type": "string"
        },
        {
          "internalType": "string",
          "name": "password",
          "type": "string"
        },
        {
          "internalType": "uint256",
          "name": "trustScore",
          "type": "uint256"
        },
        {
          "internalType": "uint256",
          "name": "createdAt",
          "type": "uint256"
        },
        {
          "internalType": "address",
          "name": "partyAddress",
          "type": "address"
        },
        {
          "internalType": "uint256",
          "name": "freezedBalance",
          "type": "uint256"
        },
        {
          "internalType": "uint8",
          "name": "verifyParty",
          "type": "uint8"
        }
      ],
      "stateMutability": "view",
      "type": "function"
    },
    {
      "inputs": [
        {
          "internalType": "uint256",
          "name": "",
          "type": "uint256"
        }
      ],
      "name": "partyAddresses",
      "outputs": [
        {
          "internalType": "address",
          "name": "",
          "type": "address"
        }
      ],
      "stateMutability": "view",
      "type": "function"
    },
    {
      "inputs": [
        {
          "internalType": "address",
          "name": "_partyAddress",
          "type": "address"
        },
        {
          "internalType": "uint256",
          "name": "_trustScore",
          "type": "uint256"
        }
      ],
      "name": "setTrustScore",
      "outputs": [],
      "stateMutability": "nonpayable",
      "type": "function"
    },
    {
      "inputs": [
        {
          "internalType": "uint256",
          "name": "",
          "type": "uint256"
        }
      ],
      "name": "tenders",
      "outputs": [
        {
          "internalType": "string",
          "name": "title",
          "type": "string"
        },
        {
          "internalType": "string",
          "name": "description",
          "type": "string"
        },
        {
          "internalType": "uint256",
          "name": "budget",
          "type": "uint256"
        },
        {
          "internalType": "address",
          "name": "issuerAddress",
          "type": "address"
        },
        {
          "internalType": "enum TenderStatus",
          "name": "tenderStatus",
          "type": "uint8"
        },
        {
          "internalType": "uint256",
          "name": "createdAt",
          "type": "uint256"
        },
        {
          "internalType": "uint256",
          "name": "deadline",
          "type": "uint256"
        },
        {
          "internalType": "uint256",
          "name": "totalMilestones",
          "type": "uint256"
        },
        {
          "internalType": "uint256",
          "name": "tenderId",
          "type": "uint256"
        },
        {
          "internalType": "uint256",
          "name": "balance",
          "type": "uint256"
        }
      ],
      "stateMutability": "view",
      "type": "function"
    },
    {
      "inputs": [],
      "name": "tokenRef",
      "outputs": [
        {
          "internalType": "contract Token",
          "name": "",
          "type": "address"
        }
      ],
      "stateMutability": "view",
      "type": "function"
    },
    {
      "inputs": [
        {
          "internalType": "string",
          "name": "_name",
          "type": "string"
        },
        {
          "internalType": "string",
          "name": "_password",
          "type": "string"
        },
        {
          "internalType": "address",
          "name": "_partyAddress",
          "type": "address"
        }
      ],
      "name": "updateParty",
      "outputs": [],
      "stateMutability": "nonpayable",
      "type": "function"
    },
    {
      "inputs": [
        {
          "internalType": "address",
          "name": "_govAddress",
          "type": "address"
        },
        {
          "internalType": "address",
          "name": "_userAddress",
          "type": "address"
        },
        {
          "internalType": "uint8",
          "name": "_status",
          "type": "uint8"
        }
      ],
      "name": "validateUser",
      "outputs": [],
      "stateMutability": "nonpayable",
      "type": "function"
    },
    {
      "inputs": [],
      "name": "getTenderCount",
      "outputs": [
        {
          "internalType": "uint256",
          "name": "",
          "type": "uint256"
        }
      ],
      "stateMutability": "view",
      "type": "function"
    },
    {
      "inputs": [
        {
          "internalType": "uint256",
          "name": "_tenderId",
          "type": "uint256"
        }
      ],
      "name": "getValidators",
      "outputs": [
        {
          "internalType": "address[]",
          "name": "",
          "type": "address[]"
        }
      ],
      "stateMutability": "view",
      "type": "function"
    },
    {
      "inputs": [
        {
          "internalType": "uint256",
          "name": "_tenderId",
          "type": "uint256"
        }
      ],
      "name": "getTotalProjectDays",
      "outputs": [
        {
          "internalType": "uint256",
          "name": "",
          "type": "uint256"
        }
      ],
      "stateMutability": "view",
      "type": "function"
    },
    {
      "inputs": [
        {
          "internalType": "uint256",
          "name": "_tenderId",
          "type": "uint256"
        }
      ],
      "name": "getBudget",
      "outputs": [
        {
          "internalType": "uint256",
          "name": "",
          "type": "uint256"
        }
      ],
      "stateMutability": "view",
      "type": "function"
    },
    {
      "inputs": [
        {
          "internalType": "uint256",
          "name": "_tenderId",
          "type": "uint256"
        }
      ],
      "name": "getTenderStatus",
      "outputs": [
        {
          "internalType": "enum TenderStatus",
          "name": "",
          "type": "uint8"
        }
      ],
      "stateMutability": "view",
      "type": "function"
    },
    {
      "inputs": [
        {
          "internalType": "uint256",
          "name": "_tenderId",
          "type": "uint256"
        }
      ],
      "name": "getDeadline",
      "outputs": [
        {
          "internalType": "uint256",
          "name": "",
          "type": "uint256"
        }
      ],
      "stateMutability": "view",
      "type": "function"
    },
    {
      "inputs": [
        {
          "internalType": "uint256",
          "name": "_tenderId",
          "type": "uint256"
        }
      ],
      "name": "getBidIds",
      "outputs": [
        {
          "internalType": "uint256[]",
          "name": "",
          "type": "uint256[]"
        }
      ],
      "stateMutability": "view",
      "type": "function"
    },
    {
      "inputs": [
        {
          "internalType": "uint256",
          "name": "_tenderId",
          "type": "uint256"
        }
      ],
      "name": "getIssuerAddress",
      "outputs": [
        {
          "internalType": "address",
          "name": "",
          "type": "address"
        }
      ],
      "stateMutability": "view",
      "type": "function"
    },
    {
      "inputs": [
        {
          "internalType": "uint256",
          "name": "_tenderId",
          "type": "uint256"
        }
      ],
      "name": "getTotalMilestones",
      "outputs": [
        {
          "internalType": "uint256",
          "name": "",
          "type": "uint256"
        }
      ],
      "stateMutability": "view",
      "type": "function"
    },
    {
      "inputs": [
        {
          "internalType": "uint256",
          "name": "_tenderId",
          "type": "uint256"
        }
      ],
      "name": "getBidsCount",
      "outputs": [
        {
          "internalType": "uint256",
          "name": "",
          "type": "uint256"
        }
      ],
      "stateMutability": "view",
      "type": "function"
    },
    {
      "inputs": [
        {
          "internalType": "uint256",
          "name": "_tenderId",
          "type": "uint256"
        },
        {
          "internalType": "uint256",
          "name": "bidId",
          "type": "uint256"
        }
      ],
      "name": "addBidId",
      "outputs": [],
      "stateMutability": "nonpayable",
      "type": "function"
    },
    {
      "inputs": [
        {
          "internalType": "uint256[]",
          "name": "_tenderBidIds",
          "type": "uint256[]"
        },
        {
          "internalType": "uint256",
          "name": "_tenderId",
          "type": "uint256"
        }
      ],
      "name": "setBidIds",
      "outputs": [],
      "stateMutability": "nonpayable",
      "type": "function"
    },
    {
      "inputs": [
        {
          "internalType": "address",
          "name": "_partyAddress",
          "type": "address"
        },
        {
          "internalType": "uint256",
          "name": "_budget",
          "type": "uint256"
        },
        {
          "internalType": "string",
          "name": "_title",
          "type": "string"
        },
        {
          "internalType": "string",
          "name": "_description",
          "type": "string"
        },
        {
          "internalType": "uint256",
          "name": "_deadline",
          "type": "uint256"
        },
        {
          "internalType": "uint256",
          "name": "_totalMilestones",
          "type": "uint256"
        }
      ],
      "name": "createTender",
      "outputs": [],
      "stateMutability": "nonpayable",
      "type": "function"
    },
    {
      "inputs": [],
      "name": "sortByTrustScore",
      "outputs": [
        {
          "internalType": "address[]",
          "name": "",
          "type": "address[]"
        }
      ],
      "stateMutability": "view",
      "type": "function"
    },
    {
      "inputs": [
        {
          "internalType": "uint256",
          "name": "_tenderId",
          "type": "uint256"
        },
        {
          "internalType": "bool",
          "name": "_vote",
          "type": "bool"
        }
      ],
      "name": "validate",
      "outputs": [],
      "stateMutability": "nonpayable",
      "type": "function"
    },
    {
      "inputs": [
        {
          "internalType": "uint256",
          "name": "_tenderId",
          "type": "uint256"
        }
      ],
      "name": "checkTenderValidation",
      "outputs": [],
      "stateMutability": "nonpayable",
      "type": "function"
    },
    {
      "inputs": [
        {
          "internalType": "bool[]",
          "name": "_validationVotes",
          "type": "bool[]"
        }
      ],
      "name": "isValid",
      "outputs": [
        {
          "internalType": "bool",
          "name": "",
          "type": "bool"
        }
      ],
      "stateMutability": "pure",
      "type": "function"
    },
    {
      "inputs": [
        {
          "internalType": "address",
          "name": "_partyAddress",
          "type": "address"
        }
      ],
      "name": "getTendersToValidate",
      "outputs": [
        {
          "internalType": "uint256[]",
          "name": "",
          "type": "uint256[]"
        }
      ],
      "stateMutability": "view",
      "type": "function"
    },
    {
      "inputs": [],
      "name": "getAllActiveTenders",
      "outputs": [
        {
          "components": [
            {
              "internalType": "string",
              "name": "title",
              "type": "string"
            },
            {
              "internalType": "string",
              "name": "description",
              "type": "string"
            },
            {
              "internalType": "uint256",
              "name": "budget",
              "type": "uint256"
            },
            {
              "internalType": "address",
              "name": "issuerAddress",
              "type": "address"
            },
            {
              "internalType": "enum TenderStatus",
              "name": "tenderStatus",
              "type": "uint8"
            },
            {
              "internalType": "uint256",
              "name": "createdAt",
              "type": "uint256"
            },
            {
              "internalType": "uint256",
              "name": "deadline",
              "type": "uint256"
            },
            {
              "internalType": "uint256",
              "name": "totalMilestones",
              "type": "uint256"
            },
            {
              "internalType": "uint256",
              "name": "tenderId",
              "type": "uint256"
            },
            {
              "internalType": "address[]",
              "name": "validatorsAddresses",
              "type": "address[]"
            },
            {
              "internalType": "bool[]",
              "name": "validationVotes",
              "type": "bool[]"
            },
            {
              "internalType": "uint256[]",
              "name": "milestoneTimePeriods",
              "type": "uint256[]"
            },
            {
              "internalType": "uint256[]",
              "name": "bidIds",
              "type": "uint256[]"
            },
            {
              "internalType": "uint256",
              "name": "balance",
              "type": "uint256"
            }
          ],
          "internalType": "struct TenderContract.Tender[]",
          "name": "",
          "type": "tuple[]"
        },
        {
          "internalType": "uint256",
          "name": "",
          "type": "uint256"
        }
      ],
      "stateMutability": "view",
      "type": "function"
    },
    {
      "inputs": [
        {
          "internalType": "address",
          "name": "_partyAddress",
          "type": "address"
        }
      ],
      "name": "getMyTenders",
      "outputs": [
        {
          "components": [
            {
              "internalType": "string",
              "name": "title",
              "type": "string"
            },
            {
              "internalType": "string",
              "name": "description",
              "type": "string"
            },
            {
              "internalType": "uint256",
              "name": "budget",
              "type": "uint256"
            },
            {
              "internalType": "address",
              "name": "issuerAddress",
              "type": "address"
            },
            {
              "internalType": "enum TenderStatus",
              "name": "tenderStatus",
              "type": "uint8"
            },
            {
              "internalType": "uint256",
              "name": "createdAt",
              "type": "uint256"
            },
            {
              "internalType": "uint256",
              "name": "deadline",
              "type": "uint256"
            },
            {
              "internalType": "uint256",
              "name": "totalMilestones",
              "type": "uint256"
            },
            {
              "internalType": "uint256",
              "name": "tenderId",
              "type": "uint256"
            },
            {
              "internalType": "address[]",
              "name": "validatorsAddresses",
              "type": "address[]"
            },
            {
              "internalType": "bool[]",
              "name": "validationVotes",
              "type": "bool[]"
            },
            {
              "internalType": "uint256[]",
              "name": "milestoneTimePeriods",
              "type": "uint256[]"
            },
            {
              "internalType": "uint256[]",
              "name": "bidIds",
              "type": "uint256[]"
            },
            {
              "internalType": "uint256",
              "name": "balance",
              "type": "uint256"
            }
          ],
          "internalType": "struct TenderContract.Tender[]",
          "name": "",
          "type": "tuple[]"
        }
      ],
      "stateMutability": "view",
      "type": "function"
    },
    {
      "inputs": [
        {
          "internalType": "uint256",
          "name": "_tenderId",
          "type": "uint256"
        }
      ],
      "name": "getTenderDetails",
      "outputs": [
        {
          "components": [
            {
              "internalType": "string",
              "name": "title",
              "type": "string"
            },
            {
              "internalType": "string",
              "name": "description",
              "type": "string"
            },
            {
              "internalType": "uint256",
              "name": "budget",
              "type": "uint256"
            },
            {
              "internalType": "address",
              "name": "issuerAddress",
              "type": "address"
            },
            {
              "internalType": "enum TenderStatus",
              "name": "tenderStatus",
              "type": "uint8"
            },
            {
              "internalType": "uint256",
              "name": "createdAt",
              "type": "uint256"
            },
            {
              "internalType": "uint256",
              "name": "deadline",
              "type": "uint256"
            },
            {
              "internalType": "uint256",
              "name": "totalMilestones",
              "type": "uint256"
            },
            {
              "internalType": "uint256",
              "name": "tenderId",
              "type": "uint256"
            },
            {
              "internalType": "address[]",
              "name": "validatorsAddresses",
              "type": "address[]"
            },
            {
              "internalType": "bool[]",
              "name": "validationVotes",
              "type": "bool[]"
            },
            {
              "internalType": "uint256[]",
              "name": "milestoneTimePeriods",
              "type": "uint256[]"
            },
            {
              "internalType": "uint256[]",
              "name": "bidIds",
              "type": "uint256[]"
            },
            {
              "internalType": "uint256",
              "name": "balance",
              "type": "uint256"
            }
          ],
          "internalType": "struct TenderContract.Tender",
          "name": "",
          "type": "tuple"
        }
      ],
      "stateMutability": "view",
      "type": "function"
    },
    {
      "inputs": [
        {
          "internalType": "uint256",
          "name": "_tenderId",
          "type": "uint256"
        },
        {
          "internalType": "enum TenderStatus",
          "name": "_tenderStatus",
          "type": "uint8"
        }
      ],
      "name": "updateTenderStatus",
      "outputs": [],
      "stateMutability": "nonpayable",
      "type": "function"
    },
    {
      "inputs": [
        {
          "internalType": "address",
          "name": "_partyAddress",
          "type": "address"
        },
        {
          "internalType": "uint256",
          "name": "_tenderId",
          "type": "uint256"
        },
        {
          "internalType": "uint256",
          "name": "_budget",
          "type": "uint256"
        },
        {
          "internalType": "string",
          "name": "_title",
          "type": "string"
        },
        {
          "internalType": "string",
          "name": "_description",
          "type": "string"
        },
        {
          "internalType": "uint256",
          "name": "_deadline",
          "type": "uint256"
        },
        {
          "internalType": "uint256",
          "name": "_totalMilestones",
          "type": "uint256"
        }
      ],
      "name": "updateTender",
      "outputs": [],
      "stateMutability": "nonpayable",
      "type": "function"
    },
    {
      "inputs": [
        {
          "internalType": "address",
          "name": "_partyAddress",
          "type": "address"
        },
        {
          "internalType": "uint256",
          "name": "_tenderId",
          "type": "uint256"
        }
      ],
      "name": "deleteTender",
      "outputs": [],
      "stateMutability": "nonpayable",
      "type": "function"
    }
  ],
  "bytecode": "0x60806040526032600455600060065534801561001a57600080fd5b5061608e806200002b6000396000f3fe608060405234801561001057600080fd5b506004361061021b5760003560e01c80635850b38311610125578063bac2e80d116100ad578063ef8c03911161007c578063ef8c0391146106f7578063f1d8ef4d14610713578063f851a4401461072f578063fd7b91b61461074d578063feec47581461077d5761021b565b8063bac2e80d1461064b578063c792d8fd14610667578063ccfa858e14610697578063e2e5384d146106c75761021b565b806382862275116100f457806382862275146105ab578063897bb979146105db57806397ef4e3e146105f7578063aaaf418814610613578063b2a88f6f1461062f5761021b565b80635850b383146105115780635e09eea11461052f5780637a0c7d391461055f5780637e4d2d971461057b5761021b565b80633d818b31116101a8578063471f40fb11610177578063471f40fb1461043f5780634f2352071461046f57806353ee895d146104a757806355e8dea2146104d7578063564abc25146104f35761021b565b80633d818b31146103875780634008f9c0146103a657806342222a43146103d6578063465e1def146104065761021b565b806329c350f1116101ef57806329c350f1146102d15780632e4ea4c4146102ed57806333bec8371461031d578063354133f71461033b578063374a5a8d1461036b5761021b565b8062da72281461022057806314ac201b14610255578063171fd84814610285578063228becb6146102a1575b600080fd5b61023a600480360381019061023591906143e9565b610799565b60405161024c969594939291906144d7565b60405180910390f35b61026f600480360381019061026a9190614580565b610cd2565b60405161027c91906145ad565b60405180910390f35b61029f600480360381019061029a91906146fd565b610d9a565b005b6102bb60048036038101906102b691906143e9565b6110c1565b6040516102c89190614d02565b60405180910390f35b6102eb60048036038101906102e69190614580565b611664565b005b61030760048036038101906103029190614580565b611710565b60405161031491906145ad565b60405180910390f35b610325611730565b6040516103329190614d83565b60405180910390f35b61035560048036038101906103509190614580565b611756565b6040516103629190614dad565b60405180910390f35b61038560048036038101906103809190614e01565b611783565b005b61038f6119f2565b60405161039d929190614e54565b60405180910390f35b6103c060048036038101906103bb9190614580565b611f09565b6040516103cd91906145ad565b60405180910390f35b6103f060048036038101906103eb9190614580565b611f2c565b6040516103fd9190614ef3565b60405180910390f35b610420600480360381019061041b9190614580565b611f9a565b6040516104369a99989796959493929190614f15565b60405180910390f35b61045960048036038101906104549190614580565b61212b565b604051610466919061502e565b60405180910390f35b610489600480360381019061048491906143e9565b6121cf565b60405161049e9998979695949392919061505f565b60405180910390f35b6104c160048036038101906104bc9190614580565b61246a565b6040516104ce9190615259565b60405180910390f35b6104f160048036038101906104ec919061527b565b61289d565b005b6104fb612c9c565b604051610508919061502e565b60405180910390f35b610519612f0c565b60405161052691906145ad565b60405180910390f35b610549600480360381019061054491906143e9565b612f16565b60405161055691906145ad565b60405180910390f35b610579600480360381019061057491906152bb565b612f61565b005b61059560048036038101906105909190614580565b61311d565b6040516105a29190615346565b60405180910390f35b6105c560048036038101906105c09190614580565b61315d565b6040516105d291906145ad565b60405180910390f35b6105f560048036038101906105f09190615429565b61317d565b005b610611600480360381019061060c91906154b1565b6131e8565b005b61062d60048036038101906106289190615516565b613341565b005b61064960048036038101906106449190615556565b613389565b005b6106656004803603810190610660919061561b565b613811565b005b610681600480360381019061067c9190614580565b613ae3565b60405161068e9190615346565b60405180910390f35b6106b160048036038101906106ac91906157b8565b613b22565b6040516106be9190615810565b60405180910390f35b6106e160048036038101906106dc9190614580565b613ba8565b6040516106ee91906145ad565b60405180910390f35b610711600480360381019061070c91906143e9565b613bc8565b005b61072d6004803603810190610728919061582b565b613f8c565b005b610737613fcd565b6040516107449190615346565b60405180910390f35b610767600480360381019061076291906143e9565b613ff3565b6040516107749190614ef3565b60405180910390f35b6107976004803603810190610792919061527b565b6140fc565b005b60608060606000806060868073ffffffffffffffffffffffffffffffffffffffff163373ffffffffffffffffffffffffffffffffffffffff1614610812576040517f08c379a0000000000000000000000000000000000000000000000000000000008152600401610809906158b7565b60405180910390fd5b87600073ffffffffffffffffffffffffffffffffffffffff166000808373ffffffffffffffffffffffffffffffffffffffff1673ffffffffffffffffffffffffffffffffffffffff16815260200190815260200160002060060160009054906101000a900473ffffffffffffffffffffffffffffffffffffffff1673ffffffffffffffffffffffffffffffffffffffff16036108e3576040517f08c379a00000000000000000000000000000000000000000000000000000000081526004016108da90615923565b60405180910390fd5b6000808a73ffffffffffffffffffffffffffffffffffffffff1673ffffffffffffffffffffffffffffffffffffffff1681526020019081526020016000206000016000808b73ffffffffffffffffffffffffffffffffffffffff1673ffffffffffffffffffffffffffffffffffffffff1681526020019081526020016000206001016000808c73ffffffffffffffffffffffffffffffffffffffff1673ffffffffffffffffffffffffffffffffffffffff1681526020019081526020016000206002016000808d73ffffffffffffffffffffffffffffffffffffffff1673ffffffffffffffffffffffffffffffffffffffff16815260200190815260200160002060060160009054906101000a900473ffffffffffffffffffffffffffffffffffffffff166000808e73ffffffffffffffffffffffffffffffffffffffff1673ffffffffffffffffffffffffffffffffffffffff168152602001908152602001600020600401546000808f73ffffffffffffffffffffffffffffffffffffffff1673ffffffffffffffffffffffffffffffffffffffff168152602001908152602001600020600301858054610a9790615972565b80601f0160208091040260200160405190810160405280929190818152602001828054610ac390615972565b8015610b105780601f10610ae557610100808354040283529160200191610b10565b820191906000526020600020905b815481529060010190602001808311610af357829003601f168201915b50505050509550848054610b2390615972565b80601f0160208091040260200160405190810160405280929190818152602001828054610b4f90615972565b8015610b9c5780601f10610b7157610100808354040283529160200191610b9c565b820191906000526020600020905b815481529060010190602001808311610b7f57829003601f168201915b50505050509450838054610baf90615972565b80601f0160208091040260200160405190810160405280929190818152602001828054610bdb90615972565b8015610c285780601f10610bfd57610100808354040283529160200191610c28565b820191906000526020600020905b815481529060010190602001808311610c0b57829003601f168201915b50505050509350808054610c3b90615972565b80601f0160208091040260200160405190810160405280929190818152602001828054610c6790615972565b8015610cb45780601f10610c8957610100808354040283529160200191610cb4565b820191906000526020600020905b815481529060010190602001808311610c9757829003601f168201915b50505050509050975097509750975097509750505091939550919395565b60008060009050600060056000858152602001908152602001600020600a01805480602002602001604051908101604052809291908181526020018280548015610d3b57602002820191906000526020600020905b815481526020019060010190808311610d27575b5050505050905060008151905060005b81811015610d8e57828181518110610d6657610d656159a3565b5b602002602001015184610d799190615a01565b93508080610d8690615a57565b915050610d4b565b50829350505050919050565b808073ffffffffffffffffffffffffffffffffffffffff163373ffffffffffffffffffffffffffffffffffffffff1614610e09576040517f08c379a0000000000000000000000000000000000000000000000000000000008152600401610e00906158b7565b60405180910390fd5b600073ffffffffffffffffffffffffffffffffffffffff166000808473ffffffffffffffffffffffffffffffffffffffff1673ffffffffffffffffffffffffffffffffffffffff16815260200190815260200160002060060160009054906101000a900473ffffffffffffffffffffffffffffffffffffffff1673ffffffffffffffffffffffffffffffffffffffff1614610ed9576040517f08c379a0000000000000000000000000000000000000000000000000000000008152600401610ed090615aeb565b60405180910390fd5b60008060008473ffffffffffffffffffffffffffffffffffffffff1673ffffffffffffffffffffffffffffffffffffffff168152602001908152602001600020905086816000019080519060200190610f33929190614146565b5085816001019080519060200190610f4c929190614146565b5084816002019080519060200190610f65929190614146565b5083816003019080519060200190610f7e929190614146565b5060008160040181905550428160050181905550828160060160006101000a81548173ffffffffffffffffffffffffffffffffffffffff021916908373ffffffffffffffffffffffffffffffffffffffff160217905550600067ffffffffffffffff811115610ff057610fef6145d2565b5b60405190808252806020026020018201604052801561101e5781602001602082028036833780820191505090505b508160070190805190602001906110369291906141cc565b50600081600a0160006101000a81548160ff021916908360ff1602179055506001839080600181540180825580915050600190039060005260206000200160009091909190916101000a81548173ffffffffffffffffffffffffffffffffffffffff021916908373ffffffffffffffffffffffffffffffffffffffff16021790555050505050505050565b606060008060008473ffffffffffffffffffffffffffffffffffffffff1673ffffffffffffffffffffffffffffffffffffffff168152602001908152602001600020600701805490501161114a576040517f08c379a000000000000000000000000000000000000000000000000000000000815260040161114190615b57565b60405180910390fd5b60008060008473ffffffffffffffffffffffffffffffffffffffff1673ffffffffffffffffffffffffffffffffffffffff1681526020019081526020016000206007018054806020026020016040519081016040528092919081815260200182805480156111d757602002820191906000526020600020905b8154815260200190600101908083116111c3575b505050505090506000815167ffffffffffffffff8111156111fb576111fa6145d2565b5b60405190808252806020026020018201604052801561123457816020015b611221614219565b8152602001906001900390816112195790505b50905060005b8251811015611659576005600084838151811061125a576112596159a3565b5b60200260200101518152602001908152602001600020604051806101c001604052908160008201805461128c90615972565b80601f01602080910402602001604051908101604052809291908181526020018280546112b890615972565b80156113055780601f106112da57610100808354040283529160200191611305565b820191906000526020600020905b8154815290600101906020018083116112e857829003601f168201915b5050505050815260200160018201805461131e90615972565b80601f016020809104026020016040519081016040528092919081815260200182805461134a90615972565b80156113975780601f1061136c57610100808354040283529160200191611397565b820191906000526020600020905b81548152906001019060200180831161137a57829003601f168201915b50505050508152602001600282015481526020016003820160009054906101000a900473ffffffffffffffffffffffffffffffffffffffff1673ffffffffffffffffffffffffffffffffffffffff1673ffffffffffffffffffffffffffffffffffffffff1681526020016003820160149054906101000a900460ff1660048111156114255761142461487c565b5b60048111156114375761143661487c565b5b815260200160048201548152602001600582015481526020016006820154815260200160078201548152602001600882018054806020026020016040519081016040528092919081815260200182805480156114e857602002820191906000526020600020905b8160009054906101000a900473ffffffffffffffffffffffffffffffffffffffff1673ffffffffffffffffffffffffffffffffffffffff168152602001906001019080831161149e575b505050505081526020016009820180548060200260200160405190810160405280929190818152602001828054801561156557602002820191906000526020600020906000905b82829054906101000a900460ff1615158152602001906001019060208260000104928301926001038202915080841161152f5790505b50505050508152602001600a82018054806020026020016040519081016040528092919081815260200182805480156115bd57602002820191906000526020600020905b8154815260200190600101908083116115a9575b50505050508152602001600b820180548060200260200160405190810160405280929190818152602001828054801561161557602002820191906000526020600020905b815481526020019060010190808311611601575b50505050508152602001600c8201548152505082828151811061163b5761163a6159a3565b5b6020026020010181905250808061165190615a57565b91505061123a565b508092505050919050565b60006005600083815260200190815260200160002090506116fb816009018054806020026020016040519081016040528092919081815260200182805480156116f157602002820191906000526020600020906000905b82829054906101000a900460ff161515815260200190600101906020826000010492830192600103820291508084116116bb5790505b5050505050613b22565b1561170c5761170b826001613341565b5b5050565b600060056000838152602001908152602001600020600201549050919050565b600360009054906101000a900473ffffffffffffffffffffffffffffffffffffffff1681565b60006005600083815260200190815260200160002060030160149054906101000a900460ff169050919050565b828073ffffffffffffffffffffffffffffffffffffffff163373ffffffffffffffffffffffffffffffffffffffff16146117f2576040517f08c379a00000000000000000000000000000000000000000000000000000000081526004016117e9906158b7565b60405180910390fd5b600073ffffffffffffffffffffffffffffffffffffffff166000808673ffffffffffffffffffffffffffffffffffffffff1673ffffffffffffffffffffffffffffffffffffffff16815260200190815260200160002060060160009054906101000a900473ffffffffffffffffffffffffffffffffffffffff1673ffffffffffffffffffffffffffffffffffffffff16036118c2576040517f08c379a00000000000000000000000000000000000000000000000000000000081526004016118b990615be9565b60405180910390fd5b600073ffffffffffffffffffffffffffffffffffffffff166000808573ffffffffffffffffffffffffffffffffffffffff1673ffffffffffffffffffffffffffffffffffffffff16815260200190815260200160002060060160009054906101000a900473ffffffffffffffffffffffffffffffffffffffff1673ffffffffffffffffffffffffffffffffffffffff1603611992576040517f08c379a000000000000000000000000000000000000000000000000000000000815260040161198990615c55565b60405180910390fd5b816000808573ffffffffffffffffffffffffffffffffffffffff1673ffffffffffffffffffffffffffffffffffffffff168152602001908152602001600020600a0160006101000a81548160ff021916908360ff16021790555050505050565b606060008060065411611a3a576040517f08c379a0000000000000000000000000000000000000000000000000000000008152600401611a3190615b57565b60405180910390fd5b60008060065467ffffffffffffffff811115611a5957611a586145d2565b5b604051908082528060200260200182016040528015611a9257816020015b611a7f614219565b815260200190600190039081611a775790505b50905060005b600654811015611efc5760016004811115611ab657611ab561487c565b5b6005600083815260200190815260200160002060030160149054906101000a900460ff166004811115611aec57611aeb61487c565b5b03611ee95760056000828152602001908152602001600020604051806101c0016040529081600082018054611b2090615972565b80601f0160208091040260200160405190810160405280929190818152602001828054611b4c90615972565b8015611b995780601f10611b6e57610100808354040283529160200191611b99565b820191906000526020600020905b815481529060010190602001808311611b7c57829003601f168201915b50505050508152602001600182018054611bb290615972565b80601f0160208091040260200160405190810160405280929190818152602001828054611bde90615972565b8015611c2b5780601f10611c0057610100808354040283529160200191611c2b565b820191906000526020600020905b815481529060010190602001808311611c0e57829003601f168201915b50505050508152602001600282015481526020016003820160009054906101000a900473ffffffffffffffffffffffffffffffffffffffff1673ffffffffffffffffffffffffffffffffffffffff1673ffffffffffffffffffffffffffffffffffffffff1681526020016003820160149054906101000a900460ff166004811115611cb957611cb861487c565b5b6004811115611ccb57611cca61487c565b5b81526020016004820154815260200160058201548152602001600682015481526020016007820154815260200160088201805480602002602001604051908101604052809291908181526020018280548015611d7c57602002820191906000526020600020905b8160009054906101000a900473ffffffffffffffffffffffffffffffffffffffff1673ffffffffffffffffffffffffffffffffffffffff1681526020019060010190808311611d32575b5050505050815260200160098201805480602002602001604051908101604052809291908181526020018280548015611df957602002820191906000526020600020906000905b82829054906101000a900460ff16151581526020019060010190602082600001049283019260010382029150808411611dc35790505b50505050508152602001600a8201805480602002602001604051908101604052809291908181526020018280548015611e5157602002820191906000526020600020905b815481526020019060010190808311611e3d575b50505050508152602001600b8201805480602002602001604051908101604052809291908181526020018280548015611ea957602002820191906000526020600020905b815481526020019060010190808311611e95575b50505050508152602001600c82015481525050828281518110611ecf57611ece6159a3565b5b60200260200101819052508280611ee590615a57565b9350505b8080611ef490615a57565b915050611a98565b5080829350935050509091565b600060056000838152602001908152602001600020600b01805490509050919050565b606060056000838152602001908152602001600020600b01805480602002602001604051908101604052809291908181526020018280548015611f8e57602002820191906000526020600020905b815481526020019060010190808311611f7a575b50505050509050919050565b6005602052806000526040600020600091509050806000018054611fbd90615972565b80601f0160208091040260200160405190810160405280929190818152602001828054611fe990615972565b80156120365780601f1061200b57610100808354040283529160200191612036565b820191906000526020600020905b81548152906001019060200180831161201957829003601f168201915b50505050509080600101805461204b90615972565b80601f016020809104026020016040519081016040528092919081815260200182805461207790615972565b80156120c45780601f10612099576101008083540402835291602001916120c4565b820191906000526020600020905b8154815290600101906020018083116120a757829003601f168201915b5050505050908060020154908060030160009054906101000a900473ffffffffffffffffffffffffffffffffffffffff16908060030160149054906101000a900460ff169080600401549080600501549080600601549080600701549080600c015490508a565b6060600560008381526020019081526020016000206008018054806020026020016040519081016040528092919081815260200182805480156121c357602002820191906000526020600020905b8160009054906101000a900473ffffffffffffffffffffffffffffffffffffffff1673ffffffffffffffffffffffffffffffffffffffff1681526020019060010190808311612179575b50505050509050919050565b60006020528060005260406000206000915090508060000180546121f290615972565b80601f016020809104026020016040519081016040528092919081815260200182805461221e90615972565b801561226b5780601f106122405761010080835404028352916020019161226b565b820191906000526020600020905b81548152906001019060200180831161224e57829003601f168201915b50505050509080600101805461228090615972565b80601f01602080910402602001604051908101604052809291908181526020018280546122ac90615972565b80156122f95780601f106122ce576101008083540402835291602001916122f9565b820191906000526020600020905b8154815290600101906020018083116122dc57829003601f168201915b50505050509080600201805461230e90615972565b80601f016020809104026020016040519081016040528092919081815260200182805461233a90615972565b80156123875780601f1061235c57610100808354040283529160200191612387565b820191906000526020600020905b81548152906001019060200180831161236a57829003601f168201915b50505050509080600301805461239c90615972565b80601f01602080910402602001604051908101604052809291908181526020018280546123c890615972565b80156124155780601f106123ea57610100808354040283529160200191612415565b820191906000526020600020905b8154815290600101906020018083116123f857829003601f168201915b5050505050908060040154908060050154908060060160009054906101000a900473ffffffffffffffffffffffffffffffffffffffff169080600801549080600a0160009054906101000a900460ff16905089565b612472614219565b60006005600084815260200190815260200160002060020154116124cb576040517f08c379a00000000000000000000000000000000000000000000000000000000081526004016124c290615ce7565b60405180910390fd5b60056000838152602001908152602001600020604051806101c00160405290816000820180546124fa90615972565b80601f016020809104026020016040519081016040528092919081815260200182805461252690615972565b80156125735780601f1061254857610100808354040283529160200191612573565b820191906000526020600020905b81548152906001019060200180831161255657829003601f168201915b5050505050815260200160018201805461258c90615972565b80601f01602080910402602001604051908101604052809291908181526020018280546125b890615972565b80156126055780601f106125da57610100808354040283529160200191612605565b820191906000526020600020905b8154815290600101906020018083116125e857829003601f168201915b50505050508152602001600282015481526020016003820160009054906101000a900473ffffffffffffffffffffffffffffffffffffffff1673ffffffffffffffffffffffffffffffffffffffff1673ffffffffffffffffffffffffffffffffffffffff1681526020016003820160149054906101000a900460ff1660048111156126935761269261487c565b5b60048111156126a5576126a461487c565b5b8152602001600482015481526020016005820154815260200160068201548152602001600782015481526020016008820180548060200260200160405190810160405280929190818152602001828054801561275657602002820191906000526020600020905b8160009054906101000a900473ffffffffffffffffffffffffffffffffffffffff1673ffffffffffffffffffffffffffffffffffffffff168152602001906001019080831161270c575b50505050508152602001600982018054806020026020016040519081016040528092919081815260200182805480156127d357602002820191906000526020600020906000905b82829054906101000a900460ff1615158152602001906001019060208260000104928301926001038202915080841161279d5790505b50505050508152602001600a820180548060200260200160405190810160405280929190818152602001828054801561282b57602002820191906000526020600020905b815481526020019060010190808311612817575b50505050508152602001600b820180548060200260200160405190810160405280929190818152602001828054801561288357602002820191906000526020600020905b81548152602001906001019080831161286f575b50505050508152602001600c820154815250509050919050565b81818173ffffffffffffffffffffffffffffffffffffffff166005600083815260200190815260200160002060030160009054906101000a900473ffffffffffffffffffffffffffffffffffffffff1673ffffffffffffffffffffffffffffffffffffffff1614612943576040517f08c379a000000000000000000000000000000000000000000000000000000000815260040161293a90615d79565b60405180910390fd5b60008060008673ffffffffffffffffffffffffffffffffffffffff1673ffffffffffffffffffffffffffffffffffffffff16815260200190815260200160002060070180549050116129ca576040517f08c379a00000000000000000000000000000000000000000000000000000000081526004016129c190615b57565b60405180910390fd5b6000600560008581526020019081526020016000206002015411612a23576040517f08c379a0000000000000000000000000000000000000000000000000000000008152600401612a1a90615ce7565b60405180910390fd5b60006004811115612a3757612a3661487c565b5b6005600085815260200190815260200160002060030160149054906101000a900460ff166004811115612a6d57612a6c61487c565b5b14612aad576040517f08c379a0000000000000000000000000000000000000000000000000000000008152600401612aa490615de5565b60405180910390fd5b60008060008673ffffffffffffffffffffffffffffffffffffffff1673ffffffffffffffffffffffffffffffffffffffff168152602001908152602001600020600701905060005b8180549050811015612c945784828281548110612b1557612b146159a3565b5b906000526020600020015403612c81576005600086815260200190815260200160002060008082016000612b4991906142b0565b600182016000612b5991906142b0565b60028201600090556003820160006101000a81549073ffffffffffffffffffffffffffffffffffffffff02191690556003820160146101000a81549060ff02191690556004820160009055600582016000905560068201600090556007820160009055600882016000612bcc91906142f0565b600982016000612bdc9190614311565b600a82016000612bec9190614339565b600b82016000612bfc9190614339565b600c82016000905550508160018380549050612c189190615e05565b81548110612c2957612c286159a3565b5b9060005260206000200154828281548110612c4757612c466159a3565b5b906000526020600020018190555081805480612c6657612c65615e39565b5b60019003818190600052602060002001600090559055612c94565b8080612c8c90615a57565b915050612af5565b505050505050565b606060006001805480602002602001604051908101604052809291908181526020018280548015612d2257602002820191906000526020600020905b8160009054906101000a900473ffffffffffffffffffffffffffffffffffffffff1673ffffffffffffffffffffffffffffffffffffffff1681526020019060010190808311612cd8575b505050505090506000600190505b600180549050811015612f045760005b81811015612ef057600080848381518110612d5e57612d5d6159a3565b5b602002602001015173ffffffffffffffffffffffffffffffffffffffff1673ffffffffffffffffffffffffffffffffffffffff16815260200190815260200160002060040154600080858581518110612dba57612db96159a3565b5b602002602001015173ffffffffffffffffffffffffffffffffffffffff1673ffffffffffffffffffffffffffffffffffffffff168152602001908152602001600020600401541015612edd576000838381518110612e1b57612e1a6159a3565b5b60200260200101519050838281518110612e3857612e376159a3565b5b6020026020010151848481518110612e5357612e526159a3565b5b602002602001019073ffffffffffffffffffffffffffffffffffffffff16908173ffffffffffffffffffffffffffffffffffffffff168152505080848381518110612ea157612ea06159a3565b5b602002602001019073ffffffffffffffffffffffffffffffffffffffff16908173ffffffffffffffffffffffffffffffffffffffff1681525050505b8080612ee890615a57565b915050612d40565b508080612efc90615a57565b915050612d30565b508091505090565b6000600654905090565b60008060008373ffffffffffffffffffffffffffffffffffffffff1673ffffffffffffffffffffffffffffffffffffffff168152602001908152602001600020600401549050919050565b808073ffffffffffffffffffffffffffffffffffffffff163373ffffffffffffffffffffffffffffffffffffffff1614612fd0576040517f08c379a0000000000000000000000000000000000000000000000000000000008152600401612fc7906158b7565b60405180910390fd5b81600073ffffffffffffffffffffffffffffffffffffffff166000808373ffffffffffffffffffffffffffffffffffffffff1673ffffffffffffffffffffffffffffffffffffffff16815260200190815260200160002060060160009054906101000a900473ffffffffffffffffffffffffffffffffffffffff1673ffffffffffffffffffffffffffffffffffffffff16036130a1576040517f08c379a000000000000000000000000000000000000000000000000000000000815260040161309890615923565b60405180910390fd5b60008060008573ffffffffffffffffffffffffffffffffffffffff1673ffffffffffffffffffffffffffffffffffffffff1681526020019081526020016000209050858160000190805190602001906130fb929190614146565b5084816003019080519060200190613114929190614146565b50505050505050565b60006005600083815260200190815260200160002060030160009054906101000a900473ffffffffffffffffffffffffffffffffffffffff169050919050565b600060056000838152602001908152602001600020600501549050919050565b8160056000838152602001908152602001600020600b0190805190602001906131a79291906141cc565b5060056000828152602001908152602001600020600b018054806131ce576131cd615e39565b5b600190038181906000526020600020016000905590555050565b60008060056000858152602001908152602001600020905060008160080180549050905060005b818110156132a6573373ffffffffffffffffffffffffffffffffffffffff16836008018281548110613244576132436159a3565b5b9060005260206000200160009054906101000a900473ffffffffffffffffffffffffffffffffffffffff1673ffffffffffffffffffffffffffffffffffffffff160361329357600193506132a6565b808061329e90615a57565b91505061320f565b5082156132ff5783156132fa57816009018490806001815401808255809150506001900390600052602060002090602091828204019190069091909190916101000a81548160ff0219169083151502179055505b61333a565b6040517f08c379a000000000000000000000000000000000000000000000000000000000815260040161333190615eda565b60405180910390fd5b5050505050565b6000600560008481526020019081526020016000209050818160030160146101000a81548160ff0219169083600481111561337f5761337e61487c565b5b0217905550505050565b858073ffffffffffffffffffffffffffffffffffffffff163373ffffffffffffffffffffffffffffffffffffffff16146133f8576040517f08c379a00000000000000000000000000000000000000000000000000000000081526004016133ef906158b7565b60405180910390fd5b6002866134059190615f29565b8773ffffffffffffffffffffffffffffffffffffffff1631101561345e576040517f08c379a000000000000000000000000000000000000000000000000000000000815260040161345590615fcc565b60405180910390fd5b600060056000600654815260200190815260200160002090508581600001908051906020019061348f929190614146565b50848160010190805190602001906134a8929190614146565b5086816002018190555060008160030160146101000a81548160ff021916908360048111156134da576134d961487c565b5b0217905550428160040181905550838160050181905550878160030160006101000a81548173ffffffffffffffffffffffffffffffffffffffff021916908373ffffffffffffffffffffffffffffffffffffffff16021790555060065481600701819055508281600601819055506000613552612c9c565b90506000815190506000600a821061356b57600a61356d565b815b91505b81811015613782576000803373ffffffffffffffffffffffffffffffffffffffff1673ffffffffffffffffffffffffffffffffffffffff16815260200190815260200160002060060160009054906101000a900473ffffffffffffffffffffffffffffffffffffffff1673ffffffffffffffffffffffffffffffffffffffff1683600183856135ff9190615e05565b6136099190615e05565b8151811061361a576136196159a3565b5b602002602001015173ffffffffffffffffffffffffffffffffffffffff161461377d578360080183600183856136509190615e05565b61365a9190615e05565b8151811061366b5761366a6159a3565b5b60200260200101519080600181540180825580915050600190039060005260206000200160009091909190916101000a81548173ffffffffffffffffffffffffffffffffffffffff021916908373ffffffffffffffffffffffffffffffffffffffff16021790555060008084600184866136e59190615e05565b6136ef9190615e05565b81518110613700576136ff6159a3565b5b602002602001015173ffffffffffffffffffffffffffffffffffffffff1673ffffffffffffffffffffffffffffffffffffffff1681526020019081526020016000206009016006549080600181540180825580915050600190039060005260206000200160009091909190915055808061377990615a57565b9150505b613570565b6000808c73ffffffffffffffffffffffffffffffffffffffff1673ffffffffffffffffffffffffffffffffffffffff1681526020019081526020016000206007016006549080600181540180825580915050600190039060005260206000200160009091909190915055600660008154809291906137ff90615a57565b91905055505050505050505050505050565b86868173ffffffffffffffffffffffffffffffffffffffff166005600083815260200190815260200160002060030160009054906101000a900473ffffffffffffffffffffffffffffffffffffffff1673ffffffffffffffffffffffffffffffffffffffff16146138b7576040517f08c379a00000000000000000000000000000000000000000000000000000000081526004016138ae90615d79565b60405180910390fd5b60008060008b73ffffffffffffffffffffffffffffffffffffffff1673ffffffffffffffffffffffffffffffffffffffff168152602001908152602001600020600701805490501161393e576040517f08c379a000000000000000000000000000000000000000000000000000000000815260040161393590615b57565b60405180910390fd5b6000600560008a81526020019081526020016000206002015411613997576040517f08c379a000000000000000000000000000000000000000000000000000000000815260040161398e90615ce7565b60405180910390fd5b600060048111156139ab576139aa61487c565b5b600560008a815260200190815260200160002060030160149054906101000a900460ff1660048111156139e1576139e061487c565b5b1480613a345750600360048111156139fc576139fb61487c565b5b600560008a815260200190815260200160002060030160149054906101000a900460ff166004811115613a3257613a3161487c565b5b145b613a73576040517f08c379a0000000000000000000000000000000000000000000000000000000008152600401613a6a90616038565b60405180910390fd5b6000600560008a8152602001908152602001600020905087816002018190555086816000019080519060200190613aab929190614146565b5085816001019080519060200190613ac4929190614146565b5084816005018190555083816006018190555050505050505050505050565b60018181548110613af357600080fd5b906000526020600020016000915054906101000a900473ffffffffffffffffffffffffffffffffffffffff1681565b6000806000905060008351905060005b81811015613b7c57848181518110613b4d57613b4c6159a3565b5b602002602001015115613b69578280613b6590615a57565b9350505b8080613b7490615a57565b915050613b32565b50600281613b8a9190615f29565b821115613b9c57600192505050613ba3565b6000925050505b919050565b600060056000838152602001908152602001600020600601549050919050565b808073ffffffffffffffffffffffffffffffffffffffff163373ffffffffffffffffffffffffffffffffffffffff1614613c37576040517f08c379a0000000000000000000000000000000000000000000000000000000008152600401613c2e906158b7565b60405180910390fd5b81600073ffffffffffffffffffffffffffffffffffffffff166000808373ffffffffffffffffffffffffffffffffffffffff1673ffffffffffffffffffffffffffffffffffffffff16815260200190815260200160002060060160009054906101000a900473ffffffffffffffffffffffffffffffffffffffff1673ffffffffffffffffffffffffffffffffffffffff1603613d08576040517f08c379a0000000000000000000000000000000000000000000000000000000008152600401613cff90615923565b60405180910390fd5b6000808473ffffffffffffffffffffffffffffffffffffffff1673ffffffffffffffffffffffffffffffffffffffff16815260200190815260200160002060008082016000613d5791906142b0565b600182016000613d6791906142b0565b600282016000613d7791906142b0565b600382016000613d8791906142b0565b600482016000905560058201600090556006820160006101000a81549073ffffffffffffffffffffffffffffffffffffffff0219169055600782016000613dce9190614339565b6008820160009055600982016000613de69190614339565b600a820160006101000a81549060ff0219169055505060005b600180549050811015613f86573373ffffffffffffffffffffffffffffffffffffffff1660018281548110613e3757613e366159a3565b5b9060005260206000200160009054906101000a900473ffffffffffffffffffffffffffffffffffffffff1673ffffffffffffffffffffffffffffffffffffffff1603613f73576001808080549050613e8f9190615e05565b81548110613ea057613e9f6159a3565b5b9060005260206000200160009054906101000a900473ffffffffffffffffffffffffffffffffffffffff1660018281548110613edf57613ede6159a3565b5b9060005260206000200160006101000a81548173ffffffffffffffffffffffffffffffffffffffff021916908373ffffffffffffffffffffffffffffffffffffffff1602179055506001805480613f3957613f38615e39565b5b6001900381819060005260206000200160006101000a81549073ffffffffffffffffffffffffffffffffffffffff02191690559055613f86565b8080613f7e90615a57565b915050613dff565b50505050565b60056000838152602001908152602001600020600b018190806001815401808255809150506001900390600052602060002001600090919091909150555050565b600260009054906101000a900473ffffffffffffffffffffffffffffffffffffffff1681565b6060818073ffffffffffffffffffffffffffffffffffffffff163373ffffffffffffffffffffffffffffffffffffffff1614614064576040517f08c379a000000000000000000000000000000000000000000000000000000000815260040161405b906158b7565b60405180910390fd5b6000808473ffffffffffffffffffffffffffffffffffffffff1673ffffffffffffffffffffffffffffffffffffffff1681526020019081526020016000206009018054806020026020016040519081016040528092919081815260200182805480156140ef57602002820191906000526020600020905b8154815260200190600101908083116140db575b5050505050915050919050565b806000808473ffffffffffffffffffffffffffffffffffffffff1673ffffffffffffffffffffffffffffffffffffffff168152602001908152602001600020600401819055505050565b82805461415290615972565b90600052602060002090601f01602090048101928261417457600085556141bb565b82601f1061418d57805160ff19168380011785556141bb565b828001600101855582156141bb579182015b828111156141ba57825182559160200191906001019061419f565b5b5090506141c8919061435a565b5090565b828054828255906000526020600020908101928215614208579160200282015b828111156142075782518255916020019190600101906141ec565b5b509050614215919061435a565b5090565b604051806101c00160405280606081526020016060815260200160008152602001600073ffffffffffffffffffffffffffffffffffffffff1681526020016000600481111561426b5761426a61487c565b5b81526020016000815260200160008152602001600081526020016000815260200160608152602001606081526020016060815260200160608152602001600081525090565b5080546142bc90615972565b6000825580601f106142ce57506142ed565b601f0160209004906000526020600020908101906142ec919061435a565b5b50565b508054600082559060005260206000209081019061430e919061435a565b50565b50805460008255601f016020900490600052602060002090810190614336919061435a565b50565b5080546000825590600052602060002090810190614357919061435a565b50565b5b8082111561437357600081600090555060010161435b565b5090565b6000604051905090565b600080fd5b600080fd5b600073ffffffffffffffffffffffffffffffffffffffff82169050919050565b60006143b68261438b565b9050919050565b6143c6816143ab565b81146143d157600080fd5b50565b6000813590506143e3816143bd565b92915050565b6000602082840312156143ff576143fe614381565b5b600061440d848285016143d4565b91505092915050565b600081519050919050565b600082825260208201905092915050565b60005b83811015614450578082015181840152602081019050614435565b8381111561445f576000848401525b50505050565b6000601f19601f8301169050919050565b600061448182614416565b61448b8185614421565b935061449b818560208601614432565b6144a481614465565b840191505092915050565b6144b8816143ab565b82525050565b6000819050919050565b6144d1816144be565b82525050565b600060c08201905081810360008301526144f18189614476565b905081810360208301526145058188614476565b905081810360408301526145198187614476565b905061452860608301866144af565b61453560808301856144c8565b81810360a08301526145478184614476565b9050979650505050505050565b61455d816144be565b811461456857600080fd5b50565b60008135905061457a81614554565b92915050565b60006020828403121561459657614595614381565b5b60006145a48482850161456b565b91505092915050565b60006020820190506145c260008301846144c8565b92915050565b600080fd5b600080fd5b7f4e487b7100000000000000000000000000000000000000000000000000000000600052604160045260246000fd5b61460a82614465565b810181811067ffffffffffffffff82111715614629576146286145d2565b5b80604052505050565b600061463c614377565b90506146488282614601565b919050565b600067ffffffffffffffff821115614668576146676145d2565b5b61467182614465565b9050602081019050919050565b82818337600083830152505050565b60006146a061469b8461464d565b614632565b9050828152602081018484840111156146bc576146bb6145cd565b5b6146c784828561467e565b509392505050565b600082601f8301126146e4576146e36145c8565b5b81356146f484826020860161468d565b91505092915050565b600080600080600060a0868803121561471957614718614381565b5b600086013567ffffffffffffffff81111561473757614736614386565b5b614743888289016146cf565b955050602086013567ffffffffffffffff81111561476457614763614386565b5b614770888289016146cf565b945050604086013567ffffffffffffffff81111561479157614790614386565b5b61479d888289016146cf565b935050606086013567ffffffffffffffff8111156147be576147bd614386565b5b6147ca888289016146cf565b92505060806147db888289016143d4565b9150509295509295909350565b600081519050919050565b600082825260208201905092915050565b6000819050602082019050919050565b600082825260208201905092915050565b600061483082614416565b61483a8185614814565b935061484a818560208601614432565b61485381614465565b840191505092915050565b614867816144be565b82525050565b614876816143ab565b82525050565b7f4e487b7100000000000000000000000000000000000000000000000000000000600052602160045260246000fd5b600581106148bc576148bb61487c565b5b50565b60008190506148cd826148ab565b919050565b60006148dd826148bf565b9050919050565b6148ed816148d2565b82525050565b600081519050919050565b600082825260208201905092915050565b6000819050602082019050919050565b600061492b838361486d565b60208301905092915050565b6000602082019050919050565b600061494f826148f3565b61495981856148fe565b93506149648361490f565b8060005b8381101561499557815161497c888261491f565b975061498783614937565b925050600181019050614968565b5085935050505092915050565b600081519050919050565b600082825260208201905092915050565b6000819050602082019050919050565b60008115159050919050565b6149e3816149ce565b82525050565b60006149f583836149da565b60208301905092915050565b6000602082019050919050565b6000614a19826149a2565b614a2381856149ad565b9350614a2e836149be565b8060005b83811015614a5f578151614a4688826149e9565b9750614a5183614a01565b925050600181019050614a32565b5085935050505092915050565b600081519050919050565b600082825260208201905092915050565b6000819050602082019050919050565b6000614aa4838361485e565b60208301905092915050565b6000602082019050919050565b6000614ac882614a6c565b614ad28185614a77565b9350614add83614a88565b8060005b83811015614b0e578151614af58882614a98565b9750614b0083614ab0565b925050600181019050614ae1565b5085935050505092915050565b60006101c0830160008301518482036000860152614b398282614825565b91505060208301518482036020860152614b538282614825565b9150506040830151614b68604086018261485e565b506060830151614b7b606086018261486d565b506080830151614b8e60808601826148e4565b5060a0830151614ba160a086018261485e565b5060c0830151614bb460c086018261485e565b5060e0830151614bc760e086018261485e565b50610100830151614bdc61010086018261485e565b50610120830151848203610120860152614bf68282614944565b915050610140830151848203610140860152614c128282614a0e565b915050610160830151848203610160860152614c2e8282614abd565b915050610180830151848203610180860152614c4a8282614abd565b9150506101a0830151614c616101a086018261485e565b508091505092915050565b6000614c788383614b1b565b905092915050565b6000602082019050919050565b6000614c98826147e8565b614ca281856147f3565b935083602082028501614cb485614804565b8060005b85811015614cf05784840389528151614cd18582614c6c565b9450614cdc83614c80565b925060208a01995050600181019050614cb8565b50829750879550505050505092915050565b60006020820190508181036000830152614d1c8184614c8d565b905092915050565b6000819050919050565b6000614d49614d44614d3f8461438b565b614d24565b61438b565b9050919050565b6000614d5b82614d2e565b9050919050565b6000614d6d82614d50565b9050919050565b614d7d81614d62565b82525050565b6000602082019050614d986000830184614d74565b92915050565b614da7816148d2565b82525050565b6000602082019050614dc26000830184614d9e565b92915050565b600060ff82169050919050565b614dde81614dc8565b8114614de957600080fd5b50565b600081359050614dfb81614dd5565b92915050565b600080600060608486031215614e1a57614e19614381565b5b6000614e28868287016143d4565b9350506020614e39868287016143d4565b9250506040614e4a86828701614dec565b9150509250925092565b60006040820190508181036000830152614e6e8185614c8d565b9050614e7d60208301846144c8565b9392505050565b600082825260208201905092915050565b6000614ea082614a6c565b614eaa8185614e84565b9350614eb583614a88565b8060005b83811015614ee6578151614ecd8882614a98565b9750614ed883614ab0565b925050600181019050614eb9565b5085935050505092915050565b60006020820190508181036000830152614f0d8184614e95565b905092915050565b6000610140820190508181036000830152614f30818d614476565b90508181036020830152614f44818c614476565b9050614f53604083018b6144c8565b614f60606083018a6144af565b614f6d6080830189614d9e565b614f7a60a08301886144c8565b614f8760c08301876144c8565b614f9460e08301866144c8565b614fa26101008301856144c8565b614fb06101208301846144c8565b9b9a5050505050505050505050565b600082825260208201905092915050565b6000614fdb826148f3565b614fe58185614fbf565b9350614ff08361490f565b8060005b83811015615021578151615008888261491f565b975061501383614937565b925050600181019050614ff4565b5085935050505092915050565b600060208201905081810360008301526150488184614fd0565b905092915050565b61505981614dc8565b82525050565b600061012082019050818103600083015261507a818c614476565b9050818103602083015261508e818b614476565b905081810360408301526150a2818a614476565b905081810360608301526150b68189614476565b90506150c560808301886144c8565b6150d260a08301876144c8565b6150df60c08301866144af565b6150ec60e08301856144c8565b6150fa610100830184615050565b9a9950505050505050505050565b60006101c08301600083015184820360008601526151268282614825565b915050602083015184820360208601526151408282614825565b9150506040830151615155604086018261485e565b506060830151615168606086018261486d565b50608083015161517b60808601826148e4565b5060a083015161518e60a086018261485e565b5060c08301516151a160c086018261485e565b5060e08301516151b460e086018261485e565b506101008301516151c961010086018261485e565b506101208301518482036101208601526151e38282614944565b9150506101408301518482036101408601526151ff8282614a0e565b91505061016083015184820361016086015261521b8282614abd565b9150506101808301518482036101808601526152378282614abd565b9150506101a083015161524e6101a086018261485e565b508091505092915050565b600060208201905081810360008301526152738184615108565b905092915050565b6000806040838503121561529257615291614381565b5b60006152a0858286016143d4565b92505060206152b18582860161456b565b9150509250929050565b6000806000606084860312156152d4576152d3614381565b5b600084013567ffffffffffffffff8111156152f2576152f1614386565b5b6152fe868287016146cf565b935050602084013567ffffffffffffffff81111561531f5761531e614386565b5b61532b868287016146cf565b925050604061533c868287016143d4565b9150509250925092565b600060208201905061535b60008301846144af565b92915050565b600067ffffffffffffffff82111561537c5761537b6145d2565b5b602082029050602081019050919050565b600080fd5b60006153a56153a084615361565b614632565b905080838252602082019050602084028301858111156153c8576153c761538d565b5b835b818110156153f157806153dd888261456b565b8452602084019350506020810190506153ca565b5050509392505050565b600082601f8301126154105761540f6145c8565b5b8135615420848260208601615392565b91505092915050565b600080604083850312156154405761543f614381565b5b600083013567ffffffffffffffff81111561545e5761545d614386565b5b61546a858286016153fb565b925050602061547b8582860161456b565b9150509250929050565b61548e816149ce565b811461549957600080fd5b50565b6000813590506154ab81615485565b92915050565b600080604083850312156154c8576154c7614381565b5b60006154d68582860161456b565b92505060206154e78582860161549c565b9150509250929050565b600581106154fe57600080fd5b50565b600081359050615510816154f1565b92915050565b6000806040838503121561552d5761552c614381565b5b600061553b8582860161456b565b925050602061554c85828601615501565b9150509250929050565b60008060008060008060c0878903121561557357615572614381565b5b600061558189828a016143d4565b965050602061559289828a0161456b565b955050604087013567ffffffffffffffff8111156155b3576155b2614386565b5b6155bf89828a016146cf565b945050606087013567ffffffffffffffff8111156155e0576155df614386565b5b6155ec89828a016146cf565b93505060806155fd89828a0161456b565b92505060a061560e89828a0161456b565b9150509295509295509295565b600080600080600080600060e0888a03121561563a57615639614381565b5b60006156488a828b016143d4565b97505060206156598a828b0161456b565b965050604061566a8a828b0161456b565b955050606088013567ffffffffffffffff81111561568b5761568a614386565b5b6156978a828b016146cf565b945050608088013567ffffffffffffffff8111156156b8576156b7614386565b5b6156c48a828b016146cf565b93505060a06156d58a828b0161456b565b92505060c06156e68a828b0161456b565b91505092959891949750929550565b600067ffffffffffffffff8211156157105761570f6145d2565b5b602082029050602081019050919050565b600061573461572f846156f5565b614632565b905080838252602082019050602084028301858111156157575761575661538d565b5b835b81811015615780578061576c888261549c565b845260208401935050602081019050615759565b5050509392505050565b600082601f83011261579f5761579e6145c8565b5b81356157af848260208601615721565b91505092915050565b6000602082840312156157ce576157cd614381565b5b600082013567ffffffffffffffff8111156157ec576157eb614386565b5b6157f88482850161578a565b91505092915050565b61580a816149ce565b82525050565b60006020820190506158256000830184615801565b92915050565b6000806040838503121561584257615841614381565b5b60006158508582860161456b565b92505060206158618582860161456b565b9150509250929050565b7f43616c6c6572206973206e6f74206f776e657200000000000000000000000000600082015250565b60006158a1601383614421565b91506158ac8261586b565b602082019050919050565b600060208201905081810360008301526158d081615894565b9050919050565b7f506172747920646f6573206e6f74206578697374000000000000000000000000600082015250565b600061590d601483614421565b9150615918826158d7565b602082019050919050565b6000602082019050818103600083015261593c81615900565b9050919050565b7f4e487b7100000000000000000000000000000000000000000000000000000000600052602260045260246000fd5b6000600282049050600182168061598a57607f821691505b60208210810361599d5761599c615943565b5b50919050565b7f4e487b7100000000000000000000000000000000000000000000000000000000600052603260045260246000fd5b7f4e487b7100000000000000000000000000000000000000000000000000000000600052601160045260246000fd5b6000615a0c826144be565b9150615a17836144be565b9250827fffffffffffffffffffffffffffffffffffffffffffffffffffffffffffffffff03821115615a4c57615a4b6159d2565b5b828201905092915050565b6000615a62826144be565b91507fffffffffffffffffffffffffffffffffffffffffffffffffffffffffffffffff8203615a9457615a936159d2565b5b600182019050919050565b7f506172747920616c726561647920657869737473000000000000000000000000600082015250565b6000615ad5601483614421565b9150615ae082615a9f565b602082019050919050565b60006020820190508181036000830152615b0481615ac8565b9050919050565b7f4e6f2074656e6465727320657869737473000000000000000000000000000000600082015250565b6000615b41601183614421565b9150615b4c82615b0b565b602082019050919050565b60006020820190508181036000830152615b7081615b34565b9050919050565b7f43616c6c6572206973206e6f74206120676f7665726e6d656e7420616464726560008201527f7373000000000000000000000000000000000000000000000000000000000000602082015250565b6000615bd3602283614421565b9150615bde82615b77565b604082019050919050565b60006020820190508181036000830152615c0281615bc6565b9050919050565b7f5573657220646f6573206e6f7420657869737400000000000000000000000000600082015250565b6000615c3f601383614421565b9150615c4a82615c09565b602082019050919050565b60006020820190508181036000830152615c6e81615c32565b9050919050565b7f74656e6465722077697468206164647265737320646f65736e2774206578697360008201527f7473000000000000000000000000000000000000000000000000000000000000602082015250565b6000615cd1602283614421565b9150615cdc82615c75565b604082019050919050565b60006020820190508181036000830152615d0081615cc4565b9050919050565b7f796f75277265206e6f7420617574686f72697a656420746f20706572666f726d60008201527f207468697320616374696f6e0000000000000000000000000000000000000000602082015250565b6000615d63602c83614421565b9150615d6e82615d07565b604082019050919050565b60006020820190508181036000830152615d9281615d56565b9050919050565b7f74656e6465722063616e6e6f742062652064656c657465640000000000000000600082015250565b6000615dcf601883614421565b9150615dda82615d99565b602082019050919050565b60006020820190508181036000830152615dfe81615dc2565b9050919050565b6000615e10826144be565b9150615e1b836144be565b925082821015615e2e57615e2d6159d2565b5b828203905092915050565b7f4e487b7100000000000000000000000000000000000000000000000000000000600052603160045260246000fd5b7f596f75277265206e6f7420617574686f72697a656420746f2076616c6964617460008201527f6520746869732074656e6465722e000000000000000000000000000000000000602082015250565b6000615ec4602e83614421565b9150615ecf82615e68565b604082019050919050565b60006020820190508181036000830152615ef381615eb7565b9050919050565b7f4e487b7100000000000000000000000000000000000000000000000000000000600052601260045260246000fd5b6000615f34826144be565b9150615f3f836144be565b925082615f4f57615f4e615efa565b5b828204905092915050565b7f696e73756666696369656e742066756e647320746f206372656174652061207460008201527f656e646572000000000000000000000000000000000000000000000000000000602082015250565b6000615fb6602583614421565b9150615fc182615f5a565b604082019050919050565b60006020820190508181036000830152615fe581615fa9565b9050919050565b7f74656e6465722063616e6e6f7420626520757064617465640000000000000000600082015250565b6000616022601883614421565b915061602d82615fec565b602082019050919050565b6000602082019050818103600083015261605181616015565b905091905056fea26469706673582212201da4e23b4e23f16db03771edfd2085afed108de7d6e7321fb1783ce489bb41b264736f6c634300080d0033",
  "immutableReferences": {},
  "source": "// SPDX-License-Identifier: UNLICENSED\r\n\r\n//the version of solidity that is compatible\r\nimport \"./PartyContract.sol\";\r\nenum TenderStatus{ NEW, OPEN, CLOSED, SUSPENDED, ASSIGNED } //created---OPEN, deadline crosses---CLOSED, project is assigned ---- ASSIGNED\r\nimport \"./Token.sol\";\r\n\r\npragma solidity ^0.8.0;\r\ncontract TenderContract is PartyContract {\r\n    // Tender Structure\r\n    struct Tender {\r\n        string title;\r\n        string description;\r\n        uint256 budget;\r\n        address issuerAddress;\r\n        TenderStatus tenderStatus; \r\n        uint256 createdAt;\r\n        uint256 deadline;\r\n        uint256 totalMilestones;\r\n        uint256 tenderId;\r\n        address[] validatorsAddresses;\r\n        bool[] validationVotes;\r\n        uint256[] milestoneTimePeriods;\r\n        uint256[] bidIds;\r\n        uint256 balance;\r\n    }\r\n\r\n    // Token public tokenRef;\r\n\r\n    constructor() PartyContract(){\r\n        // tokenRef = _tokenRef;\r\n    }\r\n\r\n    mapping (uint256 => Tender) public tenders;\r\n    uint256 tenderCount = 0;\r\n\r\n    //setters and getter functions\r\n    function getTenderCount() public view returns(uint256){\r\n        return tenderCount;\r\n    }\r\n    \r\n    function getValidators(uint256 _tenderId) public view returns(address[] memory) {\r\n        return tenders[_tenderId].validatorsAddresses;\r\n    }\r\n    \r\n    function getTotalProjectDays(uint256 _tenderId) public view returns(uint256) {\r\n        uint256 sum = 0;\r\n        uint256[] memory milestoneTimePeriods = tenders[_tenderId].milestoneTimePeriods;\r\n        uint256 len = milestoneTimePeriods.length;\r\n        for(uint256 i=0; i < len; i++) {\r\n            sum += milestoneTimePeriods[i];\r\n        }\r\n        return sum;\r\n    }\r\n\r\n    function getBudget(uint256 _tenderId) public view returns(uint256){\r\n        return tenders[_tenderId].budget;\r\n    }\r\n\r\n    function getTenderStatus(uint256 _tenderId) public view returns(TenderStatus){\r\n        return tenders[_tenderId].tenderStatus;\r\n    }\r\n\r\n    function getDeadline(uint256 _tenderId) public view returns(uint256){\r\n            return tenders[_tenderId].deadline;\r\n    }\r\n\r\n    function getBidIds(uint256 _tenderId) public view returns(uint256[] memory){\r\n        return tenders[_tenderId].bidIds;\r\n    }\r\n\r\n    function getIssuerAddress(uint256 _tenderId) public view returns(address){\r\n        return tenders[_tenderId].issuerAddress;\r\n    }\r\n\r\n    function getTotalMilestones(uint256 _tenderId) public view returns(uint256){\r\n            return tenders[_tenderId].totalMilestones;\r\n    }\r\n\r\n    function getBidsCount(uint256 _tenderId) public view returns(uint256){\r\n            return tenders[_tenderId].bidIds.length;\r\n    }\r\n\r\n    function addBidId(uint256 _tenderId, uint256 bidId) public {\r\n        tenders[_tenderId].bidIds.push(bidId);\r\n    }\r\n\r\n    function setBidIds(uint256[] memory _tenderBidIds, uint256 _tenderId) public{\r\n        tenders[_tenderId].bidIds = _tenderBidIds;\r\n        tenders[_tenderId].bidIds.pop();\r\n    }\r\n\r\n    // Function for creating a tender\r\n    function createTender(address _partyAddress, uint256 _budget, string memory _title, string memory _description, uint256 _deadline, uint256 _totalMilestones) isOwner(_partyAddress) public {\r\n        require(_partyAddress.balance >= _budget/2, \"insufficient funds to create a tender\");\r\n        Tender storage newTender = tenders[tenderCount];\r\n        newTender.title = _title;\r\n        newTender.description = _description;\r\n        newTender.budget = _budget;\r\n        newTender.tenderStatus = TenderStatus.NEW;\r\n        newTender.createdAt = block.timestamp;\r\n        newTender.deadline = _deadline;\r\n        newTender.issuerAddress = _partyAddress;\r\n        newTender.tenderId = tenderCount;\r\n        newTender.totalMilestones = _totalMilestones;\r\n        //Sort all the parties by their trust scores\r\n        address[] memory sortedlist = sortByTrustScore();\r\n        uint len = sortedlist.length;\r\n        uint count = 0;\r\n        //If there are less than 10 parties then set number to parties to len\r\n        len = (len < 10)?len:10;\r\n        //Add the validator addresses to validatorsAddresses array, also add tenderId to tenderIdsToValidate array\r\n        while(count < len)\r\n        {\r\n            if(sortedlist[len-count-1] != parties[msg.sender].partyAddress)\r\n            {\r\n            newTender.validatorsAddresses.push(sortedlist[len-count-1]);\r\n            parties[sortedlist[len-count-1]].tenderIdsToValidate.push(tenderCount);\r\n            count ++;\r\n            }\r\n        }\r\n        parties[_partyAddress].tenderIds.push(tenderCount);\r\n        tenderCount++;\r\n    }\r\n\r\n    //Function to sort all the parties by their trust score\r\n    function sortByTrustScore() public view returns(address[] memory) {\r\n    address[] memory _party = partyAddresses;\r\n    for (uint i = 1; i < partyAddresses.length; i++)\r\n        for (uint j = 0; j < i; j++)\r\n            if (parties[_party[i]].trustScore < parties[_party[j]].trustScore) {\r\n                address x = _party[i];\r\n                _party[i] = _party[j];\r\n                _party[j] = x;\r\n            }\r\n\r\n    return _party;\r\n    }\r\n    \r\n    //Function using which validators can validate tenders\r\n    function validate(uint256 _tenderId, bool _vote) public {\r\n        bool valid = false;\r\n        Tender storage newTender = tenders[_tenderId];\r\n        uint len = newTender.validatorsAddresses.length;\r\n        for(uint i=0; i<len; i++)\r\n        {\r\n            if(newTender.validatorsAddresses[i] == msg.sender)\r\n            {\r\n                valid = true;\r\n                break;\r\n            }\r\n        }\r\n        if(valid)\r\n        {\r\n            if(_vote) {\r\n                newTender.validationVotes.push(_vote); // adds vote only if transaction is successful\r\n                \r\n            }\r\n        }\r\n        else\r\n        {\r\n            revert(\"You're not authorized to validate this tender.\");\r\n        }\r\n    }\r\n    \r\n    //Check if the tender is ongoing\r\n    function checkTenderValidation(uint256 _tenderId) public {\r\n        Tender storage newTender = tenders[_tenderId];\r\n        if(isValid(newTender.validationVotes)) {\r\n            updateTenderStatus(_tenderId, TenderStatus.OPEN);\r\n        }\r\n    }\r\n    \r\n    //Check if a tender is valid or not i.e., it got minimum 6 positive votes\r\n    function isValid(bool[] memory _validationVotes) public pure returns (bool) {\r\n        uint voteCount = 0;\r\n        uint256 totalValidators = _validationVotes.length;\r\n        for(uint i=0; i<totalValidators; i++)\r\n        {\r\n            if(_validationVotes[i])\r\n            {\r\n                voteCount++;\r\n            }\r\n        }\r\n\r\n        if(voteCount > (totalValidators/2))\r\n        {\r\n            return true;\r\n        }\r\n        return false;\r\n    }\r\n\r\n    function getTendersToValidate(address _partyAddress) public isOwner(_partyAddress) view returns(uint256[] memory){\r\n        return(parties[_partyAddress].tenderIdsToValidate);\r\n    }\r\n\r\n    function getAllActiveTenders() public view returns (Tender[] memory, uint256){\r\n        require(tenderCount > 0, \"No tenders exists\");\r\n        uint256 count=0;\r\n        Tender[] memory tendersList = new Tender[](tenderCount);\r\n        for (uint256 i = 0; i < tenderCount; i++) {\r\n            if(tenders[i].tenderStatus == TenderStatus.OPEN){\r\n                 tendersList[i] = tenders[i];\r\n                 count++;\r\n            }\r\n        }\r\n        return(tendersList, count);\r\n    }\r\n\r\n    function getMyTenders(address _partyAddress) public view returns ( Tender[] memory){\r\n        require(parties[_partyAddress].tenderIds.length > 0, \"No tenders exists\");\r\n        uint256[] memory partyTenderIds = parties[_partyAddress].tenderIds;\r\n        Tender[] memory tendersList = new Tender[](partyTenderIds.length);\r\n        for (uint256 i = 0; i < partyTenderIds.length; i++) {\r\n            tendersList[i] = tenders[partyTenderIds[i]];\r\n        }\r\n        return(tendersList);\r\n    }\r\n\r\n    function getTenderDetails(uint256 _tenderId) public view returns ( Tender memory){\r\n        require(tenders[_tenderId].budget > 0 , \"tender with address doesn't exists\");\r\n        return(tenders[_tenderId]);\r\n    }\r\n\r\n    function updateTenderStatus(uint256 _tenderId, TenderStatus _tenderStatus) public {\r\n        Tender storage updatedTender = tenders[_tenderId];\r\n        updatedTender.tenderStatus = _tenderStatus;\r\n    }\r\n\r\n    function updateTender(address _partyAddress, uint256 _tenderId, uint256 _budget, string memory _title, string memory _description, uint256 _deadline, uint256 _totalMilestones) public isTenderOwner(_partyAddress, _tenderId){\r\n        require(parties[_partyAddress].tenderIds.length > 0, \"No tenders exists\");\r\n        require(tenders[_tenderId].budget > 0 , \"tender with address doesn't exists\");\r\n        require(tenders[_tenderId].tenderStatus == TenderStatus.NEW ||\r\n                tenders[_tenderId].tenderStatus == TenderStatus.SUSPENDED , \"tender cannot be updated\");\r\n        Tender storage updatedTender = tenders[_tenderId];\r\n        updatedTender.budget = _budget;\r\n        updatedTender.title = _title;\r\n        updatedTender.description = _description;\r\n        updatedTender.deadline = _deadline;\r\n        updatedTender.totalMilestones = _totalMilestones;\r\n    }\r\n\r\n    function deleteTender(address _partyAddress, uint256 _tenderId) public isTenderOwner(_partyAddress, _tenderId){ \r\n        require(parties[_partyAddress].tenderIds.length > 0, \"No tenders exists\");\r\n        require(tenders[_tenderId].budget > 0 , \"tender with address doesn't exists\");\r\n        require(tenders[_tenderId].tenderStatus == TenderStatus.NEW , \"tender cannot be deleted\");\r\n        uint256[] storage _tenderIds = parties[_partyAddress].tenderIds;\r\n        for (uint i = 0; i < _tenderIds.length; i++){\r\n            if(_tenderIds[i] == _tenderId){\r\n                delete tenders[_tenderId];\r\n                _tenderIds[i] = _tenderIds[_tenderIds.length - 1];\r\n                _tenderIds.pop();\r\n                break;\r\n            }\r\n        }\r\n    }\r\n\r\n    // @todo - add modifer for above functions\r\n\r\n    modifier isTenderOwner(address _partyAddress, uint256 _tenderId) {\r\n        require(tenders[_tenderId].issuerAddress == _partyAddress, \"you're not authorized to perform this action\");\r\n        _;\r\n    }\r\n\r\n    \r\n}\r\n",
  "sourcePath": "D:\\major-prj\\blockchain-based-contracting-system\\contracts\\TenderContract.sol",
  "compiler": {
    "name": "solc",
    "version": "0.8.13+commit.abaa5c0e.Emscripten.clang"
  },
  "schemaVersion": "3.4.16",
  "updatedAt": "2024-01-22T07:14:44.026Z",
  "devdoc": {
    "kind": "dev",
    "methods": {},
    "version": 1
  },
  "userdoc": {
    "kind": "user",
    "methods": {},
    "version": 1
  }
}